                                      1 ;--------------------------------------------------------
                                      2 ; File Created by SDCC : free open source ANSI-C Compiler
                                      3 ; Version 3.6.0 #9615 (MINGW64)
                                      4 ;--------------------------------------------------------
                                      5 	.module main
                                      6 	.optsdcc -mmcs51 --model-small
                                      7 	
                                      8 ;--------------------------------------------------------
                                      9 ; Public variables in this module
                                     10 ;--------------------------------------------------------
                                     11 	.globl _main
                                     12 	.globl __sdcc_external_startup
                                     13 	.globl _UBLOX_GPS_PortInit
                                     14 	.globl _GOLDSEQUENCE_Init
                                     15 	.globl _UBLOX_GPS_SendCommand_WaitACK
                                     16 	.globl _dbglink_display_radio_error
                                     17 	.globl _com0_display_radio_error
                                     18 	.globl _delay_ms
                                     19 	.globl _dbglink_received_packet
                                     20 	.globl _com0_clear
                                     21 	.globl _com0_writestr
                                     22 	.globl _com0_setpos
                                     23 	.globl _com0_init
                                     24 	.globl _uart0_writehex16
                                     25 	.globl _uart0_writenum16
                                     26 	.globl _uart0_init
                                     27 	.globl _uart0_txidle
                                     28 	.globl _uart_timer1_baud
                                     29 	.globl _dbglink_writehex16
                                     30 	.globl _dbglink_writenum16
                                     31 	.globl _dbglink_writestr
                                     32 	.globl _dbglink_tx
                                     33 	.globl _dbglink_init
                                     34 	.globl _dbglink_txidle
                                     35 	.globl _wtimer_runcallbacks
                                     36 	.globl _wtimer_idle
                                     37 	.globl _wtimer_init
                                     38 	.globl _wtimer1_setconfig
                                     39 	.globl _wtimer0_setconfig
                                     40 	.globl _flash_apply_calibration
                                     41 	.globl _axradio_commsleepexit
                                     42 	.globl _axradio_setup_pincfg2
                                     43 	.globl _axradio_setup_pincfg1
                                     44 	.globl _axradio_get_freqoffset
                                     45 	.globl _axradio_set_freqoffset
                                     46 	.globl _axradio_transmit
                                     47 	.globl _axradio_set_default_remote_address
                                     48 	.globl _axradio_set_local_address
                                     49 	.globl _axradio_get_pllvcoi
                                     50 	.globl _axradio_get_pllrange
                                     51 	.globl _axradio_set_mode
                                     52 	.globl _axradio_cansleep
                                     53 	.globl _axradio_init
                                     54 	.globl _PORTC_7
                                     55 	.globl _PORTC_6
                                     56 	.globl _PORTC_5
                                     57 	.globl _PORTC_4
                                     58 	.globl _PORTC_3
                                     59 	.globl _PORTC_2
                                     60 	.globl _PORTC_1
                                     61 	.globl _PORTC_0
                                     62 	.globl _PORTB_7
                                     63 	.globl _PORTB_6
                                     64 	.globl _PORTB_5
                                     65 	.globl _PORTB_4
                                     66 	.globl _PORTB_3
                                     67 	.globl _PORTB_2
                                     68 	.globl _PORTB_1
                                     69 	.globl _PORTB_0
                                     70 	.globl _PORTA_7
                                     71 	.globl _PORTA_6
                                     72 	.globl _PORTA_5
                                     73 	.globl _PORTA_4
                                     74 	.globl _PORTA_3
                                     75 	.globl _PORTA_2
                                     76 	.globl _PORTA_1
                                     77 	.globl _PORTA_0
                                     78 	.globl _PINC_7
                                     79 	.globl _PINC_6
                                     80 	.globl _PINC_5
                                     81 	.globl _PINC_4
                                     82 	.globl _PINC_3
                                     83 	.globl _PINC_2
                                     84 	.globl _PINC_1
                                     85 	.globl _PINC_0
                                     86 	.globl _PINB_7
                                     87 	.globl _PINB_6
                                     88 	.globl _PINB_5
                                     89 	.globl _PINB_4
                                     90 	.globl _PINB_3
                                     91 	.globl _PINB_2
                                     92 	.globl _PINB_1
                                     93 	.globl _PINB_0
                                     94 	.globl _PINA_7
                                     95 	.globl _PINA_6
                                     96 	.globl _PINA_5
                                     97 	.globl _PINA_4
                                     98 	.globl _PINA_3
                                     99 	.globl _PINA_2
                                    100 	.globl _PINA_1
                                    101 	.globl _PINA_0
                                    102 	.globl _CY
                                    103 	.globl _AC
                                    104 	.globl _F0
                                    105 	.globl _RS1
                                    106 	.globl _RS0
                                    107 	.globl _OV
                                    108 	.globl _F1
                                    109 	.globl _P
                                    110 	.globl _IP_7
                                    111 	.globl _IP_6
                                    112 	.globl _IP_5
                                    113 	.globl _IP_4
                                    114 	.globl _IP_3
                                    115 	.globl _IP_2
                                    116 	.globl _IP_1
                                    117 	.globl _IP_0
                                    118 	.globl _EA
                                    119 	.globl _IE_7
                                    120 	.globl _IE_6
                                    121 	.globl _IE_5
                                    122 	.globl _IE_4
                                    123 	.globl _IE_3
                                    124 	.globl _IE_2
                                    125 	.globl _IE_1
                                    126 	.globl _IE_0
                                    127 	.globl _EIP_7
                                    128 	.globl _EIP_6
                                    129 	.globl _EIP_5
                                    130 	.globl _EIP_4
                                    131 	.globl _EIP_3
                                    132 	.globl _EIP_2
                                    133 	.globl _EIP_1
                                    134 	.globl _EIP_0
                                    135 	.globl _EIE_7
                                    136 	.globl _EIE_6
                                    137 	.globl _EIE_5
                                    138 	.globl _EIE_4
                                    139 	.globl _EIE_3
                                    140 	.globl _EIE_2
                                    141 	.globl _EIE_1
                                    142 	.globl _EIE_0
                                    143 	.globl _E2IP_7
                                    144 	.globl _E2IP_6
                                    145 	.globl _E2IP_5
                                    146 	.globl _E2IP_4
                                    147 	.globl _E2IP_3
                                    148 	.globl _E2IP_2
                                    149 	.globl _E2IP_1
                                    150 	.globl _E2IP_0
                                    151 	.globl _E2IE_7
                                    152 	.globl _E2IE_6
                                    153 	.globl _E2IE_5
                                    154 	.globl _E2IE_4
                                    155 	.globl _E2IE_3
                                    156 	.globl _E2IE_2
                                    157 	.globl _E2IE_1
                                    158 	.globl _E2IE_0
                                    159 	.globl _B_7
                                    160 	.globl _B_6
                                    161 	.globl _B_5
                                    162 	.globl _B_4
                                    163 	.globl _B_3
                                    164 	.globl _B_2
                                    165 	.globl _B_1
                                    166 	.globl _B_0
                                    167 	.globl _ACC_7
                                    168 	.globl _ACC_6
                                    169 	.globl _ACC_5
                                    170 	.globl _ACC_4
                                    171 	.globl _ACC_3
                                    172 	.globl _ACC_2
                                    173 	.globl _ACC_1
                                    174 	.globl _ACC_0
                                    175 	.globl _WTSTAT
                                    176 	.globl _WTIRQEN
                                    177 	.globl _WTEVTD
                                    178 	.globl _WTEVTD1
                                    179 	.globl _WTEVTD0
                                    180 	.globl _WTEVTC
                                    181 	.globl _WTEVTC1
                                    182 	.globl _WTEVTC0
                                    183 	.globl _WTEVTB
                                    184 	.globl _WTEVTB1
                                    185 	.globl _WTEVTB0
                                    186 	.globl _WTEVTA
                                    187 	.globl _WTEVTA1
                                    188 	.globl _WTEVTA0
                                    189 	.globl _WTCNTR1
                                    190 	.globl _WTCNTB
                                    191 	.globl _WTCNTB1
                                    192 	.globl _WTCNTB0
                                    193 	.globl _WTCNTA
                                    194 	.globl _WTCNTA1
                                    195 	.globl _WTCNTA0
                                    196 	.globl _WTCFGB
                                    197 	.globl _WTCFGA
                                    198 	.globl _WDTRESET
                                    199 	.globl _WDTCFG
                                    200 	.globl _U1STATUS
                                    201 	.globl _U1SHREG
                                    202 	.globl _U1MODE
                                    203 	.globl _U1CTRL
                                    204 	.globl _U0STATUS
                                    205 	.globl _U0SHREG
                                    206 	.globl _U0MODE
                                    207 	.globl _U0CTRL
                                    208 	.globl _T2STATUS
                                    209 	.globl _T2PERIOD
                                    210 	.globl _T2PERIOD1
                                    211 	.globl _T2PERIOD0
                                    212 	.globl _T2MODE
                                    213 	.globl _T2CNT
                                    214 	.globl _T2CNT1
                                    215 	.globl _T2CNT0
                                    216 	.globl _T2CLKSRC
                                    217 	.globl _T1STATUS
                                    218 	.globl _T1PERIOD
                                    219 	.globl _T1PERIOD1
                                    220 	.globl _T1PERIOD0
                                    221 	.globl _T1MODE
                                    222 	.globl _T1CNT
                                    223 	.globl _T1CNT1
                                    224 	.globl _T1CNT0
                                    225 	.globl _T1CLKSRC
                                    226 	.globl _T0STATUS
                                    227 	.globl _T0PERIOD
                                    228 	.globl _T0PERIOD1
                                    229 	.globl _T0PERIOD0
                                    230 	.globl _T0MODE
                                    231 	.globl _T0CNT
                                    232 	.globl _T0CNT1
                                    233 	.globl _T0CNT0
                                    234 	.globl _T0CLKSRC
                                    235 	.globl _SPSTATUS
                                    236 	.globl _SPSHREG
                                    237 	.globl _SPMODE
                                    238 	.globl _SPCLKSRC
                                    239 	.globl _RADIOSTAT
                                    240 	.globl _RADIOSTAT1
                                    241 	.globl _RADIOSTAT0
                                    242 	.globl _RADIODATA
                                    243 	.globl _RADIODATA3
                                    244 	.globl _RADIODATA2
                                    245 	.globl _RADIODATA1
                                    246 	.globl _RADIODATA0
                                    247 	.globl _RADIOADDR
                                    248 	.globl _RADIOADDR1
                                    249 	.globl _RADIOADDR0
                                    250 	.globl _RADIOACC
                                    251 	.globl _OC1STATUS
                                    252 	.globl _OC1PIN
                                    253 	.globl _OC1MODE
                                    254 	.globl _OC1COMP
                                    255 	.globl _OC1COMP1
                                    256 	.globl _OC1COMP0
                                    257 	.globl _OC0STATUS
                                    258 	.globl _OC0PIN
                                    259 	.globl _OC0MODE
                                    260 	.globl _OC0COMP
                                    261 	.globl _OC0COMP1
                                    262 	.globl _OC0COMP0
                                    263 	.globl _NVSTATUS
                                    264 	.globl _NVKEY
                                    265 	.globl _NVDATA
                                    266 	.globl _NVDATA1
                                    267 	.globl _NVDATA0
                                    268 	.globl _NVADDR
                                    269 	.globl _NVADDR1
                                    270 	.globl _NVADDR0
                                    271 	.globl _IC1STATUS
                                    272 	.globl _IC1MODE
                                    273 	.globl _IC1CAPT
                                    274 	.globl _IC1CAPT1
                                    275 	.globl _IC1CAPT0
                                    276 	.globl _IC0STATUS
                                    277 	.globl _IC0MODE
                                    278 	.globl _IC0CAPT
                                    279 	.globl _IC0CAPT1
                                    280 	.globl _IC0CAPT0
                                    281 	.globl _PORTR
                                    282 	.globl _PORTC
                                    283 	.globl _PORTB
                                    284 	.globl _PORTA
                                    285 	.globl _PINR
                                    286 	.globl _PINC
                                    287 	.globl _PINB
                                    288 	.globl _PINA
                                    289 	.globl _DIRR
                                    290 	.globl _DIRC
                                    291 	.globl _DIRB
                                    292 	.globl _DIRA
                                    293 	.globl _DBGLNKSTAT
                                    294 	.globl _DBGLNKBUF
                                    295 	.globl _CODECONFIG
                                    296 	.globl _CLKSTAT
                                    297 	.globl _CLKCON
                                    298 	.globl _ANALOGCOMP
                                    299 	.globl _ADCCONV
                                    300 	.globl _ADCCLKSRC
                                    301 	.globl _ADCCH3CONFIG
                                    302 	.globl _ADCCH2CONFIG
                                    303 	.globl _ADCCH1CONFIG
                                    304 	.globl _ADCCH0CONFIG
                                    305 	.globl __XPAGE
                                    306 	.globl _XPAGE
                                    307 	.globl _SP
                                    308 	.globl _PSW
                                    309 	.globl _PCON
                                    310 	.globl _IP
                                    311 	.globl _IE
                                    312 	.globl _EIP
                                    313 	.globl _EIE
                                    314 	.globl _E2IP
                                    315 	.globl _E2IE
                                    316 	.globl _DPS
                                    317 	.globl _DPTR1
                                    318 	.globl _DPTR0
                                    319 	.globl _DPL1
                                    320 	.globl _DPL
                                    321 	.globl _DPH1
                                    322 	.globl _DPH
                                    323 	.globl _B
                                    324 	.globl _ACC
                                    325 	.globl _testpkt
                                    326 	.globl _txdone
                                    327 	.globl _ack_flg
                                    328 	.globl _pkt_counter
                                    329 	.globl _pkts_missing
                                    330 	.globl _pkts_received
                                    331 	.globl _payload_len
                                    332 	.globl _AX5043_TIMEGAIN3NB
                                    333 	.globl _AX5043_TIMEGAIN2NB
                                    334 	.globl _AX5043_TIMEGAIN1NB
                                    335 	.globl _AX5043_TIMEGAIN0NB
                                    336 	.globl _AX5043_RXPARAMSETSNB
                                    337 	.globl _AX5043_RXPARAMCURSETNB
                                    338 	.globl _AX5043_PKTMAXLENNB
                                    339 	.globl _AX5043_PKTLENOFFSETNB
                                    340 	.globl _AX5043_PKTLENCFGNB
                                    341 	.globl _AX5043_PKTADDRMASK3NB
                                    342 	.globl _AX5043_PKTADDRMASK2NB
                                    343 	.globl _AX5043_PKTADDRMASK1NB
                                    344 	.globl _AX5043_PKTADDRMASK0NB
                                    345 	.globl _AX5043_PKTADDRCFGNB
                                    346 	.globl _AX5043_PKTADDR3NB
                                    347 	.globl _AX5043_PKTADDR2NB
                                    348 	.globl _AX5043_PKTADDR1NB
                                    349 	.globl _AX5043_PKTADDR0NB
                                    350 	.globl _AX5043_PHASEGAIN3NB
                                    351 	.globl _AX5043_PHASEGAIN2NB
                                    352 	.globl _AX5043_PHASEGAIN1NB
                                    353 	.globl _AX5043_PHASEGAIN0NB
                                    354 	.globl _AX5043_FREQUENCYLEAKNB
                                    355 	.globl _AX5043_FREQUENCYGAIND3NB
                                    356 	.globl _AX5043_FREQUENCYGAIND2NB
                                    357 	.globl _AX5043_FREQUENCYGAIND1NB
                                    358 	.globl _AX5043_FREQUENCYGAIND0NB
                                    359 	.globl _AX5043_FREQUENCYGAINC3NB
                                    360 	.globl _AX5043_FREQUENCYGAINC2NB
                                    361 	.globl _AX5043_FREQUENCYGAINC1NB
                                    362 	.globl _AX5043_FREQUENCYGAINC0NB
                                    363 	.globl _AX5043_FREQUENCYGAINB3NB
                                    364 	.globl _AX5043_FREQUENCYGAINB2NB
                                    365 	.globl _AX5043_FREQUENCYGAINB1NB
                                    366 	.globl _AX5043_FREQUENCYGAINB0NB
                                    367 	.globl _AX5043_FREQUENCYGAINA3NB
                                    368 	.globl _AX5043_FREQUENCYGAINA2NB
                                    369 	.globl _AX5043_FREQUENCYGAINA1NB
                                    370 	.globl _AX5043_FREQUENCYGAINA0NB
                                    371 	.globl _AX5043_FREQDEV13NB
                                    372 	.globl _AX5043_FREQDEV12NB
                                    373 	.globl _AX5043_FREQDEV11NB
                                    374 	.globl _AX5043_FREQDEV10NB
                                    375 	.globl _AX5043_FREQDEV03NB
                                    376 	.globl _AX5043_FREQDEV02NB
                                    377 	.globl _AX5043_FREQDEV01NB
                                    378 	.globl _AX5043_FREQDEV00NB
                                    379 	.globl _AX5043_FOURFSK3NB
                                    380 	.globl _AX5043_FOURFSK2NB
                                    381 	.globl _AX5043_FOURFSK1NB
                                    382 	.globl _AX5043_FOURFSK0NB
                                    383 	.globl _AX5043_DRGAIN3NB
                                    384 	.globl _AX5043_DRGAIN2NB
                                    385 	.globl _AX5043_DRGAIN1NB
                                    386 	.globl _AX5043_DRGAIN0NB
                                    387 	.globl _AX5043_BBOFFSRES3NB
                                    388 	.globl _AX5043_BBOFFSRES2NB
                                    389 	.globl _AX5043_BBOFFSRES1NB
                                    390 	.globl _AX5043_BBOFFSRES0NB
                                    391 	.globl _AX5043_AMPLITUDEGAIN3NB
                                    392 	.globl _AX5043_AMPLITUDEGAIN2NB
                                    393 	.globl _AX5043_AMPLITUDEGAIN1NB
                                    394 	.globl _AX5043_AMPLITUDEGAIN0NB
                                    395 	.globl _AX5043_AGCTARGET3NB
                                    396 	.globl _AX5043_AGCTARGET2NB
                                    397 	.globl _AX5043_AGCTARGET1NB
                                    398 	.globl _AX5043_AGCTARGET0NB
                                    399 	.globl _AX5043_AGCMINMAX3NB
                                    400 	.globl _AX5043_AGCMINMAX2NB
                                    401 	.globl _AX5043_AGCMINMAX1NB
                                    402 	.globl _AX5043_AGCMINMAX0NB
                                    403 	.globl _AX5043_AGCGAIN3NB
                                    404 	.globl _AX5043_AGCGAIN2NB
                                    405 	.globl _AX5043_AGCGAIN1NB
                                    406 	.globl _AX5043_AGCGAIN0NB
                                    407 	.globl _AX5043_AGCAHYST3NB
                                    408 	.globl _AX5043_AGCAHYST2NB
                                    409 	.globl _AX5043_AGCAHYST1NB
                                    410 	.globl _AX5043_AGCAHYST0NB
                                    411 	.globl _AX5043_0xF44NB
                                    412 	.globl _AX5043_0xF35NB
                                    413 	.globl _AX5043_0xF34NB
                                    414 	.globl _AX5043_0xF33NB
                                    415 	.globl _AX5043_0xF32NB
                                    416 	.globl _AX5043_0xF31NB
                                    417 	.globl _AX5043_0xF30NB
                                    418 	.globl _AX5043_0xF26NB
                                    419 	.globl _AX5043_0xF23NB
                                    420 	.globl _AX5043_0xF22NB
                                    421 	.globl _AX5043_0xF21NB
                                    422 	.globl _AX5043_0xF1CNB
                                    423 	.globl _AX5043_0xF18NB
                                    424 	.globl _AX5043_0xF0CNB
                                    425 	.globl _AX5043_0xF00NB
                                    426 	.globl _AX5043_XTALSTATUSNB
                                    427 	.globl _AX5043_XTALOSCNB
                                    428 	.globl _AX5043_XTALCAPNB
                                    429 	.globl _AX5043_XTALAMPLNB
                                    430 	.globl _AX5043_WAKEUPXOEARLYNB
                                    431 	.globl _AX5043_WAKEUPTIMER1NB
                                    432 	.globl _AX5043_WAKEUPTIMER0NB
                                    433 	.globl _AX5043_WAKEUPFREQ1NB
                                    434 	.globl _AX5043_WAKEUPFREQ0NB
                                    435 	.globl _AX5043_WAKEUP1NB
                                    436 	.globl _AX5043_WAKEUP0NB
                                    437 	.globl _AX5043_TXRATE2NB
                                    438 	.globl _AX5043_TXRATE1NB
                                    439 	.globl _AX5043_TXRATE0NB
                                    440 	.globl _AX5043_TXPWRCOEFFE1NB
                                    441 	.globl _AX5043_TXPWRCOEFFE0NB
                                    442 	.globl _AX5043_TXPWRCOEFFD1NB
                                    443 	.globl _AX5043_TXPWRCOEFFD0NB
                                    444 	.globl _AX5043_TXPWRCOEFFC1NB
                                    445 	.globl _AX5043_TXPWRCOEFFC0NB
                                    446 	.globl _AX5043_TXPWRCOEFFB1NB
                                    447 	.globl _AX5043_TXPWRCOEFFB0NB
                                    448 	.globl _AX5043_TXPWRCOEFFA1NB
                                    449 	.globl _AX5043_TXPWRCOEFFA0NB
                                    450 	.globl _AX5043_TRKRFFREQ2NB
                                    451 	.globl _AX5043_TRKRFFREQ1NB
                                    452 	.globl _AX5043_TRKRFFREQ0NB
                                    453 	.globl _AX5043_TRKPHASE1NB
                                    454 	.globl _AX5043_TRKPHASE0NB
                                    455 	.globl _AX5043_TRKFSKDEMOD1NB
                                    456 	.globl _AX5043_TRKFSKDEMOD0NB
                                    457 	.globl _AX5043_TRKFREQ1NB
                                    458 	.globl _AX5043_TRKFREQ0NB
                                    459 	.globl _AX5043_TRKDATARATE2NB
                                    460 	.globl _AX5043_TRKDATARATE1NB
                                    461 	.globl _AX5043_TRKDATARATE0NB
                                    462 	.globl _AX5043_TRKAMPLITUDE1NB
                                    463 	.globl _AX5043_TRKAMPLITUDE0NB
                                    464 	.globl _AX5043_TRKAFSKDEMOD1NB
                                    465 	.globl _AX5043_TRKAFSKDEMOD0NB
                                    466 	.globl _AX5043_TMGTXSETTLENB
                                    467 	.globl _AX5043_TMGTXBOOSTNB
                                    468 	.globl _AX5043_TMGRXSETTLENB
                                    469 	.globl _AX5043_TMGRXRSSINB
                                    470 	.globl _AX5043_TMGRXPREAMBLE3NB
                                    471 	.globl _AX5043_TMGRXPREAMBLE2NB
                                    472 	.globl _AX5043_TMGRXPREAMBLE1NB
                                    473 	.globl _AX5043_TMGRXOFFSACQNB
                                    474 	.globl _AX5043_TMGRXCOARSEAGCNB
                                    475 	.globl _AX5043_TMGRXBOOSTNB
                                    476 	.globl _AX5043_TMGRXAGCNB
                                    477 	.globl _AX5043_TIMER2NB
                                    478 	.globl _AX5043_TIMER1NB
                                    479 	.globl _AX5043_TIMER0NB
                                    480 	.globl _AX5043_SILICONREVISIONNB
                                    481 	.globl _AX5043_SCRATCHNB
                                    482 	.globl _AX5043_RXDATARATE2NB
                                    483 	.globl _AX5043_RXDATARATE1NB
                                    484 	.globl _AX5043_RXDATARATE0NB
                                    485 	.globl _AX5043_RSSIREFERENCENB
                                    486 	.globl _AX5043_RSSIABSTHRNB
                                    487 	.globl _AX5043_RSSINB
                                    488 	.globl _AX5043_REFNB
                                    489 	.globl _AX5043_RADIOSTATENB
                                    490 	.globl _AX5043_RADIOEVENTREQ1NB
                                    491 	.globl _AX5043_RADIOEVENTREQ0NB
                                    492 	.globl _AX5043_RADIOEVENTMASK1NB
                                    493 	.globl _AX5043_RADIOEVENTMASK0NB
                                    494 	.globl _AX5043_PWRMODENB
                                    495 	.globl _AX5043_PWRAMPNB
                                    496 	.globl _AX5043_POWSTICKYSTATNB
                                    497 	.globl _AX5043_POWSTATNB
                                    498 	.globl _AX5043_POWIRQMASKNB
                                    499 	.globl _AX5043_POWCTRL1NB
                                    500 	.globl _AX5043_PLLVCOIRNB
                                    501 	.globl _AX5043_PLLVCOINB
                                    502 	.globl _AX5043_PLLVCODIVNB
                                    503 	.globl _AX5043_PLLRNGCLKNB
                                    504 	.globl _AX5043_PLLRANGINGBNB
                                    505 	.globl _AX5043_PLLRANGINGANB
                                    506 	.globl _AX5043_PLLLOOPBOOSTNB
                                    507 	.globl _AX5043_PLLLOOPNB
                                    508 	.globl _AX5043_PLLLOCKDETNB
                                    509 	.globl _AX5043_PLLCPIBOOSTNB
                                    510 	.globl _AX5043_PLLCPINB
                                    511 	.globl _AX5043_PKTSTOREFLAGSNB
                                    512 	.globl _AX5043_PKTMISCFLAGSNB
                                    513 	.globl _AX5043_PKTCHUNKSIZENB
                                    514 	.globl _AX5043_PKTACCEPTFLAGSNB
                                    515 	.globl _AX5043_PINSTATENB
                                    516 	.globl _AX5043_PINFUNCSYSCLKNB
                                    517 	.globl _AX5043_PINFUNCPWRAMPNB
                                    518 	.globl _AX5043_PINFUNCIRQNB
                                    519 	.globl _AX5043_PINFUNCDCLKNB
                                    520 	.globl _AX5043_PINFUNCDATANB
                                    521 	.globl _AX5043_PINFUNCANTSELNB
                                    522 	.globl _AX5043_MODULATIONNB
                                    523 	.globl _AX5043_MODCFGPNB
                                    524 	.globl _AX5043_MODCFGFNB
                                    525 	.globl _AX5043_MODCFGANB
                                    526 	.globl _AX5043_MAXRFOFFSET2NB
                                    527 	.globl _AX5043_MAXRFOFFSET1NB
                                    528 	.globl _AX5043_MAXRFOFFSET0NB
                                    529 	.globl _AX5043_MAXDROFFSET2NB
                                    530 	.globl _AX5043_MAXDROFFSET1NB
                                    531 	.globl _AX5043_MAXDROFFSET0NB
                                    532 	.globl _AX5043_MATCH1PAT1NB
                                    533 	.globl _AX5043_MATCH1PAT0NB
                                    534 	.globl _AX5043_MATCH1MINNB
                                    535 	.globl _AX5043_MATCH1MAXNB
                                    536 	.globl _AX5043_MATCH1LENNB
                                    537 	.globl _AX5043_MATCH0PAT3NB
                                    538 	.globl _AX5043_MATCH0PAT2NB
                                    539 	.globl _AX5043_MATCH0PAT1NB
                                    540 	.globl _AX5043_MATCH0PAT0NB
                                    541 	.globl _AX5043_MATCH0MINNB
                                    542 	.globl _AX5043_MATCH0MAXNB
                                    543 	.globl _AX5043_MATCH0LENNB
                                    544 	.globl _AX5043_LPOSCSTATUSNB
                                    545 	.globl _AX5043_LPOSCREF1NB
                                    546 	.globl _AX5043_LPOSCREF0NB
                                    547 	.globl _AX5043_LPOSCPER1NB
                                    548 	.globl _AX5043_LPOSCPER0NB
                                    549 	.globl _AX5043_LPOSCKFILT1NB
                                    550 	.globl _AX5043_LPOSCKFILT0NB
                                    551 	.globl _AX5043_LPOSCFREQ1NB
                                    552 	.globl _AX5043_LPOSCFREQ0NB
                                    553 	.globl _AX5043_LPOSCCONFIGNB
                                    554 	.globl _AX5043_IRQREQUEST1NB
                                    555 	.globl _AX5043_IRQREQUEST0NB
                                    556 	.globl _AX5043_IRQMASK1NB
                                    557 	.globl _AX5043_IRQMASK0NB
                                    558 	.globl _AX5043_IRQINVERSION1NB
                                    559 	.globl _AX5043_IRQINVERSION0NB
                                    560 	.globl _AX5043_IFFREQ1NB
                                    561 	.globl _AX5043_IFFREQ0NB
                                    562 	.globl _AX5043_GPADCPERIODNB
                                    563 	.globl _AX5043_GPADCCTRLNB
                                    564 	.globl _AX5043_GPADC13VALUE1NB
                                    565 	.globl _AX5043_GPADC13VALUE0NB
                                    566 	.globl _AX5043_FSKDMIN1NB
                                    567 	.globl _AX5043_FSKDMIN0NB
                                    568 	.globl _AX5043_FSKDMAX1NB
                                    569 	.globl _AX5043_FSKDMAX0NB
                                    570 	.globl _AX5043_FSKDEV2NB
                                    571 	.globl _AX5043_FSKDEV1NB
                                    572 	.globl _AX5043_FSKDEV0NB
                                    573 	.globl _AX5043_FREQB3NB
                                    574 	.globl _AX5043_FREQB2NB
                                    575 	.globl _AX5043_FREQB1NB
                                    576 	.globl _AX5043_FREQB0NB
                                    577 	.globl _AX5043_FREQA3NB
                                    578 	.globl _AX5043_FREQA2NB
                                    579 	.globl _AX5043_FREQA1NB
                                    580 	.globl _AX5043_FREQA0NB
                                    581 	.globl _AX5043_FRAMINGNB
                                    582 	.globl _AX5043_FIFOTHRESH1NB
                                    583 	.globl _AX5043_FIFOTHRESH0NB
                                    584 	.globl _AX5043_FIFOSTATNB
                                    585 	.globl _AX5043_FIFOFREE1NB
                                    586 	.globl _AX5043_FIFOFREE0NB
                                    587 	.globl _AX5043_FIFODATANB
                                    588 	.globl _AX5043_FIFOCOUNT1NB
                                    589 	.globl _AX5043_FIFOCOUNT0NB
                                    590 	.globl _AX5043_FECSYNCNB
                                    591 	.globl _AX5043_FECSTATUSNB
                                    592 	.globl _AX5043_FECNB
                                    593 	.globl _AX5043_ENCODINGNB
                                    594 	.globl _AX5043_DIVERSITYNB
                                    595 	.globl _AX5043_DECIMATIONNB
                                    596 	.globl _AX5043_DACVALUE1NB
                                    597 	.globl _AX5043_DACVALUE0NB
                                    598 	.globl _AX5043_DACCONFIGNB
                                    599 	.globl _AX5043_CRCINIT3NB
                                    600 	.globl _AX5043_CRCINIT2NB
                                    601 	.globl _AX5043_CRCINIT1NB
                                    602 	.globl _AX5043_CRCINIT0NB
                                    603 	.globl _AX5043_BGNDRSSITHRNB
                                    604 	.globl _AX5043_BGNDRSSIGAINNB
                                    605 	.globl _AX5043_BGNDRSSINB
                                    606 	.globl _AX5043_BBTUNENB
                                    607 	.globl _AX5043_BBOFFSCAPNB
                                    608 	.globl _AX5043_AMPLFILTERNB
                                    609 	.globl _AX5043_AGCCOUNTERNB
                                    610 	.globl _AX5043_AFSKSPACE1NB
                                    611 	.globl _AX5043_AFSKSPACE0NB
                                    612 	.globl _AX5043_AFSKMARK1NB
                                    613 	.globl _AX5043_AFSKMARK0NB
                                    614 	.globl _AX5043_AFSKCTRLNB
                                    615 	.globl _AX5043_TIMEGAIN3
                                    616 	.globl _AX5043_TIMEGAIN2
                                    617 	.globl _AX5043_TIMEGAIN1
                                    618 	.globl _AX5043_TIMEGAIN0
                                    619 	.globl _AX5043_RXPARAMSETS
                                    620 	.globl _AX5043_RXPARAMCURSET
                                    621 	.globl _AX5043_PKTMAXLEN
                                    622 	.globl _AX5043_PKTLENOFFSET
                                    623 	.globl _AX5043_PKTLENCFG
                                    624 	.globl _AX5043_PKTADDRMASK3
                                    625 	.globl _AX5043_PKTADDRMASK2
                                    626 	.globl _AX5043_PKTADDRMASK1
                                    627 	.globl _AX5043_PKTADDRMASK0
                                    628 	.globl _AX5043_PKTADDRCFG
                                    629 	.globl _AX5043_PKTADDR3
                                    630 	.globl _AX5043_PKTADDR2
                                    631 	.globl _AX5043_PKTADDR1
                                    632 	.globl _AX5043_PKTADDR0
                                    633 	.globl _AX5043_PHASEGAIN3
                                    634 	.globl _AX5043_PHASEGAIN2
                                    635 	.globl _AX5043_PHASEGAIN1
                                    636 	.globl _AX5043_PHASEGAIN0
                                    637 	.globl _AX5043_FREQUENCYLEAK
                                    638 	.globl _AX5043_FREQUENCYGAIND3
                                    639 	.globl _AX5043_FREQUENCYGAIND2
                                    640 	.globl _AX5043_FREQUENCYGAIND1
                                    641 	.globl _AX5043_FREQUENCYGAIND0
                                    642 	.globl _AX5043_FREQUENCYGAINC3
                                    643 	.globl _AX5043_FREQUENCYGAINC2
                                    644 	.globl _AX5043_FREQUENCYGAINC1
                                    645 	.globl _AX5043_FREQUENCYGAINC0
                                    646 	.globl _AX5043_FREQUENCYGAINB3
                                    647 	.globl _AX5043_FREQUENCYGAINB2
                                    648 	.globl _AX5043_FREQUENCYGAINB1
                                    649 	.globl _AX5043_FREQUENCYGAINB0
                                    650 	.globl _AX5043_FREQUENCYGAINA3
                                    651 	.globl _AX5043_FREQUENCYGAINA2
                                    652 	.globl _AX5043_FREQUENCYGAINA1
                                    653 	.globl _AX5043_FREQUENCYGAINA0
                                    654 	.globl _AX5043_FREQDEV13
                                    655 	.globl _AX5043_FREQDEV12
                                    656 	.globl _AX5043_FREQDEV11
                                    657 	.globl _AX5043_FREQDEV10
                                    658 	.globl _AX5043_FREQDEV03
                                    659 	.globl _AX5043_FREQDEV02
                                    660 	.globl _AX5043_FREQDEV01
                                    661 	.globl _AX5043_FREQDEV00
                                    662 	.globl _AX5043_FOURFSK3
                                    663 	.globl _AX5043_FOURFSK2
                                    664 	.globl _AX5043_FOURFSK1
                                    665 	.globl _AX5043_FOURFSK0
                                    666 	.globl _AX5043_DRGAIN3
                                    667 	.globl _AX5043_DRGAIN2
                                    668 	.globl _AX5043_DRGAIN1
                                    669 	.globl _AX5043_DRGAIN0
                                    670 	.globl _AX5043_BBOFFSRES3
                                    671 	.globl _AX5043_BBOFFSRES2
                                    672 	.globl _AX5043_BBOFFSRES1
                                    673 	.globl _AX5043_BBOFFSRES0
                                    674 	.globl _AX5043_AMPLITUDEGAIN3
                                    675 	.globl _AX5043_AMPLITUDEGAIN2
                                    676 	.globl _AX5043_AMPLITUDEGAIN1
                                    677 	.globl _AX5043_AMPLITUDEGAIN0
                                    678 	.globl _AX5043_AGCTARGET3
                                    679 	.globl _AX5043_AGCTARGET2
                                    680 	.globl _AX5043_AGCTARGET1
                                    681 	.globl _AX5043_AGCTARGET0
                                    682 	.globl _AX5043_AGCMINMAX3
                                    683 	.globl _AX5043_AGCMINMAX2
                                    684 	.globl _AX5043_AGCMINMAX1
                                    685 	.globl _AX5043_AGCMINMAX0
                                    686 	.globl _AX5043_AGCGAIN3
                                    687 	.globl _AX5043_AGCGAIN2
                                    688 	.globl _AX5043_AGCGAIN1
                                    689 	.globl _AX5043_AGCGAIN0
                                    690 	.globl _AX5043_AGCAHYST3
                                    691 	.globl _AX5043_AGCAHYST2
                                    692 	.globl _AX5043_AGCAHYST1
                                    693 	.globl _AX5043_AGCAHYST0
                                    694 	.globl _AX5043_0xF44
                                    695 	.globl _AX5043_0xF35
                                    696 	.globl _AX5043_0xF34
                                    697 	.globl _AX5043_0xF33
                                    698 	.globl _AX5043_0xF32
                                    699 	.globl _AX5043_0xF31
                                    700 	.globl _AX5043_0xF30
                                    701 	.globl _AX5043_0xF26
                                    702 	.globl _AX5043_0xF23
                                    703 	.globl _AX5043_0xF22
                                    704 	.globl _AX5043_0xF21
                                    705 	.globl _AX5043_0xF1C
                                    706 	.globl _AX5043_0xF18
                                    707 	.globl _AX5043_0xF0C
                                    708 	.globl _AX5043_0xF00
                                    709 	.globl _AX5043_XTALSTATUS
                                    710 	.globl _AX5043_XTALOSC
                                    711 	.globl _AX5043_XTALCAP
                                    712 	.globl _AX5043_XTALAMPL
                                    713 	.globl _AX5043_WAKEUPXOEARLY
                                    714 	.globl _AX5043_WAKEUPTIMER1
                                    715 	.globl _AX5043_WAKEUPTIMER0
                                    716 	.globl _AX5043_WAKEUPFREQ1
                                    717 	.globl _AX5043_WAKEUPFREQ0
                                    718 	.globl _AX5043_WAKEUP1
                                    719 	.globl _AX5043_WAKEUP0
                                    720 	.globl _AX5043_TXRATE2
                                    721 	.globl _AX5043_TXRATE1
                                    722 	.globl _AX5043_TXRATE0
                                    723 	.globl _AX5043_TXPWRCOEFFE1
                                    724 	.globl _AX5043_TXPWRCOEFFE0
                                    725 	.globl _AX5043_TXPWRCOEFFD1
                                    726 	.globl _AX5043_TXPWRCOEFFD0
                                    727 	.globl _AX5043_TXPWRCOEFFC1
                                    728 	.globl _AX5043_TXPWRCOEFFC0
                                    729 	.globl _AX5043_TXPWRCOEFFB1
                                    730 	.globl _AX5043_TXPWRCOEFFB0
                                    731 	.globl _AX5043_TXPWRCOEFFA1
                                    732 	.globl _AX5043_TXPWRCOEFFA0
                                    733 	.globl _AX5043_TRKRFFREQ2
                                    734 	.globl _AX5043_TRKRFFREQ1
                                    735 	.globl _AX5043_TRKRFFREQ0
                                    736 	.globl _AX5043_TRKPHASE1
                                    737 	.globl _AX5043_TRKPHASE0
                                    738 	.globl _AX5043_TRKFSKDEMOD1
                                    739 	.globl _AX5043_TRKFSKDEMOD0
                                    740 	.globl _AX5043_TRKFREQ1
                                    741 	.globl _AX5043_TRKFREQ0
                                    742 	.globl _AX5043_TRKDATARATE2
                                    743 	.globl _AX5043_TRKDATARATE1
                                    744 	.globl _AX5043_TRKDATARATE0
                                    745 	.globl _AX5043_TRKAMPLITUDE1
                                    746 	.globl _AX5043_TRKAMPLITUDE0
                                    747 	.globl _AX5043_TRKAFSKDEMOD1
                                    748 	.globl _AX5043_TRKAFSKDEMOD0
                                    749 	.globl _AX5043_TMGTXSETTLE
                                    750 	.globl _AX5043_TMGTXBOOST
                                    751 	.globl _AX5043_TMGRXSETTLE
                                    752 	.globl _AX5043_TMGRXRSSI
                                    753 	.globl _AX5043_TMGRXPREAMBLE3
                                    754 	.globl _AX5043_TMGRXPREAMBLE2
                                    755 	.globl _AX5043_TMGRXPREAMBLE1
                                    756 	.globl _AX5043_TMGRXOFFSACQ
                                    757 	.globl _AX5043_TMGRXCOARSEAGC
                                    758 	.globl _AX5043_TMGRXBOOST
                                    759 	.globl _AX5043_TMGRXAGC
                                    760 	.globl _AX5043_TIMER2
                                    761 	.globl _AX5043_TIMER1
                                    762 	.globl _AX5043_TIMER0
                                    763 	.globl _AX5043_SILICONREVISION
                                    764 	.globl _AX5043_SCRATCH
                                    765 	.globl _AX5043_RXDATARATE2
                                    766 	.globl _AX5043_RXDATARATE1
                                    767 	.globl _AX5043_RXDATARATE0
                                    768 	.globl _AX5043_RSSIREFERENCE
                                    769 	.globl _AX5043_RSSIABSTHR
                                    770 	.globl _AX5043_RSSI
                                    771 	.globl _AX5043_REF
                                    772 	.globl _AX5043_RADIOSTATE
                                    773 	.globl _AX5043_RADIOEVENTREQ1
                                    774 	.globl _AX5043_RADIOEVENTREQ0
                                    775 	.globl _AX5043_RADIOEVENTMASK1
                                    776 	.globl _AX5043_RADIOEVENTMASK0
                                    777 	.globl _AX5043_PWRMODE
                                    778 	.globl _AX5043_PWRAMP
                                    779 	.globl _AX5043_POWSTICKYSTAT
                                    780 	.globl _AX5043_POWSTAT
                                    781 	.globl _AX5043_POWIRQMASK
                                    782 	.globl _AX5043_POWCTRL1
                                    783 	.globl _AX5043_PLLVCOIR
                                    784 	.globl _AX5043_PLLVCOI
                                    785 	.globl _AX5043_PLLVCODIV
                                    786 	.globl _AX5043_PLLRNGCLK
                                    787 	.globl _AX5043_PLLRANGINGB
                                    788 	.globl _AX5043_PLLRANGINGA
                                    789 	.globl _AX5043_PLLLOOPBOOST
                                    790 	.globl _AX5043_PLLLOOP
                                    791 	.globl _AX5043_PLLLOCKDET
                                    792 	.globl _AX5043_PLLCPIBOOST
                                    793 	.globl _AX5043_PLLCPI
                                    794 	.globl _AX5043_PKTSTOREFLAGS
                                    795 	.globl _AX5043_PKTMISCFLAGS
                                    796 	.globl _AX5043_PKTCHUNKSIZE
                                    797 	.globl _AX5043_PKTACCEPTFLAGS
                                    798 	.globl _AX5043_PINSTATE
                                    799 	.globl _AX5043_PINFUNCSYSCLK
                                    800 	.globl _AX5043_PINFUNCPWRAMP
                                    801 	.globl _AX5043_PINFUNCIRQ
                                    802 	.globl _AX5043_PINFUNCDCLK
                                    803 	.globl _AX5043_PINFUNCDATA
                                    804 	.globl _AX5043_PINFUNCANTSEL
                                    805 	.globl _AX5043_MODULATION
                                    806 	.globl _AX5043_MODCFGP
                                    807 	.globl _AX5043_MODCFGF
                                    808 	.globl _AX5043_MODCFGA
                                    809 	.globl _AX5043_MAXRFOFFSET2
                                    810 	.globl _AX5043_MAXRFOFFSET1
                                    811 	.globl _AX5043_MAXRFOFFSET0
                                    812 	.globl _AX5043_MAXDROFFSET2
                                    813 	.globl _AX5043_MAXDROFFSET1
                                    814 	.globl _AX5043_MAXDROFFSET0
                                    815 	.globl _AX5043_MATCH1PAT1
                                    816 	.globl _AX5043_MATCH1PAT0
                                    817 	.globl _AX5043_MATCH1MIN
                                    818 	.globl _AX5043_MATCH1MAX
                                    819 	.globl _AX5043_MATCH1LEN
                                    820 	.globl _AX5043_MATCH0PAT3
                                    821 	.globl _AX5043_MATCH0PAT2
                                    822 	.globl _AX5043_MATCH0PAT1
                                    823 	.globl _AX5043_MATCH0PAT0
                                    824 	.globl _AX5043_MATCH0MIN
                                    825 	.globl _AX5043_MATCH0MAX
                                    826 	.globl _AX5043_MATCH0LEN
                                    827 	.globl _AX5043_LPOSCSTATUS
                                    828 	.globl _AX5043_LPOSCREF1
                                    829 	.globl _AX5043_LPOSCREF0
                                    830 	.globl _AX5043_LPOSCPER1
                                    831 	.globl _AX5043_LPOSCPER0
                                    832 	.globl _AX5043_LPOSCKFILT1
                                    833 	.globl _AX5043_LPOSCKFILT0
                                    834 	.globl _AX5043_LPOSCFREQ1
                                    835 	.globl _AX5043_LPOSCFREQ0
                                    836 	.globl _AX5043_LPOSCCONFIG
                                    837 	.globl _AX5043_IRQREQUEST1
                                    838 	.globl _AX5043_IRQREQUEST0
                                    839 	.globl _AX5043_IRQMASK1
                                    840 	.globl _AX5043_IRQMASK0
                                    841 	.globl _AX5043_IRQINVERSION1
                                    842 	.globl _AX5043_IRQINVERSION0
                                    843 	.globl _AX5043_IFFREQ1
                                    844 	.globl _AX5043_IFFREQ0
                                    845 	.globl _AX5043_GPADCPERIOD
                                    846 	.globl _AX5043_GPADCCTRL
                                    847 	.globl _AX5043_GPADC13VALUE1
                                    848 	.globl _AX5043_GPADC13VALUE0
                                    849 	.globl _AX5043_FSKDMIN1
                                    850 	.globl _AX5043_FSKDMIN0
                                    851 	.globl _AX5043_FSKDMAX1
                                    852 	.globl _AX5043_FSKDMAX0
                                    853 	.globl _AX5043_FSKDEV2
                                    854 	.globl _AX5043_FSKDEV1
                                    855 	.globl _AX5043_FSKDEV0
                                    856 	.globl _AX5043_FREQB3
                                    857 	.globl _AX5043_FREQB2
                                    858 	.globl _AX5043_FREQB1
                                    859 	.globl _AX5043_FREQB0
                                    860 	.globl _AX5043_FREQA3
                                    861 	.globl _AX5043_FREQA2
                                    862 	.globl _AX5043_FREQA1
                                    863 	.globl _AX5043_FREQA0
                                    864 	.globl _AX5043_FRAMING
                                    865 	.globl _AX5043_FIFOTHRESH1
                                    866 	.globl _AX5043_FIFOTHRESH0
                                    867 	.globl _AX5043_FIFOSTAT
                                    868 	.globl _AX5043_FIFOFREE1
                                    869 	.globl _AX5043_FIFOFREE0
                                    870 	.globl _AX5043_FIFODATA
                                    871 	.globl _AX5043_FIFOCOUNT1
                                    872 	.globl _AX5043_FIFOCOUNT0
                                    873 	.globl _AX5043_FECSYNC
                                    874 	.globl _AX5043_FECSTATUS
                                    875 	.globl _AX5043_FEC
                                    876 	.globl _AX5043_ENCODING
                                    877 	.globl _AX5043_DIVERSITY
                                    878 	.globl _AX5043_DECIMATION
                                    879 	.globl _AX5043_DACVALUE1
                                    880 	.globl _AX5043_DACVALUE0
                                    881 	.globl _AX5043_DACCONFIG
                                    882 	.globl _AX5043_CRCINIT3
                                    883 	.globl _AX5043_CRCINIT2
                                    884 	.globl _AX5043_CRCINIT1
                                    885 	.globl _AX5043_CRCINIT0
                                    886 	.globl _AX5043_BGNDRSSITHR
                                    887 	.globl _AX5043_BGNDRSSIGAIN
                                    888 	.globl _AX5043_BGNDRSSI
                                    889 	.globl _AX5043_BBTUNE
                                    890 	.globl _AX5043_BBOFFSCAP
                                    891 	.globl _AX5043_AMPLFILTER
                                    892 	.globl _AX5043_AGCCOUNTER
                                    893 	.globl _AX5043_AFSKSPACE1
                                    894 	.globl _AX5043_AFSKSPACE0
                                    895 	.globl _AX5043_AFSKMARK1
                                    896 	.globl _AX5043_AFSKMARK0
                                    897 	.globl _AX5043_AFSKCTRL
                                    898 	.globl _RNGMODE
                                    899 	.globl _RNGCLKSRC1
                                    900 	.globl _RNGCLKSRC0
                                    901 	.globl _RNGBYTE
                                    902 	.globl _AESOUTADDR
                                    903 	.globl _AESOUTADDR1
                                    904 	.globl _AESOUTADDR0
                                    905 	.globl _AESMODE
                                    906 	.globl _AESKEYADDR
                                    907 	.globl _AESKEYADDR1
                                    908 	.globl _AESKEYADDR0
                                    909 	.globl _AESINADDR
                                    910 	.globl _AESINADDR1
                                    911 	.globl _AESINADDR0
                                    912 	.globl _AESCURBLOCK
                                    913 	.globl _AESCONFIG
                                    914 	.globl _XTALREADY
                                    915 	.globl _XTALOSC
                                    916 	.globl _XTALAMPL
                                    917 	.globl _SILICONREV
                                    918 	.globl _SCRATCH3
                                    919 	.globl _SCRATCH2
                                    920 	.globl _SCRATCH1
                                    921 	.globl _SCRATCH0
                                    922 	.globl _RADIOMUX
                                    923 	.globl _RADIOFSTATADDR
                                    924 	.globl _RADIOFSTATADDR1
                                    925 	.globl _RADIOFSTATADDR0
                                    926 	.globl _RADIOFDATAADDR
                                    927 	.globl _RADIOFDATAADDR1
                                    928 	.globl _RADIOFDATAADDR0
                                    929 	.globl _OSCRUN
                                    930 	.globl _OSCREADY
                                    931 	.globl _OSCFORCERUN
                                    932 	.globl _OSCCALIB
                                    933 	.globl _MISCCTRL
                                    934 	.globl _LPXOSCGM
                                    935 	.globl _LPOSCREF
                                    936 	.globl _LPOSCREF1
                                    937 	.globl _LPOSCREF0
                                    938 	.globl _LPOSCPER
                                    939 	.globl _LPOSCPER1
                                    940 	.globl _LPOSCPER0
                                    941 	.globl _LPOSCKFILT
                                    942 	.globl _LPOSCKFILT1
                                    943 	.globl _LPOSCKFILT0
                                    944 	.globl _LPOSCFREQ
                                    945 	.globl _LPOSCFREQ1
                                    946 	.globl _LPOSCFREQ0
                                    947 	.globl _LPOSCCONFIG
                                    948 	.globl _PINSEL
                                    949 	.globl _PINCHGC
                                    950 	.globl _PINCHGB
                                    951 	.globl _PINCHGA
                                    952 	.globl _PALTRADIO
                                    953 	.globl _PALTC
                                    954 	.globl _PALTB
                                    955 	.globl _PALTA
                                    956 	.globl _INTCHGC
                                    957 	.globl _INTCHGB
                                    958 	.globl _INTCHGA
                                    959 	.globl _EXTIRQ
                                    960 	.globl _GPIOENABLE
                                    961 	.globl _ANALOGA
                                    962 	.globl _FRCOSCREF
                                    963 	.globl _FRCOSCREF1
                                    964 	.globl _FRCOSCREF0
                                    965 	.globl _FRCOSCPER
                                    966 	.globl _FRCOSCPER1
                                    967 	.globl _FRCOSCPER0
                                    968 	.globl _FRCOSCKFILT
                                    969 	.globl _FRCOSCKFILT1
                                    970 	.globl _FRCOSCKFILT0
                                    971 	.globl _FRCOSCFREQ
                                    972 	.globl _FRCOSCFREQ1
                                    973 	.globl _FRCOSCFREQ0
                                    974 	.globl _FRCOSCCTRL
                                    975 	.globl _FRCOSCCONFIG
                                    976 	.globl _DMA1CONFIG
                                    977 	.globl _DMA1ADDR
                                    978 	.globl _DMA1ADDR1
                                    979 	.globl _DMA1ADDR0
                                    980 	.globl _DMA0CONFIG
                                    981 	.globl _DMA0ADDR
                                    982 	.globl _DMA0ADDR1
                                    983 	.globl _DMA0ADDR0
                                    984 	.globl _ADCTUNE2
                                    985 	.globl _ADCTUNE1
                                    986 	.globl _ADCTUNE0
                                    987 	.globl _ADCCH3VAL
                                    988 	.globl _ADCCH3VAL1
                                    989 	.globl _ADCCH3VAL0
                                    990 	.globl _ADCCH2VAL
                                    991 	.globl _ADCCH2VAL1
                                    992 	.globl _ADCCH2VAL0
                                    993 	.globl _ADCCH1VAL
                                    994 	.globl _ADCCH1VAL1
                                    995 	.globl _ADCCH1VAL0
                                    996 	.globl _ADCCH0VAL
                                    997 	.globl _ADCCH0VAL1
                                    998 	.globl _ADCCH0VAL0
                                    999 	.globl _payload
                                   1000 	.globl _coldstart
                                   1001 	.globl _axradio_statuschange
                                   1002 	.globl _enable_radio_interrupt_in_mcu_pin
                                   1003 	.globl _disable_radio_interrupt_in_mcu_pin
                                   1004 ;--------------------------------------------------------
                                   1005 ; special function registers
                                   1006 ;--------------------------------------------------------
                                   1007 	.area RSEG    (ABS,DATA)
      000000                       1008 	.org 0x0000
                           0000E0  1009 G$ACC$0$0 == 0x00e0
                           0000E0  1010 _ACC	=	0x00e0
                           0000F0  1011 G$B$0$0 == 0x00f0
                           0000F0  1012 _B	=	0x00f0
                           000083  1013 G$DPH$0$0 == 0x0083
                           000083  1014 _DPH	=	0x0083
                           000085  1015 G$DPH1$0$0 == 0x0085
                           000085  1016 _DPH1	=	0x0085
                           000082  1017 G$DPL$0$0 == 0x0082
                           000082  1018 _DPL	=	0x0082
                           000084  1019 G$DPL1$0$0 == 0x0084
                           000084  1020 _DPL1	=	0x0084
                           008382  1021 G$DPTR0$0$0 == 0x8382
                           008382  1022 _DPTR0	=	0x8382
                           008584  1023 G$DPTR1$0$0 == 0x8584
                           008584  1024 _DPTR1	=	0x8584
                           000086  1025 G$DPS$0$0 == 0x0086
                           000086  1026 _DPS	=	0x0086
                           0000A0  1027 G$E2IE$0$0 == 0x00a0
                           0000A0  1028 _E2IE	=	0x00a0
                           0000C0  1029 G$E2IP$0$0 == 0x00c0
                           0000C0  1030 _E2IP	=	0x00c0
                           000098  1031 G$EIE$0$0 == 0x0098
                           000098  1032 _EIE	=	0x0098
                           0000B0  1033 G$EIP$0$0 == 0x00b0
                           0000B0  1034 _EIP	=	0x00b0
                           0000A8  1035 G$IE$0$0 == 0x00a8
                           0000A8  1036 _IE	=	0x00a8
                           0000B8  1037 G$IP$0$0 == 0x00b8
                           0000B8  1038 _IP	=	0x00b8
                           000087  1039 G$PCON$0$0 == 0x0087
                           000087  1040 _PCON	=	0x0087
                           0000D0  1041 G$PSW$0$0 == 0x00d0
                           0000D0  1042 _PSW	=	0x00d0
                           000081  1043 G$SP$0$0 == 0x0081
                           000081  1044 _SP	=	0x0081
                           0000D9  1045 G$XPAGE$0$0 == 0x00d9
                           0000D9  1046 _XPAGE	=	0x00d9
                           0000D9  1047 G$_XPAGE$0$0 == 0x00d9
                           0000D9  1048 __XPAGE	=	0x00d9
                           0000CA  1049 G$ADCCH0CONFIG$0$0 == 0x00ca
                           0000CA  1050 _ADCCH0CONFIG	=	0x00ca
                           0000CB  1051 G$ADCCH1CONFIG$0$0 == 0x00cb
                           0000CB  1052 _ADCCH1CONFIG	=	0x00cb
                           0000D2  1053 G$ADCCH2CONFIG$0$0 == 0x00d2
                           0000D2  1054 _ADCCH2CONFIG	=	0x00d2
                           0000D3  1055 G$ADCCH3CONFIG$0$0 == 0x00d3
                           0000D3  1056 _ADCCH3CONFIG	=	0x00d3
                           0000D1  1057 G$ADCCLKSRC$0$0 == 0x00d1
                           0000D1  1058 _ADCCLKSRC	=	0x00d1
                           0000C9  1059 G$ADCCONV$0$0 == 0x00c9
                           0000C9  1060 _ADCCONV	=	0x00c9
                           0000E1  1061 G$ANALOGCOMP$0$0 == 0x00e1
                           0000E1  1062 _ANALOGCOMP	=	0x00e1
                           0000C6  1063 G$CLKCON$0$0 == 0x00c6
                           0000C6  1064 _CLKCON	=	0x00c6
                           0000C7  1065 G$CLKSTAT$0$0 == 0x00c7
                           0000C7  1066 _CLKSTAT	=	0x00c7
                           000097  1067 G$CODECONFIG$0$0 == 0x0097
                           000097  1068 _CODECONFIG	=	0x0097
                           0000E3  1069 G$DBGLNKBUF$0$0 == 0x00e3
                           0000E3  1070 _DBGLNKBUF	=	0x00e3
                           0000E2  1071 G$DBGLNKSTAT$0$0 == 0x00e2
                           0000E2  1072 _DBGLNKSTAT	=	0x00e2
                           000089  1073 G$DIRA$0$0 == 0x0089
                           000089  1074 _DIRA	=	0x0089
                           00008A  1075 G$DIRB$0$0 == 0x008a
                           00008A  1076 _DIRB	=	0x008a
                           00008B  1077 G$DIRC$0$0 == 0x008b
                           00008B  1078 _DIRC	=	0x008b
                           00008E  1079 G$DIRR$0$0 == 0x008e
                           00008E  1080 _DIRR	=	0x008e
                           0000C8  1081 G$PINA$0$0 == 0x00c8
                           0000C8  1082 _PINA	=	0x00c8
                           0000E8  1083 G$PINB$0$0 == 0x00e8
                           0000E8  1084 _PINB	=	0x00e8
                           0000F8  1085 G$PINC$0$0 == 0x00f8
                           0000F8  1086 _PINC	=	0x00f8
                           00008D  1087 G$PINR$0$0 == 0x008d
                           00008D  1088 _PINR	=	0x008d
                           000080  1089 G$PORTA$0$0 == 0x0080
                           000080  1090 _PORTA	=	0x0080
                           000088  1091 G$PORTB$0$0 == 0x0088
                           000088  1092 _PORTB	=	0x0088
                           000090  1093 G$PORTC$0$0 == 0x0090
                           000090  1094 _PORTC	=	0x0090
                           00008C  1095 G$PORTR$0$0 == 0x008c
                           00008C  1096 _PORTR	=	0x008c
                           0000CE  1097 G$IC0CAPT0$0$0 == 0x00ce
                           0000CE  1098 _IC0CAPT0	=	0x00ce
                           0000CF  1099 G$IC0CAPT1$0$0 == 0x00cf
                           0000CF  1100 _IC0CAPT1	=	0x00cf
                           00CFCE  1101 G$IC0CAPT$0$0 == 0xcfce
                           00CFCE  1102 _IC0CAPT	=	0xcfce
                           0000CC  1103 G$IC0MODE$0$0 == 0x00cc
                           0000CC  1104 _IC0MODE	=	0x00cc
                           0000CD  1105 G$IC0STATUS$0$0 == 0x00cd
                           0000CD  1106 _IC0STATUS	=	0x00cd
                           0000D6  1107 G$IC1CAPT0$0$0 == 0x00d6
                           0000D6  1108 _IC1CAPT0	=	0x00d6
                           0000D7  1109 G$IC1CAPT1$0$0 == 0x00d7
                           0000D7  1110 _IC1CAPT1	=	0x00d7
                           00D7D6  1111 G$IC1CAPT$0$0 == 0xd7d6
                           00D7D6  1112 _IC1CAPT	=	0xd7d6
                           0000D4  1113 G$IC1MODE$0$0 == 0x00d4
                           0000D4  1114 _IC1MODE	=	0x00d4
                           0000D5  1115 G$IC1STATUS$0$0 == 0x00d5
                           0000D5  1116 _IC1STATUS	=	0x00d5
                           000092  1117 G$NVADDR0$0$0 == 0x0092
                           000092  1118 _NVADDR0	=	0x0092
                           000093  1119 G$NVADDR1$0$0 == 0x0093
                           000093  1120 _NVADDR1	=	0x0093
                           009392  1121 G$NVADDR$0$0 == 0x9392
                           009392  1122 _NVADDR	=	0x9392
                           000094  1123 G$NVDATA0$0$0 == 0x0094
                           000094  1124 _NVDATA0	=	0x0094
                           000095  1125 G$NVDATA1$0$0 == 0x0095
                           000095  1126 _NVDATA1	=	0x0095
                           009594  1127 G$NVDATA$0$0 == 0x9594
                           009594  1128 _NVDATA	=	0x9594
                           000096  1129 G$NVKEY$0$0 == 0x0096
                           000096  1130 _NVKEY	=	0x0096
                           000091  1131 G$NVSTATUS$0$0 == 0x0091
                           000091  1132 _NVSTATUS	=	0x0091
                           0000BC  1133 G$OC0COMP0$0$0 == 0x00bc
                           0000BC  1134 _OC0COMP0	=	0x00bc
                           0000BD  1135 G$OC0COMP1$0$0 == 0x00bd
                           0000BD  1136 _OC0COMP1	=	0x00bd
                           00BDBC  1137 G$OC0COMP$0$0 == 0xbdbc
                           00BDBC  1138 _OC0COMP	=	0xbdbc
                           0000B9  1139 G$OC0MODE$0$0 == 0x00b9
                           0000B9  1140 _OC0MODE	=	0x00b9
                           0000BA  1141 G$OC0PIN$0$0 == 0x00ba
                           0000BA  1142 _OC0PIN	=	0x00ba
                           0000BB  1143 G$OC0STATUS$0$0 == 0x00bb
                           0000BB  1144 _OC0STATUS	=	0x00bb
                           0000C4  1145 G$OC1COMP0$0$0 == 0x00c4
                           0000C4  1146 _OC1COMP0	=	0x00c4
                           0000C5  1147 G$OC1COMP1$0$0 == 0x00c5
                           0000C5  1148 _OC1COMP1	=	0x00c5
                           00C5C4  1149 G$OC1COMP$0$0 == 0xc5c4
                           00C5C4  1150 _OC1COMP	=	0xc5c4
                           0000C1  1151 G$OC1MODE$0$0 == 0x00c1
                           0000C1  1152 _OC1MODE	=	0x00c1
                           0000C2  1153 G$OC1PIN$0$0 == 0x00c2
                           0000C2  1154 _OC1PIN	=	0x00c2
                           0000C3  1155 G$OC1STATUS$0$0 == 0x00c3
                           0000C3  1156 _OC1STATUS	=	0x00c3
                           0000B1  1157 G$RADIOACC$0$0 == 0x00b1
                           0000B1  1158 _RADIOACC	=	0x00b1
                           0000B3  1159 G$RADIOADDR0$0$0 == 0x00b3
                           0000B3  1160 _RADIOADDR0	=	0x00b3
                           0000B2  1161 G$RADIOADDR1$0$0 == 0x00b2
                           0000B2  1162 _RADIOADDR1	=	0x00b2
                           00B2B3  1163 G$RADIOADDR$0$0 == 0xb2b3
                           00B2B3  1164 _RADIOADDR	=	0xb2b3
                           0000B7  1165 G$RADIODATA0$0$0 == 0x00b7
                           0000B7  1166 _RADIODATA0	=	0x00b7
                           0000B6  1167 G$RADIODATA1$0$0 == 0x00b6
                           0000B6  1168 _RADIODATA1	=	0x00b6
                           0000B5  1169 G$RADIODATA2$0$0 == 0x00b5
                           0000B5  1170 _RADIODATA2	=	0x00b5
                           0000B4  1171 G$RADIODATA3$0$0 == 0x00b4
                           0000B4  1172 _RADIODATA3	=	0x00b4
                           B4B5B6B7  1173 G$RADIODATA$0$0 == 0xb4b5b6b7
                           B4B5B6B7  1174 _RADIODATA	=	0xb4b5b6b7
                           0000BE  1175 G$RADIOSTAT0$0$0 == 0x00be
                           0000BE  1176 _RADIOSTAT0	=	0x00be
                           0000BF  1177 G$RADIOSTAT1$0$0 == 0x00bf
                           0000BF  1178 _RADIOSTAT1	=	0x00bf
                           00BFBE  1179 G$RADIOSTAT$0$0 == 0xbfbe
                           00BFBE  1180 _RADIOSTAT	=	0xbfbe
                           0000DF  1181 G$SPCLKSRC$0$0 == 0x00df
                           0000DF  1182 _SPCLKSRC	=	0x00df
                           0000DC  1183 G$SPMODE$0$0 == 0x00dc
                           0000DC  1184 _SPMODE	=	0x00dc
                           0000DE  1185 G$SPSHREG$0$0 == 0x00de
                           0000DE  1186 _SPSHREG	=	0x00de
                           0000DD  1187 G$SPSTATUS$0$0 == 0x00dd
                           0000DD  1188 _SPSTATUS	=	0x00dd
                           00009A  1189 G$T0CLKSRC$0$0 == 0x009a
                           00009A  1190 _T0CLKSRC	=	0x009a
                           00009C  1191 G$T0CNT0$0$0 == 0x009c
                           00009C  1192 _T0CNT0	=	0x009c
                           00009D  1193 G$T0CNT1$0$0 == 0x009d
                           00009D  1194 _T0CNT1	=	0x009d
                           009D9C  1195 G$T0CNT$0$0 == 0x9d9c
                           009D9C  1196 _T0CNT	=	0x9d9c
                           000099  1197 G$T0MODE$0$0 == 0x0099
                           000099  1198 _T0MODE	=	0x0099
                           00009E  1199 G$T0PERIOD0$0$0 == 0x009e
                           00009E  1200 _T0PERIOD0	=	0x009e
                           00009F  1201 G$T0PERIOD1$0$0 == 0x009f
                           00009F  1202 _T0PERIOD1	=	0x009f
                           009F9E  1203 G$T0PERIOD$0$0 == 0x9f9e
                           009F9E  1204 _T0PERIOD	=	0x9f9e
                           00009B  1205 G$T0STATUS$0$0 == 0x009b
                           00009B  1206 _T0STATUS	=	0x009b
                           0000A2  1207 G$T1CLKSRC$0$0 == 0x00a2
                           0000A2  1208 _T1CLKSRC	=	0x00a2
                           0000A4  1209 G$T1CNT0$0$0 == 0x00a4
                           0000A4  1210 _T1CNT0	=	0x00a4
                           0000A5  1211 G$T1CNT1$0$0 == 0x00a5
                           0000A5  1212 _T1CNT1	=	0x00a5
                           00A5A4  1213 G$T1CNT$0$0 == 0xa5a4
                           00A5A4  1214 _T1CNT	=	0xa5a4
                           0000A1  1215 G$T1MODE$0$0 == 0x00a1
                           0000A1  1216 _T1MODE	=	0x00a1
                           0000A6  1217 G$T1PERIOD0$0$0 == 0x00a6
                           0000A6  1218 _T1PERIOD0	=	0x00a6
                           0000A7  1219 G$T1PERIOD1$0$0 == 0x00a7
                           0000A7  1220 _T1PERIOD1	=	0x00a7
                           00A7A6  1221 G$T1PERIOD$0$0 == 0xa7a6
                           00A7A6  1222 _T1PERIOD	=	0xa7a6
                           0000A3  1223 G$T1STATUS$0$0 == 0x00a3
                           0000A3  1224 _T1STATUS	=	0x00a3
                           0000AA  1225 G$T2CLKSRC$0$0 == 0x00aa
                           0000AA  1226 _T2CLKSRC	=	0x00aa
                           0000AC  1227 G$T2CNT0$0$0 == 0x00ac
                           0000AC  1228 _T2CNT0	=	0x00ac
                           0000AD  1229 G$T2CNT1$0$0 == 0x00ad
                           0000AD  1230 _T2CNT1	=	0x00ad
                           00ADAC  1231 G$T2CNT$0$0 == 0xadac
                           00ADAC  1232 _T2CNT	=	0xadac
                           0000A9  1233 G$T2MODE$0$0 == 0x00a9
                           0000A9  1234 _T2MODE	=	0x00a9
                           0000AE  1235 G$T2PERIOD0$0$0 == 0x00ae
                           0000AE  1236 _T2PERIOD0	=	0x00ae
                           0000AF  1237 G$T2PERIOD1$0$0 == 0x00af
                           0000AF  1238 _T2PERIOD1	=	0x00af
                           00AFAE  1239 G$T2PERIOD$0$0 == 0xafae
                           00AFAE  1240 _T2PERIOD	=	0xafae
                           0000AB  1241 G$T2STATUS$0$0 == 0x00ab
                           0000AB  1242 _T2STATUS	=	0x00ab
                           0000E4  1243 G$U0CTRL$0$0 == 0x00e4
                           0000E4  1244 _U0CTRL	=	0x00e4
                           0000E7  1245 G$U0MODE$0$0 == 0x00e7
                           0000E7  1246 _U0MODE	=	0x00e7
                           0000E6  1247 G$U0SHREG$0$0 == 0x00e6
                           0000E6  1248 _U0SHREG	=	0x00e6
                           0000E5  1249 G$U0STATUS$0$0 == 0x00e5
                           0000E5  1250 _U0STATUS	=	0x00e5
                           0000EC  1251 G$U1CTRL$0$0 == 0x00ec
                           0000EC  1252 _U1CTRL	=	0x00ec
                           0000EF  1253 G$U1MODE$0$0 == 0x00ef
                           0000EF  1254 _U1MODE	=	0x00ef
                           0000EE  1255 G$U1SHREG$0$0 == 0x00ee
                           0000EE  1256 _U1SHREG	=	0x00ee
                           0000ED  1257 G$U1STATUS$0$0 == 0x00ed
                           0000ED  1258 _U1STATUS	=	0x00ed
                           0000DA  1259 G$WDTCFG$0$0 == 0x00da
                           0000DA  1260 _WDTCFG	=	0x00da
                           0000DB  1261 G$WDTRESET$0$0 == 0x00db
                           0000DB  1262 _WDTRESET	=	0x00db
                           0000F1  1263 G$WTCFGA$0$0 == 0x00f1
                           0000F1  1264 _WTCFGA	=	0x00f1
                           0000F9  1265 G$WTCFGB$0$0 == 0x00f9
                           0000F9  1266 _WTCFGB	=	0x00f9
                           0000F2  1267 G$WTCNTA0$0$0 == 0x00f2
                           0000F2  1268 _WTCNTA0	=	0x00f2
                           0000F3  1269 G$WTCNTA1$0$0 == 0x00f3
                           0000F3  1270 _WTCNTA1	=	0x00f3
                           00F3F2  1271 G$WTCNTA$0$0 == 0xf3f2
                           00F3F2  1272 _WTCNTA	=	0xf3f2
                           0000FA  1273 G$WTCNTB0$0$0 == 0x00fa
                           0000FA  1274 _WTCNTB0	=	0x00fa
                           0000FB  1275 G$WTCNTB1$0$0 == 0x00fb
                           0000FB  1276 _WTCNTB1	=	0x00fb
                           00FBFA  1277 G$WTCNTB$0$0 == 0xfbfa
                           00FBFA  1278 _WTCNTB	=	0xfbfa
                           0000EB  1279 G$WTCNTR1$0$0 == 0x00eb
                           0000EB  1280 _WTCNTR1	=	0x00eb
                           0000F4  1281 G$WTEVTA0$0$0 == 0x00f4
                           0000F4  1282 _WTEVTA0	=	0x00f4
                           0000F5  1283 G$WTEVTA1$0$0 == 0x00f5
                           0000F5  1284 _WTEVTA1	=	0x00f5
                           00F5F4  1285 G$WTEVTA$0$0 == 0xf5f4
                           00F5F4  1286 _WTEVTA	=	0xf5f4
                           0000F6  1287 G$WTEVTB0$0$0 == 0x00f6
                           0000F6  1288 _WTEVTB0	=	0x00f6
                           0000F7  1289 G$WTEVTB1$0$0 == 0x00f7
                           0000F7  1290 _WTEVTB1	=	0x00f7
                           00F7F6  1291 G$WTEVTB$0$0 == 0xf7f6
                           00F7F6  1292 _WTEVTB	=	0xf7f6
                           0000FC  1293 G$WTEVTC0$0$0 == 0x00fc
                           0000FC  1294 _WTEVTC0	=	0x00fc
                           0000FD  1295 G$WTEVTC1$0$0 == 0x00fd
                           0000FD  1296 _WTEVTC1	=	0x00fd
                           00FDFC  1297 G$WTEVTC$0$0 == 0xfdfc
                           00FDFC  1298 _WTEVTC	=	0xfdfc
                           0000FE  1299 G$WTEVTD0$0$0 == 0x00fe
                           0000FE  1300 _WTEVTD0	=	0x00fe
                           0000FF  1301 G$WTEVTD1$0$0 == 0x00ff
                           0000FF  1302 _WTEVTD1	=	0x00ff
                           00FFFE  1303 G$WTEVTD$0$0 == 0xfffe
                           00FFFE  1304 _WTEVTD	=	0xfffe
                           0000E9  1305 G$WTIRQEN$0$0 == 0x00e9
                           0000E9  1306 _WTIRQEN	=	0x00e9
                           0000EA  1307 G$WTSTAT$0$0 == 0x00ea
                           0000EA  1308 _WTSTAT	=	0x00ea
                                   1309 ;--------------------------------------------------------
                                   1310 ; special function bits
                                   1311 ;--------------------------------------------------------
                                   1312 	.area RSEG    (ABS,DATA)
      000000                       1313 	.org 0x0000
                           0000E0  1314 G$ACC_0$0$0 == 0x00e0
                           0000E0  1315 _ACC_0	=	0x00e0
                           0000E1  1316 G$ACC_1$0$0 == 0x00e1
                           0000E1  1317 _ACC_1	=	0x00e1
                           0000E2  1318 G$ACC_2$0$0 == 0x00e2
                           0000E2  1319 _ACC_2	=	0x00e2
                           0000E3  1320 G$ACC_3$0$0 == 0x00e3
                           0000E3  1321 _ACC_3	=	0x00e3
                           0000E4  1322 G$ACC_4$0$0 == 0x00e4
                           0000E4  1323 _ACC_4	=	0x00e4
                           0000E5  1324 G$ACC_5$0$0 == 0x00e5
                           0000E5  1325 _ACC_5	=	0x00e5
                           0000E6  1326 G$ACC_6$0$0 == 0x00e6
                           0000E6  1327 _ACC_6	=	0x00e6
                           0000E7  1328 G$ACC_7$0$0 == 0x00e7
                           0000E7  1329 _ACC_7	=	0x00e7
                           0000F0  1330 G$B_0$0$0 == 0x00f0
                           0000F0  1331 _B_0	=	0x00f0
                           0000F1  1332 G$B_1$0$0 == 0x00f1
                           0000F1  1333 _B_1	=	0x00f1
                           0000F2  1334 G$B_2$0$0 == 0x00f2
                           0000F2  1335 _B_2	=	0x00f2
                           0000F3  1336 G$B_3$0$0 == 0x00f3
                           0000F3  1337 _B_3	=	0x00f3
                           0000F4  1338 G$B_4$0$0 == 0x00f4
                           0000F4  1339 _B_4	=	0x00f4
                           0000F5  1340 G$B_5$0$0 == 0x00f5
                           0000F5  1341 _B_5	=	0x00f5
                           0000F6  1342 G$B_6$0$0 == 0x00f6
                           0000F6  1343 _B_6	=	0x00f6
                           0000F7  1344 G$B_7$0$0 == 0x00f7
                           0000F7  1345 _B_7	=	0x00f7
                           0000A0  1346 G$E2IE_0$0$0 == 0x00a0
                           0000A0  1347 _E2IE_0	=	0x00a0
                           0000A1  1348 G$E2IE_1$0$0 == 0x00a1
                           0000A1  1349 _E2IE_1	=	0x00a1
                           0000A2  1350 G$E2IE_2$0$0 == 0x00a2
                           0000A2  1351 _E2IE_2	=	0x00a2
                           0000A3  1352 G$E2IE_3$0$0 == 0x00a3
                           0000A3  1353 _E2IE_3	=	0x00a3
                           0000A4  1354 G$E2IE_4$0$0 == 0x00a4
                           0000A4  1355 _E2IE_4	=	0x00a4
                           0000A5  1356 G$E2IE_5$0$0 == 0x00a5
                           0000A5  1357 _E2IE_5	=	0x00a5
                           0000A6  1358 G$E2IE_6$0$0 == 0x00a6
                           0000A6  1359 _E2IE_6	=	0x00a6
                           0000A7  1360 G$E2IE_7$0$0 == 0x00a7
                           0000A7  1361 _E2IE_7	=	0x00a7
                           0000C0  1362 G$E2IP_0$0$0 == 0x00c0
                           0000C0  1363 _E2IP_0	=	0x00c0
                           0000C1  1364 G$E2IP_1$0$0 == 0x00c1
                           0000C1  1365 _E2IP_1	=	0x00c1
                           0000C2  1366 G$E2IP_2$0$0 == 0x00c2
                           0000C2  1367 _E2IP_2	=	0x00c2
                           0000C3  1368 G$E2IP_3$0$0 == 0x00c3
                           0000C3  1369 _E2IP_3	=	0x00c3
                           0000C4  1370 G$E2IP_4$0$0 == 0x00c4
                           0000C4  1371 _E2IP_4	=	0x00c4
                           0000C5  1372 G$E2IP_5$0$0 == 0x00c5
                           0000C5  1373 _E2IP_5	=	0x00c5
                           0000C6  1374 G$E2IP_6$0$0 == 0x00c6
                           0000C6  1375 _E2IP_6	=	0x00c6
                           0000C7  1376 G$E2IP_7$0$0 == 0x00c7
                           0000C7  1377 _E2IP_7	=	0x00c7
                           000098  1378 G$EIE_0$0$0 == 0x0098
                           000098  1379 _EIE_0	=	0x0098
                           000099  1380 G$EIE_1$0$0 == 0x0099
                           000099  1381 _EIE_1	=	0x0099
                           00009A  1382 G$EIE_2$0$0 == 0x009a
                           00009A  1383 _EIE_2	=	0x009a
                           00009B  1384 G$EIE_3$0$0 == 0x009b
                           00009B  1385 _EIE_3	=	0x009b
                           00009C  1386 G$EIE_4$0$0 == 0x009c
                           00009C  1387 _EIE_4	=	0x009c
                           00009D  1388 G$EIE_5$0$0 == 0x009d
                           00009D  1389 _EIE_5	=	0x009d
                           00009E  1390 G$EIE_6$0$0 == 0x009e
                           00009E  1391 _EIE_6	=	0x009e
                           00009F  1392 G$EIE_7$0$0 == 0x009f
                           00009F  1393 _EIE_7	=	0x009f
                           0000B0  1394 G$EIP_0$0$0 == 0x00b0
                           0000B0  1395 _EIP_0	=	0x00b0
                           0000B1  1396 G$EIP_1$0$0 == 0x00b1
                           0000B1  1397 _EIP_1	=	0x00b1
                           0000B2  1398 G$EIP_2$0$0 == 0x00b2
                           0000B2  1399 _EIP_2	=	0x00b2
                           0000B3  1400 G$EIP_3$0$0 == 0x00b3
                           0000B3  1401 _EIP_3	=	0x00b3
                           0000B4  1402 G$EIP_4$0$0 == 0x00b4
                           0000B4  1403 _EIP_4	=	0x00b4
                           0000B5  1404 G$EIP_5$0$0 == 0x00b5
                           0000B5  1405 _EIP_5	=	0x00b5
                           0000B6  1406 G$EIP_6$0$0 == 0x00b6
                           0000B6  1407 _EIP_6	=	0x00b6
                           0000B7  1408 G$EIP_7$0$0 == 0x00b7
                           0000B7  1409 _EIP_7	=	0x00b7
                           0000A8  1410 G$IE_0$0$0 == 0x00a8
                           0000A8  1411 _IE_0	=	0x00a8
                           0000A9  1412 G$IE_1$0$0 == 0x00a9
                           0000A9  1413 _IE_1	=	0x00a9
                           0000AA  1414 G$IE_2$0$0 == 0x00aa
                           0000AA  1415 _IE_2	=	0x00aa
                           0000AB  1416 G$IE_3$0$0 == 0x00ab
                           0000AB  1417 _IE_3	=	0x00ab
                           0000AC  1418 G$IE_4$0$0 == 0x00ac
                           0000AC  1419 _IE_4	=	0x00ac
                           0000AD  1420 G$IE_5$0$0 == 0x00ad
                           0000AD  1421 _IE_5	=	0x00ad
                           0000AE  1422 G$IE_6$0$0 == 0x00ae
                           0000AE  1423 _IE_6	=	0x00ae
                           0000AF  1424 G$IE_7$0$0 == 0x00af
                           0000AF  1425 _IE_7	=	0x00af
                           0000AF  1426 G$EA$0$0 == 0x00af
                           0000AF  1427 _EA	=	0x00af
                           0000B8  1428 G$IP_0$0$0 == 0x00b8
                           0000B8  1429 _IP_0	=	0x00b8
                           0000B9  1430 G$IP_1$0$0 == 0x00b9
                           0000B9  1431 _IP_1	=	0x00b9
                           0000BA  1432 G$IP_2$0$0 == 0x00ba
                           0000BA  1433 _IP_2	=	0x00ba
                           0000BB  1434 G$IP_3$0$0 == 0x00bb
                           0000BB  1435 _IP_3	=	0x00bb
                           0000BC  1436 G$IP_4$0$0 == 0x00bc
                           0000BC  1437 _IP_4	=	0x00bc
                           0000BD  1438 G$IP_5$0$0 == 0x00bd
                           0000BD  1439 _IP_5	=	0x00bd
                           0000BE  1440 G$IP_6$0$0 == 0x00be
                           0000BE  1441 _IP_6	=	0x00be
                           0000BF  1442 G$IP_7$0$0 == 0x00bf
                           0000BF  1443 _IP_7	=	0x00bf
                           0000D0  1444 G$P$0$0 == 0x00d0
                           0000D0  1445 _P	=	0x00d0
                           0000D1  1446 G$F1$0$0 == 0x00d1
                           0000D1  1447 _F1	=	0x00d1
                           0000D2  1448 G$OV$0$0 == 0x00d2
                           0000D2  1449 _OV	=	0x00d2
                           0000D3  1450 G$RS0$0$0 == 0x00d3
                           0000D3  1451 _RS0	=	0x00d3
                           0000D4  1452 G$RS1$0$0 == 0x00d4
                           0000D4  1453 _RS1	=	0x00d4
                           0000D5  1454 G$F0$0$0 == 0x00d5
                           0000D5  1455 _F0	=	0x00d5
                           0000D6  1456 G$AC$0$0 == 0x00d6
                           0000D6  1457 _AC	=	0x00d6
                           0000D7  1458 G$CY$0$0 == 0x00d7
                           0000D7  1459 _CY	=	0x00d7
                           0000C8  1460 G$PINA_0$0$0 == 0x00c8
                           0000C8  1461 _PINA_0	=	0x00c8
                           0000C9  1462 G$PINA_1$0$0 == 0x00c9
                           0000C9  1463 _PINA_1	=	0x00c9
                           0000CA  1464 G$PINA_2$0$0 == 0x00ca
                           0000CA  1465 _PINA_2	=	0x00ca
                           0000CB  1466 G$PINA_3$0$0 == 0x00cb
                           0000CB  1467 _PINA_3	=	0x00cb
                           0000CC  1468 G$PINA_4$0$0 == 0x00cc
                           0000CC  1469 _PINA_4	=	0x00cc
                           0000CD  1470 G$PINA_5$0$0 == 0x00cd
                           0000CD  1471 _PINA_5	=	0x00cd
                           0000CE  1472 G$PINA_6$0$0 == 0x00ce
                           0000CE  1473 _PINA_6	=	0x00ce
                           0000CF  1474 G$PINA_7$0$0 == 0x00cf
                           0000CF  1475 _PINA_7	=	0x00cf
                           0000E8  1476 G$PINB_0$0$0 == 0x00e8
                           0000E8  1477 _PINB_0	=	0x00e8
                           0000E9  1478 G$PINB_1$0$0 == 0x00e9
                           0000E9  1479 _PINB_1	=	0x00e9
                           0000EA  1480 G$PINB_2$0$0 == 0x00ea
                           0000EA  1481 _PINB_2	=	0x00ea
                           0000EB  1482 G$PINB_3$0$0 == 0x00eb
                           0000EB  1483 _PINB_3	=	0x00eb
                           0000EC  1484 G$PINB_4$0$0 == 0x00ec
                           0000EC  1485 _PINB_4	=	0x00ec
                           0000ED  1486 G$PINB_5$0$0 == 0x00ed
                           0000ED  1487 _PINB_5	=	0x00ed
                           0000EE  1488 G$PINB_6$0$0 == 0x00ee
                           0000EE  1489 _PINB_6	=	0x00ee
                           0000EF  1490 G$PINB_7$0$0 == 0x00ef
                           0000EF  1491 _PINB_7	=	0x00ef
                           0000F8  1492 G$PINC_0$0$0 == 0x00f8
                           0000F8  1493 _PINC_0	=	0x00f8
                           0000F9  1494 G$PINC_1$0$0 == 0x00f9
                           0000F9  1495 _PINC_1	=	0x00f9
                           0000FA  1496 G$PINC_2$0$0 == 0x00fa
                           0000FA  1497 _PINC_2	=	0x00fa
                           0000FB  1498 G$PINC_3$0$0 == 0x00fb
                           0000FB  1499 _PINC_3	=	0x00fb
                           0000FC  1500 G$PINC_4$0$0 == 0x00fc
                           0000FC  1501 _PINC_4	=	0x00fc
                           0000FD  1502 G$PINC_5$0$0 == 0x00fd
                           0000FD  1503 _PINC_5	=	0x00fd
                           0000FE  1504 G$PINC_6$0$0 == 0x00fe
                           0000FE  1505 _PINC_6	=	0x00fe
                           0000FF  1506 G$PINC_7$0$0 == 0x00ff
                           0000FF  1507 _PINC_7	=	0x00ff
                           000080  1508 G$PORTA_0$0$0 == 0x0080
                           000080  1509 _PORTA_0	=	0x0080
                           000081  1510 G$PORTA_1$0$0 == 0x0081
                           000081  1511 _PORTA_1	=	0x0081
                           000082  1512 G$PORTA_2$0$0 == 0x0082
                           000082  1513 _PORTA_2	=	0x0082
                           000083  1514 G$PORTA_3$0$0 == 0x0083
                           000083  1515 _PORTA_3	=	0x0083
                           000084  1516 G$PORTA_4$0$0 == 0x0084
                           000084  1517 _PORTA_4	=	0x0084
                           000085  1518 G$PORTA_5$0$0 == 0x0085
                           000085  1519 _PORTA_5	=	0x0085
                           000086  1520 G$PORTA_6$0$0 == 0x0086
                           000086  1521 _PORTA_6	=	0x0086
                           000087  1522 G$PORTA_7$0$0 == 0x0087
                           000087  1523 _PORTA_7	=	0x0087
                           000088  1524 G$PORTB_0$0$0 == 0x0088
                           000088  1525 _PORTB_0	=	0x0088
                           000089  1526 G$PORTB_1$0$0 == 0x0089
                           000089  1527 _PORTB_1	=	0x0089
                           00008A  1528 G$PORTB_2$0$0 == 0x008a
                           00008A  1529 _PORTB_2	=	0x008a
                           00008B  1530 G$PORTB_3$0$0 == 0x008b
                           00008B  1531 _PORTB_3	=	0x008b
                           00008C  1532 G$PORTB_4$0$0 == 0x008c
                           00008C  1533 _PORTB_4	=	0x008c
                           00008D  1534 G$PORTB_5$0$0 == 0x008d
                           00008D  1535 _PORTB_5	=	0x008d
                           00008E  1536 G$PORTB_6$0$0 == 0x008e
                           00008E  1537 _PORTB_6	=	0x008e
                           00008F  1538 G$PORTB_7$0$0 == 0x008f
                           00008F  1539 _PORTB_7	=	0x008f
                           000090  1540 G$PORTC_0$0$0 == 0x0090
                           000090  1541 _PORTC_0	=	0x0090
                           000091  1542 G$PORTC_1$0$0 == 0x0091
                           000091  1543 _PORTC_1	=	0x0091
                           000092  1544 G$PORTC_2$0$0 == 0x0092
                           000092  1545 _PORTC_2	=	0x0092
                           000093  1546 G$PORTC_3$0$0 == 0x0093
                           000093  1547 _PORTC_3	=	0x0093
                           000094  1548 G$PORTC_4$0$0 == 0x0094
                           000094  1549 _PORTC_4	=	0x0094
                           000095  1550 G$PORTC_5$0$0 == 0x0095
                           000095  1551 _PORTC_5	=	0x0095
                           000096  1552 G$PORTC_6$0$0 == 0x0096
                           000096  1553 _PORTC_6	=	0x0096
                           000097  1554 G$PORTC_7$0$0 == 0x0097
                           000097  1555 _PORTC_7	=	0x0097
                                   1556 ;--------------------------------------------------------
                                   1557 ; overlayable register banks
                                   1558 ;--------------------------------------------------------
                                   1559 	.area REG_BANK_0	(REL,OVR,DATA)
      000000                       1560 	.ds 8
                                   1561 ;--------------------------------------------------------
                                   1562 ; internal ram data
                                   1563 ;--------------------------------------------------------
                                   1564 	.area DSEG    (DATA)
                           000000  1565 G$coldstart$0$0==.
      000000                       1566 _coldstart::
      000000                       1567 	.ds 1
                           000001  1568 G$payload$0$0==.
      000001                       1569 _payload::
      000001                       1570 	.ds 2
                                   1571 ;--------------------------------------------------------
                                   1572 ; overlayable items in internal ram 
                                   1573 ;--------------------------------------------------------
                                   1574 ;--------------------------------------------------------
                                   1575 ; Stack segment in internal ram 
                                   1576 ;--------------------------------------------------------
                                   1577 	.area	SSEG
      000000                       1578 __start__stack:
      000000                       1579 	.ds	1
                                   1580 
                                   1581 ;--------------------------------------------------------
                                   1582 ; indirectly addressable internal ram data
                                   1583 ;--------------------------------------------------------
                                   1584 	.area ISEG    (DATA)
                                   1585 ;--------------------------------------------------------
                                   1586 ; absolute internal ram data
                                   1587 ;--------------------------------------------------------
                                   1588 	.area IABS    (ABS,DATA)
                                   1589 	.area IABS    (ABS,DATA)
                                   1590 ;--------------------------------------------------------
                                   1591 ; bit data
                                   1592 ;--------------------------------------------------------
                                   1593 	.area BSEG    (BIT)
                           000000  1594 Lmain._sdcc_external_startup$sloc0$1$0==.
      000000                       1595 __sdcc_external_startup_sloc0_1_0:
      000000                       1596 	.ds 1
                                   1597 ;--------------------------------------------------------
                                   1598 ; paged external ram data
                                   1599 ;--------------------------------------------------------
                                   1600 	.area PSEG    (PAG,XDATA)
                                   1601 ;--------------------------------------------------------
                                   1602 ; external ram data
                                   1603 ;--------------------------------------------------------
                                   1604 	.area XSEG    (XDATA)
                           007020  1605 G$ADCCH0VAL0$0$0 == 0x7020
                           007020  1606 _ADCCH0VAL0	=	0x7020
                           007021  1607 G$ADCCH0VAL1$0$0 == 0x7021
                           007021  1608 _ADCCH0VAL1	=	0x7021
                           007020  1609 G$ADCCH0VAL$0$0 == 0x7020
                           007020  1610 _ADCCH0VAL	=	0x7020
                           007022  1611 G$ADCCH1VAL0$0$0 == 0x7022
                           007022  1612 _ADCCH1VAL0	=	0x7022
                           007023  1613 G$ADCCH1VAL1$0$0 == 0x7023
                           007023  1614 _ADCCH1VAL1	=	0x7023
                           007022  1615 G$ADCCH1VAL$0$0 == 0x7022
                           007022  1616 _ADCCH1VAL	=	0x7022
                           007024  1617 G$ADCCH2VAL0$0$0 == 0x7024
                           007024  1618 _ADCCH2VAL0	=	0x7024
                           007025  1619 G$ADCCH2VAL1$0$0 == 0x7025
                           007025  1620 _ADCCH2VAL1	=	0x7025
                           007024  1621 G$ADCCH2VAL$0$0 == 0x7024
                           007024  1622 _ADCCH2VAL	=	0x7024
                           007026  1623 G$ADCCH3VAL0$0$0 == 0x7026
                           007026  1624 _ADCCH3VAL0	=	0x7026
                           007027  1625 G$ADCCH3VAL1$0$0 == 0x7027
                           007027  1626 _ADCCH3VAL1	=	0x7027
                           007026  1627 G$ADCCH3VAL$0$0 == 0x7026
                           007026  1628 _ADCCH3VAL	=	0x7026
                           007028  1629 G$ADCTUNE0$0$0 == 0x7028
                           007028  1630 _ADCTUNE0	=	0x7028
                           007029  1631 G$ADCTUNE1$0$0 == 0x7029
                           007029  1632 _ADCTUNE1	=	0x7029
                           00702A  1633 G$ADCTUNE2$0$0 == 0x702a
                           00702A  1634 _ADCTUNE2	=	0x702a
                           007010  1635 G$DMA0ADDR0$0$0 == 0x7010
                           007010  1636 _DMA0ADDR0	=	0x7010
                           007011  1637 G$DMA0ADDR1$0$0 == 0x7011
                           007011  1638 _DMA0ADDR1	=	0x7011
                           007010  1639 G$DMA0ADDR$0$0 == 0x7010
                           007010  1640 _DMA0ADDR	=	0x7010
                           007014  1641 G$DMA0CONFIG$0$0 == 0x7014
                           007014  1642 _DMA0CONFIG	=	0x7014
                           007012  1643 G$DMA1ADDR0$0$0 == 0x7012
                           007012  1644 _DMA1ADDR0	=	0x7012
                           007013  1645 G$DMA1ADDR1$0$0 == 0x7013
                           007013  1646 _DMA1ADDR1	=	0x7013
                           007012  1647 G$DMA1ADDR$0$0 == 0x7012
                           007012  1648 _DMA1ADDR	=	0x7012
                           007015  1649 G$DMA1CONFIG$0$0 == 0x7015
                           007015  1650 _DMA1CONFIG	=	0x7015
                           007070  1651 G$FRCOSCCONFIG$0$0 == 0x7070
                           007070  1652 _FRCOSCCONFIG	=	0x7070
                           007071  1653 G$FRCOSCCTRL$0$0 == 0x7071
                           007071  1654 _FRCOSCCTRL	=	0x7071
                           007076  1655 G$FRCOSCFREQ0$0$0 == 0x7076
                           007076  1656 _FRCOSCFREQ0	=	0x7076
                           007077  1657 G$FRCOSCFREQ1$0$0 == 0x7077
                           007077  1658 _FRCOSCFREQ1	=	0x7077
                           007076  1659 G$FRCOSCFREQ$0$0 == 0x7076
                           007076  1660 _FRCOSCFREQ	=	0x7076
                           007072  1661 G$FRCOSCKFILT0$0$0 == 0x7072
                           007072  1662 _FRCOSCKFILT0	=	0x7072
                           007073  1663 G$FRCOSCKFILT1$0$0 == 0x7073
                           007073  1664 _FRCOSCKFILT1	=	0x7073
                           007072  1665 G$FRCOSCKFILT$0$0 == 0x7072
                           007072  1666 _FRCOSCKFILT	=	0x7072
                           007078  1667 G$FRCOSCPER0$0$0 == 0x7078
                           007078  1668 _FRCOSCPER0	=	0x7078
                           007079  1669 G$FRCOSCPER1$0$0 == 0x7079
                           007079  1670 _FRCOSCPER1	=	0x7079
                           007078  1671 G$FRCOSCPER$0$0 == 0x7078
                           007078  1672 _FRCOSCPER	=	0x7078
                           007074  1673 G$FRCOSCREF0$0$0 == 0x7074
                           007074  1674 _FRCOSCREF0	=	0x7074
                           007075  1675 G$FRCOSCREF1$0$0 == 0x7075
                           007075  1676 _FRCOSCREF1	=	0x7075
                           007074  1677 G$FRCOSCREF$0$0 == 0x7074
                           007074  1678 _FRCOSCREF	=	0x7074
                           007007  1679 G$ANALOGA$0$0 == 0x7007
                           007007  1680 _ANALOGA	=	0x7007
                           00700C  1681 G$GPIOENABLE$0$0 == 0x700c
                           00700C  1682 _GPIOENABLE	=	0x700c
                           007003  1683 G$EXTIRQ$0$0 == 0x7003
                           007003  1684 _EXTIRQ	=	0x7003
                           007000  1685 G$INTCHGA$0$0 == 0x7000
                           007000  1686 _INTCHGA	=	0x7000
                           007001  1687 G$INTCHGB$0$0 == 0x7001
                           007001  1688 _INTCHGB	=	0x7001
                           007002  1689 G$INTCHGC$0$0 == 0x7002
                           007002  1690 _INTCHGC	=	0x7002
                           007008  1691 G$PALTA$0$0 == 0x7008
                           007008  1692 _PALTA	=	0x7008
                           007009  1693 G$PALTB$0$0 == 0x7009
                           007009  1694 _PALTB	=	0x7009
                           00700A  1695 G$PALTC$0$0 == 0x700a
                           00700A  1696 _PALTC	=	0x700a
                           007046  1697 G$PALTRADIO$0$0 == 0x7046
                           007046  1698 _PALTRADIO	=	0x7046
                           007004  1699 G$PINCHGA$0$0 == 0x7004
                           007004  1700 _PINCHGA	=	0x7004
                           007005  1701 G$PINCHGB$0$0 == 0x7005
                           007005  1702 _PINCHGB	=	0x7005
                           007006  1703 G$PINCHGC$0$0 == 0x7006
                           007006  1704 _PINCHGC	=	0x7006
                           00700B  1705 G$PINSEL$0$0 == 0x700b
                           00700B  1706 _PINSEL	=	0x700b
                           007060  1707 G$LPOSCCONFIG$0$0 == 0x7060
                           007060  1708 _LPOSCCONFIG	=	0x7060
                           007066  1709 G$LPOSCFREQ0$0$0 == 0x7066
                           007066  1710 _LPOSCFREQ0	=	0x7066
                           007067  1711 G$LPOSCFREQ1$0$0 == 0x7067
                           007067  1712 _LPOSCFREQ1	=	0x7067
                           007066  1713 G$LPOSCFREQ$0$0 == 0x7066
                           007066  1714 _LPOSCFREQ	=	0x7066
                           007062  1715 G$LPOSCKFILT0$0$0 == 0x7062
                           007062  1716 _LPOSCKFILT0	=	0x7062
                           007063  1717 G$LPOSCKFILT1$0$0 == 0x7063
                           007063  1718 _LPOSCKFILT1	=	0x7063
                           007062  1719 G$LPOSCKFILT$0$0 == 0x7062
                           007062  1720 _LPOSCKFILT	=	0x7062
                           007068  1721 G$LPOSCPER0$0$0 == 0x7068
                           007068  1722 _LPOSCPER0	=	0x7068
                           007069  1723 G$LPOSCPER1$0$0 == 0x7069
                           007069  1724 _LPOSCPER1	=	0x7069
                           007068  1725 G$LPOSCPER$0$0 == 0x7068
                           007068  1726 _LPOSCPER	=	0x7068
                           007064  1727 G$LPOSCREF0$0$0 == 0x7064
                           007064  1728 _LPOSCREF0	=	0x7064
                           007065  1729 G$LPOSCREF1$0$0 == 0x7065
                           007065  1730 _LPOSCREF1	=	0x7065
                           007064  1731 G$LPOSCREF$0$0 == 0x7064
                           007064  1732 _LPOSCREF	=	0x7064
                           007054  1733 G$LPXOSCGM$0$0 == 0x7054
                           007054  1734 _LPXOSCGM	=	0x7054
                           007F01  1735 G$MISCCTRL$0$0 == 0x7f01
                           007F01  1736 _MISCCTRL	=	0x7f01
                           007053  1737 G$OSCCALIB$0$0 == 0x7053
                           007053  1738 _OSCCALIB	=	0x7053
                           007050  1739 G$OSCFORCERUN$0$0 == 0x7050
                           007050  1740 _OSCFORCERUN	=	0x7050
                           007052  1741 G$OSCREADY$0$0 == 0x7052
                           007052  1742 _OSCREADY	=	0x7052
                           007051  1743 G$OSCRUN$0$0 == 0x7051
                           007051  1744 _OSCRUN	=	0x7051
                           007040  1745 G$RADIOFDATAADDR0$0$0 == 0x7040
                           007040  1746 _RADIOFDATAADDR0	=	0x7040
                           007041  1747 G$RADIOFDATAADDR1$0$0 == 0x7041
                           007041  1748 _RADIOFDATAADDR1	=	0x7041
                           007040  1749 G$RADIOFDATAADDR$0$0 == 0x7040
                           007040  1750 _RADIOFDATAADDR	=	0x7040
                           007042  1751 G$RADIOFSTATADDR0$0$0 == 0x7042
                           007042  1752 _RADIOFSTATADDR0	=	0x7042
                           007043  1753 G$RADIOFSTATADDR1$0$0 == 0x7043
                           007043  1754 _RADIOFSTATADDR1	=	0x7043
                           007042  1755 G$RADIOFSTATADDR$0$0 == 0x7042
                           007042  1756 _RADIOFSTATADDR	=	0x7042
                           007044  1757 G$RADIOMUX$0$0 == 0x7044
                           007044  1758 _RADIOMUX	=	0x7044
                           007084  1759 G$SCRATCH0$0$0 == 0x7084
                           007084  1760 _SCRATCH0	=	0x7084
                           007085  1761 G$SCRATCH1$0$0 == 0x7085
                           007085  1762 _SCRATCH1	=	0x7085
                           007086  1763 G$SCRATCH2$0$0 == 0x7086
                           007086  1764 _SCRATCH2	=	0x7086
                           007087  1765 G$SCRATCH3$0$0 == 0x7087
                           007087  1766 _SCRATCH3	=	0x7087
                           007F00  1767 G$SILICONREV$0$0 == 0x7f00
                           007F00  1768 _SILICONREV	=	0x7f00
                           007F19  1769 G$XTALAMPL$0$0 == 0x7f19
                           007F19  1770 _XTALAMPL	=	0x7f19
                           007F18  1771 G$XTALOSC$0$0 == 0x7f18
                           007F18  1772 _XTALOSC	=	0x7f18
                           007F1A  1773 G$XTALREADY$0$0 == 0x7f1a
                           007F1A  1774 _XTALREADY	=	0x7f1a
                           00FC06  1775 Fmain$flash_deviceid$0$0 == 0xfc06
                           00FC06  1776 _flash_deviceid	=	0xfc06
                           00FC00  1777 Fmain$flash_calsector$0$0 == 0xfc00
                           00FC00  1778 _flash_calsector	=	0xfc00
                           007091  1779 G$AESCONFIG$0$0 == 0x7091
                           007091  1780 _AESCONFIG	=	0x7091
                           007098  1781 G$AESCURBLOCK$0$0 == 0x7098
                           007098  1782 _AESCURBLOCK	=	0x7098
                           007094  1783 G$AESINADDR0$0$0 == 0x7094
                           007094  1784 _AESINADDR0	=	0x7094
                           007095  1785 G$AESINADDR1$0$0 == 0x7095
                           007095  1786 _AESINADDR1	=	0x7095
                           007094  1787 G$AESINADDR$0$0 == 0x7094
                           007094  1788 _AESINADDR	=	0x7094
                           007092  1789 G$AESKEYADDR0$0$0 == 0x7092
                           007092  1790 _AESKEYADDR0	=	0x7092
                           007093  1791 G$AESKEYADDR1$0$0 == 0x7093
                           007093  1792 _AESKEYADDR1	=	0x7093
                           007092  1793 G$AESKEYADDR$0$0 == 0x7092
                           007092  1794 _AESKEYADDR	=	0x7092
                           007090  1795 G$AESMODE$0$0 == 0x7090
                           007090  1796 _AESMODE	=	0x7090
                           007096  1797 G$AESOUTADDR0$0$0 == 0x7096
                           007096  1798 _AESOUTADDR0	=	0x7096
                           007097  1799 G$AESOUTADDR1$0$0 == 0x7097
                           007097  1800 _AESOUTADDR1	=	0x7097
                           007096  1801 G$AESOUTADDR$0$0 == 0x7096
                           007096  1802 _AESOUTADDR	=	0x7096
                           007081  1803 G$RNGBYTE$0$0 == 0x7081
                           007081  1804 _RNGBYTE	=	0x7081
                           007082  1805 G$RNGCLKSRC0$0$0 == 0x7082
                           007082  1806 _RNGCLKSRC0	=	0x7082
                           007083  1807 G$RNGCLKSRC1$0$0 == 0x7083
                           007083  1808 _RNGCLKSRC1	=	0x7083
                           007080  1809 G$RNGMODE$0$0 == 0x7080
                           007080  1810 _RNGMODE	=	0x7080
                           004114  1811 G$AX5043_AFSKCTRL$0$0 == 0x4114
                           004114  1812 _AX5043_AFSKCTRL	=	0x4114
                           004113  1813 G$AX5043_AFSKMARK0$0$0 == 0x4113
                           004113  1814 _AX5043_AFSKMARK0	=	0x4113
                           004112  1815 G$AX5043_AFSKMARK1$0$0 == 0x4112
                           004112  1816 _AX5043_AFSKMARK1	=	0x4112
                           004111  1817 G$AX5043_AFSKSPACE0$0$0 == 0x4111
                           004111  1818 _AX5043_AFSKSPACE0	=	0x4111
                           004110  1819 G$AX5043_AFSKSPACE1$0$0 == 0x4110
                           004110  1820 _AX5043_AFSKSPACE1	=	0x4110
                           004043  1821 G$AX5043_AGCCOUNTER$0$0 == 0x4043
                           004043  1822 _AX5043_AGCCOUNTER	=	0x4043
                           004115  1823 G$AX5043_AMPLFILTER$0$0 == 0x4115
                           004115  1824 _AX5043_AMPLFILTER	=	0x4115
                           004189  1825 G$AX5043_BBOFFSCAP$0$0 == 0x4189
                           004189  1826 _AX5043_BBOFFSCAP	=	0x4189
                           004188  1827 G$AX5043_BBTUNE$0$0 == 0x4188
                           004188  1828 _AX5043_BBTUNE	=	0x4188
                           004041  1829 G$AX5043_BGNDRSSI$0$0 == 0x4041
                           004041  1830 _AX5043_BGNDRSSI	=	0x4041
                           00422E  1831 G$AX5043_BGNDRSSIGAIN$0$0 == 0x422e
                           00422E  1832 _AX5043_BGNDRSSIGAIN	=	0x422e
                           00422F  1833 G$AX5043_BGNDRSSITHR$0$0 == 0x422f
                           00422F  1834 _AX5043_BGNDRSSITHR	=	0x422f
                           004017  1835 G$AX5043_CRCINIT0$0$0 == 0x4017
                           004017  1836 _AX5043_CRCINIT0	=	0x4017
                           004016  1837 G$AX5043_CRCINIT1$0$0 == 0x4016
                           004016  1838 _AX5043_CRCINIT1	=	0x4016
                           004015  1839 G$AX5043_CRCINIT2$0$0 == 0x4015
                           004015  1840 _AX5043_CRCINIT2	=	0x4015
                           004014  1841 G$AX5043_CRCINIT3$0$0 == 0x4014
                           004014  1842 _AX5043_CRCINIT3	=	0x4014
                           004332  1843 G$AX5043_DACCONFIG$0$0 == 0x4332
                           004332  1844 _AX5043_DACCONFIG	=	0x4332
                           004331  1845 G$AX5043_DACVALUE0$0$0 == 0x4331
                           004331  1846 _AX5043_DACVALUE0	=	0x4331
                           004330  1847 G$AX5043_DACVALUE1$0$0 == 0x4330
                           004330  1848 _AX5043_DACVALUE1	=	0x4330
                           004102  1849 G$AX5043_DECIMATION$0$0 == 0x4102
                           004102  1850 _AX5043_DECIMATION	=	0x4102
                           004042  1851 G$AX5043_DIVERSITY$0$0 == 0x4042
                           004042  1852 _AX5043_DIVERSITY	=	0x4042
                           004011  1853 G$AX5043_ENCODING$0$0 == 0x4011
                           004011  1854 _AX5043_ENCODING	=	0x4011
                           004018  1855 G$AX5043_FEC$0$0 == 0x4018
                           004018  1856 _AX5043_FEC	=	0x4018
                           00401A  1857 G$AX5043_FECSTATUS$0$0 == 0x401a
                           00401A  1858 _AX5043_FECSTATUS	=	0x401a
                           004019  1859 G$AX5043_FECSYNC$0$0 == 0x4019
                           004019  1860 _AX5043_FECSYNC	=	0x4019
                           00402B  1861 G$AX5043_FIFOCOUNT0$0$0 == 0x402b
                           00402B  1862 _AX5043_FIFOCOUNT0	=	0x402b
                           00402A  1863 G$AX5043_FIFOCOUNT1$0$0 == 0x402a
                           00402A  1864 _AX5043_FIFOCOUNT1	=	0x402a
                           004029  1865 G$AX5043_FIFODATA$0$0 == 0x4029
                           004029  1866 _AX5043_FIFODATA	=	0x4029
                           00402D  1867 G$AX5043_FIFOFREE0$0$0 == 0x402d
                           00402D  1868 _AX5043_FIFOFREE0	=	0x402d
                           00402C  1869 G$AX5043_FIFOFREE1$0$0 == 0x402c
                           00402C  1870 _AX5043_FIFOFREE1	=	0x402c
                           004028  1871 G$AX5043_FIFOSTAT$0$0 == 0x4028
                           004028  1872 _AX5043_FIFOSTAT	=	0x4028
                           00402F  1873 G$AX5043_FIFOTHRESH0$0$0 == 0x402f
                           00402F  1874 _AX5043_FIFOTHRESH0	=	0x402f
                           00402E  1875 G$AX5043_FIFOTHRESH1$0$0 == 0x402e
                           00402E  1876 _AX5043_FIFOTHRESH1	=	0x402e
                           004012  1877 G$AX5043_FRAMING$0$0 == 0x4012
                           004012  1878 _AX5043_FRAMING	=	0x4012
                           004037  1879 G$AX5043_FREQA0$0$0 == 0x4037
                           004037  1880 _AX5043_FREQA0	=	0x4037
                           004036  1881 G$AX5043_FREQA1$0$0 == 0x4036
                           004036  1882 _AX5043_FREQA1	=	0x4036
                           004035  1883 G$AX5043_FREQA2$0$0 == 0x4035
                           004035  1884 _AX5043_FREQA2	=	0x4035
                           004034  1885 G$AX5043_FREQA3$0$0 == 0x4034
                           004034  1886 _AX5043_FREQA3	=	0x4034
                           00403F  1887 G$AX5043_FREQB0$0$0 == 0x403f
                           00403F  1888 _AX5043_FREQB0	=	0x403f
                           00403E  1889 G$AX5043_FREQB1$0$0 == 0x403e
                           00403E  1890 _AX5043_FREQB1	=	0x403e
                           00403D  1891 G$AX5043_FREQB2$0$0 == 0x403d
                           00403D  1892 _AX5043_FREQB2	=	0x403d
                           00403C  1893 G$AX5043_FREQB3$0$0 == 0x403c
                           00403C  1894 _AX5043_FREQB3	=	0x403c
                           004163  1895 G$AX5043_FSKDEV0$0$0 == 0x4163
                           004163  1896 _AX5043_FSKDEV0	=	0x4163
                           004162  1897 G$AX5043_FSKDEV1$0$0 == 0x4162
                           004162  1898 _AX5043_FSKDEV1	=	0x4162
                           004161  1899 G$AX5043_FSKDEV2$0$0 == 0x4161
                           004161  1900 _AX5043_FSKDEV2	=	0x4161
                           00410D  1901 G$AX5043_FSKDMAX0$0$0 == 0x410d
                           00410D  1902 _AX5043_FSKDMAX0	=	0x410d
                           00410C  1903 G$AX5043_FSKDMAX1$0$0 == 0x410c
                           00410C  1904 _AX5043_FSKDMAX1	=	0x410c
                           00410F  1905 G$AX5043_FSKDMIN0$0$0 == 0x410f
                           00410F  1906 _AX5043_FSKDMIN0	=	0x410f
                           00410E  1907 G$AX5043_FSKDMIN1$0$0 == 0x410e
                           00410E  1908 _AX5043_FSKDMIN1	=	0x410e
                           004309  1909 G$AX5043_GPADC13VALUE0$0$0 == 0x4309
                           004309  1910 _AX5043_GPADC13VALUE0	=	0x4309
                           004308  1911 G$AX5043_GPADC13VALUE1$0$0 == 0x4308
                           004308  1912 _AX5043_GPADC13VALUE1	=	0x4308
                           004300  1913 G$AX5043_GPADCCTRL$0$0 == 0x4300
                           004300  1914 _AX5043_GPADCCTRL	=	0x4300
                           004301  1915 G$AX5043_GPADCPERIOD$0$0 == 0x4301
                           004301  1916 _AX5043_GPADCPERIOD	=	0x4301
                           004101  1917 G$AX5043_IFFREQ0$0$0 == 0x4101
                           004101  1918 _AX5043_IFFREQ0	=	0x4101
                           004100  1919 G$AX5043_IFFREQ1$0$0 == 0x4100
                           004100  1920 _AX5043_IFFREQ1	=	0x4100
                           00400B  1921 G$AX5043_IRQINVERSION0$0$0 == 0x400b
                           00400B  1922 _AX5043_IRQINVERSION0	=	0x400b
                           00400A  1923 G$AX5043_IRQINVERSION1$0$0 == 0x400a
                           00400A  1924 _AX5043_IRQINVERSION1	=	0x400a
                           004007  1925 G$AX5043_IRQMASK0$0$0 == 0x4007
                           004007  1926 _AX5043_IRQMASK0	=	0x4007
                           004006  1927 G$AX5043_IRQMASK1$0$0 == 0x4006
                           004006  1928 _AX5043_IRQMASK1	=	0x4006
                           00400D  1929 G$AX5043_IRQREQUEST0$0$0 == 0x400d
                           00400D  1930 _AX5043_IRQREQUEST0	=	0x400d
                           00400C  1931 G$AX5043_IRQREQUEST1$0$0 == 0x400c
                           00400C  1932 _AX5043_IRQREQUEST1	=	0x400c
                           004310  1933 G$AX5043_LPOSCCONFIG$0$0 == 0x4310
                           004310  1934 _AX5043_LPOSCCONFIG	=	0x4310
                           004317  1935 G$AX5043_LPOSCFREQ0$0$0 == 0x4317
                           004317  1936 _AX5043_LPOSCFREQ0	=	0x4317
                           004316  1937 G$AX5043_LPOSCFREQ1$0$0 == 0x4316
                           004316  1938 _AX5043_LPOSCFREQ1	=	0x4316
                           004313  1939 G$AX5043_LPOSCKFILT0$0$0 == 0x4313
                           004313  1940 _AX5043_LPOSCKFILT0	=	0x4313
                           004312  1941 G$AX5043_LPOSCKFILT1$0$0 == 0x4312
                           004312  1942 _AX5043_LPOSCKFILT1	=	0x4312
                           004319  1943 G$AX5043_LPOSCPER0$0$0 == 0x4319
                           004319  1944 _AX5043_LPOSCPER0	=	0x4319
                           004318  1945 G$AX5043_LPOSCPER1$0$0 == 0x4318
                           004318  1946 _AX5043_LPOSCPER1	=	0x4318
                           004315  1947 G$AX5043_LPOSCREF0$0$0 == 0x4315
                           004315  1948 _AX5043_LPOSCREF0	=	0x4315
                           004314  1949 G$AX5043_LPOSCREF1$0$0 == 0x4314
                           004314  1950 _AX5043_LPOSCREF1	=	0x4314
                           004311  1951 G$AX5043_LPOSCSTATUS$0$0 == 0x4311
                           004311  1952 _AX5043_LPOSCSTATUS	=	0x4311
                           004214  1953 G$AX5043_MATCH0LEN$0$0 == 0x4214
                           004214  1954 _AX5043_MATCH0LEN	=	0x4214
                           004216  1955 G$AX5043_MATCH0MAX$0$0 == 0x4216
                           004216  1956 _AX5043_MATCH0MAX	=	0x4216
                           004215  1957 G$AX5043_MATCH0MIN$0$0 == 0x4215
                           004215  1958 _AX5043_MATCH0MIN	=	0x4215
                           004213  1959 G$AX5043_MATCH0PAT0$0$0 == 0x4213
                           004213  1960 _AX5043_MATCH0PAT0	=	0x4213
                           004212  1961 G$AX5043_MATCH0PAT1$0$0 == 0x4212
                           004212  1962 _AX5043_MATCH0PAT1	=	0x4212
                           004211  1963 G$AX5043_MATCH0PAT2$0$0 == 0x4211
                           004211  1964 _AX5043_MATCH0PAT2	=	0x4211
                           004210  1965 G$AX5043_MATCH0PAT3$0$0 == 0x4210
                           004210  1966 _AX5043_MATCH0PAT3	=	0x4210
                           00421C  1967 G$AX5043_MATCH1LEN$0$0 == 0x421c
                           00421C  1968 _AX5043_MATCH1LEN	=	0x421c
                           00421E  1969 G$AX5043_MATCH1MAX$0$0 == 0x421e
                           00421E  1970 _AX5043_MATCH1MAX	=	0x421e
                           00421D  1971 G$AX5043_MATCH1MIN$0$0 == 0x421d
                           00421D  1972 _AX5043_MATCH1MIN	=	0x421d
                           004219  1973 G$AX5043_MATCH1PAT0$0$0 == 0x4219
                           004219  1974 _AX5043_MATCH1PAT0	=	0x4219
                           004218  1975 G$AX5043_MATCH1PAT1$0$0 == 0x4218
                           004218  1976 _AX5043_MATCH1PAT1	=	0x4218
                           004108  1977 G$AX5043_MAXDROFFSET0$0$0 == 0x4108
                           004108  1978 _AX5043_MAXDROFFSET0	=	0x4108
                           004107  1979 G$AX5043_MAXDROFFSET1$0$0 == 0x4107
                           004107  1980 _AX5043_MAXDROFFSET1	=	0x4107
                           004106  1981 G$AX5043_MAXDROFFSET2$0$0 == 0x4106
                           004106  1982 _AX5043_MAXDROFFSET2	=	0x4106
                           00410B  1983 G$AX5043_MAXRFOFFSET0$0$0 == 0x410b
                           00410B  1984 _AX5043_MAXRFOFFSET0	=	0x410b
                           00410A  1985 G$AX5043_MAXRFOFFSET1$0$0 == 0x410a
                           00410A  1986 _AX5043_MAXRFOFFSET1	=	0x410a
                           004109  1987 G$AX5043_MAXRFOFFSET2$0$0 == 0x4109
                           004109  1988 _AX5043_MAXRFOFFSET2	=	0x4109
                           004164  1989 G$AX5043_MODCFGA$0$0 == 0x4164
                           004164  1990 _AX5043_MODCFGA	=	0x4164
                           004160  1991 G$AX5043_MODCFGF$0$0 == 0x4160
                           004160  1992 _AX5043_MODCFGF	=	0x4160
                           004F5F  1993 G$AX5043_MODCFGP$0$0 == 0x4f5f
                           004F5F  1994 _AX5043_MODCFGP	=	0x4f5f
                           004010  1995 G$AX5043_MODULATION$0$0 == 0x4010
                           004010  1996 _AX5043_MODULATION	=	0x4010
                           004025  1997 G$AX5043_PINFUNCANTSEL$0$0 == 0x4025
                           004025  1998 _AX5043_PINFUNCANTSEL	=	0x4025
                           004023  1999 G$AX5043_PINFUNCDATA$0$0 == 0x4023
                           004023  2000 _AX5043_PINFUNCDATA	=	0x4023
                           004022  2001 G$AX5043_PINFUNCDCLK$0$0 == 0x4022
                           004022  2002 _AX5043_PINFUNCDCLK	=	0x4022
                           004024  2003 G$AX5043_PINFUNCIRQ$0$0 == 0x4024
                           004024  2004 _AX5043_PINFUNCIRQ	=	0x4024
                           004026  2005 G$AX5043_PINFUNCPWRAMP$0$0 == 0x4026
                           004026  2006 _AX5043_PINFUNCPWRAMP	=	0x4026
                           004021  2007 G$AX5043_PINFUNCSYSCLK$0$0 == 0x4021
                           004021  2008 _AX5043_PINFUNCSYSCLK	=	0x4021
                           004020  2009 G$AX5043_PINSTATE$0$0 == 0x4020
                           004020  2010 _AX5043_PINSTATE	=	0x4020
                           004233  2011 G$AX5043_PKTACCEPTFLAGS$0$0 == 0x4233
                           004233  2012 _AX5043_PKTACCEPTFLAGS	=	0x4233
                           004230  2013 G$AX5043_PKTCHUNKSIZE$0$0 == 0x4230
                           004230  2014 _AX5043_PKTCHUNKSIZE	=	0x4230
                           004231  2015 G$AX5043_PKTMISCFLAGS$0$0 == 0x4231
                           004231  2016 _AX5043_PKTMISCFLAGS	=	0x4231
                           004232  2017 G$AX5043_PKTSTOREFLAGS$0$0 == 0x4232
                           004232  2018 _AX5043_PKTSTOREFLAGS	=	0x4232
                           004031  2019 G$AX5043_PLLCPI$0$0 == 0x4031
                           004031  2020 _AX5043_PLLCPI	=	0x4031
                           004039  2021 G$AX5043_PLLCPIBOOST$0$0 == 0x4039
                           004039  2022 _AX5043_PLLCPIBOOST	=	0x4039
                           004182  2023 G$AX5043_PLLLOCKDET$0$0 == 0x4182
                           004182  2024 _AX5043_PLLLOCKDET	=	0x4182
                           004030  2025 G$AX5043_PLLLOOP$0$0 == 0x4030
                           004030  2026 _AX5043_PLLLOOP	=	0x4030
                           004038  2027 G$AX5043_PLLLOOPBOOST$0$0 == 0x4038
                           004038  2028 _AX5043_PLLLOOPBOOST	=	0x4038
                           004033  2029 G$AX5043_PLLRANGINGA$0$0 == 0x4033
                           004033  2030 _AX5043_PLLRANGINGA	=	0x4033
                           00403B  2031 G$AX5043_PLLRANGINGB$0$0 == 0x403b
                           00403B  2032 _AX5043_PLLRANGINGB	=	0x403b
                           004183  2033 G$AX5043_PLLRNGCLK$0$0 == 0x4183
                           004183  2034 _AX5043_PLLRNGCLK	=	0x4183
                           004032  2035 G$AX5043_PLLVCODIV$0$0 == 0x4032
                           004032  2036 _AX5043_PLLVCODIV	=	0x4032
                           004180  2037 G$AX5043_PLLVCOI$0$0 == 0x4180
                           004180  2038 _AX5043_PLLVCOI	=	0x4180
                           004181  2039 G$AX5043_PLLVCOIR$0$0 == 0x4181
                           004181  2040 _AX5043_PLLVCOIR	=	0x4181
                           004F08  2041 G$AX5043_POWCTRL1$0$0 == 0x4f08
                           004F08  2042 _AX5043_POWCTRL1	=	0x4f08
                           004005  2043 G$AX5043_POWIRQMASK$0$0 == 0x4005
                           004005  2044 _AX5043_POWIRQMASK	=	0x4005
                           004003  2045 G$AX5043_POWSTAT$0$0 == 0x4003
                           004003  2046 _AX5043_POWSTAT	=	0x4003
                           004004  2047 G$AX5043_POWSTICKYSTAT$0$0 == 0x4004
                           004004  2048 _AX5043_POWSTICKYSTAT	=	0x4004
                           004027  2049 G$AX5043_PWRAMP$0$0 == 0x4027
                           004027  2050 _AX5043_PWRAMP	=	0x4027
                           004002  2051 G$AX5043_PWRMODE$0$0 == 0x4002
                           004002  2052 _AX5043_PWRMODE	=	0x4002
                           004009  2053 G$AX5043_RADIOEVENTMASK0$0$0 == 0x4009
                           004009  2054 _AX5043_RADIOEVENTMASK0	=	0x4009
                           004008  2055 G$AX5043_RADIOEVENTMASK1$0$0 == 0x4008
                           004008  2056 _AX5043_RADIOEVENTMASK1	=	0x4008
                           00400F  2057 G$AX5043_RADIOEVENTREQ0$0$0 == 0x400f
                           00400F  2058 _AX5043_RADIOEVENTREQ0	=	0x400f
                           00400E  2059 G$AX5043_RADIOEVENTREQ1$0$0 == 0x400e
                           00400E  2060 _AX5043_RADIOEVENTREQ1	=	0x400e
                           00401C  2061 G$AX5043_RADIOSTATE$0$0 == 0x401c
                           00401C  2062 _AX5043_RADIOSTATE	=	0x401c
                           004F0D  2063 G$AX5043_REF$0$0 == 0x4f0d
                           004F0D  2064 _AX5043_REF	=	0x4f0d
                           004040  2065 G$AX5043_RSSI$0$0 == 0x4040
                           004040  2066 _AX5043_RSSI	=	0x4040
                           00422D  2067 G$AX5043_RSSIABSTHR$0$0 == 0x422d
                           00422D  2068 _AX5043_RSSIABSTHR	=	0x422d
                           00422C  2069 G$AX5043_RSSIREFERENCE$0$0 == 0x422c
                           00422C  2070 _AX5043_RSSIREFERENCE	=	0x422c
                           004105  2071 G$AX5043_RXDATARATE0$0$0 == 0x4105
                           004105  2072 _AX5043_RXDATARATE0	=	0x4105
                           004104  2073 G$AX5043_RXDATARATE1$0$0 == 0x4104
                           004104  2074 _AX5043_RXDATARATE1	=	0x4104
                           004103  2075 G$AX5043_RXDATARATE2$0$0 == 0x4103
                           004103  2076 _AX5043_RXDATARATE2	=	0x4103
                           004001  2077 G$AX5043_SCRATCH$0$0 == 0x4001
                           004001  2078 _AX5043_SCRATCH	=	0x4001
                           004000  2079 G$AX5043_SILICONREVISION$0$0 == 0x4000
                           004000  2080 _AX5043_SILICONREVISION	=	0x4000
                           00405B  2081 G$AX5043_TIMER0$0$0 == 0x405b
                           00405B  2082 _AX5043_TIMER0	=	0x405b
                           00405A  2083 G$AX5043_TIMER1$0$0 == 0x405a
                           00405A  2084 _AX5043_TIMER1	=	0x405a
                           004059  2085 G$AX5043_TIMER2$0$0 == 0x4059
                           004059  2086 _AX5043_TIMER2	=	0x4059
                           004227  2087 G$AX5043_TMGRXAGC$0$0 == 0x4227
                           004227  2088 _AX5043_TMGRXAGC	=	0x4227
                           004223  2089 G$AX5043_TMGRXBOOST$0$0 == 0x4223
                           004223  2090 _AX5043_TMGRXBOOST	=	0x4223
                           004226  2091 G$AX5043_TMGRXCOARSEAGC$0$0 == 0x4226
                           004226  2092 _AX5043_TMGRXCOARSEAGC	=	0x4226
                           004225  2093 G$AX5043_TMGRXOFFSACQ$0$0 == 0x4225
                           004225  2094 _AX5043_TMGRXOFFSACQ	=	0x4225
                           004229  2095 G$AX5043_TMGRXPREAMBLE1$0$0 == 0x4229
                           004229  2096 _AX5043_TMGRXPREAMBLE1	=	0x4229
                           00422A  2097 G$AX5043_TMGRXPREAMBLE2$0$0 == 0x422a
                           00422A  2098 _AX5043_TMGRXPREAMBLE2	=	0x422a
                           00422B  2099 G$AX5043_TMGRXPREAMBLE3$0$0 == 0x422b
                           00422B  2100 _AX5043_TMGRXPREAMBLE3	=	0x422b
                           004228  2101 G$AX5043_TMGRXRSSI$0$0 == 0x4228
                           004228  2102 _AX5043_TMGRXRSSI	=	0x4228
                           004224  2103 G$AX5043_TMGRXSETTLE$0$0 == 0x4224
                           004224  2104 _AX5043_TMGRXSETTLE	=	0x4224
                           004220  2105 G$AX5043_TMGTXBOOST$0$0 == 0x4220
                           004220  2106 _AX5043_TMGTXBOOST	=	0x4220
                           004221  2107 G$AX5043_TMGTXSETTLE$0$0 == 0x4221
                           004221  2108 _AX5043_TMGTXSETTLE	=	0x4221
                           004055  2109 G$AX5043_TRKAFSKDEMOD0$0$0 == 0x4055
                           004055  2110 _AX5043_TRKAFSKDEMOD0	=	0x4055
                           004054  2111 G$AX5043_TRKAFSKDEMOD1$0$0 == 0x4054
                           004054  2112 _AX5043_TRKAFSKDEMOD1	=	0x4054
                           004049  2113 G$AX5043_TRKAMPLITUDE0$0$0 == 0x4049
                           004049  2114 _AX5043_TRKAMPLITUDE0	=	0x4049
                           004048  2115 G$AX5043_TRKAMPLITUDE1$0$0 == 0x4048
                           004048  2116 _AX5043_TRKAMPLITUDE1	=	0x4048
                           004047  2117 G$AX5043_TRKDATARATE0$0$0 == 0x4047
                           004047  2118 _AX5043_TRKDATARATE0	=	0x4047
                           004046  2119 G$AX5043_TRKDATARATE1$0$0 == 0x4046
                           004046  2120 _AX5043_TRKDATARATE1	=	0x4046
                           004045  2121 G$AX5043_TRKDATARATE2$0$0 == 0x4045
                           004045  2122 _AX5043_TRKDATARATE2	=	0x4045
                           004051  2123 G$AX5043_TRKFREQ0$0$0 == 0x4051
                           004051  2124 _AX5043_TRKFREQ0	=	0x4051
                           004050  2125 G$AX5043_TRKFREQ1$0$0 == 0x4050
                           004050  2126 _AX5043_TRKFREQ1	=	0x4050
                           004053  2127 G$AX5043_TRKFSKDEMOD0$0$0 == 0x4053
                           004053  2128 _AX5043_TRKFSKDEMOD0	=	0x4053
                           004052  2129 G$AX5043_TRKFSKDEMOD1$0$0 == 0x4052
                           004052  2130 _AX5043_TRKFSKDEMOD1	=	0x4052
                           00404B  2131 G$AX5043_TRKPHASE0$0$0 == 0x404b
                           00404B  2132 _AX5043_TRKPHASE0	=	0x404b
                           00404A  2133 G$AX5043_TRKPHASE1$0$0 == 0x404a
                           00404A  2134 _AX5043_TRKPHASE1	=	0x404a
                           00404F  2135 G$AX5043_TRKRFFREQ0$0$0 == 0x404f
                           00404F  2136 _AX5043_TRKRFFREQ0	=	0x404f
                           00404E  2137 G$AX5043_TRKRFFREQ1$0$0 == 0x404e
                           00404E  2138 _AX5043_TRKRFFREQ1	=	0x404e
                           00404D  2139 G$AX5043_TRKRFFREQ2$0$0 == 0x404d
                           00404D  2140 _AX5043_TRKRFFREQ2	=	0x404d
                           004169  2141 G$AX5043_TXPWRCOEFFA0$0$0 == 0x4169
                           004169  2142 _AX5043_TXPWRCOEFFA0	=	0x4169
                           004168  2143 G$AX5043_TXPWRCOEFFA1$0$0 == 0x4168
                           004168  2144 _AX5043_TXPWRCOEFFA1	=	0x4168
                           00416B  2145 G$AX5043_TXPWRCOEFFB0$0$0 == 0x416b
                           00416B  2146 _AX5043_TXPWRCOEFFB0	=	0x416b
                           00416A  2147 G$AX5043_TXPWRCOEFFB1$0$0 == 0x416a
                           00416A  2148 _AX5043_TXPWRCOEFFB1	=	0x416a
                           00416D  2149 G$AX5043_TXPWRCOEFFC0$0$0 == 0x416d
                           00416D  2150 _AX5043_TXPWRCOEFFC0	=	0x416d
                           00416C  2151 G$AX5043_TXPWRCOEFFC1$0$0 == 0x416c
                           00416C  2152 _AX5043_TXPWRCOEFFC1	=	0x416c
                           00416F  2153 G$AX5043_TXPWRCOEFFD0$0$0 == 0x416f
                           00416F  2154 _AX5043_TXPWRCOEFFD0	=	0x416f
                           00416E  2155 G$AX5043_TXPWRCOEFFD1$0$0 == 0x416e
                           00416E  2156 _AX5043_TXPWRCOEFFD1	=	0x416e
                           004171  2157 G$AX5043_TXPWRCOEFFE0$0$0 == 0x4171
                           004171  2158 _AX5043_TXPWRCOEFFE0	=	0x4171
                           004170  2159 G$AX5043_TXPWRCOEFFE1$0$0 == 0x4170
                           004170  2160 _AX5043_TXPWRCOEFFE1	=	0x4170
                           004167  2161 G$AX5043_TXRATE0$0$0 == 0x4167
                           004167  2162 _AX5043_TXRATE0	=	0x4167
                           004166  2163 G$AX5043_TXRATE1$0$0 == 0x4166
                           004166  2164 _AX5043_TXRATE1	=	0x4166
                           004165  2165 G$AX5043_TXRATE2$0$0 == 0x4165
                           004165  2166 _AX5043_TXRATE2	=	0x4165
                           00406B  2167 G$AX5043_WAKEUP0$0$0 == 0x406b
                           00406B  2168 _AX5043_WAKEUP0	=	0x406b
                           00406A  2169 G$AX5043_WAKEUP1$0$0 == 0x406a
                           00406A  2170 _AX5043_WAKEUP1	=	0x406a
                           00406D  2171 G$AX5043_WAKEUPFREQ0$0$0 == 0x406d
                           00406D  2172 _AX5043_WAKEUPFREQ0	=	0x406d
                           00406C  2173 G$AX5043_WAKEUPFREQ1$0$0 == 0x406c
                           00406C  2174 _AX5043_WAKEUPFREQ1	=	0x406c
                           004069  2175 G$AX5043_WAKEUPTIMER0$0$0 == 0x4069
                           004069  2176 _AX5043_WAKEUPTIMER0	=	0x4069
                           004068  2177 G$AX5043_WAKEUPTIMER1$0$0 == 0x4068
                           004068  2178 _AX5043_WAKEUPTIMER1	=	0x4068
                           00406E  2179 G$AX5043_WAKEUPXOEARLY$0$0 == 0x406e
                           00406E  2180 _AX5043_WAKEUPXOEARLY	=	0x406e
                           004F11  2181 G$AX5043_XTALAMPL$0$0 == 0x4f11
                           004F11  2182 _AX5043_XTALAMPL	=	0x4f11
                           004184  2183 G$AX5043_XTALCAP$0$0 == 0x4184
                           004184  2184 _AX5043_XTALCAP	=	0x4184
                           004F10  2185 G$AX5043_XTALOSC$0$0 == 0x4f10
                           004F10  2186 _AX5043_XTALOSC	=	0x4f10
                           00401D  2187 G$AX5043_XTALSTATUS$0$0 == 0x401d
                           00401D  2188 _AX5043_XTALSTATUS	=	0x401d
                           004F00  2189 G$AX5043_0xF00$0$0 == 0x4f00
                           004F00  2190 _AX5043_0xF00	=	0x4f00
                           004F0C  2191 G$AX5043_0xF0C$0$0 == 0x4f0c
                           004F0C  2192 _AX5043_0xF0C	=	0x4f0c
                           004F18  2193 G$AX5043_0xF18$0$0 == 0x4f18
                           004F18  2194 _AX5043_0xF18	=	0x4f18
                           004F1C  2195 G$AX5043_0xF1C$0$0 == 0x4f1c
                           004F1C  2196 _AX5043_0xF1C	=	0x4f1c
                           004F21  2197 G$AX5043_0xF21$0$0 == 0x4f21
                           004F21  2198 _AX5043_0xF21	=	0x4f21
                           004F22  2199 G$AX5043_0xF22$0$0 == 0x4f22
                           004F22  2200 _AX5043_0xF22	=	0x4f22
                           004F23  2201 G$AX5043_0xF23$0$0 == 0x4f23
                           004F23  2202 _AX5043_0xF23	=	0x4f23
                           004F26  2203 G$AX5043_0xF26$0$0 == 0x4f26
                           004F26  2204 _AX5043_0xF26	=	0x4f26
                           004F30  2205 G$AX5043_0xF30$0$0 == 0x4f30
                           004F30  2206 _AX5043_0xF30	=	0x4f30
                           004F31  2207 G$AX5043_0xF31$0$0 == 0x4f31
                           004F31  2208 _AX5043_0xF31	=	0x4f31
                           004F32  2209 G$AX5043_0xF32$0$0 == 0x4f32
                           004F32  2210 _AX5043_0xF32	=	0x4f32
                           004F33  2211 G$AX5043_0xF33$0$0 == 0x4f33
                           004F33  2212 _AX5043_0xF33	=	0x4f33
                           004F34  2213 G$AX5043_0xF34$0$0 == 0x4f34
                           004F34  2214 _AX5043_0xF34	=	0x4f34
                           004F35  2215 G$AX5043_0xF35$0$0 == 0x4f35
                           004F35  2216 _AX5043_0xF35	=	0x4f35
                           004F44  2217 G$AX5043_0xF44$0$0 == 0x4f44
                           004F44  2218 _AX5043_0xF44	=	0x4f44
                           004122  2219 G$AX5043_AGCAHYST0$0$0 == 0x4122
                           004122  2220 _AX5043_AGCAHYST0	=	0x4122
                           004132  2221 G$AX5043_AGCAHYST1$0$0 == 0x4132
                           004132  2222 _AX5043_AGCAHYST1	=	0x4132
                           004142  2223 G$AX5043_AGCAHYST2$0$0 == 0x4142
                           004142  2224 _AX5043_AGCAHYST2	=	0x4142
                           004152  2225 G$AX5043_AGCAHYST3$0$0 == 0x4152
                           004152  2226 _AX5043_AGCAHYST3	=	0x4152
                           004120  2227 G$AX5043_AGCGAIN0$0$0 == 0x4120
                           004120  2228 _AX5043_AGCGAIN0	=	0x4120
                           004130  2229 G$AX5043_AGCGAIN1$0$0 == 0x4130
                           004130  2230 _AX5043_AGCGAIN1	=	0x4130
                           004140  2231 G$AX5043_AGCGAIN2$0$0 == 0x4140
                           004140  2232 _AX5043_AGCGAIN2	=	0x4140
                           004150  2233 G$AX5043_AGCGAIN3$0$0 == 0x4150
                           004150  2234 _AX5043_AGCGAIN3	=	0x4150
                           004123  2235 G$AX5043_AGCMINMAX0$0$0 == 0x4123
                           004123  2236 _AX5043_AGCMINMAX0	=	0x4123
                           004133  2237 G$AX5043_AGCMINMAX1$0$0 == 0x4133
                           004133  2238 _AX5043_AGCMINMAX1	=	0x4133
                           004143  2239 G$AX5043_AGCMINMAX2$0$0 == 0x4143
                           004143  2240 _AX5043_AGCMINMAX2	=	0x4143
                           004153  2241 G$AX5043_AGCMINMAX3$0$0 == 0x4153
                           004153  2242 _AX5043_AGCMINMAX3	=	0x4153
                           004121  2243 G$AX5043_AGCTARGET0$0$0 == 0x4121
                           004121  2244 _AX5043_AGCTARGET0	=	0x4121
                           004131  2245 G$AX5043_AGCTARGET1$0$0 == 0x4131
                           004131  2246 _AX5043_AGCTARGET1	=	0x4131
                           004141  2247 G$AX5043_AGCTARGET2$0$0 == 0x4141
                           004141  2248 _AX5043_AGCTARGET2	=	0x4141
                           004151  2249 G$AX5043_AGCTARGET3$0$0 == 0x4151
                           004151  2250 _AX5043_AGCTARGET3	=	0x4151
                           00412B  2251 G$AX5043_AMPLITUDEGAIN0$0$0 == 0x412b
                           00412B  2252 _AX5043_AMPLITUDEGAIN0	=	0x412b
                           00413B  2253 G$AX5043_AMPLITUDEGAIN1$0$0 == 0x413b
                           00413B  2254 _AX5043_AMPLITUDEGAIN1	=	0x413b
                           00414B  2255 G$AX5043_AMPLITUDEGAIN2$0$0 == 0x414b
                           00414B  2256 _AX5043_AMPLITUDEGAIN2	=	0x414b
                           00415B  2257 G$AX5043_AMPLITUDEGAIN3$0$0 == 0x415b
                           00415B  2258 _AX5043_AMPLITUDEGAIN3	=	0x415b
                           00412F  2259 G$AX5043_BBOFFSRES0$0$0 == 0x412f
                           00412F  2260 _AX5043_BBOFFSRES0	=	0x412f
                           00413F  2261 G$AX5043_BBOFFSRES1$0$0 == 0x413f
                           00413F  2262 _AX5043_BBOFFSRES1	=	0x413f
                           00414F  2263 G$AX5043_BBOFFSRES2$0$0 == 0x414f
                           00414F  2264 _AX5043_BBOFFSRES2	=	0x414f
                           00415F  2265 G$AX5043_BBOFFSRES3$0$0 == 0x415f
                           00415F  2266 _AX5043_BBOFFSRES3	=	0x415f
                           004125  2267 G$AX5043_DRGAIN0$0$0 == 0x4125
                           004125  2268 _AX5043_DRGAIN0	=	0x4125
                           004135  2269 G$AX5043_DRGAIN1$0$0 == 0x4135
                           004135  2270 _AX5043_DRGAIN1	=	0x4135
                           004145  2271 G$AX5043_DRGAIN2$0$0 == 0x4145
                           004145  2272 _AX5043_DRGAIN2	=	0x4145
                           004155  2273 G$AX5043_DRGAIN3$0$0 == 0x4155
                           004155  2274 _AX5043_DRGAIN3	=	0x4155
                           00412E  2275 G$AX5043_FOURFSK0$0$0 == 0x412e
                           00412E  2276 _AX5043_FOURFSK0	=	0x412e
                           00413E  2277 G$AX5043_FOURFSK1$0$0 == 0x413e
                           00413E  2278 _AX5043_FOURFSK1	=	0x413e
                           00414E  2279 G$AX5043_FOURFSK2$0$0 == 0x414e
                           00414E  2280 _AX5043_FOURFSK2	=	0x414e
                           00415E  2281 G$AX5043_FOURFSK3$0$0 == 0x415e
                           00415E  2282 _AX5043_FOURFSK3	=	0x415e
                           00412D  2283 G$AX5043_FREQDEV00$0$0 == 0x412d
                           00412D  2284 _AX5043_FREQDEV00	=	0x412d
                           00413D  2285 G$AX5043_FREQDEV01$0$0 == 0x413d
                           00413D  2286 _AX5043_FREQDEV01	=	0x413d
                           00414D  2287 G$AX5043_FREQDEV02$0$0 == 0x414d
                           00414D  2288 _AX5043_FREQDEV02	=	0x414d
                           00415D  2289 G$AX5043_FREQDEV03$0$0 == 0x415d
                           00415D  2290 _AX5043_FREQDEV03	=	0x415d
                           00412C  2291 G$AX5043_FREQDEV10$0$0 == 0x412c
                           00412C  2292 _AX5043_FREQDEV10	=	0x412c
                           00413C  2293 G$AX5043_FREQDEV11$0$0 == 0x413c
                           00413C  2294 _AX5043_FREQDEV11	=	0x413c
                           00414C  2295 G$AX5043_FREQDEV12$0$0 == 0x414c
                           00414C  2296 _AX5043_FREQDEV12	=	0x414c
                           00415C  2297 G$AX5043_FREQDEV13$0$0 == 0x415c
                           00415C  2298 _AX5043_FREQDEV13	=	0x415c
                           004127  2299 G$AX5043_FREQUENCYGAINA0$0$0 == 0x4127
                           004127  2300 _AX5043_FREQUENCYGAINA0	=	0x4127
                           004137  2301 G$AX5043_FREQUENCYGAINA1$0$0 == 0x4137
                           004137  2302 _AX5043_FREQUENCYGAINA1	=	0x4137
                           004147  2303 G$AX5043_FREQUENCYGAINA2$0$0 == 0x4147
                           004147  2304 _AX5043_FREQUENCYGAINA2	=	0x4147
                           004157  2305 G$AX5043_FREQUENCYGAINA3$0$0 == 0x4157
                           004157  2306 _AX5043_FREQUENCYGAINA3	=	0x4157
                           004128  2307 G$AX5043_FREQUENCYGAINB0$0$0 == 0x4128
                           004128  2308 _AX5043_FREQUENCYGAINB0	=	0x4128
                           004138  2309 G$AX5043_FREQUENCYGAINB1$0$0 == 0x4138
                           004138  2310 _AX5043_FREQUENCYGAINB1	=	0x4138
                           004148  2311 G$AX5043_FREQUENCYGAINB2$0$0 == 0x4148
                           004148  2312 _AX5043_FREQUENCYGAINB2	=	0x4148
                           004158  2313 G$AX5043_FREQUENCYGAINB3$0$0 == 0x4158
                           004158  2314 _AX5043_FREQUENCYGAINB3	=	0x4158
                           004129  2315 G$AX5043_FREQUENCYGAINC0$0$0 == 0x4129
                           004129  2316 _AX5043_FREQUENCYGAINC0	=	0x4129
                           004139  2317 G$AX5043_FREQUENCYGAINC1$0$0 == 0x4139
                           004139  2318 _AX5043_FREQUENCYGAINC1	=	0x4139
                           004149  2319 G$AX5043_FREQUENCYGAINC2$0$0 == 0x4149
                           004149  2320 _AX5043_FREQUENCYGAINC2	=	0x4149
                           004159  2321 G$AX5043_FREQUENCYGAINC3$0$0 == 0x4159
                           004159  2322 _AX5043_FREQUENCYGAINC3	=	0x4159
                           00412A  2323 G$AX5043_FREQUENCYGAIND0$0$0 == 0x412a
                           00412A  2324 _AX5043_FREQUENCYGAIND0	=	0x412a
                           00413A  2325 G$AX5043_FREQUENCYGAIND1$0$0 == 0x413a
                           00413A  2326 _AX5043_FREQUENCYGAIND1	=	0x413a
                           00414A  2327 G$AX5043_FREQUENCYGAIND2$0$0 == 0x414a
                           00414A  2328 _AX5043_FREQUENCYGAIND2	=	0x414a
                           00415A  2329 G$AX5043_FREQUENCYGAIND3$0$0 == 0x415a
                           00415A  2330 _AX5043_FREQUENCYGAIND3	=	0x415a
                           004116  2331 G$AX5043_FREQUENCYLEAK$0$0 == 0x4116
                           004116  2332 _AX5043_FREQUENCYLEAK	=	0x4116
                           004126  2333 G$AX5043_PHASEGAIN0$0$0 == 0x4126
                           004126  2334 _AX5043_PHASEGAIN0	=	0x4126
                           004136  2335 G$AX5043_PHASEGAIN1$0$0 == 0x4136
                           004136  2336 _AX5043_PHASEGAIN1	=	0x4136
                           004146  2337 G$AX5043_PHASEGAIN2$0$0 == 0x4146
                           004146  2338 _AX5043_PHASEGAIN2	=	0x4146
                           004156  2339 G$AX5043_PHASEGAIN3$0$0 == 0x4156
                           004156  2340 _AX5043_PHASEGAIN3	=	0x4156
                           004207  2341 G$AX5043_PKTADDR0$0$0 == 0x4207
                           004207  2342 _AX5043_PKTADDR0	=	0x4207
                           004206  2343 G$AX5043_PKTADDR1$0$0 == 0x4206
                           004206  2344 _AX5043_PKTADDR1	=	0x4206
                           004205  2345 G$AX5043_PKTADDR2$0$0 == 0x4205
                           004205  2346 _AX5043_PKTADDR2	=	0x4205
                           004204  2347 G$AX5043_PKTADDR3$0$0 == 0x4204
                           004204  2348 _AX5043_PKTADDR3	=	0x4204
                           004200  2349 G$AX5043_PKTADDRCFG$0$0 == 0x4200
                           004200  2350 _AX5043_PKTADDRCFG	=	0x4200
                           00420B  2351 G$AX5043_PKTADDRMASK0$0$0 == 0x420b
                           00420B  2352 _AX5043_PKTADDRMASK0	=	0x420b
                           00420A  2353 G$AX5043_PKTADDRMASK1$0$0 == 0x420a
                           00420A  2354 _AX5043_PKTADDRMASK1	=	0x420a
                           004209  2355 G$AX5043_PKTADDRMASK2$0$0 == 0x4209
                           004209  2356 _AX5043_PKTADDRMASK2	=	0x4209
                           004208  2357 G$AX5043_PKTADDRMASK3$0$0 == 0x4208
                           004208  2358 _AX5043_PKTADDRMASK3	=	0x4208
                           004201  2359 G$AX5043_PKTLENCFG$0$0 == 0x4201
                           004201  2360 _AX5043_PKTLENCFG	=	0x4201
                           004202  2361 G$AX5043_PKTLENOFFSET$0$0 == 0x4202
                           004202  2362 _AX5043_PKTLENOFFSET	=	0x4202
                           004203  2363 G$AX5043_PKTMAXLEN$0$0 == 0x4203
                           004203  2364 _AX5043_PKTMAXLEN	=	0x4203
                           004118  2365 G$AX5043_RXPARAMCURSET$0$0 == 0x4118
                           004118  2366 _AX5043_RXPARAMCURSET	=	0x4118
                           004117  2367 G$AX5043_RXPARAMSETS$0$0 == 0x4117
                           004117  2368 _AX5043_RXPARAMSETS	=	0x4117
                           004124  2369 G$AX5043_TIMEGAIN0$0$0 == 0x4124
                           004124  2370 _AX5043_TIMEGAIN0	=	0x4124
                           004134  2371 G$AX5043_TIMEGAIN1$0$0 == 0x4134
                           004134  2372 _AX5043_TIMEGAIN1	=	0x4134
                           004144  2373 G$AX5043_TIMEGAIN2$0$0 == 0x4144
                           004144  2374 _AX5043_TIMEGAIN2	=	0x4144
                           004154  2375 G$AX5043_TIMEGAIN3$0$0 == 0x4154
                           004154  2376 _AX5043_TIMEGAIN3	=	0x4154
                           005114  2377 G$AX5043_AFSKCTRLNB$0$0 == 0x5114
                           005114  2378 _AX5043_AFSKCTRLNB	=	0x5114
                           005113  2379 G$AX5043_AFSKMARK0NB$0$0 == 0x5113
                           005113  2380 _AX5043_AFSKMARK0NB	=	0x5113
                           005112  2381 G$AX5043_AFSKMARK1NB$0$0 == 0x5112
                           005112  2382 _AX5043_AFSKMARK1NB	=	0x5112
                           005111  2383 G$AX5043_AFSKSPACE0NB$0$0 == 0x5111
                           005111  2384 _AX5043_AFSKSPACE0NB	=	0x5111
                           005110  2385 G$AX5043_AFSKSPACE1NB$0$0 == 0x5110
                           005110  2386 _AX5043_AFSKSPACE1NB	=	0x5110
                           005043  2387 G$AX5043_AGCCOUNTERNB$0$0 == 0x5043
                           005043  2388 _AX5043_AGCCOUNTERNB	=	0x5043
                           005115  2389 G$AX5043_AMPLFILTERNB$0$0 == 0x5115
                           005115  2390 _AX5043_AMPLFILTERNB	=	0x5115
                           005189  2391 G$AX5043_BBOFFSCAPNB$0$0 == 0x5189
                           005189  2392 _AX5043_BBOFFSCAPNB	=	0x5189
                           005188  2393 G$AX5043_BBTUNENB$0$0 == 0x5188
                           005188  2394 _AX5043_BBTUNENB	=	0x5188
                           005041  2395 G$AX5043_BGNDRSSINB$0$0 == 0x5041
                           005041  2396 _AX5043_BGNDRSSINB	=	0x5041
                           00522E  2397 G$AX5043_BGNDRSSIGAINNB$0$0 == 0x522e
                           00522E  2398 _AX5043_BGNDRSSIGAINNB	=	0x522e
                           00522F  2399 G$AX5043_BGNDRSSITHRNB$0$0 == 0x522f
                           00522F  2400 _AX5043_BGNDRSSITHRNB	=	0x522f
                           005017  2401 G$AX5043_CRCINIT0NB$0$0 == 0x5017
                           005017  2402 _AX5043_CRCINIT0NB	=	0x5017
                           005016  2403 G$AX5043_CRCINIT1NB$0$0 == 0x5016
                           005016  2404 _AX5043_CRCINIT1NB	=	0x5016
                           005015  2405 G$AX5043_CRCINIT2NB$0$0 == 0x5015
                           005015  2406 _AX5043_CRCINIT2NB	=	0x5015
                           005014  2407 G$AX5043_CRCINIT3NB$0$0 == 0x5014
                           005014  2408 _AX5043_CRCINIT3NB	=	0x5014
                           005332  2409 G$AX5043_DACCONFIGNB$0$0 == 0x5332
                           005332  2410 _AX5043_DACCONFIGNB	=	0x5332
                           005331  2411 G$AX5043_DACVALUE0NB$0$0 == 0x5331
                           005331  2412 _AX5043_DACVALUE0NB	=	0x5331
                           005330  2413 G$AX5043_DACVALUE1NB$0$0 == 0x5330
                           005330  2414 _AX5043_DACVALUE1NB	=	0x5330
                           005102  2415 G$AX5043_DECIMATIONNB$0$0 == 0x5102
                           005102  2416 _AX5043_DECIMATIONNB	=	0x5102
                           005042  2417 G$AX5043_DIVERSITYNB$0$0 == 0x5042
                           005042  2418 _AX5043_DIVERSITYNB	=	0x5042
                           005011  2419 G$AX5043_ENCODINGNB$0$0 == 0x5011
                           005011  2420 _AX5043_ENCODINGNB	=	0x5011
                           005018  2421 G$AX5043_FECNB$0$0 == 0x5018
                           005018  2422 _AX5043_FECNB	=	0x5018
                           00501A  2423 G$AX5043_FECSTATUSNB$0$0 == 0x501a
                           00501A  2424 _AX5043_FECSTATUSNB	=	0x501a
                           005019  2425 G$AX5043_FECSYNCNB$0$0 == 0x5019
                           005019  2426 _AX5043_FECSYNCNB	=	0x5019
                           00502B  2427 G$AX5043_FIFOCOUNT0NB$0$0 == 0x502b
                           00502B  2428 _AX5043_FIFOCOUNT0NB	=	0x502b
                           00502A  2429 G$AX5043_FIFOCOUNT1NB$0$0 == 0x502a
                           00502A  2430 _AX5043_FIFOCOUNT1NB	=	0x502a
                           005029  2431 G$AX5043_FIFODATANB$0$0 == 0x5029
                           005029  2432 _AX5043_FIFODATANB	=	0x5029
                           00502D  2433 G$AX5043_FIFOFREE0NB$0$0 == 0x502d
                           00502D  2434 _AX5043_FIFOFREE0NB	=	0x502d
                           00502C  2435 G$AX5043_FIFOFREE1NB$0$0 == 0x502c
                           00502C  2436 _AX5043_FIFOFREE1NB	=	0x502c
                           005028  2437 G$AX5043_FIFOSTATNB$0$0 == 0x5028
                           005028  2438 _AX5043_FIFOSTATNB	=	0x5028
                           00502F  2439 G$AX5043_FIFOTHRESH0NB$0$0 == 0x502f
                           00502F  2440 _AX5043_FIFOTHRESH0NB	=	0x502f
                           00502E  2441 G$AX5043_FIFOTHRESH1NB$0$0 == 0x502e
                           00502E  2442 _AX5043_FIFOTHRESH1NB	=	0x502e
                           005012  2443 G$AX5043_FRAMINGNB$0$0 == 0x5012
                           005012  2444 _AX5043_FRAMINGNB	=	0x5012
                           005037  2445 G$AX5043_FREQA0NB$0$0 == 0x5037
                           005037  2446 _AX5043_FREQA0NB	=	0x5037
                           005036  2447 G$AX5043_FREQA1NB$0$0 == 0x5036
                           005036  2448 _AX5043_FREQA1NB	=	0x5036
                           005035  2449 G$AX5043_FREQA2NB$0$0 == 0x5035
                           005035  2450 _AX5043_FREQA2NB	=	0x5035
                           005034  2451 G$AX5043_FREQA3NB$0$0 == 0x5034
                           005034  2452 _AX5043_FREQA3NB	=	0x5034
                           00503F  2453 G$AX5043_FREQB0NB$0$0 == 0x503f
                           00503F  2454 _AX5043_FREQB0NB	=	0x503f
                           00503E  2455 G$AX5043_FREQB1NB$0$0 == 0x503e
                           00503E  2456 _AX5043_FREQB1NB	=	0x503e
                           00503D  2457 G$AX5043_FREQB2NB$0$0 == 0x503d
                           00503D  2458 _AX5043_FREQB2NB	=	0x503d
                           00503C  2459 G$AX5043_FREQB3NB$0$0 == 0x503c
                           00503C  2460 _AX5043_FREQB3NB	=	0x503c
                           005163  2461 G$AX5043_FSKDEV0NB$0$0 == 0x5163
                           005163  2462 _AX5043_FSKDEV0NB	=	0x5163
                           005162  2463 G$AX5043_FSKDEV1NB$0$0 == 0x5162
                           005162  2464 _AX5043_FSKDEV1NB	=	0x5162
                           005161  2465 G$AX5043_FSKDEV2NB$0$0 == 0x5161
                           005161  2466 _AX5043_FSKDEV2NB	=	0x5161
                           00510D  2467 G$AX5043_FSKDMAX0NB$0$0 == 0x510d
                           00510D  2468 _AX5043_FSKDMAX0NB	=	0x510d
                           00510C  2469 G$AX5043_FSKDMAX1NB$0$0 == 0x510c
                           00510C  2470 _AX5043_FSKDMAX1NB	=	0x510c
                           00510F  2471 G$AX5043_FSKDMIN0NB$0$0 == 0x510f
                           00510F  2472 _AX5043_FSKDMIN0NB	=	0x510f
                           00510E  2473 G$AX5043_FSKDMIN1NB$0$0 == 0x510e
                           00510E  2474 _AX5043_FSKDMIN1NB	=	0x510e
                           005309  2475 G$AX5043_GPADC13VALUE0NB$0$0 == 0x5309
                           005309  2476 _AX5043_GPADC13VALUE0NB	=	0x5309
                           005308  2477 G$AX5043_GPADC13VALUE1NB$0$0 == 0x5308
                           005308  2478 _AX5043_GPADC13VALUE1NB	=	0x5308
                           005300  2479 G$AX5043_GPADCCTRLNB$0$0 == 0x5300
                           005300  2480 _AX5043_GPADCCTRLNB	=	0x5300
                           005301  2481 G$AX5043_GPADCPERIODNB$0$0 == 0x5301
                           005301  2482 _AX5043_GPADCPERIODNB	=	0x5301
                           005101  2483 G$AX5043_IFFREQ0NB$0$0 == 0x5101
                           005101  2484 _AX5043_IFFREQ0NB	=	0x5101
                           005100  2485 G$AX5043_IFFREQ1NB$0$0 == 0x5100
                           005100  2486 _AX5043_IFFREQ1NB	=	0x5100
                           00500B  2487 G$AX5043_IRQINVERSION0NB$0$0 == 0x500b
                           00500B  2488 _AX5043_IRQINVERSION0NB	=	0x500b
                           00500A  2489 G$AX5043_IRQINVERSION1NB$0$0 == 0x500a
                           00500A  2490 _AX5043_IRQINVERSION1NB	=	0x500a
                           005007  2491 G$AX5043_IRQMASK0NB$0$0 == 0x5007
                           005007  2492 _AX5043_IRQMASK0NB	=	0x5007
                           005006  2493 G$AX5043_IRQMASK1NB$0$0 == 0x5006
                           005006  2494 _AX5043_IRQMASK1NB	=	0x5006
                           00500D  2495 G$AX5043_IRQREQUEST0NB$0$0 == 0x500d
                           00500D  2496 _AX5043_IRQREQUEST0NB	=	0x500d
                           00500C  2497 G$AX5043_IRQREQUEST1NB$0$0 == 0x500c
                           00500C  2498 _AX5043_IRQREQUEST1NB	=	0x500c
                           005310  2499 G$AX5043_LPOSCCONFIGNB$0$0 == 0x5310
                           005310  2500 _AX5043_LPOSCCONFIGNB	=	0x5310
                           005317  2501 G$AX5043_LPOSCFREQ0NB$0$0 == 0x5317
                           005317  2502 _AX5043_LPOSCFREQ0NB	=	0x5317
                           005316  2503 G$AX5043_LPOSCFREQ1NB$0$0 == 0x5316
                           005316  2504 _AX5043_LPOSCFREQ1NB	=	0x5316
                           005313  2505 G$AX5043_LPOSCKFILT0NB$0$0 == 0x5313
                           005313  2506 _AX5043_LPOSCKFILT0NB	=	0x5313
                           005312  2507 G$AX5043_LPOSCKFILT1NB$0$0 == 0x5312
                           005312  2508 _AX5043_LPOSCKFILT1NB	=	0x5312
                           005319  2509 G$AX5043_LPOSCPER0NB$0$0 == 0x5319
                           005319  2510 _AX5043_LPOSCPER0NB	=	0x5319
                           005318  2511 G$AX5043_LPOSCPER1NB$0$0 == 0x5318
                           005318  2512 _AX5043_LPOSCPER1NB	=	0x5318
                           005315  2513 G$AX5043_LPOSCREF0NB$0$0 == 0x5315
                           005315  2514 _AX5043_LPOSCREF0NB	=	0x5315
                           005314  2515 G$AX5043_LPOSCREF1NB$0$0 == 0x5314
                           005314  2516 _AX5043_LPOSCREF1NB	=	0x5314
                           005311  2517 G$AX5043_LPOSCSTATUSNB$0$0 == 0x5311
                           005311  2518 _AX5043_LPOSCSTATUSNB	=	0x5311
                           005214  2519 G$AX5043_MATCH0LENNB$0$0 == 0x5214
                           005214  2520 _AX5043_MATCH0LENNB	=	0x5214
                           005216  2521 G$AX5043_MATCH0MAXNB$0$0 == 0x5216
                           005216  2522 _AX5043_MATCH0MAXNB	=	0x5216
                           005215  2523 G$AX5043_MATCH0MINNB$0$0 == 0x5215
                           005215  2524 _AX5043_MATCH0MINNB	=	0x5215
                           005213  2525 G$AX5043_MATCH0PAT0NB$0$0 == 0x5213
                           005213  2526 _AX5043_MATCH0PAT0NB	=	0x5213
                           005212  2527 G$AX5043_MATCH0PAT1NB$0$0 == 0x5212
                           005212  2528 _AX5043_MATCH0PAT1NB	=	0x5212
                           005211  2529 G$AX5043_MATCH0PAT2NB$0$0 == 0x5211
                           005211  2530 _AX5043_MATCH0PAT2NB	=	0x5211
                           005210  2531 G$AX5043_MATCH0PAT3NB$0$0 == 0x5210
                           005210  2532 _AX5043_MATCH0PAT3NB	=	0x5210
                           00521C  2533 G$AX5043_MATCH1LENNB$0$0 == 0x521c
                           00521C  2534 _AX5043_MATCH1LENNB	=	0x521c
                           00521E  2535 G$AX5043_MATCH1MAXNB$0$0 == 0x521e
                           00521E  2536 _AX5043_MATCH1MAXNB	=	0x521e
                           00521D  2537 G$AX5043_MATCH1MINNB$0$0 == 0x521d
                           00521D  2538 _AX5043_MATCH1MINNB	=	0x521d
                           005219  2539 G$AX5043_MATCH1PAT0NB$0$0 == 0x5219
                           005219  2540 _AX5043_MATCH1PAT0NB	=	0x5219
                           005218  2541 G$AX5043_MATCH1PAT1NB$0$0 == 0x5218
                           005218  2542 _AX5043_MATCH1PAT1NB	=	0x5218
                           005108  2543 G$AX5043_MAXDROFFSET0NB$0$0 == 0x5108
                           005108  2544 _AX5043_MAXDROFFSET0NB	=	0x5108
                           005107  2545 G$AX5043_MAXDROFFSET1NB$0$0 == 0x5107
                           005107  2546 _AX5043_MAXDROFFSET1NB	=	0x5107
                           005106  2547 G$AX5043_MAXDROFFSET2NB$0$0 == 0x5106
                           005106  2548 _AX5043_MAXDROFFSET2NB	=	0x5106
                           00510B  2549 G$AX5043_MAXRFOFFSET0NB$0$0 == 0x510b
                           00510B  2550 _AX5043_MAXRFOFFSET0NB	=	0x510b
                           00510A  2551 G$AX5043_MAXRFOFFSET1NB$0$0 == 0x510a
                           00510A  2552 _AX5043_MAXRFOFFSET1NB	=	0x510a
                           005109  2553 G$AX5043_MAXRFOFFSET2NB$0$0 == 0x5109
                           005109  2554 _AX5043_MAXRFOFFSET2NB	=	0x5109
                           005164  2555 G$AX5043_MODCFGANB$0$0 == 0x5164
                           005164  2556 _AX5043_MODCFGANB	=	0x5164
                           005160  2557 G$AX5043_MODCFGFNB$0$0 == 0x5160
                           005160  2558 _AX5043_MODCFGFNB	=	0x5160
                           005F5F  2559 G$AX5043_MODCFGPNB$0$0 == 0x5f5f
                           005F5F  2560 _AX5043_MODCFGPNB	=	0x5f5f
                           005010  2561 G$AX5043_MODULATIONNB$0$0 == 0x5010
                           005010  2562 _AX5043_MODULATIONNB	=	0x5010
                           005025  2563 G$AX5043_PINFUNCANTSELNB$0$0 == 0x5025
                           005025  2564 _AX5043_PINFUNCANTSELNB	=	0x5025
                           005023  2565 G$AX5043_PINFUNCDATANB$0$0 == 0x5023
                           005023  2566 _AX5043_PINFUNCDATANB	=	0x5023
                           005022  2567 G$AX5043_PINFUNCDCLKNB$0$0 == 0x5022
                           005022  2568 _AX5043_PINFUNCDCLKNB	=	0x5022
                           005024  2569 G$AX5043_PINFUNCIRQNB$0$0 == 0x5024
                           005024  2570 _AX5043_PINFUNCIRQNB	=	0x5024
                           005026  2571 G$AX5043_PINFUNCPWRAMPNB$0$0 == 0x5026
                           005026  2572 _AX5043_PINFUNCPWRAMPNB	=	0x5026
                           005021  2573 G$AX5043_PINFUNCSYSCLKNB$0$0 == 0x5021
                           005021  2574 _AX5043_PINFUNCSYSCLKNB	=	0x5021
                           005020  2575 G$AX5043_PINSTATENB$0$0 == 0x5020
                           005020  2576 _AX5043_PINSTATENB	=	0x5020
                           005233  2577 G$AX5043_PKTACCEPTFLAGSNB$0$0 == 0x5233
                           005233  2578 _AX5043_PKTACCEPTFLAGSNB	=	0x5233
                           005230  2579 G$AX5043_PKTCHUNKSIZENB$0$0 == 0x5230
                           005230  2580 _AX5043_PKTCHUNKSIZENB	=	0x5230
                           005231  2581 G$AX5043_PKTMISCFLAGSNB$0$0 == 0x5231
                           005231  2582 _AX5043_PKTMISCFLAGSNB	=	0x5231
                           005232  2583 G$AX5043_PKTSTOREFLAGSNB$0$0 == 0x5232
                           005232  2584 _AX5043_PKTSTOREFLAGSNB	=	0x5232
                           005031  2585 G$AX5043_PLLCPINB$0$0 == 0x5031
                           005031  2586 _AX5043_PLLCPINB	=	0x5031
                           005039  2587 G$AX5043_PLLCPIBOOSTNB$0$0 == 0x5039
                           005039  2588 _AX5043_PLLCPIBOOSTNB	=	0x5039
                           005182  2589 G$AX5043_PLLLOCKDETNB$0$0 == 0x5182
                           005182  2590 _AX5043_PLLLOCKDETNB	=	0x5182
                           005030  2591 G$AX5043_PLLLOOPNB$0$0 == 0x5030
                           005030  2592 _AX5043_PLLLOOPNB	=	0x5030
                           005038  2593 G$AX5043_PLLLOOPBOOSTNB$0$0 == 0x5038
                           005038  2594 _AX5043_PLLLOOPBOOSTNB	=	0x5038
                           005033  2595 G$AX5043_PLLRANGINGANB$0$0 == 0x5033
                           005033  2596 _AX5043_PLLRANGINGANB	=	0x5033
                           00503B  2597 G$AX5043_PLLRANGINGBNB$0$0 == 0x503b
                           00503B  2598 _AX5043_PLLRANGINGBNB	=	0x503b
                           005183  2599 G$AX5043_PLLRNGCLKNB$0$0 == 0x5183
                           005183  2600 _AX5043_PLLRNGCLKNB	=	0x5183
                           005032  2601 G$AX5043_PLLVCODIVNB$0$0 == 0x5032
                           005032  2602 _AX5043_PLLVCODIVNB	=	0x5032
                           005180  2603 G$AX5043_PLLVCOINB$0$0 == 0x5180
                           005180  2604 _AX5043_PLLVCOINB	=	0x5180
                           005181  2605 G$AX5043_PLLVCOIRNB$0$0 == 0x5181
                           005181  2606 _AX5043_PLLVCOIRNB	=	0x5181
                           005F08  2607 G$AX5043_POWCTRL1NB$0$0 == 0x5f08
                           005F08  2608 _AX5043_POWCTRL1NB	=	0x5f08
                           005005  2609 G$AX5043_POWIRQMASKNB$0$0 == 0x5005
                           005005  2610 _AX5043_POWIRQMASKNB	=	0x5005
                           005003  2611 G$AX5043_POWSTATNB$0$0 == 0x5003
                           005003  2612 _AX5043_POWSTATNB	=	0x5003
                           005004  2613 G$AX5043_POWSTICKYSTATNB$0$0 == 0x5004
                           005004  2614 _AX5043_POWSTICKYSTATNB	=	0x5004
                           005027  2615 G$AX5043_PWRAMPNB$0$0 == 0x5027
                           005027  2616 _AX5043_PWRAMPNB	=	0x5027
                           005002  2617 G$AX5043_PWRMODENB$0$0 == 0x5002
                           005002  2618 _AX5043_PWRMODENB	=	0x5002
                           005009  2619 G$AX5043_RADIOEVENTMASK0NB$0$0 == 0x5009
                           005009  2620 _AX5043_RADIOEVENTMASK0NB	=	0x5009
                           005008  2621 G$AX5043_RADIOEVENTMASK1NB$0$0 == 0x5008
                           005008  2622 _AX5043_RADIOEVENTMASK1NB	=	0x5008
                           00500F  2623 G$AX5043_RADIOEVENTREQ0NB$0$0 == 0x500f
                           00500F  2624 _AX5043_RADIOEVENTREQ0NB	=	0x500f
                           00500E  2625 G$AX5043_RADIOEVENTREQ1NB$0$0 == 0x500e
                           00500E  2626 _AX5043_RADIOEVENTREQ1NB	=	0x500e
                           00501C  2627 G$AX5043_RADIOSTATENB$0$0 == 0x501c
                           00501C  2628 _AX5043_RADIOSTATENB	=	0x501c
                           005F0D  2629 G$AX5043_REFNB$0$0 == 0x5f0d
                           005F0D  2630 _AX5043_REFNB	=	0x5f0d
                           005040  2631 G$AX5043_RSSINB$0$0 == 0x5040
                           005040  2632 _AX5043_RSSINB	=	0x5040
                           00522D  2633 G$AX5043_RSSIABSTHRNB$0$0 == 0x522d
                           00522D  2634 _AX5043_RSSIABSTHRNB	=	0x522d
                           00522C  2635 G$AX5043_RSSIREFERENCENB$0$0 == 0x522c
                           00522C  2636 _AX5043_RSSIREFERENCENB	=	0x522c
                           005105  2637 G$AX5043_RXDATARATE0NB$0$0 == 0x5105
                           005105  2638 _AX5043_RXDATARATE0NB	=	0x5105
                           005104  2639 G$AX5043_RXDATARATE1NB$0$0 == 0x5104
                           005104  2640 _AX5043_RXDATARATE1NB	=	0x5104
                           005103  2641 G$AX5043_RXDATARATE2NB$0$0 == 0x5103
                           005103  2642 _AX5043_RXDATARATE2NB	=	0x5103
                           005001  2643 G$AX5043_SCRATCHNB$0$0 == 0x5001
                           005001  2644 _AX5043_SCRATCHNB	=	0x5001
                           005000  2645 G$AX5043_SILICONREVISIONNB$0$0 == 0x5000
                           005000  2646 _AX5043_SILICONREVISIONNB	=	0x5000
                           00505B  2647 G$AX5043_TIMER0NB$0$0 == 0x505b
                           00505B  2648 _AX5043_TIMER0NB	=	0x505b
                           00505A  2649 G$AX5043_TIMER1NB$0$0 == 0x505a
                           00505A  2650 _AX5043_TIMER1NB	=	0x505a
                           005059  2651 G$AX5043_TIMER2NB$0$0 == 0x5059
                           005059  2652 _AX5043_TIMER2NB	=	0x5059
                           005227  2653 G$AX5043_TMGRXAGCNB$0$0 == 0x5227
                           005227  2654 _AX5043_TMGRXAGCNB	=	0x5227
                           005223  2655 G$AX5043_TMGRXBOOSTNB$0$0 == 0x5223
                           005223  2656 _AX5043_TMGRXBOOSTNB	=	0x5223
                           005226  2657 G$AX5043_TMGRXCOARSEAGCNB$0$0 == 0x5226
                           005226  2658 _AX5043_TMGRXCOARSEAGCNB	=	0x5226
                           005225  2659 G$AX5043_TMGRXOFFSACQNB$0$0 == 0x5225
                           005225  2660 _AX5043_TMGRXOFFSACQNB	=	0x5225
                           005229  2661 G$AX5043_TMGRXPREAMBLE1NB$0$0 == 0x5229
                           005229  2662 _AX5043_TMGRXPREAMBLE1NB	=	0x5229
                           00522A  2663 G$AX5043_TMGRXPREAMBLE2NB$0$0 == 0x522a
                           00522A  2664 _AX5043_TMGRXPREAMBLE2NB	=	0x522a
                           00522B  2665 G$AX5043_TMGRXPREAMBLE3NB$0$0 == 0x522b
                           00522B  2666 _AX5043_TMGRXPREAMBLE3NB	=	0x522b
                           005228  2667 G$AX5043_TMGRXRSSINB$0$0 == 0x5228
                           005228  2668 _AX5043_TMGRXRSSINB	=	0x5228
                           005224  2669 G$AX5043_TMGRXSETTLENB$0$0 == 0x5224
                           005224  2670 _AX5043_TMGRXSETTLENB	=	0x5224
                           005220  2671 G$AX5043_TMGTXBOOSTNB$0$0 == 0x5220
                           005220  2672 _AX5043_TMGTXBOOSTNB	=	0x5220
                           005221  2673 G$AX5043_TMGTXSETTLENB$0$0 == 0x5221
                           005221  2674 _AX5043_TMGTXSETTLENB	=	0x5221
                           005055  2675 G$AX5043_TRKAFSKDEMOD0NB$0$0 == 0x5055
                           005055  2676 _AX5043_TRKAFSKDEMOD0NB	=	0x5055
                           005054  2677 G$AX5043_TRKAFSKDEMOD1NB$0$0 == 0x5054
                           005054  2678 _AX5043_TRKAFSKDEMOD1NB	=	0x5054
                           005049  2679 G$AX5043_TRKAMPLITUDE0NB$0$0 == 0x5049
                           005049  2680 _AX5043_TRKAMPLITUDE0NB	=	0x5049
                           005048  2681 G$AX5043_TRKAMPLITUDE1NB$0$0 == 0x5048
                           005048  2682 _AX5043_TRKAMPLITUDE1NB	=	0x5048
                           005047  2683 G$AX5043_TRKDATARATE0NB$0$0 == 0x5047
                           005047  2684 _AX5043_TRKDATARATE0NB	=	0x5047
                           005046  2685 G$AX5043_TRKDATARATE1NB$0$0 == 0x5046
                           005046  2686 _AX5043_TRKDATARATE1NB	=	0x5046
                           005045  2687 G$AX5043_TRKDATARATE2NB$0$0 == 0x5045
                           005045  2688 _AX5043_TRKDATARATE2NB	=	0x5045
                           005051  2689 G$AX5043_TRKFREQ0NB$0$0 == 0x5051
                           005051  2690 _AX5043_TRKFREQ0NB	=	0x5051
                           005050  2691 G$AX5043_TRKFREQ1NB$0$0 == 0x5050
                           005050  2692 _AX5043_TRKFREQ1NB	=	0x5050
                           005053  2693 G$AX5043_TRKFSKDEMOD0NB$0$0 == 0x5053
                           005053  2694 _AX5043_TRKFSKDEMOD0NB	=	0x5053
                           005052  2695 G$AX5043_TRKFSKDEMOD1NB$0$0 == 0x5052
                           005052  2696 _AX5043_TRKFSKDEMOD1NB	=	0x5052
                           00504B  2697 G$AX5043_TRKPHASE0NB$0$0 == 0x504b
                           00504B  2698 _AX5043_TRKPHASE0NB	=	0x504b
                           00504A  2699 G$AX5043_TRKPHASE1NB$0$0 == 0x504a
                           00504A  2700 _AX5043_TRKPHASE1NB	=	0x504a
                           00504F  2701 G$AX5043_TRKRFFREQ0NB$0$0 == 0x504f
                           00504F  2702 _AX5043_TRKRFFREQ0NB	=	0x504f
                           00504E  2703 G$AX5043_TRKRFFREQ1NB$0$0 == 0x504e
                           00504E  2704 _AX5043_TRKRFFREQ1NB	=	0x504e
                           00504D  2705 G$AX5043_TRKRFFREQ2NB$0$0 == 0x504d
                           00504D  2706 _AX5043_TRKRFFREQ2NB	=	0x504d
                           005169  2707 G$AX5043_TXPWRCOEFFA0NB$0$0 == 0x5169
                           005169  2708 _AX5043_TXPWRCOEFFA0NB	=	0x5169
                           005168  2709 G$AX5043_TXPWRCOEFFA1NB$0$0 == 0x5168
                           005168  2710 _AX5043_TXPWRCOEFFA1NB	=	0x5168
                           00516B  2711 G$AX5043_TXPWRCOEFFB0NB$0$0 == 0x516b
                           00516B  2712 _AX5043_TXPWRCOEFFB0NB	=	0x516b
                           00516A  2713 G$AX5043_TXPWRCOEFFB1NB$0$0 == 0x516a
                           00516A  2714 _AX5043_TXPWRCOEFFB1NB	=	0x516a
                           00516D  2715 G$AX5043_TXPWRCOEFFC0NB$0$0 == 0x516d
                           00516D  2716 _AX5043_TXPWRCOEFFC0NB	=	0x516d
                           00516C  2717 G$AX5043_TXPWRCOEFFC1NB$0$0 == 0x516c
                           00516C  2718 _AX5043_TXPWRCOEFFC1NB	=	0x516c
                           00516F  2719 G$AX5043_TXPWRCOEFFD0NB$0$0 == 0x516f
                           00516F  2720 _AX5043_TXPWRCOEFFD0NB	=	0x516f
                           00516E  2721 G$AX5043_TXPWRCOEFFD1NB$0$0 == 0x516e
                           00516E  2722 _AX5043_TXPWRCOEFFD1NB	=	0x516e
                           005171  2723 G$AX5043_TXPWRCOEFFE0NB$0$0 == 0x5171
                           005171  2724 _AX5043_TXPWRCOEFFE0NB	=	0x5171
                           005170  2725 G$AX5043_TXPWRCOEFFE1NB$0$0 == 0x5170
                           005170  2726 _AX5043_TXPWRCOEFFE1NB	=	0x5170
                           005167  2727 G$AX5043_TXRATE0NB$0$0 == 0x5167
                           005167  2728 _AX5043_TXRATE0NB	=	0x5167
                           005166  2729 G$AX5043_TXRATE1NB$0$0 == 0x5166
                           005166  2730 _AX5043_TXRATE1NB	=	0x5166
                           005165  2731 G$AX5043_TXRATE2NB$0$0 == 0x5165
                           005165  2732 _AX5043_TXRATE2NB	=	0x5165
                           00506B  2733 G$AX5043_WAKEUP0NB$0$0 == 0x506b
                           00506B  2734 _AX5043_WAKEUP0NB	=	0x506b
                           00506A  2735 G$AX5043_WAKEUP1NB$0$0 == 0x506a
                           00506A  2736 _AX5043_WAKEUP1NB	=	0x506a
                           00506D  2737 G$AX5043_WAKEUPFREQ0NB$0$0 == 0x506d
                           00506D  2738 _AX5043_WAKEUPFREQ0NB	=	0x506d
                           00506C  2739 G$AX5043_WAKEUPFREQ1NB$0$0 == 0x506c
                           00506C  2740 _AX5043_WAKEUPFREQ1NB	=	0x506c
                           005069  2741 G$AX5043_WAKEUPTIMER0NB$0$0 == 0x5069
                           005069  2742 _AX5043_WAKEUPTIMER0NB	=	0x5069
                           005068  2743 G$AX5043_WAKEUPTIMER1NB$0$0 == 0x5068
                           005068  2744 _AX5043_WAKEUPTIMER1NB	=	0x5068
                           00506E  2745 G$AX5043_WAKEUPXOEARLYNB$0$0 == 0x506e
                           00506E  2746 _AX5043_WAKEUPXOEARLYNB	=	0x506e
                           005F11  2747 G$AX5043_XTALAMPLNB$0$0 == 0x5f11
                           005F11  2748 _AX5043_XTALAMPLNB	=	0x5f11
                           005184  2749 G$AX5043_XTALCAPNB$0$0 == 0x5184
                           005184  2750 _AX5043_XTALCAPNB	=	0x5184
                           005F10  2751 G$AX5043_XTALOSCNB$0$0 == 0x5f10
                           005F10  2752 _AX5043_XTALOSCNB	=	0x5f10
                           00501D  2753 G$AX5043_XTALSTATUSNB$0$0 == 0x501d
                           00501D  2754 _AX5043_XTALSTATUSNB	=	0x501d
                           005F00  2755 G$AX5043_0xF00NB$0$0 == 0x5f00
                           005F00  2756 _AX5043_0xF00NB	=	0x5f00
                           005F0C  2757 G$AX5043_0xF0CNB$0$0 == 0x5f0c
                           005F0C  2758 _AX5043_0xF0CNB	=	0x5f0c
                           005F18  2759 G$AX5043_0xF18NB$0$0 == 0x5f18
                           005F18  2760 _AX5043_0xF18NB	=	0x5f18
                           005F1C  2761 G$AX5043_0xF1CNB$0$0 == 0x5f1c
                           005F1C  2762 _AX5043_0xF1CNB	=	0x5f1c
                           005F21  2763 G$AX5043_0xF21NB$0$0 == 0x5f21
                           005F21  2764 _AX5043_0xF21NB	=	0x5f21
                           005F22  2765 G$AX5043_0xF22NB$0$0 == 0x5f22
                           005F22  2766 _AX5043_0xF22NB	=	0x5f22
                           005F23  2767 G$AX5043_0xF23NB$0$0 == 0x5f23
                           005F23  2768 _AX5043_0xF23NB	=	0x5f23
                           005F26  2769 G$AX5043_0xF26NB$0$0 == 0x5f26
                           005F26  2770 _AX5043_0xF26NB	=	0x5f26
                           005F30  2771 G$AX5043_0xF30NB$0$0 == 0x5f30
                           005F30  2772 _AX5043_0xF30NB	=	0x5f30
                           005F31  2773 G$AX5043_0xF31NB$0$0 == 0x5f31
                           005F31  2774 _AX5043_0xF31NB	=	0x5f31
                           005F32  2775 G$AX5043_0xF32NB$0$0 == 0x5f32
                           005F32  2776 _AX5043_0xF32NB	=	0x5f32
                           005F33  2777 G$AX5043_0xF33NB$0$0 == 0x5f33
                           005F33  2778 _AX5043_0xF33NB	=	0x5f33
                           005F34  2779 G$AX5043_0xF34NB$0$0 == 0x5f34
                           005F34  2780 _AX5043_0xF34NB	=	0x5f34
                           005F35  2781 G$AX5043_0xF35NB$0$0 == 0x5f35
                           005F35  2782 _AX5043_0xF35NB	=	0x5f35
                           005F44  2783 G$AX5043_0xF44NB$0$0 == 0x5f44
                           005F44  2784 _AX5043_0xF44NB	=	0x5f44
                           005122  2785 G$AX5043_AGCAHYST0NB$0$0 == 0x5122
                           005122  2786 _AX5043_AGCAHYST0NB	=	0x5122
                           005132  2787 G$AX5043_AGCAHYST1NB$0$0 == 0x5132
                           005132  2788 _AX5043_AGCAHYST1NB	=	0x5132
                           005142  2789 G$AX5043_AGCAHYST2NB$0$0 == 0x5142
                           005142  2790 _AX5043_AGCAHYST2NB	=	0x5142
                           005152  2791 G$AX5043_AGCAHYST3NB$0$0 == 0x5152
                           005152  2792 _AX5043_AGCAHYST3NB	=	0x5152
                           005120  2793 G$AX5043_AGCGAIN0NB$0$0 == 0x5120
                           005120  2794 _AX5043_AGCGAIN0NB	=	0x5120
                           005130  2795 G$AX5043_AGCGAIN1NB$0$0 == 0x5130
                           005130  2796 _AX5043_AGCGAIN1NB	=	0x5130
                           005140  2797 G$AX5043_AGCGAIN2NB$0$0 == 0x5140
                           005140  2798 _AX5043_AGCGAIN2NB	=	0x5140
                           005150  2799 G$AX5043_AGCGAIN3NB$0$0 == 0x5150
                           005150  2800 _AX5043_AGCGAIN3NB	=	0x5150
                           005123  2801 G$AX5043_AGCMINMAX0NB$0$0 == 0x5123
                           005123  2802 _AX5043_AGCMINMAX0NB	=	0x5123
                           005133  2803 G$AX5043_AGCMINMAX1NB$0$0 == 0x5133
                           005133  2804 _AX5043_AGCMINMAX1NB	=	0x5133
                           005143  2805 G$AX5043_AGCMINMAX2NB$0$0 == 0x5143
                           005143  2806 _AX5043_AGCMINMAX2NB	=	0x5143
                           005153  2807 G$AX5043_AGCMINMAX3NB$0$0 == 0x5153
                           005153  2808 _AX5043_AGCMINMAX3NB	=	0x5153
                           005121  2809 G$AX5043_AGCTARGET0NB$0$0 == 0x5121
                           005121  2810 _AX5043_AGCTARGET0NB	=	0x5121
                           005131  2811 G$AX5043_AGCTARGET1NB$0$0 == 0x5131
                           005131  2812 _AX5043_AGCTARGET1NB	=	0x5131
                           005141  2813 G$AX5043_AGCTARGET2NB$0$0 == 0x5141
                           005141  2814 _AX5043_AGCTARGET2NB	=	0x5141
                           005151  2815 G$AX5043_AGCTARGET3NB$0$0 == 0x5151
                           005151  2816 _AX5043_AGCTARGET3NB	=	0x5151
                           00512B  2817 G$AX5043_AMPLITUDEGAIN0NB$0$0 == 0x512b
                           00512B  2818 _AX5043_AMPLITUDEGAIN0NB	=	0x512b
                           00513B  2819 G$AX5043_AMPLITUDEGAIN1NB$0$0 == 0x513b
                           00513B  2820 _AX5043_AMPLITUDEGAIN1NB	=	0x513b
                           00514B  2821 G$AX5043_AMPLITUDEGAIN2NB$0$0 == 0x514b
                           00514B  2822 _AX5043_AMPLITUDEGAIN2NB	=	0x514b
                           00515B  2823 G$AX5043_AMPLITUDEGAIN3NB$0$0 == 0x515b
                           00515B  2824 _AX5043_AMPLITUDEGAIN3NB	=	0x515b
                           00512F  2825 G$AX5043_BBOFFSRES0NB$0$0 == 0x512f
                           00512F  2826 _AX5043_BBOFFSRES0NB	=	0x512f
                           00513F  2827 G$AX5043_BBOFFSRES1NB$0$0 == 0x513f
                           00513F  2828 _AX5043_BBOFFSRES1NB	=	0x513f
                           00514F  2829 G$AX5043_BBOFFSRES2NB$0$0 == 0x514f
                           00514F  2830 _AX5043_BBOFFSRES2NB	=	0x514f
                           00515F  2831 G$AX5043_BBOFFSRES3NB$0$0 == 0x515f
                           00515F  2832 _AX5043_BBOFFSRES3NB	=	0x515f
                           005125  2833 G$AX5043_DRGAIN0NB$0$0 == 0x5125
                           005125  2834 _AX5043_DRGAIN0NB	=	0x5125
                           005135  2835 G$AX5043_DRGAIN1NB$0$0 == 0x5135
                           005135  2836 _AX5043_DRGAIN1NB	=	0x5135
                           005145  2837 G$AX5043_DRGAIN2NB$0$0 == 0x5145
                           005145  2838 _AX5043_DRGAIN2NB	=	0x5145
                           005155  2839 G$AX5043_DRGAIN3NB$0$0 == 0x5155
                           005155  2840 _AX5043_DRGAIN3NB	=	0x5155
                           00512E  2841 G$AX5043_FOURFSK0NB$0$0 == 0x512e
                           00512E  2842 _AX5043_FOURFSK0NB	=	0x512e
                           00513E  2843 G$AX5043_FOURFSK1NB$0$0 == 0x513e
                           00513E  2844 _AX5043_FOURFSK1NB	=	0x513e
                           00514E  2845 G$AX5043_FOURFSK2NB$0$0 == 0x514e
                           00514E  2846 _AX5043_FOURFSK2NB	=	0x514e
                           00515E  2847 G$AX5043_FOURFSK3NB$0$0 == 0x515e
                           00515E  2848 _AX5043_FOURFSK3NB	=	0x515e
                           00512D  2849 G$AX5043_FREQDEV00NB$0$0 == 0x512d
                           00512D  2850 _AX5043_FREQDEV00NB	=	0x512d
                           00513D  2851 G$AX5043_FREQDEV01NB$0$0 == 0x513d
                           00513D  2852 _AX5043_FREQDEV01NB	=	0x513d
                           00514D  2853 G$AX5043_FREQDEV02NB$0$0 == 0x514d
                           00514D  2854 _AX5043_FREQDEV02NB	=	0x514d
                           00515D  2855 G$AX5043_FREQDEV03NB$0$0 == 0x515d
                           00515D  2856 _AX5043_FREQDEV03NB	=	0x515d
                           00512C  2857 G$AX5043_FREQDEV10NB$0$0 == 0x512c
                           00512C  2858 _AX5043_FREQDEV10NB	=	0x512c
                           00513C  2859 G$AX5043_FREQDEV11NB$0$0 == 0x513c
                           00513C  2860 _AX5043_FREQDEV11NB	=	0x513c
                           00514C  2861 G$AX5043_FREQDEV12NB$0$0 == 0x514c
                           00514C  2862 _AX5043_FREQDEV12NB	=	0x514c
                           00515C  2863 G$AX5043_FREQDEV13NB$0$0 == 0x515c
                           00515C  2864 _AX5043_FREQDEV13NB	=	0x515c
                           005127  2865 G$AX5043_FREQUENCYGAINA0NB$0$0 == 0x5127
                           005127  2866 _AX5043_FREQUENCYGAINA0NB	=	0x5127
                           005137  2867 G$AX5043_FREQUENCYGAINA1NB$0$0 == 0x5137
                           005137  2868 _AX5043_FREQUENCYGAINA1NB	=	0x5137
                           005147  2869 G$AX5043_FREQUENCYGAINA2NB$0$0 == 0x5147
                           005147  2870 _AX5043_FREQUENCYGAINA2NB	=	0x5147
                           005157  2871 G$AX5043_FREQUENCYGAINA3NB$0$0 == 0x5157
                           005157  2872 _AX5043_FREQUENCYGAINA3NB	=	0x5157
                           005128  2873 G$AX5043_FREQUENCYGAINB0NB$0$0 == 0x5128
                           005128  2874 _AX5043_FREQUENCYGAINB0NB	=	0x5128
                           005138  2875 G$AX5043_FREQUENCYGAINB1NB$0$0 == 0x5138
                           005138  2876 _AX5043_FREQUENCYGAINB1NB	=	0x5138
                           005148  2877 G$AX5043_FREQUENCYGAINB2NB$0$0 == 0x5148
                           005148  2878 _AX5043_FREQUENCYGAINB2NB	=	0x5148
                           005158  2879 G$AX5043_FREQUENCYGAINB3NB$0$0 == 0x5158
                           005158  2880 _AX5043_FREQUENCYGAINB3NB	=	0x5158
                           005129  2881 G$AX5043_FREQUENCYGAINC0NB$0$0 == 0x5129
                           005129  2882 _AX5043_FREQUENCYGAINC0NB	=	0x5129
                           005139  2883 G$AX5043_FREQUENCYGAINC1NB$0$0 == 0x5139
                           005139  2884 _AX5043_FREQUENCYGAINC1NB	=	0x5139
                           005149  2885 G$AX5043_FREQUENCYGAINC2NB$0$0 == 0x5149
                           005149  2886 _AX5043_FREQUENCYGAINC2NB	=	0x5149
                           005159  2887 G$AX5043_FREQUENCYGAINC3NB$0$0 == 0x5159
                           005159  2888 _AX5043_FREQUENCYGAINC3NB	=	0x5159
                           00512A  2889 G$AX5043_FREQUENCYGAIND0NB$0$0 == 0x512a
                           00512A  2890 _AX5043_FREQUENCYGAIND0NB	=	0x512a
                           00513A  2891 G$AX5043_FREQUENCYGAIND1NB$0$0 == 0x513a
                           00513A  2892 _AX5043_FREQUENCYGAIND1NB	=	0x513a
                           00514A  2893 G$AX5043_FREQUENCYGAIND2NB$0$0 == 0x514a
                           00514A  2894 _AX5043_FREQUENCYGAIND2NB	=	0x514a
                           00515A  2895 G$AX5043_FREQUENCYGAIND3NB$0$0 == 0x515a
                           00515A  2896 _AX5043_FREQUENCYGAIND3NB	=	0x515a
                           005116  2897 G$AX5043_FREQUENCYLEAKNB$0$0 == 0x5116
                           005116  2898 _AX5043_FREQUENCYLEAKNB	=	0x5116
                           005126  2899 G$AX5043_PHASEGAIN0NB$0$0 == 0x5126
                           005126  2900 _AX5043_PHASEGAIN0NB	=	0x5126
                           005136  2901 G$AX5043_PHASEGAIN1NB$0$0 == 0x5136
                           005136  2902 _AX5043_PHASEGAIN1NB	=	0x5136
                           005146  2903 G$AX5043_PHASEGAIN2NB$0$0 == 0x5146
                           005146  2904 _AX5043_PHASEGAIN2NB	=	0x5146
                           005156  2905 G$AX5043_PHASEGAIN3NB$0$0 == 0x5156
                           005156  2906 _AX5043_PHASEGAIN3NB	=	0x5156
                           005207  2907 G$AX5043_PKTADDR0NB$0$0 == 0x5207
                           005207  2908 _AX5043_PKTADDR0NB	=	0x5207
                           005206  2909 G$AX5043_PKTADDR1NB$0$0 == 0x5206
                           005206  2910 _AX5043_PKTADDR1NB	=	0x5206
                           005205  2911 G$AX5043_PKTADDR2NB$0$0 == 0x5205
                           005205  2912 _AX5043_PKTADDR2NB	=	0x5205
                           005204  2913 G$AX5043_PKTADDR3NB$0$0 == 0x5204
                           005204  2914 _AX5043_PKTADDR3NB	=	0x5204
                           005200  2915 G$AX5043_PKTADDRCFGNB$0$0 == 0x5200
                           005200  2916 _AX5043_PKTADDRCFGNB	=	0x5200
                           00520B  2917 G$AX5043_PKTADDRMASK0NB$0$0 == 0x520b
                           00520B  2918 _AX5043_PKTADDRMASK0NB	=	0x520b
                           00520A  2919 G$AX5043_PKTADDRMASK1NB$0$0 == 0x520a
                           00520A  2920 _AX5043_PKTADDRMASK1NB	=	0x520a
                           005209  2921 G$AX5043_PKTADDRMASK2NB$0$0 == 0x5209
                           005209  2922 _AX5043_PKTADDRMASK2NB	=	0x5209
                           005208  2923 G$AX5043_PKTADDRMASK3NB$0$0 == 0x5208
                           005208  2924 _AX5043_PKTADDRMASK3NB	=	0x5208
                           005201  2925 G$AX5043_PKTLENCFGNB$0$0 == 0x5201
                           005201  2926 _AX5043_PKTLENCFGNB	=	0x5201
                           005202  2927 G$AX5043_PKTLENOFFSETNB$0$0 == 0x5202
                           005202  2928 _AX5043_PKTLENOFFSETNB	=	0x5202
                           005203  2929 G$AX5043_PKTMAXLENNB$0$0 == 0x5203
                           005203  2930 _AX5043_PKTMAXLENNB	=	0x5203
                           005118  2931 G$AX5043_RXPARAMCURSETNB$0$0 == 0x5118
                           005118  2932 _AX5043_RXPARAMCURSETNB	=	0x5118
                           005117  2933 G$AX5043_RXPARAMSETSNB$0$0 == 0x5117
                           005117  2934 _AX5043_RXPARAMSETSNB	=	0x5117
                           005124  2935 G$AX5043_TIMEGAIN0NB$0$0 == 0x5124
                           005124  2936 _AX5043_TIMEGAIN0NB	=	0x5124
                           005134  2937 G$AX5043_TIMEGAIN1NB$0$0 == 0x5134
                           005134  2938 _AX5043_TIMEGAIN1NB	=	0x5134
                           005144  2939 G$AX5043_TIMEGAIN2NB$0$0 == 0x5144
                           005144  2940 _AX5043_TIMEGAIN2NB	=	0x5144
                           005154  2941 G$AX5043_TIMEGAIN3NB$0$0 == 0x5154
                           005154  2942 _AX5043_TIMEGAIN3NB	=	0x5154
                           000000  2943 G$payload_len$0$0==.
      000000                       2944 _payload_len::
      000000                       2945 	.ds 2
                                   2946 ;--------------------------------------------------------
                                   2947 ; absolute external ram data
                                   2948 ;--------------------------------------------------------
                                   2949 	.area XABS    (ABS,XDATA)
                                   2950 ;--------------------------------------------------------
                                   2951 ; external initialized ram data
                                   2952 ;--------------------------------------------------------
                                   2953 	.area XISEG   (XDATA)
                           000000  2954 G$pkts_received$0$0==.
      000000                       2955 _pkts_received::
      000000                       2956 	.ds 2
                           000002  2957 G$pkts_missing$0$0==.
      000002                       2958 _pkts_missing::
      000002                       2959 	.ds 2
                           000004  2960 G$pkt_counter$0$0==.
      000004                       2961 _pkt_counter::
      000004                       2962 	.ds 2
                           000006  2963 G$ack_flg$0$0==.
      000006                       2964 _ack_flg::
      000006                       2965 	.ds 1
                           000007  2966 G$txdone$0$0==.
      000007                       2967 _txdone::
      000007                       2968 	.ds 1
                           000008  2969 G$testpkt$0$0==.
      000008                       2970 _testpkt::
      000008                       2971 	.ds 10
                                   2972 	.area HOME    (CODE)
                                   2973 	.area GSINIT0 (CODE)
                                   2974 	.area GSINIT1 (CODE)
                                   2975 	.area GSINIT2 (CODE)
                                   2976 	.area GSINIT3 (CODE)
                                   2977 	.area GSINIT4 (CODE)
                                   2978 	.area GSINIT5 (CODE)
                                   2979 	.area GSINIT  (CODE)
                                   2980 	.area GSFINAL (CODE)
                                   2981 	.area CSEG    (CODE)
                                   2982 ;--------------------------------------------------------
                                   2983 ; interrupt vector 
                                   2984 ;--------------------------------------------------------
                                   2985 	.area HOME    (CODE)
      000000                       2986 __interrupt_vect:
      000000 02r00r00         [24] 2987 	ljmp	__sdcc_gsinit_startup
      000003 32               [24] 2988 	reti
      000004                       2989 	.ds	7
      00000B 02r00r00         [24] 2990 	ljmp	_wtimer_irq
      00000E                       2991 	.ds	5
      000013 32               [24] 2992 	reti
      000014                       2993 	.ds	7
      00001B 32               [24] 2994 	reti
      00001C                       2995 	.ds	7
      000023 02r00r00         [24] 2996 	ljmp	_axradio_isr
      000026                       2997 	.ds	5
      00002B 32               [24] 2998 	reti
      00002C                       2999 	.ds	7
      000033 02r00r00         [24] 3000 	ljmp	_pwrmgmt_irq
      000036                       3001 	.ds	5
      00003B 32               [24] 3002 	reti
      00003C                       3003 	.ds	7
      000043 32               [24] 3004 	reti
      000044                       3005 	.ds	7
      00004B 32               [24] 3006 	reti
      00004C                       3007 	.ds	7
      000053 32               [24] 3008 	reti
      000054                       3009 	.ds	7
      00005B 02r00r00         [24] 3010 	ljmp	_uart0_irq
      00005E                       3011 	.ds	5
      000063 02r00r00         [24] 3012 	ljmp	_uart1_irq
      000066                       3013 	.ds	5
      00006B 32               [24] 3014 	reti
      00006C                       3015 	.ds	7
      000073 32               [24] 3016 	reti
      000074                       3017 	.ds	7
      00007B 32               [24] 3018 	reti
      00007C                       3019 	.ds	7
      000083 32               [24] 3020 	reti
      000084                       3021 	.ds	7
      00008B 32               [24] 3022 	reti
      00008C                       3023 	.ds	7
      000093 32               [24] 3024 	reti
