                                      1 ;--------------------------------------------------------
                                      2 ; File Created by SDCC : free open source ANSI-C Compiler
                                      3 ; Version 3.6.0 #9615 (MINGW64)
                                      4 ;--------------------------------------------------------
                                      5 	.module easyax5043
                                      6 	.optsdcc -mmcs51 --model-small
                                      7 	
                                      8 ;--------------------------------------------------------
                                      9 ; Public variables in this module
                                     10 ;--------------------------------------------------------
                                     11 	.globl _axradio_wait_n_lposccycles
                                     12 	.globl _ax5043_init_registers_rx
                                     13 	.globl _ax5043_init_registers_tx
                                     14 	.globl _memset
                                     15 	.globl _memcpy
                                     16 	.globl _wtimer_remove_callback
                                     17 	.globl _wtimer_add_callback
                                     18 	.globl _wtimer_remove
                                     19 	.globl _wtimer1_addrelative
                                     20 	.globl _wtimer0_addrelative
                                     21 	.globl _wtimer0_addabsolute
                                     22 	.globl _wtimer0_curtime
                                     23 	.globl _wtimer_runcallbacks
                                     24 	.globl _wtimer_idle
                                     25 	.globl _ax5043_writefifo
                                     26 	.globl _ax5043_readfifo
                                     27 	.globl _ax5043_wakeup_deepsleep
                                     28 	.globl _ax5043_enter_deepsleep
                                     29 	.globl _ax5043_reset
                                     30 	.globl _ax5043_commsleepexit
                                     31 	.globl _radio_read24
                                     32 	.globl _radio_read16
                                     33 	.globl _pn9_buffer
                                     34 	.globl _pn9_advance_byte
                                     35 	.globl _pn9_advance_bits
                                     36 	.globl _disable_radio_interrupt_in_mcu_pin
                                     37 	.globl _enable_radio_interrupt_in_mcu_pin
                                     38 	.globl _axradio_framing_append_crc
                                     39 	.globl _axradio_framing_check_crc
                                     40 	.globl _ax5043_set_registers_rxcont_singleparamset
                                     41 	.globl _ax5043_set_registers_rxcont
                                     42 	.globl _ax5043_set_registers_rxwor
                                     43 	.globl _ax5043_set_registers_rx
                                     44 	.globl _ax5043_set_registers_tx
                                     45 	.globl _ax5043_set_registers
                                     46 	.globl _axradio_conv_freq_fromreg
                                     47 	.globl _axradio_statuschange
                                     48 	.globl _axradio_conv_timeinterval_totimer0
                                     49 	.globl _enter_standby
                                     50 	.globl _checksignedlimit32
                                     51 	.globl _checksignedlimit16
                                     52 	.globl _signedlimit16
                                     53 	.globl _signextend24
                                     54 	.globl _signextend20
                                     55 	.globl _signextend16
                                     56 	.globl _PORTC_7
                                     57 	.globl _PORTC_6
                                     58 	.globl _PORTC_5
                                     59 	.globl _PORTC_4
                                     60 	.globl _PORTC_3
                                     61 	.globl _PORTC_2
                                     62 	.globl _PORTC_1
                                     63 	.globl _PORTC_0
                                     64 	.globl _PORTB_7
                                     65 	.globl _PORTB_6
                                     66 	.globl _PORTB_5
                                     67 	.globl _PORTB_4
                                     68 	.globl _PORTB_3
                                     69 	.globl _PORTB_2
                                     70 	.globl _PORTB_1
                                     71 	.globl _PORTB_0
                                     72 	.globl _PORTA_7
                                     73 	.globl _PORTA_6
                                     74 	.globl _PORTA_5
                                     75 	.globl _PORTA_4
                                     76 	.globl _PORTA_3
                                     77 	.globl _PORTA_2
                                     78 	.globl _PORTA_1
                                     79 	.globl _PORTA_0
                                     80 	.globl _PINC_7
                                     81 	.globl _PINC_6
                                     82 	.globl _PINC_5
                                     83 	.globl _PINC_4
                                     84 	.globl _PINC_3
                                     85 	.globl _PINC_2
                                     86 	.globl _PINC_1
                                     87 	.globl _PINC_0
                                     88 	.globl _PINB_7
                                     89 	.globl _PINB_6
                                     90 	.globl _PINB_5
                                     91 	.globl _PINB_4
                                     92 	.globl _PINB_3
                                     93 	.globl _PINB_2
                                     94 	.globl _PINB_1
                                     95 	.globl _PINB_0
                                     96 	.globl _PINA_7
                                     97 	.globl _PINA_6
                                     98 	.globl _PINA_5
                                     99 	.globl _PINA_4
                                    100 	.globl _PINA_3
                                    101 	.globl _PINA_2
                                    102 	.globl _PINA_1
                                    103 	.globl _PINA_0
                                    104 	.globl _CY
                                    105 	.globl _AC
                                    106 	.globl _F0
                                    107 	.globl _RS1
                                    108 	.globl _RS0
                                    109 	.globl _OV
                                    110 	.globl _F1
                                    111 	.globl _P
                                    112 	.globl _IP_7
                                    113 	.globl _IP_6
                                    114 	.globl _IP_5
                                    115 	.globl _IP_4
                                    116 	.globl _IP_3
                                    117 	.globl _IP_2
                                    118 	.globl _IP_1
                                    119 	.globl _IP_0
                                    120 	.globl _EA
                                    121 	.globl _IE_7
                                    122 	.globl _IE_6
                                    123 	.globl _IE_5
                                    124 	.globl _IE_4
                                    125 	.globl _IE_3
                                    126 	.globl _IE_2
                                    127 	.globl _IE_1
                                    128 	.globl _IE_0
                                    129 	.globl _EIP_7
                                    130 	.globl _EIP_6
                                    131 	.globl _EIP_5
                                    132 	.globl _EIP_4
                                    133 	.globl _EIP_3
                                    134 	.globl _EIP_2
                                    135 	.globl _EIP_1
                                    136 	.globl _EIP_0
                                    137 	.globl _EIE_7
                                    138 	.globl _EIE_6
                                    139 	.globl _EIE_5
                                    140 	.globl _EIE_4
                                    141 	.globl _EIE_3
                                    142 	.globl _EIE_2
                                    143 	.globl _EIE_1
                                    144 	.globl _EIE_0
                                    145 	.globl _E2IP_7
                                    146 	.globl _E2IP_6
                                    147 	.globl _E2IP_5
                                    148 	.globl _E2IP_4
                                    149 	.globl _E2IP_3
                                    150 	.globl _E2IP_2
                                    151 	.globl _E2IP_1
                                    152 	.globl _E2IP_0
                                    153 	.globl _E2IE_7
                                    154 	.globl _E2IE_6
                                    155 	.globl _E2IE_5
                                    156 	.globl _E2IE_4
                                    157 	.globl _E2IE_3
                                    158 	.globl _E2IE_2
                                    159 	.globl _E2IE_1
                                    160 	.globl _E2IE_0
                                    161 	.globl _B_7
                                    162 	.globl _B_6
                                    163 	.globl _B_5
                                    164 	.globl _B_4
                                    165 	.globl _B_3
                                    166 	.globl _B_2
                                    167 	.globl _B_1
                                    168 	.globl _B_0
                                    169 	.globl _ACC_7
                                    170 	.globl _ACC_6
                                    171 	.globl _ACC_5
                                    172 	.globl _ACC_4
                                    173 	.globl _ACC_3
                                    174 	.globl _ACC_2
                                    175 	.globl _ACC_1
                                    176 	.globl _ACC_0
                                    177 	.globl _WTSTAT
                                    178 	.globl _WTIRQEN
                                    179 	.globl _WTEVTD
                                    180 	.globl _WTEVTD1
                                    181 	.globl _WTEVTD0
                                    182 	.globl _WTEVTC
                                    183 	.globl _WTEVTC1
                                    184 	.globl _WTEVTC0
                                    185 	.globl _WTEVTB
                                    186 	.globl _WTEVTB1
                                    187 	.globl _WTEVTB0
                                    188 	.globl _WTEVTA
                                    189 	.globl _WTEVTA1
                                    190 	.globl _WTEVTA0
                                    191 	.globl _WTCNTR1
                                    192 	.globl _WTCNTB
                                    193 	.globl _WTCNTB1
                                    194 	.globl _WTCNTB0
                                    195 	.globl _WTCNTA
                                    196 	.globl _WTCNTA1
                                    197 	.globl _WTCNTA0
                                    198 	.globl _WTCFGB
                                    199 	.globl _WTCFGA
                                    200 	.globl _WDTRESET
                                    201 	.globl _WDTCFG
                                    202 	.globl _U1STATUS
                                    203 	.globl _U1SHREG
                                    204 	.globl _U1MODE
                                    205 	.globl _U1CTRL
                                    206 	.globl _U0STATUS
                                    207 	.globl _U0SHREG
                                    208 	.globl _U0MODE
                                    209 	.globl _U0CTRL
                                    210 	.globl _T2STATUS
                                    211 	.globl _T2PERIOD
                                    212 	.globl _T2PERIOD1
                                    213 	.globl _T2PERIOD0
                                    214 	.globl _T2MODE
                                    215 	.globl _T2CNT
                                    216 	.globl _T2CNT1
                                    217 	.globl _T2CNT0
                                    218 	.globl _T2CLKSRC
                                    219 	.globl _T1STATUS
                                    220 	.globl _T1PERIOD
                                    221 	.globl _T1PERIOD1
                                    222 	.globl _T1PERIOD0
                                    223 	.globl _T1MODE
                                    224 	.globl _T1CNT
                                    225 	.globl _T1CNT1
                                    226 	.globl _T1CNT0
                                    227 	.globl _T1CLKSRC
                                    228 	.globl _T0STATUS
                                    229 	.globl _T0PERIOD
                                    230 	.globl _T0PERIOD1
                                    231 	.globl _T0PERIOD0
                                    232 	.globl _T0MODE
                                    233 	.globl _T0CNT
                                    234 	.globl _T0CNT1
                                    235 	.globl _T0CNT0
                                    236 	.globl _T0CLKSRC
                                    237 	.globl _SPSTATUS
                                    238 	.globl _SPSHREG
                                    239 	.globl _SPMODE
                                    240 	.globl _SPCLKSRC
                                    241 	.globl _RADIOSTAT
                                    242 	.globl _RADIOSTAT1
                                    243 	.globl _RADIOSTAT0
                                    244 	.globl _RADIODATA
                                    245 	.globl _RADIODATA3
                                    246 	.globl _RADIODATA2
                                    247 	.globl _RADIODATA1
                                    248 	.globl _RADIODATA0
                                    249 	.globl _RADIOADDR
                                    250 	.globl _RADIOADDR1
                                    251 	.globl _RADIOADDR0
                                    252 	.globl _RADIOACC
                                    253 	.globl _OC1STATUS
                                    254 	.globl _OC1PIN
                                    255 	.globl _OC1MODE
                                    256 	.globl _OC1COMP
                                    257 	.globl _OC1COMP1
                                    258 	.globl _OC1COMP0
                                    259 	.globl _OC0STATUS
                                    260 	.globl _OC0PIN
                                    261 	.globl _OC0MODE
                                    262 	.globl _OC0COMP
                                    263 	.globl _OC0COMP1
                                    264 	.globl _OC0COMP0
                                    265 	.globl _NVSTATUS
                                    266 	.globl _NVKEY
                                    267 	.globl _NVDATA
                                    268 	.globl _NVDATA1
                                    269 	.globl _NVDATA0
                                    270 	.globl _NVADDR
                                    271 	.globl _NVADDR1
                                    272 	.globl _NVADDR0
                                    273 	.globl _IC1STATUS
                                    274 	.globl _IC1MODE
                                    275 	.globl _IC1CAPT
                                    276 	.globl _IC1CAPT1
                                    277 	.globl _IC1CAPT0
                                    278 	.globl _IC0STATUS
                                    279 	.globl _IC0MODE
                                    280 	.globl _IC0CAPT
                                    281 	.globl _IC0CAPT1
                                    282 	.globl _IC0CAPT0
                                    283 	.globl _PORTR
                                    284 	.globl _PORTC
                                    285 	.globl _PORTB
                                    286 	.globl _PORTA
                                    287 	.globl _PINR
                                    288 	.globl _PINC
                                    289 	.globl _PINB
                                    290 	.globl _PINA
                                    291 	.globl _DIRR
                                    292 	.globl _DIRC
                                    293 	.globl _DIRB
                                    294 	.globl _DIRA
                                    295 	.globl _DBGLNKSTAT
                                    296 	.globl _DBGLNKBUF
                                    297 	.globl _CODECONFIG
                                    298 	.globl _CLKSTAT
                                    299 	.globl _CLKCON
                                    300 	.globl _ANALOGCOMP
                                    301 	.globl _ADCCONV
                                    302 	.globl _ADCCLKSRC
                                    303 	.globl _ADCCH3CONFIG
                                    304 	.globl _ADCCH2CONFIG
                                    305 	.globl _ADCCH1CONFIG
                                    306 	.globl _ADCCH0CONFIG
                                    307 	.globl __XPAGE
                                    308 	.globl _XPAGE
                                    309 	.globl _SP
                                    310 	.globl _PSW
                                    311 	.globl _PCON
                                    312 	.globl _IP
                                    313 	.globl _IE
                                    314 	.globl _EIP
                                    315 	.globl _EIE
                                    316 	.globl _E2IP
                                    317 	.globl _E2IE
                                    318 	.globl _DPS
                                    319 	.globl _DPTR1
                                    320 	.globl _DPTR0
                                    321 	.globl _DPL1
                                    322 	.globl _DPL
                                    323 	.globl _DPH1
                                    324 	.globl _DPH
                                    325 	.globl _B
                                    326 	.globl _ACC
                                    327 	.globl _radio_not_found_lcd_display
                                    328 	.globl _radio_lcd_display
                                    329 	.globl _f33_saved
                                    330 	.globl _f32_saved
                                    331 	.globl _f31_saved
                                    332 	.globl _f30_saved
                                    333 	.globl _axradio_timer
                                    334 	.globl _axradio_cb_transmitdata
                                    335 	.globl _axradio_cb_transmitend
                                    336 	.globl _axradio_cb_transmitstart
                                    337 	.globl _axradio_cb_channelstate
                                    338 	.globl _axradio_cb_receivesfd
                                    339 	.globl _axradio_cb_receive
                                    340 	.globl _axradio_rxbuffer
                                    341 	.globl _axradio_txbuffer
                                    342 	.globl _axradio_default_remoteaddr
                                    343 	.globl _axradio_localaddr
                                    344 	.globl _axradio_timeanchor
                                    345 	.globl _axradio_sync_periodcorr
                                    346 	.globl _axradio_sync_time
                                    347 	.globl _axradio_ack_seqnr
                                    348 	.globl _axradio_ack_count
                                    349 	.globl _axradio_curfreqoffset
                                    350 	.globl _axradio_curchannel
                                    351 	.globl _axradio_txbuffer_cnt
                                    352 	.globl _axradio_txbuffer_len
                                    353 	.globl _axradio_syncstate
                                    354 	.globl _AX5043_TIMEGAIN3NB
                                    355 	.globl _AX5043_TIMEGAIN2NB
                                    356 	.globl _AX5043_TIMEGAIN1NB
                                    357 	.globl _AX5043_TIMEGAIN0NB
                                    358 	.globl _AX5043_RXPARAMSETSNB
                                    359 	.globl _AX5043_RXPARAMCURSETNB
                                    360 	.globl _AX5043_PKTMAXLENNB
                                    361 	.globl _AX5043_PKTLENOFFSETNB
                                    362 	.globl _AX5043_PKTLENCFGNB
                                    363 	.globl _AX5043_PKTADDRMASK3NB
                                    364 	.globl _AX5043_PKTADDRMASK2NB
                                    365 	.globl _AX5043_PKTADDRMASK1NB
                                    366 	.globl _AX5043_PKTADDRMASK0NB
                                    367 	.globl _AX5043_PKTADDRCFGNB
                                    368 	.globl _AX5043_PKTADDR3NB
                                    369 	.globl _AX5043_PKTADDR2NB
                                    370 	.globl _AX5043_PKTADDR1NB
                                    371 	.globl _AX5043_PKTADDR0NB
                                    372 	.globl _AX5043_PHASEGAIN3NB
                                    373 	.globl _AX5043_PHASEGAIN2NB
                                    374 	.globl _AX5043_PHASEGAIN1NB
                                    375 	.globl _AX5043_PHASEGAIN0NB
                                    376 	.globl _AX5043_FREQUENCYLEAKNB
                                    377 	.globl _AX5043_FREQUENCYGAIND3NB
                                    378 	.globl _AX5043_FREQUENCYGAIND2NB
                                    379 	.globl _AX5043_FREQUENCYGAIND1NB
                                    380 	.globl _AX5043_FREQUENCYGAIND0NB
                                    381 	.globl _AX5043_FREQUENCYGAINC3NB
                                    382 	.globl _AX5043_FREQUENCYGAINC2NB
                                    383 	.globl _AX5043_FREQUENCYGAINC1NB
                                    384 	.globl _AX5043_FREQUENCYGAINC0NB
                                    385 	.globl _AX5043_FREQUENCYGAINB3NB
                                    386 	.globl _AX5043_FREQUENCYGAINB2NB
                                    387 	.globl _AX5043_FREQUENCYGAINB1NB
                                    388 	.globl _AX5043_FREQUENCYGAINB0NB
                                    389 	.globl _AX5043_FREQUENCYGAINA3NB
                                    390 	.globl _AX5043_FREQUENCYGAINA2NB
                                    391 	.globl _AX5043_FREQUENCYGAINA1NB
                                    392 	.globl _AX5043_FREQUENCYGAINA0NB
                                    393 	.globl _AX5043_FREQDEV13NB
                                    394 	.globl _AX5043_FREQDEV12NB
                                    395 	.globl _AX5043_FREQDEV11NB
                                    396 	.globl _AX5043_FREQDEV10NB
                                    397 	.globl _AX5043_FREQDEV03NB
                                    398 	.globl _AX5043_FREQDEV02NB
                                    399 	.globl _AX5043_FREQDEV01NB
                                    400 	.globl _AX5043_FREQDEV00NB
                                    401 	.globl _AX5043_FOURFSK3NB
                                    402 	.globl _AX5043_FOURFSK2NB
                                    403 	.globl _AX5043_FOURFSK1NB
                                    404 	.globl _AX5043_FOURFSK0NB
                                    405 	.globl _AX5043_DRGAIN3NB
                                    406 	.globl _AX5043_DRGAIN2NB
                                    407 	.globl _AX5043_DRGAIN1NB
                                    408 	.globl _AX5043_DRGAIN0NB
                                    409 	.globl _AX5043_BBOFFSRES3NB
                                    410 	.globl _AX5043_BBOFFSRES2NB
                                    411 	.globl _AX5043_BBOFFSRES1NB
                                    412 	.globl _AX5043_BBOFFSRES0NB
                                    413 	.globl _AX5043_AMPLITUDEGAIN3NB
                                    414 	.globl _AX5043_AMPLITUDEGAIN2NB
                                    415 	.globl _AX5043_AMPLITUDEGAIN1NB
                                    416 	.globl _AX5043_AMPLITUDEGAIN0NB
                                    417 	.globl _AX5043_AGCTARGET3NB
                                    418 	.globl _AX5043_AGCTARGET2NB
                                    419 	.globl _AX5043_AGCTARGET1NB
                                    420 	.globl _AX5043_AGCTARGET0NB
                                    421 	.globl _AX5043_AGCMINMAX3NB
                                    422 	.globl _AX5043_AGCMINMAX2NB
                                    423 	.globl _AX5043_AGCMINMAX1NB
                                    424 	.globl _AX5043_AGCMINMAX0NB
                                    425 	.globl _AX5043_AGCGAIN3NB
                                    426 	.globl _AX5043_AGCGAIN2NB
                                    427 	.globl _AX5043_AGCGAIN1NB
                                    428 	.globl _AX5043_AGCGAIN0NB
                                    429 	.globl _AX5043_AGCAHYST3NB
                                    430 	.globl _AX5043_AGCAHYST2NB
                                    431 	.globl _AX5043_AGCAHYST1NB
                                    432 	.globl _AX5043_AGCAHYST0NB
                                    433 	.globl _AX5043_0xF44NB
                                    434 	.globl _AX5043_0xF35NB
                                    435 	.globl _AX5043_0xF34NB
                                    436 	.globl _AX5043_0xF33NB
                                    437 	.globl _AX5043_0xF32NB
                                    438 	.globl _AX5043_0xF31NB
                                    439 	.globl _AX5043_0xF30NB
                                    440 	.globl _AX5043_0xF26NB
                                    441 	.globl _AX5043_0xF23NB
                                    442 	.globl _AX5043_0xF22NB
                                    443 	.globl _AX5043_0xF21NB
                                    444 	.globl _AX5043_0xF1CNB
                                    445 	.globl _AX5043_0xF18NB
                                    446 	.globl _AX5043_0xF0CNB
                                    447 	.globl _AX5043_0xF00NB
                                    448 	.globl _AX5043_XTALSTATUSNB
                                    449 	.globl _AX5043_XTALOSCNB
                                    450 	.globl _AX5043_XTALCAPNB
                                    451 	.globl _AX5043_XTALAMPLNB
                                    452 	.globl _AX5043_WAKEUPXOEARLYNB
                                    453 	.globl _AX5043_WAKEUPTIMER1NB
                                    454 	.globl _AX5043_WAKEUPTIMER0NB
                                    455 	.globl _AX5043_WAKEUPFREQ1NB
                                    456 	.globl _AX5043_WAKEUPFREQ0NB
                                    457 	.globl _AX5043_WAKEUP1NB
                                    458 	.globl _AX5043_WAKEUP0NB
                                    459 	.globl _AX5043_TXRATE2NB
                                    460 	.globl _AX5043_TXRATE1NB
                                    461 	.globl _AX5043_TXRATE0NB
                                    462 	.globl _AX5043_TXPWRCOEFFE1NB
                                    463 	.globl _AX5043_TXPWRCOEFFE0NB
                                    464 	.globl _AX5043_TXPWRCOEFFD1NB
                                    465 	.globl _AX5043_TXPWRCOEFFD0NB
                                    466 	.globl _AX5043_TXPWRCOEFFC1NB
                                    467 	.globl _AX5043_TXPWRCOEFFC0NB
                                    468 	.globl _AX5043_TXPWRCOEFFB1NB
                                    469 	.globl _AX5043_TXPWRCOEFFB0NB
                                    470 	.globl _AX5043_TXPWRCOEFFA1NB
                                    471 	.globl _AX5043_TXPWRCOEFFA0NB
                                    472 	.globl _AX5043_TRKRFFREQ2NB
                                    473 	.globl _AX5043_TRKRFFREQ1NB
                                    474 	.globl _AX5043_TRKRFFREQ0NB
                                    475 	.globl _AX5043_TRKPHASE1NB
                                    476 	.globl _AX5043_TRKPHASE0NB
                                    477 	.globl _AX5043_TRKFSKDEMOD1NB
                                    478 	.globl _AX5043_TRKFSKDEMOD0NB
                                    479 	.globl _AX5043_TRKFREQ1NB
                                    480 	.globl _AX5043_TRKFREQ0NB
                                    481 	.globl _AX5043_TRKDATARATE2NB
                                    482 	.globl _AX5043_TRKDATARATE1NB
                                    483 	.globl _AX5043_TRKDATARATE0NB
                                    484 	.globl _AX5043_TRKAMPLITUDE1NB
                                    485 	.globl _AX5043_TRKAMPLITUDE0NB
                                    486 	.globl _AX5043_TRKAFSKDEMOD1NB
                                    487 	.globl _AX5043_TRKAFSKDEMOD0NB
                                    488 	.globl _AX5043_TMGTXSETTLENB
                                    489 	.globl _AX5043_TMGTXBOOSTNB
                                    490 	.globl _AX5043_TMGRXSETTLENB
                                    491 	.globl _AX5043_TMGRXRSSINB
                                    492 	.globl _AX5043_TMGRXPREAMBLE3NB
                                    493 	.globl _AX5043_TMGRXPREAMBLE2NB
                                    494 	.globl _AX5043_TMGRXPREAMBLE1NB
                                    495 	.globl _AX5043_TMGRXOFFSACQNB
                                    496 	.globl _AX5043_TMGRXCOARSEAGCNB
                                    497 	.globl _AX5043_TMGRXBOOSTNB
                                    498 	.globl _AX5043_TMGRXAGCNB
                                    499 	.globl _AX5043_TIMER2NB
                                    500 	.globl _AX5043_TIMER1NB
                                    501 	.globl _AX5043_TIMER0NB
                                    502 	.globl _AX5043_SILICONREVISIONNB
                                    503 	.globl _AX5043_SCRATCHNB
                                    504 	.globl _AX5043_RXDATARATE2NB
                                    505 	.globl _AX5043_RXDATARATE1NB
                                    506 	.globl _AX5043_RXDATARATE0NB
                                    507 	.globl _AX5043_RSSIREFERENCENB
                                    508 	.globl _AX5043_RSSIABSTHRNB
                                    509 	.globl _AX5043_RSSINB
                                    510 	.globl _AX5043_REFNB
                                    511 	.globl _AX5043_RADIOSTATENB
                                    512 	.globl _AX5043_RADIOEVENTREQ1NB
                                    513 	.globl _AX5043_RADIOEVENTREQ0NB
                                    514 	.globl _AX5043_RADIOEVENTMASK1NB
                                    515 	.globl _AX5043_RADIOEVENTMASK0NB
                                    516 	.globl _AX5043_PWRMODENB
                                    517 	.globl _AX5043_PWRAMPNB
                                    518 	.globl _AX5043_POWSTICKYSTATNB
                                    519 	.globl _AX5043_POWSTATNB
                                    520 	.globl _AX5043_POWIRQMASKNB
                                    521 	.globl _AX5043_POWCTRL1NB
                                    522 	.globl _AX5043_PLLVCOIRNB
                                    523 	.globl _AX5043_PLLVCOINB
                                    524 	.globl _AX5043_PLLVCODIVNB
                                    525 	.globl _AX5043_PLLRNGCLKNB
                                    526 	.globl _AX5043_PLLRANGINGBNB
                                    527 	.globl _AX5043_PLLRANGINGANB
                                    528 	.globl _AX5043_PLLLOOPBOOSTNB
                                    529 	.globl _AX5043_PLLLOOPNB
                                    530 	.globl _AX5043_PLLLOCKDETNB
                                    531 	.globl _AX5043_PLLCPIBOOSTNB
                                    532 	.globl _AX5043_PLLCPINB
                                    533 	.globl _AX5043_PKTSTOREFLAGSNB
                                    534 	.globl _AX5043_PKTMISCFLAGSNB
                                    535 	.globl _AX5043_PKTCHUNKSIZENB
                                    536 	.globl _AX5043_PKTACCEPTFLAGSNB
                                    537 	.globl _AX5043_PINSTATENB
                                    538 	.globl _AX5043_PINFUNCSYSCLKNB
                                    539 	.globl _AX5043_PINFUNCPWRAMPNB
                                    540 	.globl _AX5043_PINFUNCIRQNB
                                    541 	.globl _AX5043_PINFUNCDCLKNB
                                    542 	.globl _AX5043_PINFUNCDATANB
                                    543 	.globl _AX5043_PINFUNCANTSELNB
                                    544 	.globl _AX5043_MODULATIONNB
                                    545 	.globl _AX5043_MODCFGPNB
                                    546 	.globl _AX5043_MODCFGFNB
                                    547 	.globl _AX5043_MODCFGANB
                                    548 	.globl _AX5043_MAXRFOFFSET2NB
                                    549 	.globl _AX5043_MAXRFOFFSET1NB
                                    550 	.globl _AX5043_MAXRFOFFSET0NB
                                    551 	.globl _AX5043_MAXDROFFSET2NB
                                    552 	.globl _AX5043_MAXDROFFSET1NB
                                    553 	.globl _AX5043_MAXDROFFSET0NB
                                    554 	.globl _AX5043_MATCH1PAT1NB
                                    555 	.globl _AX5043_MATCH1PAT0NB
                                    556 	.globl _AX5043_MATCH1MINNB
                                    557 	.globl _AX5043_MATCH1MAXNB
                                    558 	.globl _AX5043_MATCH1LENNB
                                    559 	.globl _AX5043_MATCH0PAT3NB
                                    560 	.globl _AX5043_MATCH0PAT2NB
                                    561 	.globl _AX5043_MATCH0PAT1NB
                                    562 	.globl _AX5043_MATCH0PAT0NB
                                    563 	.globl _AX5043_MATCH0MINNB
                                    564 	.globl _AX5043_MATCH0MAXNB
                                    565 	.globl _AX5043_MATCH0LENNB
                                    566 	.globl _AX5043_LPOSCSTATUSNB
                                    567 	.globl _AX5043_LPOSCREF1NB
                                    568 	.globl _AX5043_LPOSCREF0NB
                                    569 	.globl _AX5043_LPOSCPER1NB
                                    570 	.globl _AX5043_LPOSCPER0NB
                                    571 	.globl _AX5043_LPOSCKFILT1NB
                                    572 	.globl _AX5043_LPOSCKFILT0NB
                                    573 	.globl _AX5043_LPOSCFREQ1NB
                                    574 	.globl _AX5043_LPOSCFREQ0NB
                                    575 	.globl _AX5043_LPOSCCONFIGNB
                                    576 	.globl _AX5043_IRQREQUEST1NB
                                    577 	.globl _AX5043_IRQREQUEST0NB
                                    578 	.globl _AX5043_IRQMASK1NB
                                    579 	.globl _AX5043_IRQMASK0NB
                                    580 	.globl _AX5043_IRQINVERSION1NB
                                    581 	.globl _AX5043_IRQINVERSION0NB
                                    582 	.globl _AX5043_IFFREQ1NB
                                    583 	.globl _AX5043_IFFREQ0NB
                                    584 	.globl _AX5043_GPADCPERIODNB
                                    585 	.globl _AX5043_GPADCCTRLNB
                                    586 	.globl _AX5043_GPADC13VALUE1NB
                                    587 	.globl _AX5043_GPADC13VALUE0NB
                                    588 	.globl _AX5043_FSKDMIN1NB
                                    589 	.globl _AX5043_FSKDMIN0NB
                                    590 	.globl _AX5043_FSKDMAX1NB
                                    591 	.globl _AX5043_FSKDMAX0NB
                                    592 	.globl _AX5043_FSKDEV2NB
                                    593 	.globl _AX5043_FSKDEV1NB
                                    594 	.globl _AX5043_FSKDEV0NB
                                    595 	.globl _AX5043_FREQB3NB
                                    596 	.globl _AX5043_FREQB2NB
                                    597 	.globl _AX5043_FREQB1NB
                                    598 	.globl _AX5043_FREQB0NB
                                    599 	.globl _AX5043_FREQA3NB
                                    600 	.globl _AX5043_FREQA2NB
                                    601 	.globl _AX5043_FREQA1NB
                                    602 	.globl _AX5043_FREQA0NB
                                    603 	.globl _AX5043_FRAMINGNB
                                    604 	.globl _AX5043_FIFOTHRESH1NB
                                    605 	.globl _AX5043_FIFOTHRESH0NB
                                    606 	.globl _AX5043_FIFOSTATNB
                                    607 	.globl _AX5043_FIFOFREE1NB
                                    608 	.globl _AX5043_FIFOFREE0NB
                                    609 	.globl _AX5043_FIFODATANB
                                    610 	.globl _AX5043_FIFOCOUNT1NB
                                    611 	.globl _AX5043_FIFOCOUNT0NB
                                    612 	.globl _AX5043_FECSYNCNB
                                    613 	.globl _AX5043_FECSTATUSNB
                                    614 	.globl _AX5043_FECNB
                                    615 	.globl _AX5043_ENCODINGNB
                                    616 	.globl _AX5043_DIVERSITYNB
                                    617 	.globl _AX5043_DECIMATIONNB
                                    618 	.globl _AX5043_DACVALUE1NB
                                    619 	.globl _AX5043_DACVALUE0NB
                                    620 	.globl _AX5043_DACCONFIGNB
                                    621 	.globl _AX5043_CRCINIT3NB
                                    622 	.globl _AX5043_CRCINIT2NB
                                    623 	.globl _AX5043_CRCINIT1NB
                                    624 	.globl _AX5043_CRCINIT0NB
                                    625 	.globl _AX5043_BGNDRSSITHRNB
                                    626 	.globl _AX5043_BGNDRSSIGAINNB
                                    627 	.globl _AX5043_BGNDRSSINB
                                    628 	.globl _AX5043_BBTUNENB
                                    629 	.globl _AX5043_BBOFFSCAPNB
                                    630 	.globl _AX5043_AMPLFILTERNB
                                    631 	.globl _AX5043_AGCCOUNTERNB
                                    632 	.globl _AX5043_AFSKSPACE1NB
                                    633 	.globl _AX5043_AFSKSPACE0NB
                                    634 	.globl _AX5043_AFSKMARK1NB
                                    635 	.globl _AX5043_AFSKMARK0NB
                                    636 	.globl _AX5043_AFSKCTRLNB
                                    637 	.globl _AX5043_TIMEGAIN3
                                    638 	.globl _AX5043_TIMEGAIN2
                                    639 	.globl _AX5043_TIMEGAIN1
                                    640 	.globl _AX5043_TIMEGAIN0
                                    641 	.globl _AX5043_RXPARAMSETS
                                    642 	.globl _AX5043_RXPARAMCURSET
                                    643 	.globl _AX5043_PKTMAXLEN
                                    644 	.globl _AX5043_PKTLENOFFSET
                                    645 	.globl _AX5043_PKTLENCFG
                                    646 	.globl _AX5043_PKTADDRMASK3
                                    647 	.globl _AX5043_PKTADDRMASK2
                                    648 	.globl _AX5043_PKTADDRMASK1
                                    649 	.globl _AX5043_PKTADDRMASK0
                                    650 	.globl _AX5043_PKTADDRCFG
                                    651 	.globl _AX5043_PKTADDR3
                                    652 	.globl _AX5043_PKTADDR2
                                    653 	.globl _AX5043_PKTADDR1
                                    654 	.globl _AX5043_PKTADDR0
                                    655 	.globl _AX5043_PHASEGAIN3
                                    656 	.globl _AX5043_PHASEGAIN2
                                    657 	.globl _AX5043_PHASEGAIN1
                                    658 	.globl _AX5043_PHASEGAIN0
                                    659 	.globl _AX5043_FREQUENCYLEAK
                                    660 	.globl _AX5043_FREQUENCYGAIND3
                                    661 	.globl _AX5043_FREQUENCYGAIND2
                                    662 	.globl _AX5043_FREQUENCYGAIND1
                                    663 	.globl _AX5043_FREQUENCYGAIND0
                                    664 	.globl _AX5043_FREQUENCYGAINC3
                                    665 	.globl _AX5043_FREQUENCYGAINC2
                                    666 	.globl _AX5043_FREQUENCYGAINC1
                                    667 	.globl _AX5043_FREQUENCYGAINC0
                                    668 	.globl _AX5043_FREQUENCYGAINB3
                                    669 	.globl _AX5043_FREQUENCYGAINB2
                                    670 	.globl _AX5043_FREQUENCYGAINB1
                                    671 	.globl _AX5043_FREQUENCYGAINB0
                                    672 	.globl _AX5043_FREQUENCYGAINA3
                                    673 	.globl _AX5043_FREQUENCYGAINA2
                                    674 	.globl _AX5043_FREQUENCYGAINA1
                                    675 	.globl _AX5043_FREQUENCYGAINA0
                                    676 	.globl _AX5043_FREQDEV13
                                    677 	.globl _AX5043_FREQDEV12
                                    678 	.globl _AX5043_FREQDEV11
                                    679 	.globl _AX5043_FREQDEV10
                                    680 	.globl _AX5043_FREQDEV03
                                    681 	.globl _AX5043_FREQDEV02
                                    682 	.globl _AX5043_FREQDEV01
                                    683 	.globl _AX5043_FREQDEV00
                                    684 	.globl _AX5043_FOURFSK3
                                    685 	.globl _AX5043_FOURFSK2
                                    686 	.globl _AX5043_FOURFSK1
                                    687 	.globl _AX5043_FOURFSK0
                                    688 	.globl _AX5043_DRGAIN3
                                    689 	.globl _AX5043_DRGAIN2
                                    690 	.globl _AX5043_DRGAIN1
                                    691 	.globl _AX5043_DRGAIN0
                                    692 	.globl _AX5043_BBOFFSRES3
                                    693 	.globl _AX5043_BBOFFSRES2
                                    694 	.globl _AX5043_BBOFFSRES1
                                    695 	.globl _AX5043_BBOFFSRES0
                                    696 	.globl _AX5043_AMPLITUDEGAIN3
                                    697 	.globl _AX5043_AMPLITUDEGAIN2
                                    698 	.globl _AX5043_AMPLITUDEGAIN1
                                    699 	.globl _AX5043_AMPLITUDEGAIN0
                                    700 	.globl _AX5043_AGCTARGET3
                                    701 	.globl _AX5043_AGCTARGET2
                                    702 	.globl _AX5043_AGCTARGET1
                                    703 	.globl _AX5043_AGCTARGET0
                                    704 	.globl _AX5043_AGCMINMAX3
                                    705 	.globl _AX5043_AGCMINMAX2
                                    706 	.globl _AX5043_AGCMINMAX1
                                    707 	.globl _AX5043_AGCMINMAX0
                                    708 	.globl _AX5043_AGCGAIN3
                                    709 	.globl _AX5043_AGCGAIN2
                                    710 	.globl _AX5043_AGCGAIN1
                                    711 	.globl _AX5043_AGCGAIN0
                                    712 	.globl _AX5043_AGCAHYST3
                                    713 	.globl _AX5043_AGCAHYST2
                                    714 	.globl _AX5043_AGCAHYST1
                                    715 	.globl _AX5043_AGCAHYST0
                                    716 	.globl _AX5043_0xF44
                                    717 	.globl _AX5043_0xF35
                                    718 	.globl _AX5043_0xF34
                                    719 	.globl _AX5043_0xF33
                                    720 	.globl _AX5043_0xF32
                                    721 	.globl _AX5043_0xF31
                                    722 	.globl _AX5043_0xF30
                                    723 	.globl _AX5043_0xF26
                                    724 	.globl _AX5043_0xF23
                                    725 	.globl _AX5043_0xF22
                                    726 	.globl _AX5043_0xF21
                                    727 	.globl _AX5043_0xF1C
                                    728 	.globl _AX5043_0xF18
                                    729 	.globl _AX5043_0xF0C
                                    730 	.globl _AX5043_0xF00
                                    731 	.globl _AX5043_XTALSTATUS
                                    732 	.globl _AX5043_XTALOSC
                                    733 	.globl _AX5043_XTALCAP
                                    734 	.globl _AX5043_XTALAMPL
                                    735 	.globl _AX5043_WAKEUPXOEARLY
                                    736 	.globl _AX5043_WAKEUPTIMER1
                                    737 	.globl _AX5043_WAKEUPTIMER0
                                    738 	.globl _AX5043_WAKEUPFREQ1
                                    739 	.globl _AX5043_WAKEUPFREQ0
                                    740 	.globl _AX5043_WAKEUP1
                                    741 	.globl _AX5043_WAKEUP0
                                    742 	.globl _AX5043_TXRATE2
                                    743 	.globl _AX5043_TXRATE1
                                    744 	.globl _AX5043_TXRATE0
                                    745 	.globl _AX5043_TXPWRCOEFFE1
                                    746 	.globl _AX5043_TXPWRCOEFFE0
                                    747 	.globl _AX5043_TXPWRCOEFFD1
                                    748 	.globl _AX5043_TXPWRCOEFFD0
                                    749 	.globl _AX5043_TXPWRCOEFFC1
                                    750 	.globl _AX5043_TXPWRCOEFFC0
                                    751 	.globl _AX5043_TXPWRCOEFFB1
                                    752 	.globl _AX5043_TXPWRCOEFFB0
                                    753 	.globl _AX5043_TXPWRCOEFFA1
                                    754 	.globl _AX5043_TXPWRCOEFFA0
                                    755 	.globl _AX5043_TRKRFFREQ2
                                    756 	.globl _AX5043_TRKRFFREQ1
                                    757 	.globl _AX5043_TRKRFFREQ0
                                    758 	.globl _AX5043_TRKPHASE1
                                    759 	.globl _AX5043_TRKPHASE0
                                    760 	.globl _AX5043_TRKFSKDEMOD1
                                    761 	.globl _AX5043_TRKFSKDEMOD0
                                    762 	.globl _AX5043_TRKFREQ1
                                    763 	.globl _AX5043_TRKFREQ0
                                    764 	.globl _AX5043_TRKDATARATE2
                                    765 	.globl _AX5043_TRKDATARATE1
                                    766 	.globl _AX5043_TRKDATARATE0
                                    767 	.globl _AX5043_TRKAMPLITUDE1
                                    768 	.globl _AX5043_TRKAMPLITUDE0
                                    769 	.globl _AX5043_TRKAFSKDEMOD1
                                    770 	.globl _AX5043_TRKAFSKDEMOD0
                                    771 	.globl _AX5043_TMGTXSETTLE
                                    772 	.globl _AX5043_TMGTXBOOST
                                    773 	.globl _AX5043_TMGRXSETTLE
                                    774 	.globl _AX5043_TMGRXRSSI
                                    775 	.globl _AX5043_TMGRXPREAMBLE3
                                    776 	.globl _AX5043_TMGRXPREAMBLE2
                                    777 	.globl _AX5043_TMGRXPREAMBLE1
                                    778 	.globl _AX5043_TMGRXOFFSACQ
                                    779 	.globl _AX5043_TMGRXCOARSEAGC
                                    780 	.globl _AX5043_TMGRXBOOST
                                    781 	.globl _AX5043_TMGRXAGC
                                    782 	.globl _AX5043_TIMER2
                                    783 	.globl _AX5043_TIMER1
                                    784 	.globl _AX5043_TIMER0
                                    785 	.globl _AX5043_SILICONREVISION
                                    786 	.globl _AX5043_SCRATCH
                                    787 	.globl _AX5043_RXDATARATE2
                                    788 	.globl _AX5043_RXDATARATE1
                                    789 	.globl _AX5043_RXDATARATE0
                                    790 	.globl _AX5043_RSSIREFERENCE
                                    791 	.globl _AX5043_RSSIABSTHR
                                    792 	.globl _AX5043_RSSI
                                    793 	.globl _AX5043_REF
                                    794 	.globl _AX5043_RADIOSTATE
                                    795 	.globl _AX5043_RADIOEVENTREQ1
                                    796 	.globl _AX5043_RADIOEVENTREQ0
                                    797 	.globl _AX5043_RADIOEVENTMASK1
                                    798 	.globl _AX5043_RADIOEVENTMASK0
                                    799 	.globl _AX5043_PWRMODE
                                    800 	.globl _AX5043_PWRAMP
                                    801 	.globl _AX5043_POWSTICKYSTAT
                                    802 	.globl _AX5043_POWSTAT
                                    803 	.globl _AX5043_POWIRQMASK
                                    804 	.globl _AX5043_POWCTRL1
                                    805 	.globl _AX5043_PLLVCOIR
                                    806 	.globl _AX5043_PLLVCOI
                                    807 	.globl _AX5043_PLLVCODIV
                                    808 	.globl _AX5043_PLLRNGCLK
                                    809 	.globl _AX5043_PLLRANGINGB
                                    810 	.globl _AX5043_PLLRANGINGA
                                    811 	.globl _AX5043_PLLLOOPBOOST
                                    812 	.globl _AX5043_PLLLOOP
                                    813 	.globl _AX5043_PLLLOCKDET
                                    814 	.globl _AX5043_PLLCPIBOOST
                                    815 	.globl _AX5043_PLLCPI
                                    816 	.globl _AX5043_PKTSTOREFLAGS
                                    817 	.globl _AX5043_PKTMISCFLAGS
                                    818 	.globl _AX5043_PKTCHUNKSIZE
                                    819 	.globl _AX5043_PKTACCEPTFLAGS
                                    820 	.globl _AX5043_PINSTATE
                                    821 	.globl _AX5043_PINFUNCSYSCLK
                                    822 	.globl _AX5043_PINFUNCPWRAMP
                                    823 	.globl _AX5043_PINFUNCIRQ
                                    824 	.globl _AX5043_PINFUNCDCLK
                                    825 	.globl _AX5043_PINFUNCDATA
                                    826 	.globl _AX5043_PINFUNCANTSEL
                                    827 	.globl _AX5043_MODULATION
                                    828 	.globl _AX5043_MODCFGP
                                    829 	.globl _AX5043_MODCFGF
                                    830 	.globl _AX5043_MODCFGA
                                    831 	.globl _AX5043_MAXRFOFFSET2
                                    832 	.globl _AX5043_MAXRFOFFSET1
                                    833 	.globl _AX5043_MAXRFOFFSET0
                                    834 	.globl _AX5043_MAXDROFFSET2
                                    835 	.globl _AX5043_MAXDROFFSET1
                                    836 	.globl _AX5043_MAXDROFFSET0
                                    837 	.globl _AX5043_MATCH1PAT1
                                    838 	.globl _AX5043_MATCH1PAT0
                                    839 	.globl _AX5043_MATCH1MIN
                                    840 	.globl _AX5043_MATCH1MAX
                                    841 	.globl _AX5043_MATCH1LEN
                                    842 	.globl _AX5043_MATCH0PAT3
                                    843 	.globl _AX5043_MATCH0PAT2
                                    844 	.globl _AX5043_MATCH0PAT1
                                    845 	.globl _AX5043_MATCH0PAT0
                                    846 	.globl _AX5043_MATCH0MIN
                                    847 	.globl _AX5043_MATCH0MAX
                                    848 	.globl _AX5043_MATCH0LEN
                                    849 	.globl _AX5043_LPOSCSTATUS
                                    850 	.globl _AX5043_LPOSCREF1
                                    851 	.globl _AX5043_LPOSCREF0
                                    852 	.globl _AX5043_LPOSCPER1
                                    853 	.globl _AX5043_LPOSCPER0
                                    854 	.globl _AX5043_LPOSCKFILT1
                                    855 	.globl _AX5043_LPOSCKFILT0
                                    856 	.globl _AX5043_LPOSCFREQ1
                                    857 	.globl _AX5043_LPOSCFREQ0
                                    858 	.globl _AX5043_LPOSCCONFIG
                                    859 	.globl _AX5043_IRQREQUEST1
                                    860 	.globl _AX5043_IRQREQUEST0
                                    861 	.globl _AX5043_IRQMASK1
                                    862 	.globl _AX5043_IRQMASK0
                                    863 	.globl _AX5043_IRQINVERSION1
                                    864 	.globl _AX5043_IRQINVERSION0
                                    865 	.globl _AX5043_IFFREQ1
                                    866 	.globl _AX5043_IFFREQ0
                                    867 	.globl _AX5043_GPADCPERIOD
                                    868 	.globl _AX5043_GPADCCTRL
                                    869 	.globl _AX5043_GPADC13VALUE1
                                    870 	.globl _AX5043_GPADC13VALUE0
                                    871 	.globl _AX5043_FSKDMIN1
                                    872 	.globl _AX5043_FSKDMIN0
                                    873 	.globl _AX5043_FSKDMAX1
                                    874 	.globl _AX5043_FSKDMAX0
                                    875 	.globl _AX5043_FSKDEV2
                                    876 	.globl _AX5043_FSKDEV1
                                    877 	.globl _AX5043_FSKDEV0
                                    878 	.globl _AX5043_FREQB3
                                    879 	.globl _AX5043_FREQB2
                                    880 	.globl _AX5043_FREQB1
                                    881 	.globl _AX5043_FREQB0
                                    882 	.globl _AX5043_FREQA3
                                    883 	.globl _AX5043_FREQA2
                                    884 	.globl _AX5043_FREQA1
                                    885 	.globl _AX5043_FREQA0
                                    886 	.globl _AX5043_FRAMING
                                    887 	.globl _AX5043_FIFOTHRESH1
                                    888 	.globl _AX5043_FIFOTHRESH0
                                    889 	.globl _AX5043_FIFOSTAT
                                    890 	.globl _AX5043_FIFOFREE1
                                    891 	.globl _AX5043_FIFOFREE0
                                    892 	.globl _AX5043_FIFODATA
                                    893 	.globl _AX5043_FIFOCOUNT1
                                    894 	.globl _AX5043_FIFOCOUNT0
                                    895 	.globl _AX5043_FECSYNC
                                    896 	.globl _AX5043_FECSTATUS
                                    897 	.globl _AX5043_FEC
                                    898 	.globl _AX5043_ENCODING
                                    899 	.globl _AX5043_DIVERSITY
                                    900 	.globl _AX5043_DECIMATION
                                    901 	.globl _AX5043_DACVALUE1
                                    902 	.globl _AX5043_DACVALUE0
                                    903 	.globl _AX5043_DACCONFIG
                                    904 	.globl _AX5043_CRCINIT3
                                    905 	.globl _AX5043_CRCINIT2
                                    906 	.globl _AX5043_CRCINIT1
                                    907 	.globl _AX5043_CRCINIT0
                                    908 	.globl _AX5043_BGNDRSSITHR
                                    909 	.globl _AX5043_BGNDRSSIGAIN
                                    910 	.globl _AX5043_BGNDRSSI
                                    911 	.globl _AX5043_BBTUNE
                                    912 	.globl _AX5043_BBOFFSCAP
                                    913 	.globl _AX5043_AMPLFILTER
                                    914 	.globl _AX5043_AGCCOUNTER
                                    915 	.globl _AX5043_AFSKSPACE1
                                    916 	.globl _AX5043_AFSKSPACE0
                                    917 	.globl _AX5043_AFSKMARK1
                                    918 	.globl _AX5043_AFSKMARK0
                                    919 	.globl _AX5043_AFSKCTRL
                                    920 	.globl _XTALREADY
                                    921 	.globl _XTALOSC
                                    922 	.globl _XTALAMPL
                                    923 	.globl _SILICONREV
                                    924 	.globl _SCRATCH3
                                    925 	.globl _SCRATCH2
                                    926 	.globl _SCRATCH1
                                    927 	.globl _SCRATCH0
                                    928 	.globl _RADIOMUX
                                    929 	.globl _RADIOFSTATADDR
                                    930 	.globl _RADIOFSTATADDR1
                                    931 	.globl _RADIOFSTATADDR0
                                    932 	.globl _RADIOFDATAADDR
                                    933 	.globl _RADIOFDATAADDR1
                                    934 	.globl _RADIOFDATAADDR0
                                    935 	.globl _OSCRUN
                                    936 	.globl _OSCREADY
                                    937 	.globl _OSCFORCERUN
                                    938 	.globl _OSCCALIB
                                    939 	.globl _MISCCTRL
                                    940 	.globl _LPXOSCGM
                                    941 	.globl _LPOSCREF
                                    942 	.globl _LPOSCREF1
                                    943 	.globl _LPOSCREF0
                                    944 	.globl _LPOSCPER
                                    945 	.globl _LPOSCPER1
                                    946 	.globl _LPOSCPER0
                                    947 	.globl _LPOSCKFILT
                                    948 	.globl _LPOSCKFILT1
                                    949 	.globl _LPOSCKFILT0
                                    950 	.globl _LPOSCFREQ
                                    951 	.globl _LPOSCFREQ1
                                    952 	.globl _LPOSCFREQ0
                                    953 	.globl _LPOSCCONFIG
                                    954 	.globl _PINSEL
                                    955 	.globl _PINCHGC
                                    956 	.globl _PINCHGB
                                    957 	.globl _PINCHGA
                                    958 	.globl _PALTRADIO
                                    959 	.globl _PALTC
                                    960 	.globl _PALTB
                                    961 	.globl _PALTA
                                    962 	.globl _INTCHGC
                                    963 	.globl _INTCHGB
                                    964 	.globl _INTCHGA
                                    965 	.globl _EXTIRQ
                                    966 	.globl _GPIOENABLE
                                    967 	.globl _ANALOGA
                                    968 	.globl _FRCOSCREF
                                    969 	.globl _FRCOSCREF1
                                    970 	.globl _FRCOSCREF0
                                    971 	.globl _FRCOSCPER
                                    972 	.globl _FRCOSCPER1
                                    973 	.globl _FRCOSCPER0
                                    974 	.globl _FRCOSCKFILT
                                    975 	.globl _FRCOSCKFILT1
                                    976 	.globl _FRCOSCKFILT0
                                    977 	.globl _FRCOSCFREQ
                                    978 	.globl _FRCOSCFREQ1
                                    979 	.globl _FRCOSCFREQ0
                                    980 	.globl _FRCOSCCTRL
                                    981 	.globl _FRCOSCCONFIG
                                    982 	.globl _DMA1CONFIG
                                    983 	.globl _DMA1ADDR
                                    984 	.globl _DMA1ADDR1
                                    985 	.globl _DMA1ADDR0
                                    986 	.globl _DMA0CONFIG
                                    987 	.globl _DMA0ADDR
                                    988 	.globl _DMA0ADDR1
                                    989 	.globl _DMA0ADDR0
                                    990 	.globl _ADCTUNE2
                                    991 	.globl _ADCTUNE1
                                    992 	.globl _ADCTUNE0
                                    993 	.globl _ADCCH3VAL
                                    994 	.globl _ADCCH3VAL1
                                    995 	.globl _ADCCH3VAL0
                                    996 	.globl _ADCCH2VAL
                                    997 	.globl _ADCCH2VAL1
                                    998 	.globl _ADCCH2VAL0
                                    999 	.globl _ADCCH1VAL
                                   1000 	.globl _ADCCH1VAL1
                                   1001 	.globl _ADCCH1VAL0
                                   1002 	.globl _ADCCH0VAL
                                   1003 	.globl _ADCCH0VAL1
                                   1004 	.globl _ADCCH0VAL0
                                   1005 	.globl _axradio_transmit_PARM_3
                                   1006 	.globl _axradio_transmit_PARM_2
                                   1007 	.globl _aligned_alloc_PARM_2
                                   1008 	.globl _axradio_trxstate
                                   1009 	.globl _axradio_mode
                                   1010 	.globl _axradio_conv_time_totimer0
                                   1011 	.globl _axradio_isr
                                   1012 	.globl _ax5043_receiver_on_continuous
                                   1013 	.globl _ax5043_receiver_on_wor
                                   1014 	.globl _ax5043_prepare_tx
                                   1015 	.globl _ax5043_off
                                   1016 	.globl _ax5043_off_xtal
                                   1017 	.globl _axradio_wait_for_xtal
                                   1018 	.globl _axradio_init
                                   1019 	.globl _axradio_cansleep
                                   1020 	.globl _axradio_set_mode
                                   1021 	.globl _axradio_get_mode
                                   1022 	.globl _axradio_set_channel
                                   1023 	.globl _axradio_get_channel
                                   1024 	.globl _axradio_get_pllrange
                                   1025 	.globl _axradio_get_pllvcoi
                                   1026 	.globl _axradio_set_freqoffset
                                   1027 	.globl _axradio_get_freqoffset
                                   1028 	.globl _axradio_set_local_address
                                   1029 	.globl _axradio_get_local_address
                                   1030 	.globl _axradio_set_default_remote_address
                                   1031 	.globl _axradio_get_default_remote_address
                                   1032 	.globl _axradio_transmit
                                   1033 	.globl _axradio_agc_freeze
                                   1034 	.globl _axradio_agc_thaw
                                   1035 	.globl _axradio_calibrate_lposc
                                   1036 	.globl _axradio_commsleepexit
                                   1037 	.globl _axradio_check_fourfsk_modulation
                                   1038 	.globl _axradio_get_transmitter_pa_type
                                   1039 ;--------------------------------------------------------
                                   1040 ; special function registers
                                   1041 ;--------------------------------------------------------
                                   1042 	.area RSEG    (ABS,DATA)
      000000                       1043 	.org 0x0000
                           0000E0  1044 G$ACC$0$0 == 0x00e0
                           0000E0  1045 _ACC	=	0x00e0
                           0000F0  1046 G$B$0$0 == 0x00f0
                           0000F0  1047 _B	=	0x00f0
                           000083  1048 G$DPH$0$0 == 0x0083
                           000083  1049 _DPH	=	0x0083
                           000085  1050 G$DPH1$0$0 == 0x0085
                           000085  1051 _DPH1	=	0x0085
                           000082  1052 G$DPL$0$0 == 0x0082
                           000082  1053 _DPL	=	0x0082
                           000084  1054 G$DPL1$0$0 == 0x0084
                           000084  1055 _DPL1	=	0x0084
                           008382  1056 G$DPTR0$0$0 == 0x8382
                           008382  1057 _DPTR0	=	0x8382
                           008584  1058 G$DPTR1$0$0 == 0x8584
                           008584  1059 _DPTR1	=	0x8584
                           000086  1060 G$DPS$0$0 == 0x0086
                           000086  1061 _DPS	=	0x0086
                           0000A0  1062 G$E2IE$0$0 == 0x00a0
                           0000A0  1063 _E2IE	=	0x00a0
                           0000C0  1064 G$E2IP$0$0 == 0x00c0
                           0000C0  1065 _E2IP	=	0x00c0
                           000098  1066 G$EIE$0$0 == 0x0098
                           000098  1067 _EIE	=	0x0098
                           0000B0  1068 G$EIP$0$0 == 0x00b0
                           0000B0  1069 _EIP	=	0x00b0
                           0000A8  1070 G$IE$0$0 == 0x00a8
                           0000A8  1071 _IE	=	0x00a8
                           0000B8  1072 G$IP$0$0 == 0x00b8
                           0000B8  1073 _IP	=	0x00b8
                           000087  1074 G$PCON$0$0 == 0x0087
                           000087  1075 _PCON	=	0x0087
                           0000D0  1076 G$PSW$0$0 == 0x00d0
                           0000D0  1077 _PSW	=	0x00d0
                           000081  1078 G$SP$0$0 == 0x0081
                           000081  1079 _SP	=	0x0081
                           0000D9  1080 G$XPAGE$0$0 == 0x00d9
                           0000D9  1081 _XPAGE	=	0x00d9
                           0000D9  1082 G$_XPAGE$0$0 == 0x00d9
                           0000D9  1083 __XPAGE	=	0x00d9
                           0000CA  1084 G$ADCCH0CONFIG$0$0 == 0x00ca
                           0000CA  1085 _ADCCH0CONFIG	=	0x00ca
                           0000CB  1086 G$ADCCH1CONFIG$0$0 == 0x00cb
                           0000CB  1087 _ADCCH1CONFIG	=	0x00cb
                           0000D2  1088 G$ADCCH2CONFIG$0$0 == 0x00d2
                           0000D2  1089 _ADCCH2CONFIG	=	0x00d2
                           0000D3  1090 G$ADCCH3CONFIG$0$0 == 0x00d3
                           0000D3  1091 _ADCCH3CONFIG	=	0x00d3
                           0000D1  1092 G$ADCCLKSRC$0$0 == 0x00d1
                           0000D1  1093 _ADCCLKSRC	=	0x00d1
                           0000C9  1094 G$ADCCONV$0$0 == 0x00c9
                           0000C9  1095 _ADCCONV	=	0x00c9
                           0000E1  1096 G$ANALOGCOMP$0$0 == 0x00e1
                           0000E1  1097 _ANALOGCOMP	=	0x00e1
                           0000C6  1098 G$CLKCON$0$0 == 0x00c6
                           0000C6  1099 _CLKCON	=	0x00c6
                           0000C7  1100 G$CLKSTAT$0$0 == 0x00c7
                           0000C7  1101 _CLKSTAT	=	0x00c7
                           000097  1102 G$CODECONFIG$0$0 == 0x0097
                           000097  1103 _CODECONFIG	=	0x0097
                           0000E3  1104 G$DBGLNKBUF$0$0 == 0x00e3
                           0000E3  1105 _DBGLNKBUF	=	0x00e3
                           0000E2  1106 G$DBGLNKSTAT$0$0 == 0x00e2
                           0000E2  1107 _DBGLNKSTAT	=	0x00e2
                           000089  1108 G$DIRA$0$0 == 0x0089
                           000089  1109 _DIRA	=	0x0089
                           00008A  1110 G$DIRB$0$0 == 0x008a
                           00008A  1111 _DIRB	=	0x008a
                           00008B  1112 G$DIRC$0$0 == 0x008b
                           00008B  1113 _DIRC	=	0x008b
                           00008E  1114 G$DIRR$0$0 == 0x008e
                           00008E  1115 _DIRR	=	0x008e
                           0000C8  1116 G$PINA$0$0 == 0x00c8
                           0000C8  1117 _PINA	=	0x00c8
                           0000E8  1118 G$PINB$0$0 == 0x00e8
                           0000E8  1119 _PINB	=	0x00e8
                           0000F8  1120 G$PINC$0$0 == 0x00f8
                           0000F8  1121 _PINC	=	0x00f8
                           00008D  1122 G$PINR$0$0 == 0x008d
                           00008D  1123 _PINR	=	0x008d
                           000080  1124 G$PORTA$0$0 == 0x0080
                           000080  1125 _PORTA	=	0x0080
                           000088  1126 G$PORTB$0$0 == 0x0088
                           000088  1127 _PORTB	=	0x0088
                           000090  1128 G$PORTC$0$0 == 0x0090
                           000090  1129 _PORTC	=	0x0090
                           00008C  1130 G$PORTR$0$0 == 0x008c
                           00008C  1131 _PORTR	=	0x008c
                           0000CE  1132 G$IC0CAPT0$0$0 == 0x00ce
                           0000CE  1133 _IC0CAPT0	=	0x00ce
                           0000CF  1134 G$IC0CAPT1$0$0 == 0x00cf
                           0000CF  1135 _IC0CAPT1	=	0x00cf
                           00CFCE  1136 G$IC0CAPT$0$0 == 0xcfce
                           00CFCE  1137 _IC0CAPT	=	0xcfce
                           0000CC  1138 G$IC0MODE$0$0 == 0x00cc
                           0000CC  1139 _IC0MODE	=	0x00cc
                           0000CD  1140 G$IC0STATUS$0$0 == 0x00cd
                           0000CD  1141 _IC0STATUS	=	0x00cd
                           0000D6  1142 G$IC1CAPT0$0$0 == 0x00d6
                           0000D6  1143 _IC1CAPT0	=	0x00d6
                           0000D7  1144 G$IC1CAPT1$0$0 == 0x00d7
                           0000D7  1145 _IC1CAPT1	=	0x00d7
                           00D7D6  1146 G$IC1CAPT$0$0 == 0xd7d6
                           00D7D6  1147 _IC1CAPT	=	0xd7d6
                           0000D4  1148 G$IC1MODE$0$0 == 0x00d4
                           0000D4  1149 _IC1MODE	=	0x00d4
                           0000D5  1150 G$IC1STATUS$0$0 == 0x00d5
                           0000D5  1151 _IC1STATUS	=	0x00d5
                           000092  1152 G$NVADDR0$0$0 == 0x0092
                           000092  1153 _NVADDR0	=	0x0092
                           000093  1154 G$NVADDR1$0$0 == 0x0093
                           000093  1155 _NVADDR1	=	0x0093
                           009392  1156 G$NVADDR$0$0 == 0x9392
                           009392  1157 _NVADDR	=	0x9392
                           000094  1158 G$NVDATA0$0$0 == 0x0094
                           000094  1159 _NVDATA0	=	0x0094
                           000095  1160 G$NVDATA1$0$0 == 0x0095
                           000095  1161 _NVDATA1	=	0x0095
                           009594  1162 G$NVDATA$0$0 == 0x9594
                           009594  1163 _NVDATA	=	0x9594
                           000096  1164 G$NVKEY$0$0 == 0x0096
                           000096  1165 _NVKEY	=	0x0096
                           000091  1166 G$NVSTATUS$0$0 == 0x0091
                           000091  1167 _NVSTATUS	=	0x0091
                           0000BC  1168 G$OC0COMP0$0$0 == 0x00bc
                           0000BC  1169 _OC0COMP0	=	0x00bc
                           0000BD  1170 G$OC0COMP1$0$0 == 0x00bd
                           0000BD  1171 _OC0COMP1	=	0x00bd
                           00BDBC  1172 G$OC0COMP$0$0 == 0xbdbc
                           00BDBC  1173 _OC0COMP	=	0xbdbc
                           0000B9  1174 G$OC0MODE$0$0 == 0x00b9
                           0000B9  1175 _OC0MODE	=	0x00b9
                           0000BA  1176 G$OC0PIN$0$0 == 0x00ba
                           0000BA  1177 _OC0PIN	=	0x00ba
                           0000BB  1178 G$OC0STATUS$0$0 == 0x00bb
                           0000BB  1179 _OC0STATUS	=	0x00bb
                           0000C4  1180 G$OC1COMP0$0$0 == 0x00c4
                           0000C4  1181 _OC1COMP0	=	0x00c4
                           0000C5  1182 G$OC1COMP1$0$0 == 0x00c5
                           0000C5  1183 _OC1COMP1	=	0x00c5
                           00C5C4  1184 G$OC1COMP$0$0 == 0xc5c4
                           00C5C4  1185 _OC1COMP	=	0xc5c4
                           0000C1  1186 G$OC1MODE$0$0 == 0x00c1
                           0000C1  1187 _OC1MODE	=	0x00c1
                           0000C2  1188 G$OC1PIN$0$0 == 0x00c2
                           0000C2  1189 _OC1PIN	=	0x00c2
                           0000C3  1190 G$OC1STATUS$0$0 == 0x00c3
                           0000C3  1191 _OC1STATUS	=	0x00c3
                           0000B1  1192 G$RADIOACC$0$0 == 0x00b1
                           0000B1  1193 _RADIOACC	=	0x00b1
                           0000B3  1194 G$RADIOADDR0$0$0 == 0x00b3
                           0000B3  1195 _RADIOADDR0	=	0x00b3
                           0000B2  1196 G$RADIOADDR1$0$0 == 0x00b2
                           0000B2  1197 _RADIOADDR1	=	0x00b2
                           00B2B3  1198 G$RADIOADDR$0$0 == 0xb2b3
                           00B2B3  1199 _RADIOADDR	=	0xb2b3
                           0000B7  1200 G$RADIODATA0$0$0 == 0x00b7
                           0000B7  1201 _RADIODATA0	=	0x00b7
                           0000B6  1202 G$RADIODATA1$0$0 == 0x00b6
                           0000B6  1203 _RADIODATA1	=	0x00b6
                           0000B5  1204 G$RADIODATA2$0$0 == 0x00b5
                           0000B5  1205 _RADIODATA2	=	0x00b5
                           0000B4  1206 G$RADIODATA3$0$0 == 0x00b4
                           0000B4  1207 _RADIODATA3	=	0x00b4
                           B4B5B6B7  1208 G$RADIODATA$0$0 == 0xb4b5b6b7
                           B4B5B6B7  1209 _RADIODATA	=	0xb4b5b6b7
                           0000BE  1210 G$RADIOSTAT0$0$0 == 0x00be
                           0000BE  1211 _RADIOSTAT0	=	0x00be
                           0000BF  1212 G$RADIOSTAT1$0$0 == 0x00bf
                           0000BF  1213 _RADIOSTAT1	=	0x00bf
                           00BFBE  1214 G$RADIOSTAT$0$0 == 0xbfbe
                           00BFBE  1215 _RADIOSTAT	=	0xbfbe
                           0000DF  1216 G$SPCLKSRC$0$0 == 0x00df
                           0000DF  1217 _SPCLKSRC	=	0x00df
                           0000DC  1218 G$SPMODE$0$0 == 0x00dc
                           0000DC  1219 _SPMODE	=	0x00dc
                           0000DE  1220 G$SPSHREG$0$0 == 0x00de
                           0000DE  1221 _SPSHREG	=	0x00de
                           0000DD  1222 G$SPSTATUS$0$0 == 0x00dd
                           0000DD  1223 _SPSTATUS	=	0x00dd
                           00009A  1224 G$T0CLKSRC$0$0 == 0x009a
                           00009A  1225 _T0CLKSRC	=	0x009a
                           00009C  1226 G$T0CNT0$0$0 == 0x009c
                           00009C  1227 _T0CNT0	=	0x009c
                           00009D  1228 G$T0CNT1$0$0 == 0x009d
                           00009D  1229 _T0CNT1	=	0x009d
                           009D9C  1230 G$T0CNT$0$0 == 0x9d9c
                           009D9C  1231 _T0CNT	=	0x9d9c
                           000099  1232 G$T0MODE$0$0 == 0x0099
                           000099  1233 _T0MODE	=	0x0099
                           00009E  1234 G$T0PERIOD0$0$0 == 0x009e
                           00009E  1235 _T0PERIOD0	=	0x009e
                           00009F  1236 G$T0PERIOD1$0$0 == 0x009f
                           00009F  1237 _T0PERIOD1	=	0x009f
                           009F9E  1238 G$T0PERIOD$0$0 == 0x9f9e
                           009F9E  1239 _T0PERIOD	=	0x9f9e
                           00009B  1240 G$T0STATUS$0$0 == 0x009b
                           00009B  1241 _T0STATUS	=	0x009b
                           0000A2  1242 G$T1CLKSRC$0$0 == 0x00a2
                           0000A2  1243 _T1CLKSRC	=	0x00a2
                           0000A4  1244 G$T1CNT0$0$0 == 0x00a4
                           0000A4  1245 _T1CNT0	=	0x00a4
                           0000A5  1246 G$T1CNT1$0$0 == 0x00a5
                           0000A5  1247 _T1CNT1	=	0x00a5
                           00A5A4  1248 G$T1CNT$0$0 == 0xa5a4
                           00A5A4  1249 _T1CNT	=	0xa5a4
                           0000A1  1250 G$T1MODE$0$0 == 0x00a1
                           0000A1  1251 _T1MODE	=	0x00a1
                           0000A6  1252 G$T1PERIOD0$0$0 == 0x00a6
                           0000A6  1253 _T1PERIOD0	=	0x00a6
                           0000A7  1254 G$T1PERIOD1$0$0 == 0x00a7
                           0000A7  1255 _T1PERIOD1	=	0x00a7
                           00A7A6  1256 G$T1PERIOD$0$0 == 0xa7a6
                           00A7A6  1257 _T1PERIOD	=	0xa7a6
                           0000A3  1258 G$T1STATUS$0$0 == 0x00a3
                           0000A3  1259 _T1STATUS	=	0x00a3
                           0000AA  1260 G$T2CLKSRC$0$0 == 0x00aa
                           0000AA  1261 _T2CLKSRC	=	0x00aa
                           0000AC  1262 G$T2CNT0$0$0 == 0x00ac
                           0000AC  1263 _T2CNT0	=	0x00ac
                           0000AD  1264 G$T2CNT1$0$0 == 0x00ad
                           0000AD  1265 _T2CNT1	=	0x00ad
                           00ADAC  1266 G$T2CNT$0$0 == 0xadac
                           00ADAC  1267 _T2CNT	=	0xadac
                           0000A9  1268 G$T2MODE$0$0 == 0x00a9
                           0000A9  1269 _T2MODE	=	0x00a9
                           0000AE  1270 G$T2PERIOD0$0$0 == 0x00ae
                           0000AE  1271 _T2PERIOD0	=	0x00ae
                           0000AF  1272 G$T2PERIOD1$0$0 == 0x00af
                           0000AF  1273 _T2PERIOD1	=	0x00af
                           00AFAE  1274 G$T2PERIOD$0$0 == 0xafae
                           00AFAE  1275 _T2PERIOD	=	0xafae
                           0000AB  1276 G$T2STATUS$0$0 == 0x00ab
                           0000AB  1277 _T2STATUS	=	0x00ab
                           0000E4  1278 G$U0CTRL$0$0 == 0x00e4
                           0000E4  1279 _U0CTRL	=	0x00e4
                           0000E7  1280 G$U0MODE$0$0 == 0x00e7
                           0000E7  1281 _U0MODE	=	0x00e7
                           0000E6  1282 G$U0SHREG$0$0 == 0x00e6
                           0000E6  1283 _U0SHREG	=	0x00e6
                           0000E5  1284 G$U0STATUS$0$0 == 0x00e5
                           0000E5  1285 _U0STATUS	=	0x00e5
                           0000EC  1286 G$U1CTRL$0$0 == 0x00ec
                           0000EC  1287 _U1CTRL	=	0x00ec
                           0000EF  1288 G$U1MODE$0$0 == 0x00ef
                           0000EF  1289 _U1MODE	=	0x00ef
                           0000EE  1290 G$U1SHREG$0$0 == 0x00ee
                           0000EE  1291 _U1SHREG	=	0x00ee
                           0000ED  1292 G$U1STATUS$0$0 == 0x00ed
                           0000ED  1293 _U1STATUS	=	0x00ed
                           0000DA  1294 G$WDTCFG$0$0 == 0x00da
                           0000DA  1295 _WDTCFG	=	0x00da
                           0000DB  1296 G$WDTRESET$0$0 == 0x00db
                           0000DB  1297 _WDTRESET	=	0x00db
                           0000F1  1298 G$WTCFGA$0$0 == 0x00f1
                           0000F1  1299 _WTCFGA	=	0x00f1
                           0000F9  1300 G$WTCFGB$0$0 == 0x00f9
                           0000F9  1301 _WTCFGB	=	0x00f9
                           0000F2  1302 G$WTCNTA0$0$0 == 0x00f2
                           0000F2  1303 _WTCNTA0	=	0x00f2
                           0000F3  1304 G$WTCNTA1$0$0 == 0x00f3
                           0000F3  1305 _WTCNTA1	=	0x00f3
                           00F3F2  1306 G$WTCNTA$0$0 == 0xf3f2
                           00F3F2  1307 _WTCNTA	=	0xf3f2
                           0000FA  1308 G$WTCNTB0$0$0 == 0x00fa
                           0000FA  1309 _WTCNTB0	=	0x00fa
                           0000FB  1310 G$WTCNTB1$0$0 == 0x00fb
                           0000FB  1311 _WTCNTB1	=	0x00fb
                           00FBFA  1312 G$WTCNTB$0$0 == 0xfbfa
                           00FBFA  1313 _WTCNTB	=	0xfbfa
                           0000EB  1314 G$WTCNTR1$0$0 == 0x00eb
                           0000EB  1315 _WTCNTR1	=	0x00eb
                           0000F4  1316 G$WTEVTA0$0$0 == 0x00f4
                           0000F4  1317 _WTEVTA0	=	0x00f4
                           0000F5  1318 G$WTEVTA1$0$0 == 0x00f5
                           0000F5  1319 _WTEVTA1	=	0x00f5
                           00F5F4  1320 G$WTEVTA$0$0 == 0xf5f4
                           00F5F4  1321 _WTEVTA	=	0xf5f4
                           0000F6  1322 G$WTEVTB0$0$0 == 0x00f6
                           0000F6  1323 _WTEVTB0	=	0x00f6
                           0000F7  1324 G$WTEVTB1$0$0 == 0x00f7
                           0000F7  1325 _WTEVTB1	=	0x00f7
                           00F7F6  1326 G$WTEVTB$0$0 == 0xf7f6
                           00F7F6  1327 _WTEVTB	=	0xf7f6
                           0000FC  1328 G$WTEVTC0$0$0 == 0x00fc
                           0000FC  1329 _WTEVTC0	=	0x00fc
                           0000FD  1330 G$WTEVTC1$0$0 == 0x00fd
                           0000FD  1331 _WTEVTC1	=	0x00fd
                           00FDFC  1332 G$WTEVTC$0$0 == 0xfdfc
                           00FDFC  1333 _WTEVTC	=	0xfdfc
                           0000FE  1334 G$WTEVTD0$0$0 == 0x00fe
                           0000FE  1335 _WTEVTD0	=	0x00fe
                           0000FF  1336 G$WTEVTD1$0$0 == 0x00ff
                           0000FF  1337 _WTEVTD1	=	0x00ff
                           00FFFE  1338 G$WTEVTD$0$0 == 0xfffe
                           00FFFE  1339 _WTEVTD	=	0xfffe
                           0000E9  1340 G$WTIRQEN$0$0 == 0x00e9
                           0000E9  1341 _WTIRQEN	=	0x00e9
                           0000EA  1342 G$WTSTAT$0$0 == 0x00ea
                           0000EA  1343 _WTSTAT	=	0x00ea
                                   1344 ;--------------------------------------------------------
                                   1345 ; special function bits
                                   1346 ;--------------------------------------------------------
                                   1347 	.area RSEG    (ABS,DATA)
      000000                       1348 	.org 0x0000
                           0000E0  1349 G$ACC_0$0$0 == 0x00e0
                           0000E0  1350 _ACC_0	=	0x00e0
                           0000E1  1351 G$ACC_1$0$0 == 0x00e1
                           0000E1  1352 _ACC_1	=	0x00e1
                           0000E2  1353 G$ACC_2$0$0 == 0x00e2
                           0000E2  1354 _ACC_2	=	0x00e2
                           0000E3  1355 G$ACC_3$0$0 == 0x00e3
                           0000E3  1356 _ACC_3	=	0x00e3
                           0000E4  1357 G$ACC_4$0$0 == 0x00e4
                           0000E4  1358 _ACC_4	=	0x00e4
                           0000E5  1359 G$ACC_5$0$0 == 0x00e5
                           0000E5  1360 _ACC_5	=	0x00e5
                           0000E6  1361 G$ACC_6$0$0 == 0x00e6
                           0000E6  1362 _ACC_6	=	0x00e6
                           0000E7  1363 G$ACC_7$0$0 == 0x00e7
                           0000E7  1364 _ACC_7	=	0x00e7
                           0000F0  1365 G$B_0$0$0 == 0x00f0
                           0000F0  1366 _B_0	=	0x00f0
                           0000F1  1367 G$B_1$0$0 == 0x00f1
                           0000F1  1368 _B_1	=	0x00f1
                           0000F2  1369 G$B_2$0$0 == 0x00f2
                           0000F2  1370 _B_2	=	0x00f2
                           0000F3  1371 G$B_3$0$0 == 0x00f3
                           0000F3  1372 _B_3	=	0x00f3
                           0000F4  1373 G$B_4$0$0 == 0x00f4
                           0000F4  1374 _B_4	=	0x00f4
                           0000F5  1375 G$B_5$0$0 == 0x00f5
                           0000F5  1376 _B_5	=	0x00f5
                           0000F6  1377 G$B_6$0$0 == 0x00f6
                           0000F6  1378 _B_6	=	0x00f6
                           0000F7  1379 G$B_7$0$0 == 0x00f7
                           0000F7  1380 _B_7	=	0x00f7
                           0000A0  1381 G$E2IE_0$0$0 == 0x00a0
                           0000A0  1382 _E2IE_0	=	0x00a0
                           0000A1  1383 G$E2IE_1$0$0 == 0x00a1
                           0000A1  1384 _E2IE_1	=	0x00a1
                           0000A2  1385 G$E2IE_2$0$0 == 0x00a2
                           0000A2  1386 _E2IE_2	=	0x00a2
                           0000A3  1387 G$E2IE_3$0$0 == 0x00a3
                           0000A3  1388 _E2IE_3	=	0x00a3
                           0000A4  1389 G$E2IE_4$0$0 == 0x00a4
                           0000A4  1390 _E2IE_4	=	0x00a4
                           0000A5  1391 G$E2IE_5$0$0 == 0x00a5
                           0000A5  1392 _E2IE_5	=	0x00a5
                           0000A6  1393 G$E2IE_6$0$0 == 0x00a6
                           0000A6  1394 _E2IE_6	=	0x00a6
                           0000A7  1395 G$E2IE_7$0$0 == 0x00a7
                           0000A7  1396 _E2IE_7	=	0x00a7
                           0000C0  1397 G$E2IP_0$0$0 == 0x00c0
                           0000C0  1398 _E2IP_0	=	0x00c0
                           0000C1  1399 G$E2IP_1$0$0 == 0x00c1
                           0000C1  1400 _E2IP_1	=	0x00c1
                           0000C2  1401 G$E2IP_2$0$0 == 0x00c2
                           0000C2  1402 _E2IP_2	=	0x00c2
                           0000C3  1403 G$E2IP_3$0$0 == 0x00c3
                           0000C3  1404 _E2IP_3	=	0x00c3
                           0000C4  1405 G$E2IP_4$0$0 == 0x00c4
                           0000C4  1406 _E2IP_4	=	0x00c4
                           0000C5  1407 G$E2IP_5$0$0 == 0x00c5
                           0000C5  1408 _E2IP_5	=	0x00c5
                           0000C6  1409 G$E2IP_6$0$0 == 0x00c6
                           0000C6  1410 _E2IP_6	=	0x00c6
                           0000C7  1411 G$E2IP_7$0$0 == 0x00c7
                           0000C7  1412 _E2IP_7	=	0x00c7
                           000098  1413 G$EIE_0$0$0 == 0x0098
                           000098  1414 _EIE_0	=	0x0098
                           000099  1415 G$EIE_1$0$0 == 0x0099
                           000099  1416 _EIE_1	=	0x0099
                           00009A  1417 G$EIE_2$0$0 == 0x009a
                           00009A  1418 _EIE_2	=	0x009a
                           00009B  1419 G$EIE_3$0$0 == 0x009b
                           00009B  1420 _EIE_3	=	0x009b
                           00009C  1421 G$EIE_4$0$0 == 0x009c
                           00009C  1422 _EIE_4	=	0x009c
                           00009D  1423 G$EIE_5$0$0 == 0x009d
                           00009D  1424 _EIE_5	=	0x009d
                           00009E  1425 G$EIE_6$0$0 == 0x009e
                           00009E  1426 _EIE_6	=	0x009e
                           00009F  1427 G$EIE_7$0$0 == 0x009f
                           00009F  1428 _EIE_7	=	0x009f
                           0000B0  1429 G$EIP_0$0$0 == 0x00b0
                           0000B0  1430 _EIP_0	=	0x00b0
                           0000B1  1431 G$EIP_1$0$0 == 0x00b1
                           0000B1  1432 _EIP_1	=	0x00b1
                           0000B2  1433 G$EIP_2$0$0 == 0x00b2
                           0000B2  1434 _EIP_2	=	0x00b2
                           0000B3  1435 G$EIP_3$0$0 == 0x00b3
                           0000B3  1436 _EIP_3	=	0x00b3
                           0000B4  1437 G$EIP_4$0$0 == 0x00b4
                           0000B4  1438 _EIP_4	=	0x00b4
                           0000B5  1439 G$EIP_5$0$0 == 0x00b5
                           0000B5  1440 _EIP_5	=	0x00b5
                           0000B6  1441 G$EIP_6$0$0 == 0x00b6
                           0000B6  1442 _EIP_6	=	0x00b6
                           0000B7  1443 G$EIP_7$0$0 == 0x00b7
                           0000B7  1444 _EIP_7	=	0x00b7
                           0000A8  1445 G$IE_0$0$0 == 0x00a8
                           0000A8  1446 _IE_0	=	0x00a8
                           0000A9  1447 G$IE_1$0$0 == 0x00a9
                           0000A9  1448 _IE_1	=	0x00a9
                           0000AA  1449 G$IE_2$0$0 == 0x00aa
                           0000AA  1450 _IE_2	=	0x00aa
                           0000AB  1451 G$IE_3$0$0 == 0x00ab
                           0000AB  1452 _IE_3	=	0x00ab
                           0000AC  1453 G$IE_4$0$0 == 0x00ac
                           0000AC  1454 _IE_4	=	0x00ac
                           0000AD  1455 G$IE_5$0$0 == 0x00ad
                           0000AD  1456 _IE_5	=	0x00ad
                           0000AE  1457 G$IE_6$0$0 == 0x00ae
                           0000AE  1458 _IE_6	=	0x00ae
                           0000AF  1459 G$IE_7$0$0 == 0x00af
                           0000AF  1460 _IE_7	=	0x00af
                           0000AF  1461 G$EA$0$0 == 0x00af
                           0000AF  1462 _EA	=	0x00af
                           0000B8  1463 G$IP_0$0$0 == 0x00b8
                           0000B8  1464 _IP_0	=	0x00b8
                           0000B9  1465 G$IP_1$0$0 == 0x00b9
                           0000B9  1466 _IP_1	=	0x00b9
                           0000BA  1467 G$IP_2$0$0 == 0x00ba
                           0000BA  1468 _IP_2	=	0x00ba
                           0000BB  1469 G$IP_3$0$0 == 0x00bb
                           0000BB  1470 _IP_3	=	0x00bb
                           0000BC  1471 G$IP_4$0$0 == 0x00bc
                           0000BC  1472 _IP_4	=	0x00bc
                           0000BD  1473 G$IP_5$0$0 == 0x00bd
                           0000BD  1474 _IP_5	=	0x00bd
                           0000BE  1475 G$IP_6$0$0 == 0x00be
                           0000BE  1476 _IP_6	=	0x00be
                           0000BF  1477 G$IP_7$0$0 == 0x00bf
                           0000BF  1478 _IP_7	=	0x00bf
                           0000D0  1479 G$P$0$0 == 0x00d0
                           0000D0  1480 _P	=	0x00d0
                           0000D1  1481 G$F1$0$0 == 0x00d1
                           0000D1  1482 _F1	=	0x00d1
                           0000D2  1483 G$OV$0$0 == 0x00d2
                           0000D2  1484 _OV	=	0x00d2
                           0000D3  1485 G$RS0$0$0 == 0x00d3
                           0000D3  1486 _RS0	=	0x00d3
                           0000D4  1487 G$RS1$0$0 == 0x00d4
                           0000D4  1488 _RS1	=	0x00d4
                           0000D5  1489 G$F0$0$0 == 0x00d5
                           0000D5  1490 _F0	=	0x00d5
                           0000D6  1491 G$AC$0$0 == 0x00d6
                           0000D6  1492 _AC	=	0x00d6
                           0000D7  1493 G$CY$0$0 == 0x00d7
                           0000D7  1494 _CY	=	0x00d7
                           0000C8  1495 G$PINA_0$0$0 == 0x00c8
                           0000C8  1496 _PINA_0	=	0x00c8
                           0000C9  1497 G$PINA_1$0$0 == 0x00c9
                           0000C9  1498 _PINA_1	=	0x00c9
                           0000CA  1499 G$PINA_2$0$0 == 0x00ca
                           0000CA  1500 _PINA_2	=	0x00ca
                           0000CB  1501 G$PINA_3$0$0 == 0x00cb
                           0000CB  1502 _PINA_3	=	0x00cb
                           0000CC  1503 G$PINA_4$0$0 == 0x00cc
                           0000CC  1504 _PINA_4	=	0x00cc
                           0000CD  1505 G$PINA_5$0$0 == 0x00cd
                           0000CD  1506 _PINA_5	=	0x00cd
                           0000CE  1507 G$PINA_6$0$0 == 0x00ce
                           0000CE  1508 _PINA_6	=	0x00ce
                           0000CF  1509 G$PINA_7$0$0 == 0x00cf
                           0000CF  1510 _PINA_7	=	0x00cf
                           0000E8  1511 G$PINB_0$0$0 == 0x00e8
                           0000E8  1512 _PINB_0	=	0x00e8
                           0000E9  1513 G$PINB_1$0$0 == 0x00e9
                           0000E9  1514 _PINB_1	=	0x00e9
                           0000EA  1515 G$PINB_2$0$0 == 0x00ea
                           0000EA  1516 _PINB_2	=	0x00ea
                           0000EB  1517 G$PINB_3$0$0 == 0x00eb
                           0000EB  1518 _PINB_3	=	0x00eb
                           0000EC  1519 G$PINB_4$0$0 == 0x00ec
                           0000EC  1520 _PINB_4	=	0x00ec
                           0000ED  1521 G$PINB_5$0$0 == 0x00ed
                           0000ED  1522 _PINB_5	=	0x00ed
                           0000EE  1523 G$PINB_6$0$0 == 0x00ee
                           0000EE  1524 _PINB_6	=	0x00ee
                           0000EF  1525 G$PINB_7$0$0 == 0x00ef
                           0000EF  1526 _PINB_7	=	0x00ef
                           0000F8  1527 G$PINC_0$0$0 == 0x00f8
                           0000F8  1528 _PINC_0	=	0x00f8
                           0000F9  1529 G$PINC_1$0$0 == 0x00f9
                           0000F9  1530 _PINC_1	=	0x00f9
                           0000FA  1531 G$PINC_2$0$0 == 0x00fa
                           0000FA  1532 _PINC_2	=	0x00fa
                           0000FB  1533 G$PINC_3$0$0 == 0x00fb
                           0000FB  1534 _PINC_3	=	0x00fb
                           0000FC  1535 G$PINC_4$0$0 == 0x00fc
                           0000FC  1536 _PINC_4	=	0x00fc
                           0000FD  1537 G$PINC_5$0$0 == 0x00fd
                           0000FD  1538 _PINC_5	=	0x00fd
                           0000FE  1539 G$PINC_6$0$0 == 0x00fe
                           0000FE  1540 _PINC_6	=	0x00fe
                           0000FF  1541 G$PINC_7$0$0 == 0x00ff
                           0000FF  1542 _PINC_7	=	0x00ff
                           000080  1543 G$PORTA_0$0$0 == 0x0080
                           000080  1544 _PORTA_0	=	0x0080
                           000081  1545 G$PORTA_1$0$0 == 0x0081
                           000081  1546 _PORTA_1	=	0x0081
                           000082  1547 G$PORTA_2$0$0 == 0x0082
                           000082  1548 _PORTA_2	=	0x0082
                           000083  1549 G$PORTA_3$0$0 == 0x0083
                           000083  1550 _PORTA_3	=	0x0083
                           000084  1551 G$PORTA_4$0$0 == 0x0084
                           000084  1552 _PORTA_4	=	0x0084
                           000085  1553 G$PORTA_5$0$0 == 0x0085
                           000085  1554 _PORTA_5	=	0x0085
                           000086  1555 G$PORTA_6$0$0 == 0x0086
                           000086  1556 _PORTA_6	=	0x0086
                           000087  1557 G$PORTA_7$0$0 == 0x0087
                           000087  1558 _PORTA_7	=	0x0087
                           000088  1559 G$PORTB_0$0$0 == 0x0088
                           000088  1560 _PORTB_0	=	0x0088
                           000089  1561 G$PORTB_1$0$0 == 0x0089
                           000089  1562 _PORTB_1	=	0x0089
                           00008A  1563 G$PORTB_2$0$0 == 0x008a
                           00008A  1564 _PORTB_2	=	0x008a
                           00008B  1565 G$PORTB_3$0$0 == 0x008b
                           00008B  1566 _PORTB_3	=	0x008b
                           00008C  1567 G$PORTB_4$0$0 == 0x008c
                           00008C  1568 _PORTB_4	=	0x008c
                           00008D  1569 G$PORTB_5$0$0 == 0x008d
                           00008D  1570 _PORTB_5	=	0x008d
                           00008E  1571 G$PORTB_6$0$0 == 0x008e
                           00008E  1572 _PORTB_6	=	0x008e
                           00008F  1573 G$PORTB_7$0$0 == 0x008f
                           00008F  1574 _PORTB_7	=	0x008f
                           000090  1575 G$PORTC_0$0$0 == 0x0090
                           000090  1576 _PORTC_0	=	0x0090
                           000091  1577 G$PORTC_1$0$0 == 0x0091
                           000091  1578 _PORTC_1	=	0x0091
                           000092  1579 G$PORTC_2$0$0 == 0x0092
                           000092  1580 _PORTC_2	=	0x0092
                           000093  1581 G$PORTC_3$0$0 == 0x0093
                           000093  1582 _PORTC_3	=	0x0093
                           000094  1583 G$PORTC_4$0$0 == 0x0094
                           000094  1584 _PORTC_4	=	0x0094
                           000095  1585 G$PORTC_5$0$0 == 0x0095
                           000095  1586 _PORTC_5	=	0x0095
                           000096  1587 G$PORTC_6$0$0 == 0x0096
                           000096  1588 _PORTC_6	=	0x0096
                           000097  1589 G$PORTC_7$0$0 == 0x0097
                           000097  1590 _PORTC_7	=	0x0097
                                   1591 ;--------------------------------------------------------
                                   1592 ; overlayable register banks
                                   1593 ;--------------------------------------------------------
                                   1594 	.area REG_BANK_0	(REL,OVR,DATA)
      000000                       1595 	.ds 8
                                   1596 ;--------------------------------------------------------
                                   1597 ; overlayable bit register bank
                                   1598 ;--------------------------------------------------------
                                   1599 	.area BIT_BANK	(REL,OVR,DATA)
      000021                       1600 bits:
      000021                       1601 	.ds 1
                           008000  1602 	b0 = bits[0]
                           008100  1603 	b1 = bits[1]
                           008200  1604 	b2 = bits[2]
                           008300  1605 	b3 = bits[3]
                           008400  1606 	b4 = bits[4]
                           008500  1607 	b5 = bits[5]
                           008600  1608 	b6 = bits[6]
                           008700  1609 	b7 = bits[7]
                                   1610 ;--------------------------------------------------------
                                   1611 ; internal ram data
                                   1612 ;--------------------------------------------------------
                                   1613 	.area DSEG    (DATA)
                           000000  1614 G$axradio_mode$0$0==.
      00000E                       1615 _axradio_mode::
      00000E                       1616 	.ds 1
                           000001  1617 G$axradio_trxstate$0$0==.
      00000F                       1618 _axradio_trxstate::
      00000F                       1619 	.ds 1
                           000002  1620 Leasyax5043.aligned_alloc$size$1$210==.
      000010                       1621 _aligned_alloc_PARM_2:
      000010                       1622 	.ds 2
                           000004  1623 Leasyax5043.axradio_init$i$1$657==.
      000012                       1624 _axradio_init_i_1_657:
      000012                       1625 	.ds 1
                           000005  1626 Leasyax5043.axradio_init$vcoisave$3$687==.
      000013                       1627 _axradio_init_vcoisave_3_687:
      000013                       1628 	.ds 1
                           000006  1629 Leasyax5043.axradio_init$j$3$687==.
      000014                       1630 _axradio_init_j_3_687:
      000014                       1631 	.ds 1
                           000007  1632 Leasyax5043.axradio_init$f$5$690==.
      000015                       1633 _axradio_init_f_5_690:
      000015                       1634 	.ds 4
                           00000B  1635 Leasyax5043.axradio_init$sloc0$1$0==.
      000019                       1636 _axradio_init_sloc0_1_0:
      000019                       1637 	.ds 2
                           00000D  1638 Leasyax5043.axradio_transmit$pkt$1$806==.
      00001B                       1639 _axradio_transmit_PARM_2:
      00001B                       1640 	.ds 3
                           000010  1641 Leasyax5043.axradio_transmit$pktlen$1$806==.
      00001E                       1642 _axradio_transmit_PARM_3:
      00001E                       1643 	.ds 2
                                   1644 ;--------------------------------------------------------
                                   1645 ; overlayable items in internal ram 
                                   1646 ;--------------------------------------------------------
                                   1647 	.area	OSEG    (OVR,DATA)
                                   1648 	.area	OSEG    (OVR,DATA)
                           000000  1649 Leasyax5043.axradio_set_channel$rng$1$766==.
      000033                       1650 _axradio_set_channel_rng_1_766:
      000033                       1651 	.ds 1
                                   1652 	.area	OSEG    (OVR,DATA)
                                   1653 	.area	OSEG    (OVR,DATA)
                                   1654 ;--------------------------------------------------------
                                   1655 ; indirectly addressable internal ram data
                                   1656 ;--------------------------------------------------------
                                   1657 	.area ISEG    (DATA)
                                   1658 ;--------------------------------------------------------
                                   1659 ; absolute internal ram data
                                   1660 ;--------------------------------------------------------
                                   1661 	.area IABS    (ABS,DATA)
                                   1662 	.area IABS    (ABS,DATA)
                                   1663 ;--------------------------------------------------------
                                   1664 ; bit data
                                   1665 ;--------------------------------------------------------
                                   1666 	.area BSEG    (BIT)
                           000000  1667 Leasyax5043.axradio_timer_callback$sloc0$1$0==.
      000000                       1668 _axradio_timer_callback_sloc0_1_0:
      000000                       1669 	.ds 1
                                   1670 ;--------------------------------------------------------
                                   1671 ; paged external ram data
                                   1672 ;--------------------------------------------------------
                                   1673 	.area PSEG    (PAG,XDATA)
                                   1674 ;--------------------------------------------------------
                                   1675 ; external ram data
                                   1676 ;--------------------------------------------------------
                                   1677 	.area XSEG    (XDATA)
                           007020  1678 G$ADCCH0VAL0$0$0 == 0x7020
                           007020  1679 _ADCCH0VAL0	=	0x7020
                           007021  1680 G$ADCCH0VAL1$0$0 == 0x7021
                           007021  1681 _ADCCH0VAL1	=	0x7021
                           007020  1682 G$ADCCH0VAL$0$0 == 0x7020
                           007020  1683 _ADCCH0VAL	=	0x7020
                           007022  1684 G$ADCCH1VAL0$0$0 == 0x7022
                           007022  1685 _ADCCH1VAL0	=	0x7022
                           007023  1686 G$ADCCH1VAL1$0$0 == 0x7023
                           007023  1687 _ADCCH1VAL1	=	0x7023
                           007022  1688 G$ADCCH1VAL$0$0 == 0x7022
                           007022  1689 _ADCCH1VAL	=	0x7022
                           007024  1690 G$ADCCH2VAL0$0$0 == 0x7024
                           007024  1691 _ADCCH2VAL0	=	0x7024
                           007025  1692 G$ADCCH2VAL1$0$0 == 0x7025
                           007025  1693 _ADCCH2VAL1	=	0x7025
                           007024  1694 G$ADCCH2VAL$0$0 == 0x7024
                           007024  1695 _ADCCH2VAL	=	0x7024
                           007026  1696 G$ADCCH3VAL0$0$0 == 0x7026
                           007026  1697 _ADCCH3VAL0	=	0x7026
                           007027  1698 G$ADCCH3VAL1$0$0 == 0x7027
                           007027  1699 _ADCCH3VAL1	=	0x7027
                           007026  1700 G$ADCCH3VAL$0$0 == 0x7026
                           007026  1701 _ADCCH3VAL	=	0x7026
                           007028  1702 G$ADCTUNE0$0$0 == 0x7028
                           007028  1703 _ADCTUNE0	=	0x7028
                           007029  1704 G$ADCTUNE1$0$0 == 0x7029
                           007029  1705 _ADCTUNE1	=	0x7029
                           00702A  1706 G$ADCTUNE2$0$0 == 0x702a
                           00702A  1707 _ADCTUNE2	=	0x702a
                           007010  1708 G$DMA0ADDR0$0$0 == 0x7010
                           007010  1709 _DMA0ADDR0	=	0x7010
                           007011  1710 G$DMA0ADDR1$0$0 == 0x7011
                           007011  1711 _DMA0ADDR1	=	0x7011
                           007010  1712 G$DMA0ADDR$0$0 == 0x7010
                           007010  1713 _DMA0ADDR	=	0x7010
                           007014  1714 G$DMA0CONFIG$0$0 == 0x7014
                           007014  1715 _DMA0CONFIG	=	0x7014
                           007012  1716 G$DMA1ADDR0$0$0 == 0x7012
                           007012  1717 _DMA1ADDR0	=	0x7012
                           007013  1718 G$DMA1ADDR1$0$0 == 0x7013
                           007013  1719 _DMA1ADDR1	=	0x7013
                           007012  1720 G$DMA1ADDR$0$0 == 0x7012
                           007012  1721 _DMA1ADDR	=	0x7012
                           007015  1722 G$DMA1CONFIG$0$0 == 0x7015
                           007015  1723 _DMA1CONFIG	=	0x7015
                           007070  1724 G$FRCOSCCONFIG$0$0 == 0x7070
                           007070  1725 _FRCOSCCONFIG	=	0x7070
                           007071  1726 G$FRCOSCCTRL$0$0 == 0x7071
                           007071  1727 _FRCOSCCTRL	=	0x7071
                           007076  1728 G$FRCOSCFREQ0$0$0 == 0x7076
                           007076  1729 _FRCOSCFREQ0	=	0x7076
                           007077  1730 G$FRCOSCFREQ1$0$0 == 0x7077
                           007077  1731 _FRCOSCFREQ1	=	0x7077
                           007076  1732 G$FRCOSCFREQ$0$0 == 0x7076
                           007076  1733 _FRCOSCFREQ	=	0x7076
                           007072  1734 G$FRCOSCKFILT0$0$0 == 0x7072
                           007072  1735 _FRCOSCKFILT0	=	0x7072
                           007073  1736 G$FRCOSCKFILT1$0$0 == 0x7073
                           007073  1737 _FRCOSCKFILT1	=	0x7073
                           007072  1738 G$FRCOSCKFILT$0$0 == 0x7072
                           007072  1739 _FRCOSCKFILT	=	0x7072
                           007078  1740 G$FRCOSCPER0$0$0 == 0x7078
                           007078  1741 _FRCOSCPER0	=	0x7078
                           007079  1742 G$FRCOSCPER1$0$0 == 0x7079
                           007079  1743 _FRCOSCPER1	=	0x7079
                           007078  1744 G$FRCOSCPER$0$0 == 0x7078
                           007078  1745 _FRCOSCPER	=	0x7078
                           007074  1746 G$FRCOSCREF0$0$0 == 0x7074
                           007074  1747 _FRCOSCREF0	=	0x7074
                           007075  1748 G$FRCOSCREF1$0$0 == 0x7075
                           007075  1749 _FRCOSCREF1	=	0x7075
                           007074  1750 G$FRCOSCREF$0$0 == 0x7074
                           007074  1751 _FRCOSCREF	=	0x7074
                           007007  1752 G$ANALOGA$0$0 == 0x7007
                           007007  1753 _ANALOGA	=	0x7007
                           00700C  1754 G$GPIOENABLE$0$0 == 0x700c
                           00700C  1755 _GPIOENABLE	=	0x700c
                           007003  1756 G$EXTIRQ$0$0 == 0x7003
                           007003  1757 _EXTIRQ	=	0x7003
                           007000  1758 G$INTCHGA$0$0 == 0x7000
                           007000  1759 _INTCHGA	=	0x7000
                           007001  1760 G$INTCHGB$0$0 == 0x7001
                           007001  1761 _INTCHGB	=	0x7001
                           007002  1762 G$INTCHGC$0$0 == 0x7002
                           007002  1763 _INTCHGC	=	0x7002
                           007008  1764 G$PALTA$0$0 == 0x7008
                           007008  1765 _PALTA	=	0x7008
                           007009  1766 G$PALTB$0$0 == 0x7009
                           007009  1767 _PALTB	=	0x7009
                           00700A  1768 G$PALTC$0$0 == 0x700a
                           00700A  1769 _PALTC	=	0x700a
                           007046  1770 G$PALTRADIO$0$0 == 0x7046
                           007046  1771 _PALTRADIO	=	0x7046
                           007004  1772 G$PINCHGA$0$0 == 0x7004
                           007004  1773 _PINCHGA	=	0x7004
                           007005  1774 G$PINCHGB$0$0 == 0x7005
                           007005  1775 _PINCHGB	=	0x7005
                           007006  1776 G$PINCHGC$0$0 == 0x7006
                           007006  1777 _PINCHGC	=	0x7006
                           00700B  1778 G$PINSEL$0$0 == 0x700b
                           00700B  1779 _PINSEL	=	0x700b
                           007060  1780 G$LPOSCCONFIG$0$0 == 0x7060
                           007060  1781 _LPOSCCONFIG	=	0x7060
                           007066  1782 G$LPOSCFREQ0$0$0 == 0x7066
                           007066  1783 _LPOSCFREQ0	=	0x7066
                           007067  1784 G$LPOSCFREQ1$0$0 == 0x7067
                           007067  1785 _LPOSCFREQ1	=	0x7067
                           007066  1786 G$LPOSCFREQ$0$0 == 0x7066
                           007066  1787 _LPOSCFREQ	=	0x7066
                           007062  1788 G$LPOSCKFILT0$0$0 == 0x7062
                           007062  1789 _LPOSCKFILT0	=	0x7062
                           007063  1790 G$LPOSCKFILT1$0$0 == 0x7063
                           007063  1791 _LPOSCKFILT1	=	0x7063
                           007062  1792 G$LPOSCKFILT$0$0 == 0x7062
                           007062  1793 _LPOSCKFILT	=	0x7062
                           007068  1794 G$LPOSCPER0$0$0 == 0x7068
                           007068  1795 _LPOSCPER0	=	0x7068
                           007069  1796 G$LPOSCPER1$0$0 == 0x7069
                           007069  1797 _LPOSCPER1	=	0x7069
                           007068  1798 G$LPOSCPER$0$0 == 0x7068
                           007068  1799 _LPOSCPER	=	0x7068
                           007064  1800 G$LPOSCREF0$0$0 == 0x7064
                           007064  1801 _LPOSCREF0	=	0x7064
                           007065  1802 G$LPOSCREF1$0$0 == 0x7065
                           007065  1803 _LPOSCREF1	=	0x7065
                           007064  1804 G$LPOSCREF$0$0 == 0x7064
                           007064  1805 _LPOSCREF	=	0x7064
                           007054  1806 G$LPXOSCGM$0$0 == 0x7054
                           007054  1807 _LPXOSCGM	=	0x7054
                           007F01  1808 G$MISCCTRL$0$0 == 0x7f01
                           007F01  1809 _MISCCTRL	=	0x7f01
                           007053  1810 G$OSCCALIB$0$0 == 0x7053
                           007053  1811 _OSCCALIB	=	0x7053
                           007050  1812 G$OSCFORCERUN$0$0 == 0x7050
                           007050  1813 _OSCFORCERUN	=	0x7050
                           007052  1814 G$OSCREADY$0$0 == 0x7052
                           007052  1815 _OSCREADY	=	0x7052
                           007051  1816 G$OSCRUN$0$0 == 0x7051
                           007051  1817 _OSCRUN	=	0x7051
                           007040  1818 G$RADIOFDATAADDR0$0$0 == 0x7040
                           007040  1819 _RADIOFDATAADDR0	=	0x7040
                           007041  1820 G$RADIOFDATAADDR1$0$0 == 0x7041
                           007041  1821 _RADIOFDATAADDR1	=	0x7041
                           007040  1822 G$RADIOFDATAADDR$0$0 == 0x7040
                           007040  1823 _RADIOFDATAADDR	=	0x7040
                           007042  1824 G$RADIOFSTATADDR0$0$0 == 0x7042
                           007042  1825 _RADIOFSTATADDR0	=	0x7042
                           007043  1826 G$RADIOFSTATADDR1$0$0 == 0x7043
                           007043  1827 _RADIOFSTATADDR1	=	0x7043
                           007042  1828 G$RADIOFSTATADDR$0$0 == 0x7042
                           007042  1829 _RADIOFSTATADDR	=	0x7042
                           007044  1830 G$RADIOMUX$0$0 == 0x7044
                           007044  1831 _RADIOMUX	=	0x7044
                           007084  1832 G$SCRATCH0$0$0 == 0x7084
                           007084  1833 _SCRATCH0	=	0x7084
                           007085  1834 G$SCRATCH1$0$0 == 0x7085
                           007085  1835 _SCRATCH1	=	0x7085
                           007086  1836 G$SCRATCH2$0$0 == 0x7086
                           007086  1837 _SCRATCH2	=	0x7086
                           007087  1838 G$SCRATCH3$0$0 == 0x7087
                           007087  1839 _SCRATCH3	=	0x7087
                           007F00  1840 G$SILICONREV$0$0 == 0x7f00
                           007F00  1841 _SILICONREV	=	0x7f00
                           007F19  1842 G$XTALAMPL$0$0 == 0x7f19
                           007F19  1843 _XTALAMPL	=	0x7f19
                           007F18  1844 G$XTALOSC$0$0 == 0x7f18
                           007F18  1845 _XTALOSC	=	0x7f18
                           007F1A  1846 G$XTALREADY$0$0 == 0x7f1a
                           007F1A  1847 _XTALREADY	=	0x7f1a
                           004114  1848 G$AX5043_AFSKCTRL$0$0 == 0x4114
                           004114  1849 _AX5043_AFSKCTRL	=	0x4114
                           004113  1850 G$AX5043_AFSKMARK0$0$0 == 0x4113
                           004113  1851 _AX5043_AFSKMARK0	=	0x4113
                           004112  1852 G$AX5043_AFSKMARK1$0$0 == 0x4112
                           004112  1853 _AX5043_AFSKMARK1	=	0x4112
                           004111  1854 G$AX5043_AFSKSPACE0$0$0 == 0x4111
                           004111  1855 _AX5043_AFSKSPACE0	=	0x4111
                           004110  1856 G$AX5043_AFSKSPACE1$0$0 == 0x4110
                           004110  1857 _AX5043_AFSKSPACE1	=	0x4110
                           004043  1858 G$AX5043_AGCCOUNTER$0$0 == 0x4043
                           004043  1859 _AX5043_AGCCOUNTER	=	0x4043
                           004115  1860 G$AX5043_AMPLFILTER$0$0 == 0x4115
                           004115  1861 _AX5043_AMPLFILTER	=	0x4115
                           004189  1862 G$AX5043_BBOFFSCAP$0$0 == 0x4189
                           004189  1863 _AX5043_BBOFFSCAP	=	0x4189
                           004188  1864 G$AX5043_BBTUNE$0$0 == 0x4188
                           004188  1865 _AX5043_BBTUNE	=	0x4188
                           004041  1866 G$AX5043_BGNDRSSI$0$0 == 0x4041
                           004041  1867 _AX5043_BGNDRSSI	=	0x4041
                           00422E  1868 G$AX5043_BGNDRSSIGAIN$0$0 == 0x422e
                           00422E  1869 _AX5043_BGNDRSSIGAIN	=	0x422e
                           00422F  1870 G$AX5043_BGNDRSSITHR$0$0 == 0x422f
                           00422F  1871 _AX5043_BGNDRSSITHR	=	0x422f
                           004017  1872 G$AX5043_CRCINIT0$0$0 == 0x4017
                           004017  1873 _AX5043_CRCINIT0	=	0x4017
                           004016  1874 G$AX5043_CRCINIT1$0$0 == 0x4016
                           004016  1875 _AX5043_CRCINIT1	=	0x4016
                           004015  1876 G$AX5043_CRCINIT2$0$0 == 0x4015
                           004015  1877 _AX5043_CRCINIT2	=	0x4015
                           004014  1878 G$AX5043_CRCINIT3$0$0 == 0x4014
                           004014  1879 _AX5043_CRCINIT3	=	0x4014
                           004332  1880 G$AX5043_DACCONFIG$0$0 == 0x4332
                           004332  1881 _AX5043_DACCONFIG	=	0x4332
                           004331  1882 G$AX5043_DACVALUE0$0$0 == 0x4331
                           004331  1883 _AX5043_DACVALUE0	=	0x4331
                           004330  1884 G$AX5043_DACVALUE1$0$0 == 0x4330
                           004330  1885 _AX5043_DACVALUE1	=	0x4330
                           004102  1886 G$AX5043_DECIMATION$0$0 == 0x4102
                           004102  1887 _AX5043_DECIMATION	=	0x4102
                           004042  1888 G$AX5043_DIVERSITY$0$0 == 0x4042
                           004042  1889 _AX5043_DIVERSITY	=	0x4042
                           004011  1890 G$AX5043_ENCODING$0$0 == 0x4011
                           004011  1891 _AX5043_ENCODING	=	0x4011
                           004018  1892 G$AX5043_FEC$0$0 == 0x4018
                           004018  1893 _AX5043_FEC	=	0x4018
                           00401A  1894 G$AX5043_FECSTATUS$0$0 == 0x401a
                           00401A  1895 _AX5043_FECSTATUS	=	0x401a
                           004019  1896 G$AX5043_FECSYNC$0$0 == 0x4019
                           004019  1897 _AX5043_FECSYNC	=	0x4019
                           00402B  1898 G$AX5043_FIFOCOUNT0$0$0 == 0x402b
                           00402B  1899 _AX5043_FIFOCOUNT0	=	0x402b
                           00402A  1900 G$AX5043_FIFOCOUNT1$0$0 == 0x402a
                           00402A  1901 _AX5043_FIFOCOUNT1	=	0x402a
                           004029  1902 G$AX5043_FIFODATA$0$0 == 0x4029
                           004029  1903 _AX5043_FIFODATA	=	0x4029
                           00402D  1904 G$AX5043_FIFOFREE0$0$0 == 0x402d
                           00402D  1905 _AX5043_FIFOFREE0	=	0x402d
                           00402C  1906 G$AX5043_FIFOFREE1$0$0 == 0x402c
                           00402C  1907 _AX5043_FIFOFREE1	=	0x402c
                           004028  1908 G$AX5043_FIFOSTAT$0$0 == 0x4028
                           004028  1909 _AX5043_FIFOSTAT	=	0x4028
                           00402F  1910 G$AX5043_FIFOTHRESH0$0$0 == 0x402f
                           00402F  1911 _AX5043_FIFOTHRESH0	=	0x402f
                           00402E  1912 G$AX5043_FIFOTHRESH1$0$0 == 0x402e
                           00402E  1913 _AX5043_FIFOTHRESH1	=	0x402e
                           004012  1914 G$AX5043_FRAMING$0$0 == 0x4012
                           004012  1915 _AX5043_FRAMING	=	0x4012
                           004037  1916 G$AX5043_FREQA0$0$0 == 0x4037
                           004037  1917 _AX5043_FREQA0	=	0x4037
                           004036  1918 G$AX5043_FREQA1$0$0 == 0x4036
                           004036  1919 _AX5043_FREQA1	=	0x4036
                           004035  1920 G$AX5043_FREQA2$0$0 == 0x4035
                           004035  1921 _AX5043_FREQA2	=	0x4035
                           004034  1922 G$AX5043_FREQA3$0$0 == 0x4034
                           004034  1923 _AX5043_FREQA3	=	0x4034
                           00403F  1924 G$AX5043_FREQB0$0$0 == 0x403f
                           00403F  1925 _AX5043_FREQB0	=	0x403f
                           00403E  1926 G$AX5043_FREQB1$0$0 == 0x403e
                           00403E  1927 _AX5043_FREQB1	=	0x403e
                           00403D  1928 G$AX5043_FREQB2$0$0 == 0x403d
                           00403D  1929 _AX5043_FREQB2	=	0x403d
                           00403C  1930 G$AX5043_FREQB3$0$0 == 0x403c
                           00403C  1931 _AX5043_FREQB3	=	0x403c
                           004163  1932 G$AX5043_FSKDEV0$0$0 == 0x4163
                           004163  1933 _AX5043_FSKDEV0	=	0x4163
                           004162  1934 G$AX5043_FSKDEV1$0$0 == 0x4162
                           004162  1935 _AX5043_FSKDEV1	=	0x4162
                           004161  1936 G$AX5043_FSKDEV2$0$0 == 0x4161
                           004161  1937 _AX5043_FSKDEV2	=	0x4161
                           00410D  1938 G$AX5043_FSKDMAX0$0$0 == 0x410d
                           00410D  1939 _AX5043_FSKDMAX0	=	0x410d
                           00410C  1940 G$AX5043_FSKDMAX1$0$0 == 0x410c
                           00410C  1941 _AX5043_FSKDMAX1	=	0x410c
                           00410F  1942 G$AX5043_FSKDMIN0$0$0 == 0x410f
                           00410F  1943 _AX5043_FSKDMIN0	=	0x410f
                           00410E  1944 G$AX5043_FSKDMIN1$0$0 == 0x410e
                           00410E  1945 _AX5043_FSKDMIN1	=	0x410e
                           004309  1946 G$AX5043_GPADC13VALUE0$0$0 == 0x4309
                           004309  1947 _AX5043_GPADC13VALUE0	=	0x4309
                           004308  1948 G$AX5043_GPADC13VALUE1$0$0 == 0x4308
                           004308  1949 _AX5043_GPADC13VALUE1	=	0x4308
                           004300  1950 G$AX5043_GPADCCTRL$0$0 == 0x4300
                           004300  1951 _AX5043_GPADCCTRL	=	0x4300
                           004301  1952 G$AX5043_GPADCPERIOD$0$0 == 0x4301
                           004301  1953 _AX5043_GPADCPERIOD	=	0x4301
                           004101  1954 G$AX5043_IFFREQ0$0$0 == 0x4101
                           004101  1955 _AX5043_IFFREQ0	=	0x4101
                           004100  1956 G$AX5043_IFFREQ1$0$0 == 0x4100
                           004100  1957 _AX5043_IFFREQ1	=	0x4100
                           00400B  1958 G$AX5043_IRQINVERSION0$0$0 == 0x400b
                           00400B  1959 _AX5043_IRQINVERSION0	=	0x400b
                           00400A  1960 G$AX5043_IRQINVERSION1$0$0 == 0x400a
                           00400A  1961 _AX5043_IRQINVERSION1	=	0x400a
                           004007  1962 G$AX5043_IRQMASK0$0$0 == 0x4007
                           004007  1963 _AX5043_IRQMASK0	=	0x4007
                           004006  1964 G$AX5043_IRQMASK1$0$0 == 0x4006
                           004006  1965 _AX5043_IRQMASK1	=	0x4006
                           00400D  1966 G$AX5043_IRQREQUEST0$0$0 == 0x400d
                           00400D  1967 _AX5043_IRQREQUEST0	=	0x400d
                           00400C  1968 G$AX5043_IRQREQUEST1$0$0 == 0x400c
                           00400C  1969 _AX5043_IRQREQUEST1	=	0x400c
                           004310  1970 G$AX5043_LPOSCCONFIG$0$0 == 0x4310
                           004310  1971 _AX5043_LPOSCCONFIG	=	0x4310
                           004317  1972 G$AX5043_LPOSCFREQ0$0$0 == 0x4317
                           004317  1973 _AX5043_LPOSCFREQ0	=	0x4317
                           004316  1974 G$AX5043_LPOSCFREQ1$0$0 == 0x4316
                           004316  1975 _AX5043_LPOSCFREQ1	=	0x4316
                           004313  1976 G$AX5043_LPOSCKFILT0$0$0 == 0x4313
                           004313  1977 _AX5043_LPOSCKFILT0	=	0x4313
                           004312  1978 G$AX5043_LPOSCKFILT1$0$0 == 0x4312
                           004312  1979 _AX5043_LPOSCKFILT1	=	0x4312
                           004319  1980 G$AX5043_LPOSCPER0$0$0 == 0x4319
                           004319  1981 _AX5043_LPOSCPER0	=	0x4319
                           004318  1982 G$AX5043_LPOSCPER1$0$0 == 0x4318
                           004318  1983 _AX5043_LPOSCPER1	=	0x4318
                           004315  1984 G$AX5043_LPOSCREF0$0$0 == 0x4315
                           004315  1985 _AX5043_LPOSCREF0	=	0x4315
                           004314  1986 G$AX5043_LPOSCREF1$0$0 == 0x4314
                           004314  1987 _AX5043_LPOSCREF1	=	0x4314
                           004311  1988 G$AX5043_LPOSCSTATUS$0$0 == 0x4311
                           004311  1989 _AX5043_LPOSCSTATUS	=	0x4311
                           004214  1990 G$AX5043_MATCH0LEN$0$0 == 0x4214
                           004214  1991 _AX5043_MATCH0LEN	=	0x4214
                           004216  1992 G$AX5043_MATCH0MAX$0$0 == 0x4216
                           004216  1993 _AX5043_MATCH0MAX	=	0x4216
                           004215  1994 G$AX5043_MATCH0MIN$0$0 == 0x4215
                           004215  1995 _AX5043_MATCH0MIN	=	0x4215
                           004213  1996 G$AX5043_MATCH0PAT0$0$0 == 0x4213
                           004213  1997 _AX5043_MATCH0PAT0	=	0x4213
                           004212  1998 G$AX5043_MATCH0PAT1$0$0 == 0x4212
                           004212  1999 _AX5043_MATCH0PAT1	=	0x4212
                           004211  2000 G$AX5043_MATCH0PAT2$0$0 == 0x4211
                           004211  2001 _AX5043_MATCH0PAT2	=	0x4211
                           004210  2002 G$AX5043_MATCH0PAT3$0$0 == 0x4210
                           004210  2003 _AX5043_MATCH0PAT3	=	0x4210
                           00421C  2004 G$AX5043_MATCH1LEN$0$0 == 0x421c
                           00421C  2005 _AX5043_MATCH1LEN	=	0x421c
                           00421E  2006 G$AX5043_MATCH1MAX$0$0 == 0x421e
                           00421E  2007 _AX5043_MATCH1MAX	=	0x421e
                           00421D  2008 G$AX5043_MATCH1MIN$0$0 == 0x421d
                           00421D  2009 _AX5043_MATCH1MIN	=	0x421d
                           004219  2010 G$AX5043_MATCH1PAT0$0$0 == 0x4219
                           004219  2011 _AX5043_MATCH1PAT0	=	0x4219
                           004218  2012 G$AX5043_MATCH1PAT1$0$0 == 0x4218
                           004218  2013 _AX5043_MATCH1PAT1	=	0x4218
                           004108  2014 G$AX5043_MAXDROFFSET0$0$0 == 0x4108
                           004108  2015 _AX5043_MAXDROFFSET0	=	0x4108
                           004107  2016 G$AX5043_MAXDROFFSET1$0$0 == 0x4107
                           004107  2017 _AX5043_MAXDROFFSET1	=	0x4107
                           004106  2018 G$AX5043_MAXDROFFSET2$0$0 == 0x4106
                           004106  2019 _AX5043_MAXDROFFSET2	=	0x4106
                           00410B  2020 G$AX5043_MAXRFOFFSET0$0$0 == 0x410b
                           00410B  2021 _AX5043_MAXRFOFFSET0	=	0x410b
                           00410A  2022 G$AX5043_MAXRFOFFSET1$0$0 == 0x410a
                           00410A  2023 _AX5043_MAXRFOFFSET1	=	0x410a
                           004109  2024 G$AX5043_MAXRFOFFSET2$0$0 == 0x4109
                           004109  2025 _AX5043_MAXRFOFFSET2	=	0x4109
                           004164  2026 G$AX5043_MODCFGA$0$0 == 0x4164
                           004164  2027 _AX5043_MODCFGA	=	0x4164
                           004160  2028 G$AX5043_MODCFGF$0$0 == 0x4160
                           004160  2029 _AX5043_MODCFGF	=	0x4160
                           004F5F  2030 G$AX5043_MODCFGP$0$0 == 0x4f5f
                           004F5F  2031 _AX5043_MODCFGP	=	0x4f5f
                           004010  2032 G$AX5043_MODULATION$0$0 == 0x4010
                           004010  2033 _AX5043_MODULATION	=	0x4010
                           004025  2034 G$AX5043_PINFUNCANTSEL$0$0 == 0x4025
                           004025  2035 _AX5043_PINFUNCANTSEL	=	0x4025
                           004023  2036 G$AX5043_PINFUNCDATA$0$0 == 0x4023
                           004023  2037 _AX5043_PINFUNCDATA	=	0x4023
                           004022  2038 G$AX5043_PINFUNCDCLK$0$0 == 0x4022
                           004022  2039 _AX5043_PINFUNCDCLK	=	0x4022
                           004024  2040 G$AX5043_PINFUNCIRQ$0$0 == 0x4024
                           004024  2041 _AX5043_PINFUNCIRQ	=	0x4024
                           004026  2042 G$AX5043_PINFUNCPWRAMP$0$0 == 0x4026
                           004026  2043 _AX5043_PINFUNCPWRAMP	=	0x4026
                           004021  2044 G$AX5043_PINFUNCSYSCLK$0$0 == 0x4021
                           004021  2045 _AX5043_PINFUNCSYSCLK	=	0x4021
                           004020  2046 G$AX5043_PINSTATE$0$0 == 0x4020
                           004020  2047 _AX5043_PINSTATE	=	0x4020
                           004233  2048 G$AX5043_PKTACCEPTFLAGS$0$0 == 0x4233
                           004233  2049 _AX5043_PKTACCEPTFLAGS	=	0x4233
                           004230  2050 G$AX5043_PKTCHUNKSIZE$0$0 == 0x4230
                           004230  2051 _AX5043_PKTCHUNKSIZE	=	0x4230
                           004231  2052 G$AX5043_PKTMISCFLAGS$0$0 == 0x4231
                           004231  2053 _AX5043_PKTMISCFLAGS	=	0x4231
                           004232  2054 G$AX5043_PKTSTOREFLAGS$0$0 == 0x4232
                           004232  2055 _AX5043_PKTSTOREFLAGS	=	0x4232
                           004031  2056 G$AX5043_PLLCPI$0$0 == 0x4031
                           004031  2057 _AX5043_PLLCPI	=	0x4031
                           004039  2058 G$AX5043_PLLCPIBOOST$0$0 == 0x4039
                           004039  2059 _AX5043_PLLCPIBOOST	=	0x4039
                           004182  2060 G$AX5043_PLLLOCKDET$0$0 == 0x4182
                           004182  2061 _AX5043_PLLLOCKDET	=	0x4182
                           004030  2062 G$AX5043_PLLLOOP$0$0 == 0x4030
                           004030  2063 _AX5043_PLLLOOP	=	0x4030
                           004038  2064 G$AX5043_PLLLOOPBOOST$0$0 == 0x4038
                           004038  2065 _AX5043_PLLLOOPBOOST	=	0x4038
                           004033  2066 G$AX5043_PLLRANGINGA$0$0 == 0x4033
                           004033  2067 _AX5043_PLLRANGINGA	=	0x4033
                           00403B  2068 G$AX5043_PLLRANGINGB$0$0 == 0x403b
                           00403B  2069 _AX5043_PLLRANGINGB	=	0x403b
                           004183  2070 G$AX5043_PLLRNGCLK$0$0 == 0x4183
                           004183  2071 _AX5043_PLLRNGCLK	=	0x4183
                           004032  2072 G$AX5043_PLLVCODIV$0$0 == 0x4032
                           004032  2073 _AX5043_PLLVCODIV	=	0x4032
                           004180  2074 G$AX5043_PLLVCOI$0$0 == 0x4180
                           004180  2075 _AX5043_PLLVCOI	=	0x4180
                           004181  2076 G$AX5043_PLLVCOIR$0$0 == 0x4181
                           004181  2077 _AX5043_PLLVCOIR	=	0x4181
                           004F08  2078 G$AX5043_POWCTRL1$0$0 == 0x4f08
                           004F08  2079 _AX5043_POWCTRL1	=	0x4f08
                           004005  2080 G$AX5043_POWIRQMASK$0$0 == 0x4005
                           004005  2081 _AX5043_POWIRQMASK	=	0x4005
                           004003  2082 G$AX5043_POWSTAT$0$0 == 0x4003
                           004003  2083 _AX5043_POWSTAT	=	0x4003
                           004004  2084 G$AX5043_POWSTICKYSTAT$0$0 == 0x4004
                           004004  2085 _AX5043_POWSTICKYSTAT	=	0x4004
                           004027  2086 G$AX5043_PWRAMP$0$0 == 0x4027
                           004027  2087 _AX5043_PWRAMP	=	0x4027
                           004002  2088 G$AX5043_PWRMODE$0$0 == 0x4002
                           004002  2089 _AX5043_PWRMODE	=	0x4002
                           004009  2090 G$AX5043_RADIOEVENTMASK0$0$0 == 0x4009
                           004009  2091 _AX5043_RADIOEVENTMASK0	=	0x4009
                           004008  2092 G$AX5043_RADIOEVENTMASK1$0$0 == 0x4008
                           004008  2093 _AX5043_RADIOEVENTMASK1	=	0x4008
                           00400F  2094 G$AX5043_RADIOEVENTREQ0$0$0 == 0x400f
                           00400F  2095 _AX5043_RADIOEVENTREQ0	=	0x400f
                           00400E  2096 G$AX5043_RADIOEVENTREQ1$0$0 == 0x400e
                           00400E  2097 _AX5043_RADIOEVENTREQ1	=	0x400e
                           00401C  2098 G$AX5043_RADIOSTATE$0$0 == 0x401c
                           00401C  2099 _AX5043_RADIOSTATE	=	0x401c
                           004F0D  2100 G$AX5043_REF$0$0 == 0x4f0d
                           004F0D  2101 _AX5043_REF	=	0x4f0d
                           004040  2102 G$AX5043_RSSI$0$0 == 0x4040
                           004040  2103 _AX5043_RSSI	=	0x4040
                           00422D  2104 G$AX5043_RSSIABSTHR$0$0 == 0x422d
                           00422D  2105 _AX5043_RSSIABSTHR	=	0x422d
                           00422C  2106 G$AX5043_RSSIREFERENCE$0$0 == 0x422c
                           00422C  2107 _AX5043_RSSIREFERENCE	=	0x422c
                           004105  2108 G$AX5043_RXDATARATE0$0$0 == 0x4105
                           004105  2109 _AX5043_RXDATARATE0	=	0x4105
                           004104  2110 G$AX5043_RXDATARATE1$0$0 == 0x4104
                           004104  2111 _AX5043_RXDATARATE1	=	0x4104
                           004103  2112 G$AX5043_RXDATARATE2$0$0 == 0x4103
                           004103  2113 _AX5043_RXDATARATE2	=	0x4103
                           004001  2114 G$AX5043_SCRATCH$0$0 == 0x4001
                           004001  2115 _AX5043_SCRATCH	=	0x4001
                           004000  2116 G$AX5043_SILICONREVISION$0$0 == 0x4000
                           004000  2117 _AX5043_SILICONREVISION	=	0x4000
                           00405B  2118 G$AX5043_TIMER0$0$0 == 0x405b
                           00405B  2119 _AX5043_TIMER0	=	0x405b
                           00405A  2120 G$AX5043_TIMER1$0$0 == 0x405a
                           00405A  2121 _AX5043_TIMER1	=	0x405a
                           004059  2122 G$AX5043_TIMER2$0$0 == 0x4059
                           004059  2123 _AX5043_TIMER2	=	0x4059
                           004227  2124 G$AX5043_TMGRXAGC$0$0 == 0x4227
                           004227  2125 _AX5043_TMGRXAGC	=	0x4227
                           004223  2126 G$AX5043_TMGRXBOOST$0$0 == 0x4223
                           004223  2127 _AX5043_TMGRXBOOST	=	0x4223
                           004226  2128 G$AX5043_TMGRXCOARSEAGC$0$0 == 0x4226
                           004226  2129 _AX5043_TMGRXCOARSEAGC	=	0x4226
                           004225  2130 G$AX5043_TMGRXOFFSACQ$0$0 == 0x4225
                           004225  2131 _AX5043_TMGRXOFFSACQ	=	0x4225
                           004229  2132 G$AX5043_TMGRXPREAMBLE1$0$0 == 0x4229
                           004229  2133 _AX5043_TMGRXPREAMBLE1	=	0x4229
                           00422A  2134 G$AX5043_TMGRXPREAMBLE2$0$0 == 0x422a
                           00422A  2135 _AX5043_TMGRXPREAMBLE2	=	0x422a
                           00422B  2136 G$AX5043_TMGRXPREAMBLE3$0$0 == 0x422b
                           00422B  2137 _AX5043_TMGRXPREAMBLE3	=	0x422b
                           004228  2138 G$AX5043_TMGRXRSSI$0$0 == 0x4228
                           004228  2139 _AX5043_TMGRXRSSI	=	0x4228
                           004224  2140 G$AX5043_TMGRXSETTLE$0$0 == 0x4224
                           004224  2141 _AX5043_TMGRXSETTLE	=	0x4224
                           004220  2142 G$AX5043_TMGTXBOOST$0$0 == 0x4220
                           004220  2143 _AX5043_TMGTXBOOST	=	0x4220
                           004221  2144 G$AX5043_TMGTXSETTLE$0$0 == 0x4221
                           004221  2145 _AX5043_TMGTXSETTLE	=	0x4221
                           004055  2146 G$AX5043_TRKAFSKDEMOD0$0$0 == 0x4055
                           004055  2147 _AX5043_TRKAFSKDEMOD0	=	0x4055
                           004054  2148 G$AX5043_TRKAFSKDEMOD1$0$0 == 0x4054
                           004054  2149 _AX5043_TRKAFSKDEMOD1	=	0x4054
                           004049  2150 G$AX5043_TRKAMPLITUDE0$0$0 == 0x4049
                           004049  2151 _AX5043_TRKAMPLITUDE0	=	0x4049
                           004048  2152 G$AX5043_TRKAMPLITUDE1$0$0 == 0x4048
                           004048  2153 _AX5043_TRKAMPLITUDE1	=	0x4048
                           004047  2154 G$AX5043_TRKDATARATE0$0$0 == 0x4047
                           004047  2155 _AX5043_TRKDATARATE0	=	0x4047
                           004046  2156 G$AX5043_TRKDATARATE1$0$0 == 0x4046
                           004046  2157 _AX5043_TRKDATARATE1	=	0x4046
                           004045  2158 G$AX5043_TRKDATARATE2$0$0 == 0x4045
                           004045  2159 _AX5043_TRKDATARATE2	=	0x4045
                           004051  2160 G$AX5043_TRKFREQ0$0$0 == 0x4051
                           004051  2161 _AX5043_TRKFREQ0	=	0x4051
                           004050  2162 G$AX5043_TRKFREQ1$0$0 == 0x4050
                           004050  2163 _AX5043_TRKFREQ1	=	0x4050
                           004053  2164 G$AX5043_TRKFSKDEMOD0$0$0 == 0x4053
                           004053  2165 _AX5043_TRKFSKDEMOD0	=	0x4053
                           004052  2166 G$AX5043_TRKFSKDEMOD1$0$0 == 0x4052
                           004052  2167 _AX5043_TRKFSKDEMOD1	=	0x4052
                           00404B  2168 G$AX5043_TRKPHASE0$0$0 == 0x404b
                           00404B  2169 _AX5043_TRKPHASE0	=	0x404b
                           00404A  2170 G$AX5043_TRKPHASE1$0$0 == 0x404a
                           00404A  2171 _AX5043_TRKPHASE1	=	0x404a
                           00404F  2172 G$AX5043_TRKRFFREQ0$0$0 == 0x404f
                           00404F  2173 _AX5043_TRKRFFREQ0	=	0x404f
                           00404E  2174 G$AX5043_TRKRFFREQ1$0$0 == 0x404e
                           00404E  2175 _AX5043_TRKRFFREQ1	=	0x404e
                           00404D  2176 G$AX5043_TRKRFFREQ2$0$0 == 0x404d
                           00404D  2177 _AX5043_TRKRFFREQ2	=	0x404d
                           004169  2178 G$AX5043_TXPWRCOEFFA0$0$0 == 0x4169
                           004169  2179 _AX5043_TXPWRCOEFFA0	=	0x4169
                           004168  2180 G$AX5043_TXPWRCOEFFA1$0$0 == 0x4168
                           004168  2181 _AX5043_TXPWRCOEFFA1	=	0x4168
                           00416B  2182 G$AX5043_TXPWRCOEFFB0$0$0 == 0x416b
                           00416B  2183 _AX5043_TXPWRCOEFFB0	=	0x416b
                           00416A  2184 G$AX5043_TXPWRCOEFFB1$0$0 == 0x416a
                           00416A  2185 _AX5043_TXPWRCOEFFB1	=	0x416a
                           00416D  2186 G$AX5043_TXPWRCOEFFC0$0$0 == 0x416d
                           00416D  2187 _AX5043_TXPWRCOEFFC0	=	0x416d
                           00416C  2188 G$AX5043_TXPWRCOEFFC1$0$0 == 0x416c
                           00416C  2189 _AX5043_TXPWRCOEFFC1	=	0x416c
                           00416F  2190 G$AX5043_TXPWRCOEFFD0$0$0 == 0x416f
                           00416F  2191 _AX5043_TXPWRCOEFFD0	=	0x416f
                           00416E  2192 G$AX5043_TXPWRCOEFFD1$0$0 == 0x416e
                           00416E  2193 _AX5043_TXPWRCOEFFD1	=	0x416e
                           004171  2194 G$AX5043_TXPWRCOEFFE0$0$0 == 0x4171
                           004171  2195 _AX5043_TXPWRCOEFFE0	=	0x4171
                           004170  2196 G$AX5043_TXPWRCOEFFE1$0$0 == 0x4170
                           004170  2197 _AX5043_TXPWRCOEFFE1	=	0x4170
                           004167  2198 G$AX5043_TXRATE0$0$0 == 0x4167
                           004167  2199 _AX5043_TXRATE0	=	0x4167
                           004166  2200 G$AX5043_TXRATE1$0$0 == 0x4166
                           004166  2201 _AX5043_TXRATE1	=	0x4166
                           004165  2202 G$AX5043_TXRATE2$0$0 == 0x4165
                           004165  2203 _AX5043_TXRATE2	=	0x4165
                           00406B  2204 G$AX5043_WAKEUP0$0$0 == 0x406b
                           00406B  2205 _AX5043_WAKEUP0	=	0x406b
                           00406A  2206 G$AX5043_WAKEUP1$0$0 == 0x406a
                           00406A  2207 _AX5043_WAKEUP1	=	0x406a
                           00406D  2208 G$AX5043_WAKEUPFREQ0$0$0 == 0x406d
                           00406D  2209 _AX5043_WAKEUPFREQ0	=	0x406d
                           00406C  2210 G$AX5043_WAKEUPFREQ1$0$0 == 0x406c
                           00406C  2211 _AX5043_WAKEUPFREQ1	=	0x406c
                           004069  2212 G$AX5043_WAKEUPTIMER0$0$0 == 0x4069
                           004069  2213 _AX5043_WAKEUPTIMER0	=	0x4069
                           004068  2214 G$AX5043_WAKEUPTIMER1$0$0 == 0x4068
                           004068  2215 _AX5043_WAKEUPTIMER1	=	0x4068
                           00406E  2216 G$AX5043_WAKEUPXOEARLY$0$0 == 0x406e
                           00406E  2217 _AX5043_WAKEUPXOEARLY	=	0x406e
                           004F11  2218 G$AX5043_XTALAMPL$0$0 == 0x4f11
                           004F11  2219 _AX5043_XTALAMPL	=	0x4f11
                           004184  2220 G$AX5043_XTALCAP$0$0 == 0x4184
                           004184  2221 _AX5043_XTALCAP	=	0x4184
                           004F10  2222 G$AX5043_XTALOSC$0$0 == 0x4f10
                           004F10  2223 _AX5043_XTALOSC	=	0x4f10
                           00401D  2224 G$AX5043_XTALSTATUS$0$0 == 0x401d
                           00401D  2225 _AX5043_XTALSTATUS	=	0x401d
                           004F00  2226 G$AX5043_0xF00$0$0 == 0x4f00
                           004F00  2227 _AX5043_0xF00	=	0x4f00
                           004F0C  2228 G$AX5043_0xF0C$0$0 == 0x4f0c
                           004F0C  2229 _AX5043_0xF0C	=	0x4f0c
                           004F18  2230 G$AX5043_0xF18$0$0 == 0x4f18
                           004F18  2231 _AX5043_0xF18	=	0x4f18
                           004F1C  2232 G$AX5043_0xF1C$0$0 == 0x4f1c
                           004F1C  2233 _AX5043_0xF1C	=	0x4f1c
                           004F21  2234 G$AX5043_0xF21$0$0 == 0x4f21
                           004F21  2235 _AX5043_0xF21	=	0x4f21
                           004F22  2236 G$AX5043_0xF22$0$0 == 0x4f22
                           004F22  2237 _AX5043_0xF22	=	0x4f22
                           004F23  2238 G$AX5043_0xF23$0$0 == 0x4f23
                           004F23  2239 _AX5043_0xF23	=	0x4f23
                           004F26  2240 G$AX5043_0xF26$0$0 == 0x4f26
                           004F26  2241 _AX5043_0xF26	=	0x4f26
                           004F30  2242 G$AX5043_0xF30$0$0 == 0x4f30
                           004F30  2243 _AX5043_0xF30	=	0x4f30
                           004F31  2244 G$AX5043_0xF31$0$0 == 0x4f31
                           004F31  2245 _AX5043_0xF31	=	0x4f31
                           004F32  2246 G$AX5043_0xF32$0$0 == 0x4f32
                           004F32  2247 _AX5043_0xF32	=	0x4f32
                           004F33  2248 G$AX5043_0xF33$0$0 == 0x4f33
                           004F33  2249 _AX5043_0xF33	=	0x4f33
                           004F34  2250 G$AX5043_0xF34$0$0 == 0x4f34
                           004F34  2251 _AX5043_0xF34	=	0x4f34
                           004F35  2252 G$AX5043_0xF35$0$0 == 0x4f35
                           004F35  2253 _AX5043_0xF35	=	0x4f35
                           004F44  2254 G$AX5043_0xF44$0$0 == 0x4f44
                           004F44  2255 _AX5043_0xF44	=	0x4f44
                           004122  2256 G$AX5043_AGCAHYST0$0$0 == 0x4122
                           004122  2257 _AX5043_AGCAHYST0	=	0x4122
                           004132  2258 G$AX5043_AGCAHYST1$0$0 == 0x4132
                           004132  2259 _AX5043_AGCAHYST1	=	0x4132
                           004142  2260 G$AX5043_AGCAHYST2$0$0 == 0x4142
                           004142  2261 _AX5043_AGCAHYST2	=	0x4142
                           004152  2262 G$AX5043_AGCAHYST3$0$0 == 0x4152
                           004152  2263 _AX5043_AGCAHYST3	=	0x4152
                           004120  2264 G$AX5043_AGCGAIN0$0$0 == 0x4120
                           004120  2265 _AX5043_AGCGAIN0	=	0x4120
                           004130  2266 G$AX5043_AGCGAIN1$0$0 == 0x4130
                           004130  2267 _AX5043_AGCGAIN1	=	0x4130
                           004140  2268 G$AX5043_AGCGAIN2$0$0 == 0x4140
                           004140  2269 _AX5043_AGCGAIN2	=	0x4140
                           004150  2270 G$AX5043_AGCGAIN3$0$0 == 0x4150
                           004150  2271 _AX5043_AGCGAIN3	=	0x4150
                           004123  2272 G$AX5043_AGCMINMAX0$0$0 == 0x4123
                           004123  2273 _AX5043_AGCMINMAX0	=	0x4123
                           004133  2274 G$AX5043_AGCMINMAX1$0$0 == 0x4133
                           004133  2275 _AX5043_AGCMINMAX1	=	0x4133
                           004143  2276 G$AX5043_AGCMINMAX2$0$0 == 0x4143
                           004143  2277 _AX5043_AGCMINMAX2	=	0x4143
                           004153  2278 G$AX5043_AGCMINMAX3$0$0 == 0x4153
                           004153  2279 _AX5043_AGCMINMAX3	=	0x4153
                           004121  2280 G$AX5043_AGCTARGET0$0$0 == 0x4121
                           004121  2281 _AX5043_AGCTARGET0	=	0x4121
                           004131  2282 G$AX5043_AGCTARGET1$0$0 == 0x4131
                           004131  2283 _AX5043_AGCTARGET1	=	0x4131
                           004141  2284 G$AX5043_AGCTARGET2$0$0 == 0x4141
                           004141  2285 _AX5043_AGCTARGET2	=	0x4141
                           004151  2286 G$AX5043_AGCTARGET3$0$0 == 0x4151
                           004151  2287 _AX5043_AGCTARGET3	=	0x4151
                           00412B  2288 G$AX5043_AMPLITUDEGAIN0$0$0 == 0x412b
                           00412B  2289 _AX5043_AMPLITUDEGAIN0	=	0x412b
                           00413B  2290 G$AX5043_AMPLITUDEGAIN1$0$0 == 0x413b
                           00413B  2291 _AX5043_AMPLITUDEGAIN1	=	0x413b
                           00414B  2292 G$AX5043_AMPLITUDEGAIN2$0$0 == 0x414b
                           00414B  2293 _AX5043_AMPLITUDEGAIN2	=	0x414b
                           00415B  2294 G$AX5043_AMPLITUDEGAIN3$0$0 == 0x415b
                           00415B  2295 _AX5043_AMPLITUDEGAIN3	=	0x415b
                           00412F  2296 G$AX5043_BBOFFSRES0$0$0 == 0x412f
                           00412F  2297 _AX5043_BBOFFSRES0	=	0x412f
                           00413F  2298 G$AX5043_BBOFFSRES1$0$0 == 0x413f
                           00413F  2299 _AX5043_BBOFFSRES1	=	0x413f
                           00414F  2300 G$AX5043_BBOFFSRES2$0$0 == 0x414f
                           00414F  2301 _AX5043_BBOFFSRES2	=	0x414f
                           00415F  2302 G$AX5043_BBOFFSRES3$0$0 == 0x415f
                           00415F  2303 _AX5043_BBOFFSRES3	=	0x415f
                           004125  2304 G$AX5043_DRGAIN0$0$0 == 0x4125
                           004125  2305 _AX5043_DRGAIN0	=	0x4125
                           004135  2306 G$AX5043_DRGAIN1$0$0 == 0x4135
                           004135  2307 _AX5043_DRGAIN1	=	0x4135
                           004145  2308 G$AX5043_DRGAIN2$0$0 == 0x4145
                           004145  2309 _AX5043_DRGAIN2	=	0x4145
                           004155  2310 G$AX5043_DRGAIN3$0$0 == 0x4155
                           004155  2311 _AX5043_DRGAIN3	=	0x4155
                           00412E  2312 G$AX5043_FOURFSK0$0$0 == 0x412e
                           00412E  2313 _AX5043_FOURFSK0	=	0x412e
                           00413E  2314 G$AX5043_FOURFSK1$0$0 == 0x413e
                           00413E  2315 _AX5043_FOURFSK1	=	0x413e
                           00414E  2316 G$AX5043_FOURFSK2$0$0 == 0x414e
                           00414E  2317 _AX5043_FOURFSK2	=	0x414e
                           00415E  2318 G$AX5043_FOURFSK3$0$0 == 0x415e
                           00415E  2319 _AX5043_FOURFSK3	=	0x415e
                           00412D  2320 G$AX5043_FREQDEV00$0$0 == 0x412d
                           00412D  2321 _AX5043_FREQDEV00	=	0x412d
                           00413D  2322 G$AX5043_FREQDEV01$0$0 == 0x413d
                           00413D  2323 _AX5043_FREQDEV01	=	0x413d
                           00414D  2324 G$AX5043_FREQDEV02$0$0 == 0x414d
                           00414D  2325 _AX5043_FREQDEV02	=	0x414d
                           00415D  2326 G$AX5043_FREQDEV03$0$0 == 0x415d
                           00415D  2327 _AX5043_FREQDEV03	=	0x415d
                           00412C  2328 G$AX5043_FREQDEV10$0$0 == 0x412c
                           00412C  2329 _AX5043_FREQDEV10	=	0x412c
                           00413C  2330 G$AX5043_FREQDEV11$0$0 == 0x413c
                           00413C  2331 _AX5043_FREQDEV11	=	0x413c
                           00414C  2332 G$AX5043_FREQDEV12$0$0 == 0x414c
                           00414C  2333 _AX5043_FREQDEV12	=	0x414c
                           00415C  2334 G$AX5043_FREQDEV13$0$0 == 0x415c
                           00415C  2335 _AX5043_FREQDEV13	=	0x415c
                           004127  2336 G$AX5043_FREQUENCYGAINA0$0$0 == 0x4127
                           004127  2337 _AX5043_FREQUENCYGAINA0	=	0x4127
                           004137  2338 G$AX5043_FREQUENCYGAINA1$0$0 == 0x4137
                           004137  2339 _AX5043_FREQUENCYGAINA1	=	0x4137
                           004147  2340 G$AX5043_FREQUENCYGAINA2$0$0 == 0x4147
                           004147  2341 _AX5043_FREQUENCYGAINA2	=	0x4147
                           004157  2342 G$AX5043_FREQUENCYGAINA3$0$0 == 0x4157
                           004157  2343 _AX5043_FREQUENCYGAINA3	=	0x4157
                           004128  2344 G$AX5043_FREQUENCYGAINB0$0$0 == 0x4128
                           004128  2345 _AX5043_FREQUENCYGAINB0	=	0x4128
                           004138  2346 G$AX5043_FREQUENCYGAINB1$0$0 == 0x4138
                           004138  2347 _AX5043_FREQUENCYGAINB1	=	0x4138
                           004148  2348 G$AX5043_FREQUENCYGAINB2$0$0 == 0x4148
                           004148  2349 _AX5043_FREQUENCYGAINB2	=	0x4148
                           004158  2350 G$AX5043_FREQUENCYGAINB3$0$0 == 0x4158
                           004158  2351 _AX5043_FREQUENCYGAINB3	=	0x4158
                           004129  2352 G$AX5043_FREQUENCYGAINC0$0$0 == 0x4129
                           004129  2353 _AX5043_FREQUENCYGAINC0	=	0x4129
                           004139  2354 G$AX5043_FREQUENCYGAINC1$0$0 == 0x4139
                           004139  2355 _AX5043_FREQUENCYGAINC1	=	0x4139
                           004149  2356 G$AX5043_FREQUENCYGAINC2$0$0 == 0x4149
                           004149  2357 _AX5043_FREQUENCYGAINC2	=	0x4149
                           004159  2358 G$AX5043_FREQUENCYGAINC3$0$0 == 0x4159
                           004159  2359 _AX5043_FREQUENCYGAINC3	=	0x4159
                           00412A  2360 G$AX5043_FREQUENCYGAIND0$0$0 == 0x412a
                           00412A  2361 _AX5043_FREQUENCYGAIND0	=	0x412a
                           00413A  2362 G$AX5043_FREQUENCYGAIND1$0$0 == 0x413a
                           00413A  2363 _AX5043_FREQUENCYGAIND1	=	0x413a
                           00414A  2364 G$AX5043_FREQUENCYGAIND2$0$0 == 0x414a
                           00414A  2365 _AX5043_FREQUENCYGAIND2	=	0x414a
                           00415A  2366 G$AX5043_FREQUENCYGAIND3$0$0 == 0x415a
                           00415A  2367 _AX5043_FREQUENCYGAIND3	=	0x415a
                           004116  2368 G$AX5043_FREQUENCYLEAK$0$0 == 0x4116
                           004116  2369 _AX5043_FREQUENCYLEAK	=	0x4116
                           004126  2370 G$AX5043_PHASEGAIN0$0$0 == 0x4126
                           004126  2371 _AX5043_PHASEGAIN0	=	0x4126
                           004136  2372 G$AX5043_PHASEGAIN1$0$0 == 0x4136
                           004136  2373 _AX5043_PHASEGAIN1	=	0x4136
                           004146  2374 G$AX5043_PHASEGAIN2$0$0 == 0x4146
                           004146  2375 _AX5043_PHASEGAIN2	=	0x4146
                           004156  2376 G$AX5043_PHASEGAIN3$0$0 == 0x4156
                           004156  2377 _AX5043_PHASEGAIN3	=	0x4156
                           004207  2378 G$AX5043_PKTADDR0$0$0 == 0x4207
                           004207  2379 _AX5043_PKTADDR0	=	0x4207
                           004206  2380 G$AX5043_PKTADDR1$0$0 == 0x4206
                           004206  2381 _AX5043_PKTADDR1	=	0x4206
                           004205  2382 G$AX5043_PKTADDR2$0$0 == 0x4205
                           004205  2383 _AX5043_PKTADDR2	=	0x4205
                           004204  2384 G$AX5043_PKTADDR3$0$0 == 0x4204
                           004204  2385 _AX5043_PKTADDR3	=	0x4204
                           004200  2386 G$AX5043_PKTADDRCFG$0$0 == 0x4200
                           004200  2387 _AX5043_PKTADDRCFG	=	0x4200
                           00420B  2388 G$AX5043_PKTADDRMASK0$0$0 == 0x420b
                           00420B  2389 _AX5043_PKTADDRMASK0	=	0x420b
                           00420A  2390 G$AX5043_PKTADDRMASK1$0$0 == 0x420a
                           00420A  2391 _AX5043_PKTADDRMASK1	=	0x420a
                           004209  2392 G$AX5043_PKTADDRMASK2$0$0 == 0x4209
                           004209  2393 _AX5043_PKTADDRMASK2	=	0x4209
                           004208  2394 G$AX5043_PKTADDRMASK3$0$0 == 0x4208
                           004208  2395 _AX5043_PKTADDRMASK3	=	0x4208
                           004201  2396 G$AX5043_PKTLENCFG$0$0 == 0x4201
                           004201  2397 _AX5043_PKTLENCFG	=	0x4201
                           004202  2398 G$AX5043_PKTLENOFFSET$0$0 == 0x4202
                           004202  2399 _AX5043_PKTLENOFFSET	=	0x4202
                           004203  2400 G$AX5043_PKTMAXLEN$0$0 == 0x4203
                           004203  2401 _AX5043_PKTMAXLEN	=	0x4203
                           004118  2402 G$AX5043_RXPARAMCURSET$0$0 == 0x4118
                           004118  2403 _AX5043_RXPARAMCURSET	=	0x4118
                           004117  2404 G$AX5043_RXPARAMSETS$0$0 == 0x4117
                           004117  2405 _AX5043_RXPARAMSETS	=	0x4117
                           004124  2406 G$AX5043_TIMEGAIN0$0$0 == 0x4124
                           004124  2407 _AX5043_TIMEGAIN0	=	0x4124
                           004134  2408 G$AX5043_TIMEGAIN1$0$0 == 0x4134
                           004134  2409 _AX5043_TIMEGAIN1	=	0x4134
                           004144  2410 G$AX5043_TIMEGAIN2$0$0 == 0x4144
                           004144  2411 _AX5043_TIMEGAIN2	=	0x4144
                           004154  2412 G$AX5043_TIMEGAIN3$0$0 == 0x4154
                           004154  2413 _AX5043_TIMEGAIN3	=	0x4154
                           005114  2414 G$AX5043_AFSKCTRLNB$0$0 == 0x5114
                           005114  2415 _AX5043_AFSKCTRLNB	=	0x5114
                           005113  2416 G$AX5043_AFSKMARK0NB$0$0 == 0x5113
                           005113  2417 _AX5043_AFSKMARK0NB	=	0x5113
                           005112  2418 G$AX5043_AFSKMARK1NB$0$0 == 0x5112
                           005112  2419 _AX5043_AFSKMARK1NB	=	0x5112
                           005111  2420 G$AX5043_AFSKSPACE0NB$0$0 == 0x5111
                           005111  2421 _AX5043_AFSKSPACE0NB	=	0x5111
                           005110  2422 G$AX5043_AFSKSPACE1NB$0$0 == 0x5110
                           005110  2423 _AX5043_AFSKSPACE1NB	=	0x5110
                           005043  2424 G$AX5043_AGCCOUNTERNB$0$0 == 0x5043
                           005043  2425 _AX5043_AGCCOUNTERNB	=	0x5043
                           005115  2426 G$AX5043_AMPLFILTERNB$0$0 == 0x5115
                           005115  2427 _AX5043_AMPLFILTERNB	=	0x5115
                           005189  2428 G$AX5043_BBOFFSCAPNB$0$0 == 0x5189
                           005189  2429 _AX5043_BBOFFSCAPNB	=	0x5189
                           005188  2430 G$AX5043_BBTUNENB$0$0 == 0x5188
                           005188  2431 _AX5043_BBTUNENB	=	0x5188
                           005041  2432 G$AX5043_BGNDRSSINB$0$0 == 0x5041
                           005041  2433 _AX5043_BGNDRSSINB	=	0x5041
                           00522E  2434 G$AX5043_BGNDRSSIGAINNB$0$0 == 0x522e
                           00522E  2435 _AX5043_BGNDRSSIGAINNB	=	0x522e
                           00522F  2436 G$AX5043_BGNDRSSITHRNB$0$0 == 0x522f
                           00522F  2437 _AX5043_BGNDRSSITHRNB	=	0x522f
                           005017  2438 G$AX5043_CRCINIT0NB$0$0 == 0x5017
                           005017  2439 _AX5043_CRCINIT0NB	=	0x5017
                           005016  2440 G$AX5043_CRCINIT1NB$0$0 == 0x5016
                           005016  2441 _AX5043_CRCINIT1NB	=	0x5016
                           005015  2442 G$AX5043_CRCINIT2NB$0$0 == 0x5015
                           005015  2443 _AX5043_CRCINIT2NB	=	0x5015
                           005014  2444 G$AX5043_CRCINIT3NB$0$0 == 0x5014
                           005014  2445 _AX5043_CRCINIT3NB	=	0x5014
                           005332  2446 G$AX5043_DACCONFIGNB$0$0 == 0x5332
                           005332  2447 _AX5043_DACCONFIGNB	=	0x5332
                           005331  2448 G$AX5043_DACVALUE0NB$0$0 == 0x5331
                           005331  2449 _AX5043_DACVALUE0NB	=	0x5331
                           005330  2450 G$AX5043_DACVALUE1NB$0$0 == 0x5330
                           005330  2451 _AX5043_DACVALUE1NB	=	0x5330
                           005102  2452 G$AX5043_DECIMATIONNB$0$0 == 0x5102
                           005102  2453 _AX5043_DECIMATIONNB	=	0x5102
                           005042  2454 G$AX5043_DIVERSITYNB$0$0 == 0x5042
                           005042  2455 _AX5043_DIVERSITYNB	=	0x5042
                           005011  2456 G$AX5043_ENCODINGNB$0$0 == 0x5011
                           005011  2457 _AX5043_ENCODINGNB	=	0x5011
                           005018  2458 G$AX5043_FECNB$0$0 == 0x5018
                           005018  2459 _AX5043_FECNB	=	0x5018
                           00501A  2460 G$AX5043_FECSTATUSNB$0$0 == 0x501a
                           00501A  2461 _AX5043_FECSTATUSNB	=	0x501a
                           005019  2462 G$AX5043_FECSYNCNB$0$0 == 0x5019
                           005019  2463 _AX5043_FECSYNCNB	=	0x5019
                           00502B  2464 G$AX5043_FIFOCOUNT0NB$0$0 == 0x502b
                           00502B  2465 _AX5043_FIFOCOUNT0NB	=	0x502b
                           00502A  2466 G$AX5043_FIFOCOUNT1NB$0$0 == 0x502a
                           00502A  2467 _AX5043_FIFOCOUNT1NB	=	0x502a
                           005029  2468 G$AX5043_FIFODATANB$0$0 == 0x5029
                           005029  2469 _AX5043_FIFODATANB	=	0x5029
                           00502D  2470 G$AX5043_FIFOFREE0NB$0$0 == 0x502d
                           00502D  2471 _AX5043_FIFOFREE0NB	=	0x502d
                           00502C  2472 G$AX5043_FIFOFREE1NB$0$0 == 0x502c
                           00502C  2473 _AX5043_FIFOFREE1NB	=	0x502c
                           005028  2474 G$AX5043_FIFOSTATNB$0$0 == 0x5028
                           005028  2475 _AX5043_FIFOSTATNB	=	0x5028
                           00502F  2476 G$AX5043_FIFOTHRESH0NB$0$0 == 0x502f
                           00502F  2477 _AX5043_FIFOTHRESH0NB	=	0x502f
                           00502E  2478 G$AX5043_FIFOTHRESH1NB$0$0 == 0x502e
                           00502E  2479 _AX5043_FIFOTHRESH1NB	=	0x502e
                           005012  2480 G$AX5043_FRAMINGNB$0$0 == 0x5012
                           005012  2481 _AX5043_FRAMINGNB	=	0x5012
                           005037  2482 G$AX5043_FREQA0NB$0$0 == 0x5037
                           005037  2483 _AX5043_FREQA0NB	=	0x5037
                           005036  2484 G$AX5043_FREQA1NB$0$0 == 0x5036
                           005036  2485 _AX5043_FREQA1NB	=	0x5036
                           005035  2486 G$AX5043_FREQA2NB$0$0 == 0x5035
                           005035  2487 _AX5043_FREQA2NB	=	0x5035
                           005034  2488 G$AX5043_FREQA3NB$0$0 == 0x5034
                           005034  2489 _AX5043_FREQA3NB	=	0x5034
                           00503F  2490 G$AX5043_FREQB0NB$0$0 == 0x503f
                           00503F  2491 _AX5043_FREQB0NB	=	0x503f
                           00503E  2492 G$AX5043_FREQB1NB$0$0 == 0x503e
                           00503E  2493 _AX5043_FREQB1NB	=	0x503e
                           00503D  2494 G$AX5043_FREQB2NB$0$0 == 0x503d
                           00503D  2495 _AX5043_FREQB2NB	=	0x503d
                           00503C  2496 G$AX5043_FREQB3NB$0$0 == 0x503c
                           00503C  2497 _AX5043_FREQB3NB	=	0x503c
                           005163  2498 G$AX5043_FSKDEV0NB$0$0 == 0x5163
                           005163  2499 _AX5043_FSKDEV0NB	=	0x5163
                           005162  2500 G$AX5043_FSKDEV1NB$0$0 == 0x5162
                           005162  2501 _AX5043_FSKDEV1NB	=	0x5162
                           005161  2502 G$AX5043_FSKDEV2NB$0$0 == 0x5161
                           005161  2503 _AX5043_FSKDEV2NB	=	0x5161
                           00510D  2504 G$AX5043_FSKDMAX0NB$0$0 == 0x510d
                           00510D  2505 _AX5043_FSKDMAX0NB	=	0x510d
                           00510C  2506 G$AX5043_FSKDMAX1NB$0$0 == 0x510c
                           00510C  2507 _AX5043_FSKDMAX1NB	=	0x510c
                           00510F  2508 G$AX5043_FSKDMIN0NB$0$0 == 0x510f
                           00510F  2509 _AX5043_FSKDMIN0NB	=	0x510f
                           00510E  2510 G$AX5043_FSKDMIN1NB$0$0 == 0x510e
                           00510E  2511 _AX5043_FSKDMIN1NB	=	0x510e
                           005309  2512 G$AX5043_GPADC13VALUE0NB$0$0 == 0x5309
                           005309  2513 _AX5043_GPADC13VALUE0NB	=	0x5309
                           005308  2514 G$AX5043_GPADC13VALUE1NB$0$0 == 0x5308
                           005308  2515 _AX5043_GPADC13VALUE1NB	=	0x5308
                           005300  2516 G$AX5043_GPADCCTRLNB$0$0 == 0x5300
                           005300  2517 _AX5043_GPADCCTRLNB	=	0x5300
                           005301  2518 G$AX5043_GPADCPERIODNB$0$0 == 0x5301
                           005301  2519 _AX5043_GPADCPERIODNB	=	0x5301
                           005101  2520 G$AX5043_IFFREQ0NB$0$0 == 0x5101
                           005101  2521 _AX5043_IFFREQ0NB	=	0x5101
                           005100  2522 G$AX5043_IFFREQ1NB$0$0 == 0x5100
                           005100  2523 _AX5043_IFFREQ1NB	=	0x5100
                           00500B  2524 G$AX5043_IRQINVERSION0NB$0$0 == 0x500b
                           00500B  2525 _AX5043_IRQINVERSION0NB	=	0x500b
                           00500A  2526 G$AX5043_IRQINVERSION1NB$0$0 == 0x500a
                           00500A  2527 _AX5043_IRQINVERSION1NB	=	0x500a
                           005007  2528 G$AX5043_IRQMASK0NB$0$0 == 0x5007
                           005007  2529 _AX5043_IRQMASK0NB	=	0x5007
                           005006  2530 G$AX5043_IRQMASK1NB$0$0 == 0x5006
                           005006  2531 _AX5043_IRQMASK1NB	=	0x5006
                           00500D  2532 G$AX5043_IRQREQUEST0NB$0$0 == 0x500d
                           00500D  2533 _AX5043_IRQREQUEST0NB	=	0x500d
                           00500C  2534 G$AX5043_IRQREQUEST1NB$0$0 == 0x500c
                           00500C  2535 _AX5043_IRQREQUEST1NB	=	0x500c
                           005310  2536 G$AX5043_LPOSCCONFIGNB$0$0 == 0x5310
                           005310  2537 _AX5043_LPOSCCONFIGNB	=	0x5310
                           005317  2538 G$AX5043_LPOSCFREQ0NB$0$0 == 0x5317
                           005317  2539 _AX5043_LPOSCFREQ0NB	=	0x5317
                           005316  2540 G$AX5043_LPOSCFREQ1NB$0$0 == 0x5316
                           005316  2541 _AX5043_LPOSCFREQ1NB	=	0x5316
                           005313  2542 G$AX5043_LPOSCKFILT0NB$0$0 == 0x5313
                           005313  2543 _AX5043_LPOSCKFILT0NB	=	0x5313
                           005312  2544 G$AX5043_LPOSCKFILT1NB$0$0 == 0x5312
                           005312  2545 _AX5043_LPOSCKFILT1NB	=	0x5312
                           005319  2546 G$AX5043_LPOSCPER0NB$0$0 == 0x5319
                           005319  2547 _AX5043_LPOSCPER0NB	=	0x5319
                           005318  2548 G$AX5043_LPOSCPER1NB$0$0 == 0x5318
                           005318  2549 _AX5043_LPOSCPER1NB	=	0x5318
                           005315  2550 G$AX5043_LPOSCREF0NB$0$0 == 0x5315
                           005315  2551 _AX5043_LPOSCREF0NB	=	0x5315
                           005314  2552 G$AX5043_LPOSCREF1NB$0$0 == 0x5314
                           005314  2553 _AX5043_LPOSCREF1NB	=	0x5314
                           005311  2554 G$AX5043_LPOSCSTATUSNB$0$0 == 0x5311
                           005311  2555 _AX5043_LPOSCSTATUSNB	=	0x5311
                           005214  2556 G$AX5043_MATCH0LENNB$0$0 == 0x5214
                           005214  2557 _AX5043_MATCH0LENNB	=	0x5214
                           005216  2558 G$AX5043_MATCH0MAXNB$0$0 == 0x5216
                           005216  2559 _AX5043_MATCH0MAXNB	=	0x5216
                           005215  2560 G$AX5043_MATCH0MINNB$0$0 == 0x5215
                           005215  2561 _AX5043_MATCH0MINNB	=	0x5215
                           005213  2562 G$AX5043_MATCH0PAT0NB$0$0 == 0x5213
                           005213  2563 _AX5043_MATCH0PAT0NB	=	0x5213
                           005212  2564 G$AX5043_MATCH0PAT1NB$0$0 == 0x5212
                           005212  2565 _AX5043_MATCH0PAT1NB	=	0x5212
                           005211  2566 G$AX5043_MATCH0PAT2NB$0$0 == 0x5211
                           005211  2567 _AX5043_MATCH0PAT2NB	=	0x5211
                           005210  2568 G$AX5043_MATCH0PAT3NB$0$0 == 0x5210
                           005210  2569 _AX5043_MATCH0PAT3NB	=	0x5210
                           00521C  2570 G$AX5043_MATCH1LENNB$0$0 == 0x521c
                           00521C  2571 _AX5043_MATCH1LENNB	=	0x521c
                           00521E  2572 G$AX5043_MATCH1MAXNB$0$0 == 0x521e
                           00521E  2573 _AX5043_MATCH1MAXNB	=	0x521e
                           00521D  2574 G$AX5043_MATCH1MINNB$0$0 == 0x521d
                           00521D  2575 _AX5043_MATCH1MINNB	=	0x521d
                           005219  2576 G$AX5043_MATCH1PAT0NB$0$0 == 0x5219
                           005219  2577 _AX5043_MATCH1PAT0NB	=	0x5219
                           005218  2578 G$AX5043_MATCH1PAT1NB$0$0 == 0x5218
                           005218  2579 _AX5043_MATCH1PAT1NB	=	0x5218
                           005108  2580 G$AX5043_MAXDROFFSET0NB$0$0 == 0x5108
                           005108  2581 _AX5043_MAXDROFFSET0NB	=	0x5108
                           005107  2582 G$AX5043_MAXDROFFSET1NB$0$0 == 0x5107
                           005107  2583 _AX5043_MAXDROFFSET1NB	=	0x5107
                           005106  2584 G$AX5043_MAXDROFFSET2NB$0$0 == 0x5106
                           005106  2585 _AX5043_MAXDROFFSET2NB	=	0x5106
                           00510B  2586 G$AX5043_MAXRFOFFSET0NB$0$0 == 0x510b
                           00510B  2587 _AX5043_MAXRFOFFSET0NB	=	0x510b
                           00510A  2588 G$AX5043_MAXRFOFFSET1NB$0$0 == 0x510a
                           00510A  2589 _AX5043_MAXRFOFFSET1NB	=	0x510a
                           005109  2590 G$AX5043_MAXRFOFFSET2NB$0$0 == 0x5109
                           005109  2591 _AX5043_MAXRFOFFSET2NB	=	0x5109
                           005164  2592 G$AX5043_MODCFGANB$0$0 == 0x5164
                           005164  2593 _AX5043_MODCFGANB	=	0x5164
                           005160  2594 G$AX5043_MODCFGFNB$0$0 == 0x5160
                           005160  2595 _AX5043_MODCFGFNB	=	0x5160
                           005F5F  2596 G$AX5043_MODCFGPNB$0$0 == 0x5f5f
                           005F5F  2597 _AX5043_MODCFGPNB	=	0x5f5f
                           005010  2598 G$AX5043_MODULATIONNB$0$0 == 0x5010
                           005010  2599 _AX5043_MODULATIONNB	=	0x5010
                           005025  2600 G$AX5043_PINFUNCANTSELNB$0$0 == 0x5025
                           005025  2601 _AX5043_PINFUNCANTSELNB	=	0x5025
                           005023  2602 G$AX5043_PINFUNCDATANB$0$0 == 0x5023
                           005023  2603 _AX5043_PINFUNCDATANB	=	0x5023
                           005022  2604 G$AX5043_PINFUNCDCLKNB$0$0 == 0x5022
                           005022  2605 _AX5043_PINFUNCDCLKNB	=	0x5022
                           005024  2606 G$AX5043_PINFUNCIRQNB$0$0 == 0x5024
                           005024  2607 _AX5043_PINFUNCIRQNB	=	0x5024
                           005026  2608 G$AX5043_PINFUNCPWRAMPNB$0$0 == 0x5026
                           005026  2609 _AX5043_PINFUNCPWRAMPNB	=	0x5026
                           005021  2610 G$AX5043_PINFUNCSYSCLKNB$0$0 == 0x5021
                           005021  2611 _AX5043_PINFUNCSYSCLKNB	=	0x5021
                           005020  2612 G$AX5043_PINSTATENB$0$0 == 0x5020
                           005020  2613 _AX5043_PINSTATENB	=	0x5020
                           005233  2614 G$AX5043_PKTACCEPTFLAGSNB$0$0 == 0x5233
                           005233  2615 _AX5043_PKTACCEPTFLAGSNB	=	0x5233
                           005230  2616 G$AX5043_PKTCHUNKSIZENB$0$0 == 0x5230
                           005230  2617 _AX5043_PKTCHUNKSIZENB	=	0x5230
                           005231  2618 G$AX5043_PKTMISCFLAGSNB$0$0 == 0x5231
                           005231  2619 _AX5043_PKTMISCFLAGSNB	=	0x5231
                           005232  2620 G$AX5043_PKTSTOREFLAGSNB$0$0 == 0x5232
                           005232  2621 _AX5043_PKTSTOREFLAGSNB	=	0x5232
                           005031  2622 G$AX5043_PLLCPINB$0$0 == 0x5031
                           005031  2623 _AX5043_PLLCPINB	=	0x5031
                           005039  2624 G$AX5043_PLLCPIBOOSTNB$0$0 == 0x5039
                           005039  2625 _AX5043_PLLCPIBOOSTNB	=	0x5039
                           005182  2626 G$AX5043_PLLLOCKDETNB$0$0 == 0x5182
                           005182  2627 _AX5043_PLLLOCKDETNB	=	0x5182
                           005030  2628 G$AX5043_PLLLOOPNB$0$0 == 0x5030
                           005030  2629 _AX5043_PLLLOOPNB	=	0x5030
                           005038  2630 G$AX5043_PLLLOOPBOOSTNB$0$0 == 0x5038
                           005038  2631 _AX5043_PLLLOOPBOOSTNB	=	0x5038
                           005033  2632 G$AX5043_PLLRANGINGANB$0$0 == 0x5033
                           005033  2633 _AX5043_PLLRANGINGANB	=	0x5033
                           00503B  2634 G$AX5043_PLLRANGINGBNB$0$0 == 0x503b
                           00503B  2635 _AX5043_PLLRANGINGBNB	=	0x503b
                           005183  2636 G$AX5043_PLLRNGCLKNB$0$0 == 0x5183
                           005183  2637 _AX5043_PLLRNGCLKNB	=	0x5183
                           005032  2638 G$AX5043_PLLVCODIVNB$0$0 == 0x5032
                           005032  2639 _AX5043_PLLVCODIVNB	=	0x5032
                           005180  2640 G$AX5043_PLLVCOINB$0$0 == 0x5180
                           005180  2641 _AX5043_PLLVCOINB	=	0x5180
                           005181  2642 G$AX5043_PLLVCOIRNB$0$0 == 0x5181
                           005181  2643 _AX5043_PLLVCOIRNB	=	0x5181
                           005F08  2644 G$AX5043_POWCTRL1NB$0$0 == 0x5f08
                           005F08  2645 _AX5043_POWCTRL1NB	=	0x5f08
                           005005  2646 G$AX5043_POWIRQMASKNB$0$0 == 0x5005
                           005005  2647 _AX5043_POWIRQMASKNB	=	0x5005
                           005003  2648 G$AX5043_POWSTATNB$0$0 == 0x5003
                           005003  2649 _AX5043_POWSTATNB	=	0x5003
                           005004  2650 G$AX5043_POWSTICKYSTATNB$0$0 == 0x5004
                           005004  2651 _AX5043_POWSTICKYSTATNB	=	0x5004
                           005027  2652 G$AX5043_PWRAMPNB$0$0 == 0x5027
                           005027  2653 _AX5043_PWRAMPNB	=	0x5027
                           005002  2654 G$AX5043_PWRMODENB$0$0 == 0x5002
                           005002  2655 _AX5043_PWRMODENB	=	0x5002
                           005009  2656 G$AX5043_RADIOEVENTMASK0NB$0$0 == 0x5009
                           005009  2657 _AX5043_RADIOEVENTMASK0NB	=	0x5009
                           005008  2658 G$AX5043_RADIOEVENTMASK1NB$0$0 == 0x5008
                           005008  2659 _AX5043_RADIOEVENTMASK1NB	=	0x5008
                           00500F  2660 G$AX5043_RADIOEVENTREQ0NB$0$0 == 0x500f
                           00500F  2661 _AX5043_RADIOEVENTREQ0NB	=	0x500f
                           00500E  2662 G$AX5043_RADIOEVENTREQ1NB$0$0 == 0x500e
                           00500E  2663 _AX5043_RADIOEVENTREQ1NB	=	0x500e
                           00501C  2664 G$AX5043_RADIOSTATENB$0$0 == 0x501c
                           00501C  2665 _AX5043_RADIOSTATENB	=	0x501c
                           005F0D  2666 G$AX5043_REFNB$0$0 == 0x5f0d
                           005F0D  2667 _AX5043_REFNB	=	0x5f0d
                           005040  2668 G$AX5043_RSSINB$0$0 == 0x5040
                           005040  2669 _AX5043_RSSINB	=	0x5040
                           00522D  2670 G$AX5043_RSSIABSTHRNB$0$0 == 0x522d
                           00522D  2671 _AX5043_RSSIABSTHRNB	=	0x522d
                           00522C  2672 G$AX5043_RSSIREFERENCENB$0$0 == 0x522c
                           00522C  2673 _AX5043_RSSIREFERENCENB	=	0x522c
                           005105  2674 G$AX5043_RXDATARATE0NB$0$0 == 0x5105
                           005105  2675 _AX5043_RXDATARATE0NB	=	0x5105
                           005104  2676 G$AX5043_RXDATARATE1NB$0$0 == 0x5104
                           005104  2677 _AX5043_RXDATARATE1NB	=	0x5104
                           005103  2678 G$AX5043_RXDATARATE2NB$0$0 == 0x5103
                           005103  2679 _AX5043_RXDATARATE2NB	=	0x5103
                           005001  2680 G$AX5043_SCRATCHNB$0$0 == 0x5001
                           005001  2681 _AX5043_SCRATCHNB	=	0x5001
                           005000  2682 G$AX5043_SILICONREVISIONNB$0$0 == 0x5000
                           005000  2683 _AX5043_SILICONREVISIONNB	=	0x5000
                           00505B  2684 G$AX5043_TIMER0NB$0$0 == 0x505b
                           00505B  2685 _AX5043_TIMER0NB	=	0x505b
                           00505A  2686 G$AX5043_TIMER1NB$0$0 == 0x505a
                           00505A  2687 _AX5043_TIMER1NB	=	0x505a
                           005059  2688 G$AX5043_TIMER2NB$0$0 == 0x5059
                           005059  2689 _AX5043_TIMER2NB	=	0x5059
                           005227  2690 G$AX5043_TMGRXAGCNB$0$0 == 0x5227
                           005227  2691 _AX5043_TMGRXAGCNB	=	0x5227
                           005223  2692 G$AX5043_TMGRXBOOSTNB$0$0 == 0x5223
                           005223  2693 _AX5043_TMGRXBOOSTNB	=	0x5223
                           005226  2694 G$AX5043_TMGRXCOARSEAGCNB$0$0 == 0x5226
                           005226  2695 _AX5043_TMGRXCOARSEAGCNB	=	0x5226
                           005225  2696 G$AX5043_TMGRXOFFSACQNB$0$0 == 0x5225
                           005225  2697 _AX5043_TMGRXOFFSACQNB	=	0x5225
                           005229  2698 G$AX5043_TMGRXPREAMBLE1NB$0$0 == 0x5229
                           005229  2699 _AX5043_TMGRXPREAMBLE1NB	=	0x5229
                           00522A  2700 G$AX5043_TMGRXPREAMBLE2NB$0$0 == 0x522a
                           00522A  2701 _AX5043_TMGRXPREAMBLE2NB	=	0x522a
                           00522B  2702 G$AX5043_TMGRXPREAMBLE3NB$0$0 == 0x522b
                           00522B  2703 _AX5043_TMGRXPREAMBLE3NB	=	0x522b
                           005228  2704 G$AX5043_TMGRXRSSINB$0$0 == 0x5228
                           005228  2705 _AX5043_TMGRXRSSINB	=	0x5228
                           005224  2706 G$AX5043_TMGRXSETTLENB$0$0 == 0x5224
                           005224  2707 _AX5043_TMGRXSETTLENB	=	0x5224
                           005220  2708 G$AX5043_TMGTXBOOSTNB$0$0 == 0x5220
                           005220  2709 _AX5043_TMGTXBOOSTNB	=	0x5220
                           005221  2710 G$AX5043_TMGTXSETTLENB$0$0 == 0x5221
                           005221  2711 _AX5043_TMGTXSETTLENB	=	0x5221
                           005055  2712 G$AX5043_TRKAFSKDEMOD0NB$0$0 == 0x5055
                           005055  2713 _AX5043_TRKAFSKDEMOD0NB	=	0x5055
                           005054  2714 G$AX5043_TRKAFSKDEMOD1NB$0$0 == 0x5054
                           005054  2715 _AX5043_TRKAFSKDEMOD1NB	=	0x5054
                           005049  2716 G$AX5043_TRKAMPLITUDE0NB$0$0 == 0x5049
                           005049  2717 _AX5043_TRKAMPLITUDE0NB	=	0x5049
                           005048  2718 G$AX5043_TRKAMPLITUDE1NB$0$0 == 0x5048
                           005048  2719 _AX5043_TRKAMPLITUDE1NB	=	0x5048
                           005047  2720 G$AX5043_TRKDATARATE0NB$0$0 == 0x5047
                           005047  2721 _AX5043_TRKDATARATE0NB	=	0x5047
                           005046  2722 G$AX5043_TRKDATARATE1NB$0$0 == 0x5046
                           005046  2723 _AX5043_TRKDATARATE1NB	=	0x5046
                           005045  2724 G$AX5043_TRKDATARATE2NB$0$0 == 0x5045
                           005045  2725 _AX5043_TRKDATARATE2NB	=	0x5045
                           005051  2726 G$AX5043_TRKFREQ0NB$0$0 == 0x5051
                           005051  2727 _AX5043_TRKFREQ0NB	=	0x5051
                           005050  2728 G$AX5043_TRKFREQ1NB$0$0 == 0x5050
                           005050  2729 _AX5043_TRKFREQ1NB	=	0x5050
                           005053  2730 G$AX5043_TRKFSKDEMOD0NB$0$0 == 0x5053
                           005053  2731 _AX5043_TRKFSKDEMOD0NB	=	0x5053
                           005052  2732 G$AX5043_TRKFSKDEMOD1NB$0$0 == 0x5052
                           005052  2733 _AX5043_TRKFSKDEMOD1NB	=	0x5052
                           00504B  2734 G$AX5043_TRKPHASE0NB$0$0 == 0x504b
                           00504B  2735 _AX5043_TRKPHASE0NB	=	0x504b
                           00504A  2736 G$AX5043_TRKPHASE1NB$0$0 == 0x504a
                           00504A  2737 _AX5043_TRKPHASE1NB	=	0x504a
                           00504F  2738 G$AX5043_TRKRFFREQ0NB$0$0 == 0x504f
                           00504F  2739 _AX5043_TRKRFFREQ0NB	=	0x504f
                           00504E  2740 G$AX5043_TRKRFFREQ1NB$0$0 == 0x504e
                           00504E  2741 _AX5043_TRKRFFREQ1NB	=	0x504e
                           00504D  2742 G$AX5043_TRKRFFREQ2NB$0$0 == 0x504d
                           00504D  2743 _AX5043_TRKRFFREQ2NB	=	0x504d
                           005169  2744 G$AX5043_TXPWRCOEFFA0NB$0$0 == 0x5169
                           005169  2745 _AX5043_TXPWRCOEFFA0NB	=	0x5169
                           005168  2746 G$AX5043_TXPWRCOEFFA1NB$0$0 == 0x5168
                           005168  2747 _AX5043_TXPWRCOEFFA1NB	=	0x5168
                           00516B  2748 G$AX5043_TXPWRCOEFFB0NB$0$0 == 0x516b
                           00516B  2749 _AX5043_TXPWRCOEFFB0NB	=	0x516b
                           00516A  2750 G$AX5043_TXPWRCOEFFB1NB$0$0 == 0x516a
                           00516A  2751 _AX5043_TXPWRCOEFFB1NB	=	0x516a
                           00516D  2752 G$AX5043_TXPWRCOEFFC0NB$0$0 == 0x516d
                           00516D  2753 _AX5043_TXPWRCOEFFC0NB	=	0x516d
                           00516C  2754 G$AX5043_TXPWRCOEFFC1NB$0$0 == 0x516c
                           00516C  2755 _AX5043_TXPWRCOEFFC1NB	=	0x516c
                           00516F  2756 G$AX5043_TXPWRCOEFFD0NB$0$0 == 0x516f
                           00516F  2757 _AX5043_TXPWRCOEFFD0NB	=	0x516f
                           00516E  2758 G$AX5043_TXPWRCOEFFD1NB$0$0 == 0x516e
                           00516E  2759 _AX5043_TXPWRCOEFFD1NB	=	0x516e
                           005171  2760 G$AX5043_TXPWRCOEFFE0NB$0$0 == 0x5171
                           005171  2761 _AX5043_TXPWRCOEFFE0NB	=	0x5171
                           005170  2762 G$AX5043_TXPWRCOEFFE1NB$0$0 == 0x5170
                           005170  2763 _AX5043_TXPWRCOEFFE1NB	=	0x5170
                           005167  2764 G$AX5043_TXRATE0NB$0$0 == 0x5167
                           005167  2765 _AX5043_TXRATE0NB	=	0x5167
                           005166  2766 G$AX5043_TXRATE1NB$0$0 == 0x5166
                           005166  2767 _AX5043_TXRATE1NB	=	0x5166
                           005165  2768 G$AX5043_TXRATE2NB$0$0 == 0x5165
                           005165  2769 _AX5043_TXRATE2NB	=	0x5165
                           00506B  2770 G$AX5043_WAKEUP0NB$0$0 == 0x506b
                           00506B  2771 _AX5043_WAKEUP0NB	=	0x506b
                           00506A  2772 G$AX5043_WAKEUP1NB$0$0 == 0x506a
                           00506A  2773 _AX5043_WAKEUP1NB	=	0x506a
                           00506D  2774 G$AX5043_WAKEUPFREQ0NB$0$0 == 0x506d
                           00506D  2775 _AX5043_WAKEUPFREQ0NB	=	0x506d
                           00506C  2776 G$AX5043_WAKEUPFREQ1NB$0$0 == 0x506c
                           00506C  2777 _AX5043_WAKEUPFREQ1NB	=	0x506c
                           005069  2778 G$AX5043_WAKEUPTIMER0NB$0$0 == 0x5069
                           005069  2779 _AX5043_WAKEUPTIMER0NB	=	0x5069
                           005068  2780 G$AX5043_WAKEUPTIMER1NB$0$0 == 0x5068
                           005068  2781 _AX5043_WAKEUPTIMER1NB	=	0x5068
                           00506E  2782 G$AX5043_WAKEUPXOEARLYNB$0$0 == 0x506e
                           00506E  2783 _AX5043_WAKEUPXOEARLYNB	=	0x506e
                           005F11  2784 G$AX5043_XTALAMPLNB$0$0 == 0x5f11
                           005F11  2785 _AX5043_XTALAMPLNB	=	0x5f11
                           005184  2786 G$AX5043_XTALCAPNB$0$0 == 0x5184
                           005184  2787 _AX5043_XTALCAPNB	=	0x5184
                           005F10  2788 G$AX5043_XTALOSCNB$0$0 == 0x5f10
                           005F10  2789 _AX5043_XTALOSCNB	=	0x5f10
                           00501D  2790 G$AX5043_XTALSTATUSNB$0$0 == 0x501d
                           00501D  2791 _AX5043_XTALSTATUSNB	=	0x501d
                           005F00  2792 G$AX5043_0xF00NB$0$0 == 0x5f00
                           005F00  2793 _AX5043_0xF00NB	=	0x5f00
                           005F0C  2794 G$AX5043_0xF0CNB$0$0 == 0x5f0c
                           005F0C  2795 _AX5043_0xF0CNB	=	0x5f0c
                           005F18  2796 G$AX5043_0xF18NB$0$0 == 0x5f18
                           005F18  2797 _AX5043_0xF18NB	=	0x5f18
                           005F1C  2798 G$AX5043_0xF1CNB$0$0 == 0x5f1c
                           005F1C  2799 _AX5043_0xF1CNB	=	0x5f1c
                           005F21  2800 G$AX5043_0xF21NB$0$0 == 0x5f21
                           005F21  2801 _AX5043_0xF21NB	=	0x5f21
                           005F22  2802 G$AX5043_0xF22NB$0$0 == 0x5f22
                           005F22  2803 _AX5043_0xF22NB	=	0x5f22
                           005F23  2804 G$AX5043_0xF23NB$0$0 == 0x5f23
                           005F23  2805 _AX5043_0xF23NB	=	0x5f23
                           005F26  2806 G$AX5043_0xF26NB$0$0 == 0x5f26
                           005F26  2807 _AX5043_0xF26NB	=	0x5f26
                           005F30  2808 G$AX5043_0xF30NB$0$0 == 0x5f30
                           005F30  2809 _AX5043_0xF30NB	=	0x5f30
                           005F31  2810 G$AX5043_0xF31NB$0$0 == 0x5f31
                           005F31  2811 _AX5043_0xF31NB	=	0x5f31
                           005F32  2812 G$AX5043_0xF32NB$0$0 == 0x5f32
                           005F32  2813 _AX5043_0xF32NB	=	0x5f32
                           005F33  2814 G$AX5043_0xF33NB$0$0 == 0x5f33
                           005F33  2815 _AX5043_0xF33NB	=	0x5f33
                           005F34  2816 G$AX5043_0xF34NB$0$0 == 0x5f34
                           005F34  2817 _AX5043_0xF34NB	=	0x5f34
                           005F35  2818 G$AX5043_0xF35NB$0$0 == 0x5f35
                           005F35  2819 _AX5043_0xF35NB	=	0x5f35
                           005F44  2820 G$AX5043_0xF44NB$0$0 == 0x5f44
                           005F44  2821 _AX5043_0xF44NB	=	0x5f44
                           005122  2822 G$AX5043_AGCAHYST0NB$0$0 == 0x5122
                           005122  2823 _AX5043_AGCAHYST0NB	=	0x5122
                           005132  2824 G$AX5043_AGCAHYST1NB$0$0 == 0x5132
                           005132  2825 _AX5043_AGCAHYST1NB	=	0x5132
                           005142  2826 G$AX5043_AGCAHYST2NB$0$0 == 0x5142
                           005142  2827 _AX5043_AGCAHYST2NB	=	0x5142
                           005152  2828 G$AX5043_AGCAHYST3NB$0$0 == 0x5152
                           005152  2829 _AX5043_AGCAHYST3NB	=	0x5152
                           005120  2830 G$AX5043_AGCGAIN0NB$0$0 == 0x5120
                           005120  2831 _AX5043_AGCGAIN0NB	=	0x5120
                           005130  2832 G$AX5043_AGCGAIN1NB$0$0 == 0x5130
                           005130  2833 _AX5043_AGCGAIN1NB	=	0x5130
                           005140  2834 G$AX5043_AGCGAIN2NB$0$0 == 0x5140
                           005140  2835 _AX5043_AGCGAIN2NB	=	0x5140
                           005150  2836 G$AX5043_AGCGAIN3NB$0$0 == 0x5150
                           005150  2837 _AX5043_AGCGAIN3NB	=	0x5150
                           005123  2838 G$AX5043_AGCMINMAX0NB$0$0 == 0x5123
                           005123  2839 _AX5043_AGCMINMAX0NB	=	0x5123
                           005133  2840 G$AX5043_AGCMINMAX1NB$0$0 == 0x5133
                           005133  2841 _AX5043_AGCMINMAX1NB	=	0x5133
                           005143  2842 G$AX5043_AGCMINMAX2NB$0$0 == 0x5143
                           005143  2843 _AX5043_AGCMINMAX2NB	=	0x5143
                           005153  2844 G$AX5043_AGCMINMAX3NB$0$0 == 0x5153
                           005153  2845 _AX5043_AGCMINMAX3NB	=	0x5153
                           005121  2846 G$AX5043_AGCTARGET0NB$0$0 == 0x5121
                           005121  2847 _AX5043_AGCTARGET0NB	=	0x5121
                           005131  2848 G$AX5043_AGCTARGET1NB$0$0 == 0x5131
                           005131  2849 _AX5043_AGCTARGET1NB	=	0x5131
                           005141  2850 G$AX5043_AGCTARGET2NB$0$0 == 0x5141
                           005141  2851 _AX5043_AGCTARGET2NB	=	0x5141
                           005151  2852 G$AX5043_AGCTARGET3NB$0$0 == 0x5151
                           005151  2853 _AX5043_AGCTARGET3NB	=	0x5151
                           00512B  2854 G$AX5043_AMPLITUDEGAIN0NB$0$0 == 0x512b
                           00512B  2855 _AX5043_AMPLITUDEGAIN0NB	=	0x512b
                           00513B  2856 G$AX5043_AMPLITUDEGAIN1NB$0$0 == 0x513b
                           00513B  2857 _AX5043_AMPLITUDEGAIN1NB	=	0x513b
                           00514B  2858 G$AX5043_AMPLITUDEGAIN2NB$0$0 == 0x514b
                           00514B  2859 _AX5043_AMPLITUDEGAIN2NB	=	0x514b
                           00515B  2860 G$AX5043_AMPLITUDEGAIN3NB$0$0 == 0x515b
                           00515B  2861 _AX5043_AMPLITUDEGAIN3NB	=	0x515b
                           00512F  2862 G$AX5043_BBOFFSRES0NB$0$0 == 0x512f
                           00512F  2863 _AX5043_BBOFFSRES0NB	=	0x512f
                           00513F  2864 G$AX5043_BBOFFSRES1NB$0$0 == 0x513f
                           00513F  2865 _AX5043_BBOFFSRES1NB	=	0x513f
                           00514F  2866 G$AX5043_BBOFFSRES2NB$0$0 == 0x514f
                           00514F  2867 _AX5043_BBOFFSRES2NB	=	0x514f
                           00515F  2868 G$AX5043_BBOFFSRES3NB$0$0 == 0x515f
                           00515F  2869 _AX5043_BBOFFSRES3NB	=	0x515f
                           005125  2870 G$AX5043_DRGAIN0NB$0$0 == 0x5125
                           005125  2871 _AX5043_DRGAIN0NB	=	0x5125
                           005135  2872 G$AX5043_DRGAIN1NB$0$0 == 0x5135
                           005135  2873 _AX5043_DRGAIN1NB	=	0x5135
                           005145  2874 G$AX5043_DRGAIN2NB$0$0 == 0x5145
                           005145  2875 _AX5043_DRGAIN2NB	=	0x5145
                           005155  2876 G$AX5043_DRGAIN3NB$0$0 == 0x5155
                           005155  2877 _AX5043_DRGAIN3NB	=	0x5155
                           00512E  2878 G$AX5043_FOURFSK0NB$0$0 == 0x512e
                           00512E  2879 _AX5043_FOURFSK0NB	=	0x512e
                           00513E  2880 G$AX5043_FOURFSK1NB$0$0 == 0x513e
                           00513E  2881 _AX5043_FOURFSK1NB	=	0x513e
                           00514E  2882 G$AX5043_FOURFSK2NB$0$0 == 0x514e
                           00514E  2883 _AX5043_FOURFSK2NB	=	0x514e
                           00515E  2884 G$AX5043_FOURFSK3NB$0$0 == 0x515e
                           00515E  2885 _AX5043_FOURFSK3NB	=	0x515e
                           00512D  2886 G$AX5043_FREQDEV00NB$0$0 == 0x512d
                           00512D  2887 _AX5043_FREQDEV00NB	=	0x512d
                           00513D  2888 G$AX5043_FREQDEV01NB$0$0 == 0x513d
                           00513D  2889 _AX5043_FREQDEV01NB	=	0x513d
                           00514D  2890 G$AX5043_FREQDEV02NB$0$0 == 0x514d
                           00514D  2891 _AX5043_FREQDEV02NB	=	0x514d
                           00515D  2892 G$AX5043_FREQDEV03NB$0$0 == 0x515d
                           00515D  2893 _AX5043_FREQDEV03NB	=	0x515d
                           00512C  2894 G$AX5043_FREQDEV10NB$0$0 == 0x512c
                           00512C  2895 _AX5043_FREQDEV10NB	=	0x512c
                           00513C  2896 G$AX5043_FREQDEV11NB$0$0 == 0x513c
                           00513C  2897 _AX5043_FREQDEV11NB	=	0x513c
                           00514C  2898 G$AX5043_FREQDEV12NB$0$0 == 0x514c
                           00514C  2899 _AX5043_FREQDEV12NB	=	0x514c
                           00515C  2900 G$AX5043_FREQDEV13NB$0$0 == 0x515c
                           00515C  2901 _AX5043_FREQDEV13NB	=	0x515c
                           005127  2902 G$AX5043_FREQUENCYGAINA0NB$0$0 == 0x5127
                           005127  2903 _AX5043_FREQUENCYGAINA0NB	=	0x5127
                           005137  2904 G$AX5043_FREQUENCYGAINA1NB$0$0 == 0x5137
                           005137  2905 _AX5043_FREQUENCYGAINA1NB	=	0x5137
                           005147  2906 G$AX5043_FREQUENCYGAINA2NB$0$0 == 0x5147
                           005147  2907 _AX5043_FREQUENCYGAINA2NB	=	0x5147
                           005157  2908 G$AX5043_FREQUENCYGAINA3NB$0$0 == 0x5157
                           005157  2909 _AX5043_FREQUENCYGAINA3NB	=	0x5157
                           005128  2910 G$AX5043_FREQUENCYGAINB0NB$0$0 == 0x5128
                           005128  2911 _AX5043_FREQUENCYGAINB0NB	=	0x5128
                           005138  2912 G$AX5043_FREQUENCYGAINB1NB$0$0 == 0x5138
                           005138  2913 _AX5043_FREQUENCYGAINB1NB	=	0x5138
                           005148  2914 G$AX5043_FREQUENCYGAINB2NB$0$0 == 0x5148
                           005148  2915 _AX5043_FREQUENCYGAINB2NB	=	0x5148
                           005158  2916 G$AX5043_FREQUENCYGAINB3NB$0$0 == 0x5158
                           005158  2917 _AX5043_FREQUENCYGAINB3NB	=	0x5158
                           005129  2918 G$AX5043_FREQUENCYGAINC0NB$0$0 == 0x5129
                           005129  2919 _AX5043_FREQUENCYGAINC0NB	=	0x5129
                           005139  2920 G$AX5043_FREQUENCYGAINC1NB$0$0 == 0x5139
                           005139  2921 _AX5043_FREQUENCYGAINC1NB	=	0x5139
                           005149  2922 G$AX5043_FREQUENCYGAINC2NB$0$0 == 0x5149
                           005149  2923 _AX5043_FREQUENCYGAINC2NB	=	0x5149
                           005159  2924 G$AX5043_FREQUENCYGAINC3NB$0$0 == 0x5159
                           005159  2925 _AX5043_FREQUENCYGAINC3NB	=	0x5159
                           00512A  2926 G$AX5043_FREQUENCYGAIND0NB$0$0 == 0x512a
                           00512A  2927 _AX5043_FREQUENCYGAIND0NB	=	0x512a
                           00513A  2928 G$AX5043_FREQUENCYGAIND1NB$0$0 == 0x513a
                           00513A  2929 _AX5043_FREQUENCYGAIND1NB	=	0x513a
                           00514A  2930 G$AX5043_FREQUENCYGAIND2NB$0$0 == 0x514a
                           00514A  2931 _AX5043_FREQUENCYGAIND2NB	=	0x514a
                           00515A  2932 G$AX5043_FREQUENCYGAIND3NB$0$0 == 0x515a
                           00515A  2933 _AX5043_FREQUENCYGAIND3NB	=	0x515a
                           005116  2934 G$AX5043_FREQUENCYLEAKNB$0$0 == 0x5116
                           005116  2935 _AX5043_FREQUENCYLEAKNB	=	0x5116
                           005126  2936 G$AX5043_PHASEGAIN0NB$0$0 == 0x5126
                           005126  2937 _AX5043_PHASEGAIN0NB	=	0x5126
                           005136  2938 G$AX5043_PHASEGAIN1NB$0$0 == 0x5136
                           005136  2939 _AX5043_PHASEGAIN1NB	=	0x5136
                           005146  2940 G$AX5043_PHASEGAIN2NB$0$0 == 0x5146
                           005146  2941 _AX5043_PHASEGAIN2NB	=	0x5146
                           005156  2942 G$AX5043_PHASEGAIN3NB$0$0 == 0x5156
                           005156  2943 _AX5043_PHASEGAIN3NB	=	0x5156
                           005207  2944 G$AX5043_PKTADDR0NB$0$0 == 0x5207
                           005207  2945 _AX5043_PKTADDR0NB	=	0x5207
                           005206  2946 G$AX5043_PKTADDR1NB$0$0 == 0x5206
                           005206  2947 _AX5043_PKTADDR1NB	=	0x5206
                           005205  2948 G$AX5043_PKTADDR2NB$0$0 == 0x5205
                           005205  2949 _AX5043_PKTADDR2NB	=	0x5205
                           005204  2950 G$AX5043_PKTADDR3NB$0$0 == 0x5204
                           005204  2951 _AX5043_PKTADDR3NB	=	0x5204
                           005200  2952 G$AX5043_PKTADDRCFGNB$0$0 == 0x5200
                           005200  2953 _AX5043_PKTADDRCFGNB	=	0x5200
                           00520B  2954 G$AX5043_PKTADDRMASK0NB$0$0 == 0x520b
                           00520B  2955 _AX5043_PKTADDRMASK0NB	=	0x520b
                           00520A  2956 G$AX5043_PKTADDRMASK1NB$0$0 == 0x520a
                           00520A  2957 _AX5043_PKTADDRMASK1NB	=	0x520a
                           005209  2958 G$AX5043_PKTADDRMASK2NB$0$0 == 0x5209
                           005209  2959 _AX5043_PKTADDRMASK2NB	=	0x5209
                           005208  2960 G$AX5043_PKTADDRMASK3NB$0$0 == 0x5208
                           005208  2961 _AX5043_PKTADDRMASK3NB	=	0x5208
                           005201  2962 G$AX5043_PKTLENCFGNB$0$0 == 0x5201
                           005201  2963 _AX5043_PKTLENCFGNB	=	0x5201
                           005202  2964 G$AX5043_PKTLENOFFSETNB$0$0 == 0x5202
                           005202  2965 _AX5043_PKTLENOFFSETNB	=	0x5202
                           005203  2966 G$AX5043_PKTMAXLENNB$0$0 == 0x5203
                           005203  2967 _AX5043_PKTMAXLENNB	=	0x5203
                           005118  2968 G$AX5043_RXPARAMCURSETNB$0$0 == 0x5118
                           005118  2969 _AX5043_RXPARAMCURSETNB	=	0x5118
                           005117  2970 G$AX5043_RXPARAMSETSNB$0$0 == 0x5117
                           005117  2971 _AX5043_RXPARAMSETSNB	=	0x5117
                           005124  2972 G$AX5043_TIMEGAIN0NB$0$0 == 0x5124
                           005124  2973 _AX5043_TIMEGAIN0NB	=	0x5124
                           005134  2974 G$AX5043_TIMEGAIN1NB$0$0 == 0x5134
                           005134  2975 _AX5043_TIMEGAIN1NB	=	0x5134
                           005144  2976 G$AX5043_TIMEGAIN2NB$0$0 == 0x5144
                           005144  2977 _AX5043_TIMEGAIN2NB	=	0x5144
                           005154  2978 G$AX5043_TIMEGAIN3NB$0$0 == 0x5154
                           005154  2979 _AX5043_TIMEGAIN3NB	=	0x5154
                           000000  2980 G$axradio_syncstate$0$0==.
      000006                       2981 _axradio_syncstate::
      000006                       2982 	.ds 1
                           000001  2983 G$axradio_txbuffer_len$0$0==.
      000007                       2984 _axradio_txbuffer_len::
      000007                       2985 	.ds 2
                           000003  2986 G$axradio_txbuffer_cnt$0$0==.
      000009                       2987 _axradio_txbuffer_cnt::
      000009                       2988 	.ds 2
                           000005  2989 G$axradio_curchannel$0$0==.
      00000B                       2990 _axradio_curchannel::
      00000B                       2991 	.ds 1
                           000006  2992 G$axradio_curfreqoffset$0$0==.
      00000C                       2993 _axradio_curfreqoffset::
      00000C                       2994 	.ds 4
                           00000A  2995 G$axradio_ack_count$0$0==.
      000010                       2996 _axradio_ack_count::
      000010                       2997 	.ds 1
                           00000B  2998 G$axradio_ack_seqnr$0$0==.
      000011                       2999 _axradio_ack_seqnr::
      000011                       3000 	.ds 1
                           00000C  3001 G$axradio_sync_time$0$0==.
      000012                       3002 _axradio_sync_time::
      000012                       3003 	.ds 4
                           000010  3004 G$axradio_sync_periodcorr$0$0==.
      000016                       3005 _axradio_sync_periodcorr::
      000016                       3006 	.ds 2
                           000012  3007 G$axradio_timeanchor$0$0==.
      000018                       3008 _axradio_timeanchor::
