                                      1 ;--------------------------------------------------------
                                      2 ; File Created by SDCC : free open source ANSI-C Compiler
                                      3 ; Version 3.6.0 #9615 (MINGW64)
                                      4 ;--------------------------------------------------------
                                      5 	.module main
                                      6 	.optsdcc -mmcs51 --model-small
                                      7 	
                                      8 ;--------------------------------------------------------
                                      9 ; Public variables in this module
                                     10 ;--------------------------------------------------------
                                     11 	.globl _main
                                     12 	.globl __sdcc_external_startup
                                     13 	.globl _UBLOX_payload_POSLLH
                                     14 	.globl _transmit_prem_wtimer
                                     15 	.globl _packetPremFraming
                                     16 	.globl _transmit_copies_wtimer
                                     17 	.globl _packetStdFraming
                                     18 	.globl _UBLOX_GPS_PortInit
                                     19 	.globl _GOLDSEQUENCE_Init
                                     20 	.globl _dbglink_display_radio_error
                                     21 	.globl _com0_display_radio_error
                                     22 	.globl _dbglink_received_packet
                                     23 	.globl _com0_writestr
                                     24 	.globl _com0_setpos
                                     25 	.globl _com0_init
                                     26 	.globl _uart0_init
                                     27 	.globl _uart0_txidle
                                     28 	.globl _uart_timer1_baud
                                     29 	.globl _dbglink_writehex32
                                     30 	.globl _dbglink_writehex16
                                     31 	.globl _dbglink_writenum16
                                     32 	.globl _dbglink_writestr
                                     33 	.globl _dbglink_tx
                                     34 	.globl _dbglink_init
                                     35 	.globl _dbglink_txidle
                                     36 	.globl _wtimer0_curtime
                                     37 	.globl _wtimer_runcallbacks
                                     38 	.globl _wtimer_idle
                                     39 	.globl _wtimer_init
                                     40 	.globl _wtimer1_setconfig
                                     41 	.globl _wtimer0_setconfig
                                     42 	.globl _flash_apply_calibration
                                     43 	.globl _axradio_commsleepexit
                                     44 	.globl _axradio_setup_pincfg2
                                     45 	.globl _axradio_setup_pincfg1
                                     46 	.globl _axradio_conv_freq_tohz
                                     47 	.globl _axradio_get_freqoffset
                                     48 	.globl _axradio_set_freqoffset
                                     49 	.globl _axradio_set_default_remote_address
                                     50 	.globl _axradio_set_local_address
                                     51 	.globl _axradio_get_pllvcoi
                                     52 	.globl _axradio_get_pllrange
                                     53 	.globl _axradio_set_mode
                                     54 	.globl _axradio_cansleep
                                     55 	.globl _axradio_init
                                     56 	.globl _PORTC_7
                                     57 	.globl _PORTC_6
                                     58 	.globl _PORTC_5
                                     59 	.globl _PORTC_4
                                     60 	.globl _PORTC_3
                                     61 	.globl _PORTC_2
                                     62 	.globl _PORTC_1
                                     63 	.globl _PORTC_0
                                     64 	.globl _PORTB_7
                                     65 	.globl _PORTB_6
                                     66 	.globl _PORTB_5
                                     67 	.globl _PORTB_4
                                     68 	.globl _PORTB_3
                                     69 	.globl _PORTB_2
                                     70 	.globl _PORTB_1
                                     71 	.globl _PORTB_0
                                     72 	.globl _PORTA_7
                                     73 	.globl _PORTA_6
                                     74 	.globl _PORTA_5
                                     75 	.globl _PORTA_4
                                     76 	.globl _PORTA_3
                                     77 	.globl _PORTA_2
                                     78 	.globl _PORTA_1
                                     79 	.globl _PORTA_0
                                     80 	.globl _PINC_7
                                     81 	.globl _PINC_6
                                     82 	.globl _PINC_5
                                     83 	.globl _PINC_4
                                     84 	.globl _PINC_3
                                     85 	.globl _PINC_2
                                     86 	.globl _PINC_1
                                     87 	.globl _PINC_0
                                     88 	.globl _PINB_7
                                     89 	.globl _PINB_6
                                     90 	.globl _PINB_5
                                     91 	.globl _PINB_4
                                     92 	.globl _PINB_3
                                     93 	.globl _PINB_2
                                     94 	.globl _PINB_1
                                     95 	.globl _PINB_0
                                     96 	.globl _PINA_7
                                     97 	.globl _PINA_6
                                     98 	.globl _PINA_5
                                     99 	.globl _PINA_4
                                    100 	.globl _PINA_3
                                    101 	.globl _PINA_2
                                    102 	.globl _PINA_1
                                    103 	.globl _PINA_0
                                    104 	.globl _CY
                                    105 	.globl _AC
                                    106 	.globl _F0
                                    107 	.globl _RS1
                                    108 	.globl _RS0
                                    109 	.globl _OV
                                    110 	.globl _F1
                                    111 	.globl _P
                                    112 	.globl _IP_7
                                    113 	.globl _IP_6
                                    114 	.globl _IP_5
                                    115 	.globl _IP_4
                                    116 	.globl _IP_3
                                    117 	.globl _IP_2
                                    118 	.globl _IP_1
                                    119 	.globl _IP_0
                                    120 	.globl _EA
                                    121 	.globl _IE_7
                                    122 	.globl _IE_6
                                    123 	.globl _IE_5
                                    124 	.globl _IE_4
                                    125 	.globl _IE_3
                                    126 	.globl _IE_2
                                    127 	.globl _IE_1
                                    128 	.globl _IE_0
                                    129 	.globl _EIP_7
                                    130 	.globl _EIP_6
                                    131 	.globl _EIP_5
                                    132 	.globl _EIP_4
                                    133 	.globl _EIP_3
                                    134 	.globl _EIP_2
                                    135 	.globl _EIP_1
                                    136 	.globl _EIP_0
                                    137 	.globl _EIE_7
                                    138 	.globl _EIE_6
                                    139 	.globl _EIE_5
                                    140 	.globl _EIE_4
                                    141 	.globl _EIE_3
                                    142 	.globl _EIE_2
                                    143 	.globl _EIE_1
                                    144 	.globl _EIE_0
                                    145 	.globl _E2IP_7
                                    146 	.globl _E2IP_6
                                    147 	.globl _E2IP_5
                                    148 	.globl _E2IP_4
                                    149 	.globl _E2IP_3
                                    150 	.globl _E2IP_2
                                    151 	.globl _E2IP_1
                                    152 	.globl _E2IP_0
                                    153 	.globl _E2IE_7
                                    154 	.globl _E2IE_6
                                    155 	.globl _E2IE_5
                                    156 	.globl _E2IE_4
                                    157 	.globl _E2IE_3
                                    158 	.globl _E2IE_2
                                    159 	.globl _E2IE_1
                                    160 	.globl _E2IE_0
                                    161 	.globl _B_7
                                    162 	.globl _B_6
                                    163 	.globl _B_5
                                    164 	.globl _B_4
                                    165 	.globl _B_3
                                    166 	.globl _B_2
                                    167 	.globl _B_1
                                    168 	.globl _B_0
                                    169 	.globl _ACC_7
                                    170 	.globl _ACC_6
                                    171 	.globl _ACC_5
                                    172 	.globl _ACC_4
                                    173 	.globl _ACC_3
                                    174 	.globl _ACC_2
                                    175 	.globl _ACC_1
                                    176 	.globl _ACC_0
                                    177 	.globl _WTSTAT
                                    178 	.globl _WTIRQEN
                                    179 	.globl _WTEVTD
                                    180 	.globl _WTEVTD1
                                    181 	.globl _WTEVTD0
                                    182 	.globl _WTEVTC
                                    183 	.globl _WTEVTC1
                                    184 	.globl _WTEVTC0
                                    185 	.globl _WTEVTB
                                    186 	.globl _WTEVTB1
                                    187 	.globl _WTEVTB0
                                    188 	.globl _WTEVTA
                                    189 	.globl _WTEVTA1
                                    190 	.globl _WTEVTA0
                                    191 	.globl _WTCNTR1
                                    192 	.globl _WTCNTB
                                    193 	.globl _WTCNTB1
                                    194 	.globl _WTCNTB0
                                    195 	.globl _WTCNTA
                                    196 	.globl _WTCNTA1
                                    197 	.globl _WTCNTA0
                                    198 	.globl _WTCFGB
                                    199 	.globl _WTCFGA
                                    200 	.globl _WDTRESET
                                    201 	.globl _WDTCFG
                                    202 	.globl _U1STATUS
                                    203 	.globl _U1SHREG
                                    204 	.globl _U1MODE
                                    205 	.globl _U1CTRL
                                    206 	.globl _U0STATUS
                                    207 	.globl _U0SHREG
                                    208 	.globl _U0MODE
                                    209 	.globl _U0CTRL
                                    210 	.globl _T2STATUS
                                    211 	.globl _T2PERIOD
                                    212 	.globl _T2PERIOD1
                                    213 	.globl _T2PERIOD0
                                    214 	.globl _T2MODE
                                    215 	.globl _T2CNT
                                    216 	.globl _T2CNT1
                                    217 	.globl _T2CNT0
                                    218 	.globl _T2CLKSRC
                                    219 	.globl _T1STATUS
                                    220 	.globl _T1PERIOD
                                    221 	.globl _T1PERIOD1
                                    222 	.globl _T1PERIOD0
                                    223 	.globl _T1MODE
                                    224 	.globl _T1CNT
                                    225 	.globl _T1CNT1
                                    226 	.globl _T1CNT0
                                    227 	.globl _T1CLKSRC
                                    228 	.globl _T0STATUS
                                    229 	.globl _T0PERIOD
                                    230 	.globl _T0PERIOD1
                                    231 	.globl _T0PERIOD0
                                    232 	.globl _T0MODE
                                    233 	.globl _T0CNT
                                    234 	.globl _T0CNT1
                                    235 	.globl _T0CNT0
                                    236 	.globl _T0CLKSRC
                                    237 	.globl _SPSTATUS
                                    238 	.globl _SPSHREG
                                    239 	.globl _SPMODE
                                    240 	.globl _SPCLKSRC
                                    241 	.globl _RADIOSTAT
                                    242 	.globl _RADIOSTAT1
                                    243 	.globl _RADIOSTAT0
                                    244 	.globl _RADIODATA
                                    245 	.globl _RADIODATA3
                                    246 	.globl _RADIODATA2
                                    247 	.globl _RADIODATA1
                                    248 	.globl _RADIODATA0
                                    249 	.globl _RADIOADDR
                                    250 	.globl _RADIOADDR1
                                    251 	.globl _RADIOADDR0
                                    252 	.globl _RADIOACC
                                    253 	.globl _OC1STATUS
                                    254 	.globl _OC1PIN
                                    255 	.globl _OC1MODE
                                    256 	.globl _OC1COMP
                                    257 	.globl _OC1COMP1
                                    258 	.globl _OC1COMP0
                                    259 	.globl _OC0STATUS
                                    260 	.globl _OC0PIN
                                    261 	.globl _OC0MODE
                                    262 	.globl _OC0COMP
                                    263 	.globl _OC0COMP1
                                    264 	.globl _OC0COMP0
                                    265 	.globl _NVSTATUS
                                    266 	.globl _NVKEY
                                    267 	.globl _NVDATA
                                    268 	.globl _NVDATA1
                                    269 	.globl _NVDATA0
                                    270 	.globl _NVADDR
                                    271 	.globl _NVADDR1
                                    272 	.globl _NVADDR0
                                    273 	.globl _IC1STATUS
                                    274 	.globl _IC1MODE
                                    275 	.globl _IC1CAPT
                                    276 	.globl _IC1CAPT1
                                    277 	.globl _IC1CAPT0
                                    278 	.globl _IC0STATUS
                                    279 	.globl _IC0MODE
                                    280 	.globl _IC0CAPT
                                    281 	.globl _IC0CAPT1
                                    282 	.globl _IC0CAPT0
                                    283 	.globl _PORTR
                                    284 	.globl _PORTC
                                    285 	.globl _PORTB
                                    286 	.globl _PORTA
                                    287 	.globl _PINR
                                    288 	.globl _PINC
                                    289 	.globl _PINB
                                    290 	.globl _PINA
                                    291 	.globl _DIRR
                                    292 	.globl _DIRC
                                    293 	.globl _DIRB
                                    294 	.globl _DIRA
                                    295 	.globl _DBGLNKSTAT
                                    296 	.globl _DBGLNKBUF
                                    297 	.globl _CODECONFIG
                                    298 	.globl _CLKSTAT
                                    299 	.globl _CLKCON
                                    300 	.globl _ANALOGCOMP
                                    301 	.globl _ADCCONV
                                    302 	.globl _ADCCLKSRC
                                    303 	.globl _ADCCH3CONFIG
                                    304 	.globl _ADCCH2CONFIG
                                    305 	.globl _ADCCH1CONFIG
                                    306 	.globl _ADCCH0CONFIG
                                    307 	.globl __XPAGE
                                    308 	.globl _XPAGE
                                    309 	.globl _SP
                                    310 	.globl _PSW
                                    311 	.globl _PCON
                                    312 	.globl _IP
                                    313 	.globl _IE
                                    314 	.globl _EIP
                                    315 	.globl _EIE
                                    316 	.globl _E2IP
                                    317 	.globl _E2IE
                                    318 	.globl _DPS
                                    319 	.globl _DPTR1
                                    320 	.globl _DPTR0
                                    321 	.globl _DPL1
                                    322 	.globl _DPL
                                    323 	.globl _DPH1
                                    324 	.globl _DPH
                                    325 	.globl _B
                                    326 	.globl _ACC
                                    327 	.globl _wt0_tx3
                                    328 	.globl _wt0_beacon
                                    329 	.globl _premSlot_counter
                                    330 	.globl _txdone
                                    331 	.globl _ack_flg
                                    332 	.globl _pkt_counter
                                    333 	.globl _pkts_missing
                                    334 	.globl _pkts_received
                                    335 	.globl _StdPrem
                                    336 	.globl _trmID
                                    337 	.globl _payload_len
                                    338 	.globl _payload
                                    339 	.globl _AX5043_TIMEGAIN3NB
                                    340 	.globl _AX5043_TIMEGAIN2NB
                                    341 	.globl _AX5043_TIMEGAIN1NB
                                    342 	.globl _AX5043_TIMEGAIN0NB
                                    343 	.globl _AX5043_RXPARAMSETSNB
                                    344 	.globl _AX5043_RXPARAMCURSETNB
                                    345 	.globl _AX5043_PKTMAXLENNB
                                    346 	.globl _AX5043_PKTLENOFFSETNB
                                    347 	.globl _AX5043_PKTLENCFGNB
                                    348 	.globl _AX5043_PKTADDRMASK3NB
                                    349 	.globl _AX5043_PKTADDRMASK2NB
                                    350 	.globl _AX5043_PKTADDRMASK1NB
                                    351 	.globl _AX5043_PKTADDRMASK0NB
                                    352 	.globl _AX5043_PKTADDRCFGNB
                                    353 	.globl _AX5043_PKTADDR3NB
                                    354 	.globl _AX5043_PKTADDR2NB
                                    355 	.globl _AX5043_PKTADDR1NB
                                    356 	.globl _AX5043_PKTADDR0NB
                                    357 	.globl _AX5043_PHASEGAIN3NB
                                    358 	.globl _AX5043_PHASEGAIN2NB
                                    359 	.globl _AX5043_PHASEGAIN1NB
                                    360 	.globl _AX5043_PHASEGAIN0NB
                                    361 	.globl _AX5043_FREQUENCYLEAKNB
                                    362 	.globl _AX5043_FREQUENCYGAIND3NB
                                    363 	.globl _AX5043_FREQUENCYGAIND2NB
                                    364 	.globl _AX5043_FREQUENCYGAIND1NB
                                    365 	.globl _AX5043_FREQUENCYGAIND0NB
                                    366 	.globl _AX5043_FREQUENCYGAINC3NB
                                    367 	.globl _AX5043_FREQUENCYGAINC2NB
                                    368 	.globl _AX5043_FREQUENCYGAINC1NB
                                    369 	.globl _AX5043_FREQUENCYGAINC0NB
                                    370 	.globl _AX5043_FREQUENCYGAINB3NB
                                    371 	.globl _AX5043_FREQUENCYGAINB2NB
                                    372 	.globl _AX5043_FREQUENCYGAINB1NB
                                    373 	.globl _AX5043_FREQUENCYGAINB0NB
                                    374 	.globl _AX5043_FREQUENCYGAINA3NB
                                    375 	.globl _AX5043_FREQUENCYGAINA2NB
                                    376 	.globl _AX5043_FREQUENCYGAINA1NB
                                    377 	.globl _AX5043_FREQUENCYGAINA0NB
                                    378 	.globl _AX5043_FREQDEV13NB
                                    379 	.globl _AX5043_FREQDEV12NB
                                    380 	.globl _AX5043_FREQDEV11NB
                                    381 	.globl _AX5043_FREQDEV10NB
                                    382 	.globl _AX5043_FREQDEV03NB
                                    383 	.globl _AX5043_FREQDEV02NB
                                    384 	.globl _AX5043_FREQDEV01NB
                                    385 	.globl _AX5043_FREQDEV00NB
                                    386 	.globl _AX5043_FOURFSK3NB
                                    387 	.globl _AX5043_FOURFSK2NB
                                    388 	.globl _AX5043_FOURFSK1NB
                                    389 	.globl _AX5043_FOURFSK0NB
                                    390 	.globl _AX5043_DRGAIN3NB
                                    391 	.globl _AX5043_DRGAIN2NB
                                    392 	.globl _AX5043_DRGAIN1NB
                                    393 	.globl _AX5043_DRGAIN0NB
                                    394 	.globl _AX5043_BBOFFSRES3NB
                                    395 	.globl _AX5043_BBOFFSRES2NB
                                    396 	.globl _AX5043_BBOFFSRES1NB
                                    397 	.globl _AX5043_BBOFFSRES0NB
                                    398 	.globl _AX5043_AMPLITUDEGAIN3NB
                                    399 	.globl _AX5043_AMPLITUDEGAIN2NB
                                    400 	.globl _AX5043_AMPLITUDEGAIN1NB
                                    401 	.globl _AX5043_AMPLITUDEGAIN0NB
                                    402 	.globl _AX5043_AGCTARGET3NB
                                    403 	.globl _AX5043_AGCTARGET2NB
                                    404 	.globl _AX5043_AGCTARGET1NB
                                    405 	.globl _AX5043_AGCTARGET0NB
                                    406 	.globl _AX5043_AGCMINMAX3NB
                                    407 	.globl _AX5043_AGCMINMAX2NB
                                    408 	.globl _AX5043_AGCMINMAX1NB
                                    409 	.globl _AX5043_AGCMINMAX0NB
                                    410 	.globl _AX5043_AGCGAIN3NB
                                    411 	.globl _AX5043_AGCGAIN2NB
                                    412 	.globl _AX5043_AGCGAIN1NB
                                    413 	.globl _AX5043_AGCGAIN0NB
                                    414 	.globl _AX5043_AGCAHYST3NB
                                    415 	.globl _AX5043_AGCAHYST2NB
                                    416 	.globl _AX5043_AGCAHYST1NB
                                    417 	.globl _AX5043_AGCAHYST0NB
                                    418 	.globl _AX5043_0xF44NB
                                    419 	.globl _AX5043_0xF35NB
                                    420 	.globl _AX5043_0xF34NB
                                    421 	.globl _AX5043_0xF33NB
                                    422 	.globl _AX5043_0xF32NB
                                    423 	.globl _AX5043_0xF31NB
                                    424 	.globl _AX5043_0xF30NB
                                    425 	.globl _AX5043_0xF26NB
                                    426 	.globl _AX5043_0xF23NB
                                    427 	.globl _AX5043_0xF22NB
                                    428 	.globl _AX5043_0xF21NB
                                    429 	.globl _AX5043_0xF1CNB
                                    430 	.globl _AX5043_0xF18NB
                                    431 	.globl _AX5043_0xF0CNB
                                    432 	.globl _AX5043_0xF00NB
                                    433 	.globl _AX5043_XTALSTATUSNB
                                    434 	.globl _AX5043_XTALOSCNB
                                    435 	.globl _AX5043_XTALCAPNB
                                    436 	.globl _AX5043_XTALAMPLNB
                                    437 	.globl _AX5043_WAKEUPXOEARLYNB
                                    438 	.globl _AX5043_WAKEUPTIMER1NB
                                    439 	.globl _AX5043_WAKEUPTIMER0NB
                                    440 	.globl _AX5043_WAKEUPFREQ1NB
                                    441 	.globl _AX5043_WAKEUPFREQ0NB
                                    442 	.globl _AX5043_WAKEUP1NB
                                    443 	.globl _AX5043_WAKEUP0NB
                                    444 	.globl _AX5043_TXRATE2NB
                                    445 	.globl _AX5043_TXRATE1NB
                                    446 	.globl _AX5043_TXRATE0NB
                                    447 	.globl _AX5043_TXPWRCOEFFE1NB
                                    448 	.globl _AX5043_TXPWRCOEFFE0NB
                                    449 	.globl _AX5043_TXPWRCOEFFD1NB
                                    450 	.globl _AX5043_TXPWRCOEFFD0NB
                                    451 	.globl _AX5043_TXPWRCOEFFC1NB
                                    452 	.globl _AX5043_TXPWRCOEFFC0NB
                                    453 	.globl _AX5043_TXPWRCOEFFB1NB
                                    454 	.globl _AX5043_TXPWRCOEFFB0NB
                                    455 	.globl _AX5043_TXPWRCOEFFA1NB
                                    456 	.globl _AX5043_TXPWRCOEFFA0NB
                                    457 	.globl _AX5043_TRKRFFREQ2NB
                                    458 	.globl _AX5043_TRKRFFREQ1NB
                                    459 	.globl _AX5043_TRKRFFREQ0NB
                                    460 	.globl _AX5043_TRKPHASE1NB
                                    461 	.globl _AX5043_TRKPHASE0NB
                                    462 	.globl _AX5043_TRKFSKDEMOD1NB
                                    463 	.globl _AX5043_TRKFSKDEMOD0NB
                                    464 	.globl _AX5043_TRKFREQ1NB
                                    465 	.globl _AX5043_TRKFREQ0NB
                                    466 	.globl _AX5043_TRKDATARATE2NB
                                    467 	.globl _AX5043_TRKDATARATE1NB
                                    468 	.globl _AX5043_TRKDATARATE0NB
                                    469 	.globl _AX5043_TRKAMPLITUDE1NB
                                    470 	.globl _AX5043_TRKAMPLITUDE0NB
                                    471 	.globl _AX5043_TRKAFSKDEMOD1NB
                                    472 	.globl _AX5043_TRKAFSKDEMOD0NB
                                    473 	.globl _AX5043_TMGTXSETTLENB
                                    474 	.globl _AX5043_TMGTXBOOSTNB
                                    475 	.globl _AX5043_TMGRXSETTLENB
                                    476 	.globl _AX5043_TMGRXRSSINB
                                    477 	.globl _AX5043_TMGRXPREAMBLE3NB
                                    478 	.globl _AX5043_TMGRXPREAMBLE2NB
                                    479 	.globl _AX5043_TMGRXPREAMBLE1NB
                                    480 	.globl _AX5043_TMGRXOFFSACQNB
                                    481 	.globl _AX5043_TMGRXCOARSEAGCNB
                                    482 	.globl _AX5043_TMGRXBOOSTNB
                                    483 	.globl _AX5043_TMGRXAGCNB
                                    484 	.globl _AX5043_TIMER2NB
                                    485 	.globl _AX5043_TIMER1NB
                                    486 	.globl _AX5043_TIMER0NB
                                    487 	.globl _AX5043_SILICONREVISIONNB
                                    488 	.globl _AX5043_SCRATCHNB
                                    489 	.globl _AX5043_RXDATARATE2NB
                                    490 	.globl _AX5043_RXDATARATE1NB
                                    491 	.globl _AX5043_RXDATARATE0NB
                                    492 	.globl _AX5043_RSSIREFERENCENB
                                    493 	.globl _AX5043_RSSIABSTHRNB
                                    494 	.globl _AX5043_RSSINB
                                    495 	.globl _AX5043_REFNB
                                    496 	.globl _AX5043_RADIOSTATENB
                                    497 	.globl _AX5043_RADIOEVENTREQ1NB
                                    498 	.globl _AX5043_RADIOEVENTREQ0NB
                                    499 	.globl _AX5043_RADIOEVENTMASK1NB
                                    500 	.globl _AX5043_RADIOEVENTMASK0NB
                                    501 	.globl _AX5043_PWRMODENB
                                    502 	.globl _AX5043_PWRAMPNB
                                    503 	.globl _AX5043_POWSTICKYSTATNB
                                    504 	.globl _AX5043_POWSTATNB
                                    505 	.globl _AX5043_POWIRQMASKNB
                                    506 	.globl _AX5043_POWCTRL1NB
                                    507 	.globl _AX5043_PLLVCOIRNB
                                    508 	.globl _AX5043_PLLVCOINB
                                    509 	.globl _AX5043_PLLVCODIVNB
                                    510 	.globl _AX5043_PLLRNGCLKNB
                                    511 	.globl _AX5043_PLLRANGINGBNB
                                    512 	.globl _AX5043_PLLRANGINGANB
                                    513 	.globl _AX5043_PLLLOOPBOOSTNB
                                    514 	.globl _AX5043_PLLLOOPNB
                                    515 	.globl _AX5043_PLLLOCKDETNB
                                    516 	.globl _AX5043_PLLCPIBOOSTNB
                                    517 	.globl _AX5043_PLLCPINB
                                    518 	.globl _AX5043_PKTSTOREFLAGSNB
                                    519 	.globl _AX5043_PKTMISCFLAGSNB
                                    520 	.globl _AX5043_PKTCHUNKSIZENB
                                    521 	.globl _AX5043_PKTACCEPTFLAGSNB
                                    522 	.globl _AX5043_PINSTATENB
                                    523 	.globl _AX5043_PINFUNCSYSCLKNB
                                    524 	.globl _AX5043_PINFUNCPWRAMPNB
                                    525 	.globl _AX5043_PINFUNCIRQNB
                                    526 	.globl _AX5043_PINFUNCDCLKNB
                                    527 	.globl _AX5043_PINFUNCDATANB
                                    528 	.globl _AX5043_PINFUNCANTSELNB
                                    529 	.globl _AX5043_MODULATIONNB
                                    530 	.globl _AX5043_MODCFGPNB
                                    531 	.globl _AX5043_MODCFGFNB
                                    532 	.globl _AX5043_MODCFGANB
                                    533 	.globl _AX5043_MAXRFOFFSET2NB
                                    534 	.globl _AX5043_MAXRFOFFSET1NB
                                    535 	.globl _AX5043_MAXRFOFFSET0NB
                                    536 	.globl _AX5043_MAXDROFFSET2NB
                                    537 	.globl _AX5043_MAXDROFFSET1NB
                                    538 	.globl _AX5043_MAXDROFFSET0NB
                                    539 	.globl _AX5043_MATCH1PAT1NB
                                    540 	.globl _AX5043_MATCH1PAT0NB
                                    541 	.globl _AX5043_MATCH1MINNB
                                    542 	.globl _AX5043_MATCH1MAXNB
                                    543 	.globl _AX5043_MATCH1LENNB
                                    544 	.globl _AX5043_MATCH0PAT3NB
                                    545 	.globl _AX5043_MATCH0PAT2NB
                                    546 	.globl _AX5043_MATCH0PAT1NB
                                    547 	.globl _AX5043_MATCH0PAT0NB
                                    548 	.globl _AX5043_MATCH0MINNB
                                    549 	.globl _AX5043_MATCH0MAXNB
                                    550 	.globl _AX5043_MATCH0LENNB
                                    551 	.globl _AX5043_LPOSCSTATUSNB
                                    552 	.globl _AX5043_LPOSCREF1NB
                                    553 	.globl _AX5043_LPOSCREF0NB
                                    554 	.globl _AX5043_LPOSCPER1NB
                                    555 	.globl _AX5043_LPOSCPER0NB
                                    556 	.globl _AX5043_LPOSCKFILT1NB
                                    557 	.globl _AX5043_LPOSCKFILT0NB
                                    558 	.globl _AX5043_LPOSCFREQ1NB
                                    559 	.globl _AX5043_LPOSCFREQ0NB
                                    560 	.globl _AX5043_LPOSCCONFIGNB
                                    561 	.globl _AX5043_IRQREQUEST1NB
                                    562 	.globl _AX5043_IRQREQUEST0NB
                                    563 	.globl _AX5043_IRQMASK1NB
                                    564 	.globl _AX5043_IRQMASK0NB
                                    565 	.globl _AX5043_IRQINVERSION1NB
                                    566 	.globl _AX5043_IRQINVERSION0NB
                                    567 	.globl _AX5043_IFFREQ1NB
                                    568 	.globl _AX5043_IFFREQ0NB
                                    569 	.globl _AX5043_GPADCPERIODNB
                                    570 	.globl _AX5043_GPADCCTRLNB
                                    571 	.globl _AX5043_GPADC13VALUE1NB
                                    572 	.globl _AX5043_GPADC13VALUE0NB
                                    573 	.globl _AX5043_FSKDMIN1NB
                                    574 	.globl _AX5043_FSKDMIN0NB
                                    575 	.globl _AX5043_FSKDMAX1NB
                                    576 	.globl _AX5043_FSKDMAX0NB
                                    577 	.globl _AX5043_FSKDEV2NB
                                    578 	.globl _AX5043_FSKDEV1NB
                                    579 	.globl _AX5043_FSKDEV0NB
                                    580 	.globl _AX5043_FREQB3NB
                                    581 	.globl _AX5043_FREQB2NB
                                    582 	.globl _AX5043_FREQB1NB
                                    583 	.globl _AX5043_FREQB0NB
                                    584 	.globl _AX5043_FREQA3NB
                                    585 	.globl _AX5043_FREQA2NB
                                    586 	.globl _AX5043_FREQA1NB
                                    587 	.globl _AX5043_FREQA0NB
                                    588 	.globl _AX5043_FRAMINGNB
                                    589 	.globl _AX5043_FIFOTHRESH1NB
                                    590 	.globl _AX5043_FIFOTHRESH0NB
                                    591 	.globl _AX5043_FIFOSTATNB
                                    592 	.globl _AX5043_FIFOFREE1NB
                                    593 	.globl _AX5043_FIFOFREE0NB
                                    594 	.globl _AX5043_FIFODATANB
                                    595 	.globl _AX5043_FIFOCOUNT1NB
                                    596 	.globl _AX5043_FIFOCOUNT0NB
                                    597 	.globl _AX5043_FECSYNCNB
                                    598 	.globl _AX5043_FECSTATUSNB
                                    599 	.globl _AX5043_FECNB
                                    600 	.globl _AX5043_ENCODINGNB
                                    601 	.globl _AX5043_DIVERSITYNB
                                    602 	.globl _AX5043_DECIMATIONNB
                                    603 	.globl _AX5043_DACVALUE1NB
                                    604 	.globl _AX5043_DACVALUE0NB
                                    605 	.globl _AX5043_DACCONFIGNB
                                    606 	.globl _AX5043_CRCINIT3NB
                                    607 	.globl _AX5043_CRCINIT2NB
                                    608 	.globl _AX5043_CRCINIT1NB
                                    609 	.globl _AX5043_CRCINIT0NB
                                    610 	.globl _AX5043_BGNDRSSITHRNB
                                    611 	.globl _AX5043_BGNDRSSIGAINNB
                                    612 	.globl _AX5043_BGNDRSSINB
                                    613 	.globl _AX5043_BBTUNENB
                                    614 	.globl _AX5043_BBOFFSCAPNB
                                    615 	.globl _AX5043_AMPLFILTERNB
                                    616 	.globl _AX5043_AGCCOUNTERNB
                                    617 	.globl _AX5043_AFSKSPACE1NB
                                    618 	.globl _AX5043_AFSKSPACE0NB
                                    619 	.globl _AX5043_AFSKMARK1NB
                                    620 	.globl _AX5043_AFSKMARK0NB
                                    621 	.globl _AX5043_AFSKCTRLNB
                                    622 	.globl _AX5043_TIMEGAIN3
                                    623 	.globl _AX5043_TIMEGAIN2
                                    624 	.globl _AX5043_TIMEGAIN1
                                    625 	.globl _AX5043_TIMEGAIN0
                                    626 	.globl _AX5043_RXPARAMSETS
                                    627 	.globl _AX5043_RXPARAMCURSET
                                    628 	.globl _AX5043_PKTMAXLEN
                                    629 	.globl _AX5043_PKTLENOFFSET
                                    630 	.globl _AX5043_PKTLENCFG
                                    631 	.globl _AX5043_PKTADDRMASK3
                                    632 	.globl _AX5043_PKTADDRMASK2
                                    633 	.globl _AX5043_PKTADDRMASK1
                                    634 	.globl _AX5043_PKTADDRMASK0
                                    635 	.globl _AX5043_PKTADDRCFG
                                    636 	.globl _AX5043_PKTADDR3
                                    637 	.globl _AX5043_PKTADDR2
                                    638 	.globl _AX5043_PKTADDR1
                                    639 	.globl _AX5043_PKTADDR0
                                    640 	.globl _AX5043_PHASEGAIN3
                                    641 	.globl _AX5043_PHASEGAIN2
                                    642 	.globl _AX5043_PHASEGAIN1
                                    643 	.globl _AX5043_PHASEGAIN0
                                    644 	.globl _AX5043_FREQUENCYLEAK
                                    645 	.globl _AX5043_FREQUENCYGAIND3
                                    646 	.globl _AX5043_FREQUENCYGAIND2
                                    647 	.globl _AX5043_FREQUENCYGAIND1
                                    648 	.globl _AX5043_FREQUENCYGAIND0
                                    649 	.globl _AX5043_FREQUENCYGAINC3
                                    650 	.globl _AX5043_FREQUENCYGAINC2
                                    651 	.globl _AX5043_FREQUENCYGAINC1
                                    652 	.globl _AX5043_FREQUENCYGAINC0
                                    653 	.globl _AX5043_FREQUENCYGAINB3
                                    654 	.globl _AX5043_FREQUENCYGAINB2
                                    655 	.globl _AX5043_FREQUENCYGAINB1
                                    656 	.globl _AX5043_FREQUENCYGAINB0
                                    657 	.globl _AX5043_FREQUENCYGAINA3
                                    658 	.globl _AX5043_FREQUENCYGAINA2
                                    659 	.globl _AX5043_FREQUENCYGAINA1
                                    660 	.globl _AX5043_FREQUENCYGAINA0
                                    661 	.globl _AX5043_FREQDEV13
                                    662 	.globl _AX5043_FREQDEV12
                                    663 	.globl _AX5043_FREQDEV11
                                    664 	.globl _AX5043_FREQDEV10
                                    665 	.globl _AX5043_FREQDEV03
                                    666 	.globl _AX5043_FREQDEV02
                                    667 	.globl _AX5043_FREQDEV01
                                    668 	.globl _AX5043_FREQDEV00
                                    669 	.globl _AX5043_FOURFSK3
                                    670 	.globl _AX5043_FOURFSK2
                                    671 	.globl _AX5043_FOURFSK1
                                    672 	.globl _AX5043_FOURFSK0
                                    673 	.globl _AX5043_DRGAIN3
                                    674 	.globl _AX5043_DRGAIN2
                                    675 	.globl _AX5043_DRGAIN1
                                    676 	.globl _AX5043_DRGAIN0
                                    677 	.globl _AX5043_BBOFFSRES3
                                    678 	.globl _AX5043_BBOFFSRES2
                                    679 	.globl _AX5043_BBOFFSRES1
                                    680 	.globl _AX5043_BBOFFSRES0
                                    681 	.globl _AX5043_AMPLITUDEGAIN3
                                    682 	.globl _AX5043_AMPLITUDEGAIN2
                                    683 	.globl _AX5043_AMPLITUDEGAIN1
                                    684 	.globl _AX5043_AMPLITUDEGAIN0
                                    685 	.globl _AX5043_AGCTARGET3
                                    686 	.globl _AX5043_AGCTARGET2
                                    687 	.globl _AX5043_AGCTARGET1
                                    688 	.globl _AX5043_AGCTARGET0
                                    689 	.globl _AX5043_AGCMINMAX3
                                    690 	.globl _AX5043_AGCMINMAX2
                                    691 	.globl _AX5043_AGCMINMAX1
                                    692 	.globl _AX5043_AGCMINMAX0
                                    693 	.globl _AX5043_AGCGAIN3
                                    694 	.globl _AX5043_AGCGAIN2
                                    695 	.globl _AX5043_AGCGAIN1
                                    696 	.globl _AX5043_AGCGAIN0
                                    697 	.globl _AX5043_AGCAHYST3
                                    698 	.globl _AX5043_AGCAHYST2
                                    699 	.globl _AX5043_AGCAHYST1
                                    700 	.globl _AX5043_AGCAHYST0
                                    701 	.globl _AX5043_0xF44
                                    702 	.globl _AX5043_0xF35
                                    703 	.globl _AX5043_0xF34
                                    704 	.globl _AX5043_0xF33
                                    705 	.globl _AX5043_0xF32
                                    706 	.globl _AX5043_0xF31
                                    707 	.globl _AX5043_0xF30
                                    708 	.globl _AX5043_0xF26
                                    709 	.globl _AX5043_0xF23
                                    710 	.globl _AX5043_0xF22
                                    711 	.globl _AX5043_0xF21
                                    712 	.globl _AX5043_0xF1C
                                    713 	.globl _AX5043_0xF18
                                    714 	.globl _AX5043_0xF0C
                                    715 	.globl _AX5043_0xF00
                                    716 	.globl _AX5043_XTALSTATUS
                                    717 	.globl _AX5043_XTALOSC
                                    718 	.globl _AX5043_XTALCAP
                                    719 	.globl _AX5043_XTALAMPL
                                    720 	.globl _AX5043_WAKEUPXOEARLY
                                    721 	.globl _AX5043_WAKEUPTIMER1
                                    722 	.globl _AX5043_WAKEUPTIMER0
                                    723 	.globl _AX5043_WAKEUPFREQ1
                                    724 	.globl _AX5043_WAKEUPFREQ0
                                    725 	.globl _AX5043_WAKEUP1
                                    726 	.globl _AX5043_WAKEUP0
                                    727 	.globl _AX5043_TXRATE2
                                    728 	.globl _AX5043_TXRATE1
                                    729 	.globl _AX5043_TXRATE0
                                    730 	.globl _AX5043_TXPWRCOEFFE1
                                    731 	.globl _AX5043_TXPWRCOEFFE0
                                    732 	.globl _AX5043_TXPWRCOEFFD1
                                    733 	.globl _AX5043_TXPWRCOEFFD0
                                    734 	.globl _AX5043_TXPWRCOEFFC1
                                    735 	.globl _AX5043_TXPWRCOEFFC0
                                    736 	.globl _AX5043_TXPWRCOEFFB1
                                    737 	.globl _AX5043_TXPWRCOEFFB0
                                    738 	.globl _AX5043_TXPWRCOEFFA1
                                    739 	.globl _AX5043_TXPWRCOEFFA0
                                    740 	.globl _AX5043_TRKRFFREQ2
                                    741 	.globl _AX5043_TRKRFFREQ1
                                    742 	.globl _AX5043_TRKRFFREQ0
                                    743 	.globl _AX5043_TRKPHASE1
                                    744 	.globl _AX5043_TRKPHASE0
                                    745 	.globl _AX5043_TRKFSKDEMOD1
                                    746 	.globl _AX5043_TRKFSKDEMOD0
                                    747 	.globl _AX5043_TRKFREQ1
                                    748 	.globl _AX5043_TRKFREQ0
                                    749 	.globl _AX5043_TRKDATARATE2
                                    750 	.globl _AX5043_TRKDATARATE1
                                    751 	.globl _AX5043_TRKDATARATE0
                                    752 	.globl _AX5043_TRKAMPLITUDE1
                                    753 	.globl _AX5043_TRKAMPLITUDE0
                                    754 	.globl _AX5043_TRKAFSKDEMOD1
                                    755 	.globl _AX5043_TRKAFSKDEMOD0
                                    756 	.globl _AX5043_TMGTXSETTLE
                                    757 	.globl _AX5043_TMGTXBOOST
                                    758 	.globl _AX5043_TMGRXSETTLE
                                    759 	.globl _AX5043_TMGRXRSSI
                                    760 	.globl _AX5043_TMGRXPREAMBLE3
                                    761 	.globl _AX5043_TMGRXPREAMBLE2
                                    762 	.globl _AX5043_TMGRXPREAMBLE1
                                    763 	.globl _AX5043_TMGRXOFFSACQ
                                    764 	.globl _AX5043_TMGRXCOARSEAGC
                                    765 	.globl _AX5043_TMGRXBOOST
                                    766 	.globl _AX5043_TMGRXAGC
                                    767 	.globl _AX5043_TIMER2
                                    768 	.globl _AX5043_TIMER1
                                    769 	.globl _AX5043_TIMER0
                                    770 	.globl _AX5043_SILICONREVISION
                                    771 	.globl _AX5043_SCRATCH
                                    772 	.globl _AX5043_RXDATARATE2
                                    773 	.globl _AX5043_RXDATARATE1
                                    774 	.globl _AX5043_RXDATARATE0
                                    775 	.globl _AX5043_RSSIREFERENCE
                                    776 	.globl _AX5043_RSSIABSTHR
                                    777 	.globl _AX5043_RSSI
                                    778 	.globl _AX5043_REF
                                    779 	.globl _AX5043_RADIOSTATE
                                    780 	.globl _AX5043_RADIOEVENTREQ1
                                    781 	.globl _AX5043_RADIOEVENTREQ0
                                    782 	.globl _AX5043_RADIOEVENTMASK1
                                    783 	.globl _AX5043_RADIOEVENTMASK0
                                    784 	.globl _AX5043_PWRMODE
                                    785 	.globl _AX5043_PWRAMP
                                    786 	.globl _AX5043_POWSTICKYSTAT
                                    787 	.globl _AX5043_POWSTAT
                                    788 	.globl _AX5043_POWIRQMASK
                                    789 	.globl _AX5043_POWCTRL1
                                    790 	.globl _AX5043_PLLVCOIR
                                    791 	.globl _AX5043_PLLVCOI
                                    792 	.globl _AX5043_PLLVCODIV
                                    793 	.globl _AX5043_PLLRNGCLK
                                    794 	.globl _AX5043_PLLRANGINGB
                                    795 	.globl _AX5043_PLLRANGINGA
                                    796 	.globl _AX5043_PLLLOOPBOOST
                                    797 	.globl _AX5043_PLLLOOP
                                    798 	.globl _AX5043_PLLLOCKDET
                                    799 	.globl _AX5043_PLLCPIBOOST
                                    800 	.globl _AX5043_PLLCPI
                                    801 	.globl _AX5043_PKTSTOREFLAGS
                                    802 	.globl _AX5043_PKTMISCFLAGS
                                    803 	.globl _AX5043_PKTCHUNKSIZE
                                    804 	.globl _AX5043_PKTACCEPTFLAGS
                                    805 	.globl _AX5043_PINSTATE
                                    806 	.globl _AX5043_PINFUNCSYSCLK
                                    807 	.globl _AX5043_PINFUNCPWRAMP
                                    808 	.globl _AX5043_PINFUNCIRQ
                                    809 	.globl _AX5043_PINFUNCDCLK
                                    810 	.globl _AX5043_PINFUNCDATA
                                    811 	.globl _AX5043_PINFUNCANTSEL
                                    812 	.globl _AX5043_MODULATION
                                    813 	.globl _AX5043_MODCFGP
                                    814 	.globl _AX5043_MODCFGF
                                    815 	.globl _AX5043_MODCFGA
                                    816 	.globl _AX5043_MAXRFOFFSET2
                                    817 	.globl _AX5043_MAXRFOFFSET1
                                    818 	.globl _AX5043_MAXRFOFFSET0
                                    819 	.globl _AX5043_MAXDROFFSET2
                                    820 	.globl _AX5043_MAXDROFFSET1
                                    821 	.globl _AX5043_MAXDROFFSET0
                                    822 	.globl _AX5043_MATCH1PAT1
                                    823 	.globl _AX5043_MATCH1PAT0
                                    824 	.globl _AX5043_MATCH1MIN
                                    825 	.globl _AX5043_MATCH1MAX
                                    826 	.globl _AX5043_MATCH1LEN
                                    827 	.globl _AX5043_MATCH0PAT3
                                    828 	.globl _AX5043_MATCH0PAT2
                                    829 	.globl _AX5043_MATCH0PAT1
                                    830 	.globl _AX5043_MATCH0PAT0
                                    831 	.globl _AX5043_MATCH0MIN
                                    832 	.globl _AX5043_MATCH0MAX
                                    833 	.globl _AX5043_MATCH0LEN
                                    834 	.globl _AX5043_LPOSCSTATUS
                                    835 	.globl _AX5043_LPOSCREF1
                                    836 	.globl _AX5043_LPOSCREF0
                                    837 	.globl _AX5043_LPOSCPER1
                                    838 	.globl _AX5043_LPOSCPER0
                                    839 	.globl _AX5043_LPOSCKFILT1
                                    840 	.globl _AX5043_LPOSCKFILT0
                                    841 	.globl _AX5043_LPOSCFREQ1
                                    842 	.globl _AX5043_LPOSCFREQ0
                                    843 	.globl _AX5043_LPOSCCONFIG
                                    844 	.globl _AX5043_IRQREQUEST1
                                    845 	.globl _AX5043_IRQREQUEST0
                                    846 	.globl _AX5043_IRQMASK1
                                    847 	.globl _AX5043_IRQMASK0
                                    848 	.globl _AX5043_IRQINVERSION1
                                    849 	.globl _AX5043_IRQINVERSION0
                                    850 	.globl _AX5043_IFFREQ1
                                    851 	.globl _AX5043_IFFREQ0
                                    852 	.globl _AX5043_GPADCPERIOD
                                    853 	.globl _AX5043_GPADCCTRL
                                    854 	.globl _AX5043_GPADC13VALUE1
                                    855 	.globl _AX5043_GPADC13VALUE0
                                    856 	.globl _AX5043_FSKDMIN1
                                    857 	.globl _AX5043_FSKDMIN0
                                    858 	.globl _AX5043_FSKDMAX1
                                    859 	.globl _AX5043_FSKDMAX0
                                    860 	.globl _AX5043_FSKDEV2
                                    861 	.globl _AX5043_FSKDEV1
                                    862 	.globl _AX5043_FSKDEV0
                                    863 	.globl _AX5043_FREQB3
                                    864 	.globl _AX5043_FREQB2
                                    865 	.globl _AX5043_FREQB1
                                    866 	.globl _AX5043_FREQB0
                                    867 	.globl _AX5043_FREQA3
                                    868 	.globl _AX5043_FREQA2
                                    869 	.globl _AX5043_FREQA1
                                    870 	.globl _AX5043_FREQA0
                                    871 	.globl _AX5043_FRAMING
                                    872 	.globl _AX5043_FIFOTHRESH1
                                    873 	.globl _AX5043_FIFOTHRESH0
                                    874 	.globl _AX5043_FIFOSTAT
                                    875 	.globl _AX5043_FIFOFREE1
                                    876 	.globl _AX5043_FIFOFREE0
                                    877 	.globl _AX5043_FIFODATA
                                    878 	.globl _AX5043_FIFOCOUNT1
                                    879 	.globl _AX5043_FIFOCOUNT0
                                    880 	.globl _AX5043_FECSYNC
                                    881 	.globl _AX5043_FECSTATUS
                                    882 	.globl _AX5043_FEC
                                    883 	.globl _AX5043_ENCODING
                                    884 	.globl _AX5043_DIVERSITY
                                    885 	.globl _AX5043_DECIMATION
                                    886 	.globl _AX5043_DACVALUE1
                                    887 	.globl _AX5043_DACVALUE0
                                    888 	.globl _AX5043_DACCONFIG
                                    889 	.globl _AX5043_CRCINIT3
                                    890 	.globl _AX5043_CRCINIT2
                                    891 	.globl _AX5043_CRCINIT1
                                    892 	.globl _AX5043_CRCINIT0
                                    893 	.globl _AX5043_BGNDRSSITHR
                                    894 	.globl _AX5043_BGNDRSSIGAIN
                                    895 	.globl _AX5043_BGNDRSSI
                                    896 	.globl _AX5043_BBTUNE
                                    897 	.globl _AX5043_BBOFFSCAP
                                    898 	.globl _AX5043_AMPLFILTER
                                    899 	.globl _AX5043_AGCCOUNTER
                                    900 	.globl _AX5043_AFSKSPACE1
                                    901 	.globl _AX5043_AFSKSPACE0
                                    902 	.globl _AX5043_AFSKMARK1
                                    903 	.globl _AX5043_AFSKMARK0
                                    904 	.globl _AX5043_AFSKCTRL
                                    905 	.globl _RNGMODE
                                    906 	.globl _RNGCLKSRC1
                                    907 	.globl _RNGCLKSRC0
                                    908 	.globl _RNGBYTE
                                    909 	.globl _AESOUTADDR
                                    910 	.globl _AESOUTADDR1
                                    911 	.globl _AESOUTADDR0
                                    912 	.globl _AESMODE
                                    913 	.globl _AESKEYADDR
                                    914 	.globl _AESKEYADDR1
                                    915 	.globl _AESKEYADDR0
                                    916 	.globl _AESINADDR
                                    917 	.globl _AESINADDR1
                                    918 	.globl _AESINADDR0
                                    919 	.globl _AESCURBLOCK
                                    920 	.globl _AESCONFIG
                                    921 	.globl _XTALREADY
                                    922 	.globl _XTALOSC
                                    923 	.globl _XTALAMPL
                                    924 	.globl _SILICONREV
                                    925 	.globl _SCRATCH3
                                    926 	.globl _SCRATCH2
                                    927 	.globl _SCRATCH1
                                    928 	.globl _SCRATCH0
                                    929 	.globl _RADIOMUX
                                    930 	.globl _RADIOFSTATADDR
                                    931 	.globl _RADIOFSTATADDR1
                                    932 	.globl _RADIOFSTATADDR0
                                    933 	.globl _RADIOFDATAADDR
                                    934 	.globl _RADIOFDATAADDR1
                                    935 	.globl _RADIOFDATAADDR0
                                    936 	.globl _OSCRUN
                                    937 	.globl _OSCREADY
                                    938 	.globl _OSCFORCERUN
                                    939 	.globl _OSCCALIB
                                    940 	.globl _MISCCTRL
                                    941 	.globl _LPXOSCGM
                                    942 	.globl _LPOSCREF
                                    943 	.globl _LPOSCREF1
                                    944 	.globl _LPOSCREF0
                                    945 	.globl _LPOSCPER
                                    946 	.globl _LPOSCPER1
                                    947 	.globl _LPOSCPER0
                                    948 	.globl _LPOSCKFILT
                                    949 	.globl _LPOSCKFILT1
                                    950 	.globl _LPOSCKFILT0
                                    951 	.globl _LPOSCFREQ
                                    952 	.globl _LPOSCFREQ1
                                    953 	.globl _LPOSCFREQ0
                                    954 	.globl _LPOSCCONFIG
                                    955 	.globl _PINSEL
                                    956 	.globl _PINCHGC
                                    957 	.globl _PINCHGB
                                    958 	.globl _PINCHGA
                                    959 	.globl _PALTRADIO
                                    960 	.globl _PALTC
                                    961 	.globl _PALTB
                                    962 	.globl _PALTA
                                    963 	.globl _INTCHGC
                                    964 	.globl _INTCHGB
                                    965 	.globl _INTCHGA
                                    966 	.globl _EXTIRQ
                                    967 	.globl _GPIOENABLE
                                    968 	.globl _ANALOGA
                                    969 	.globl _FRCOSCREF
                                    970 	.globl _FRCOSCREF1
                                    971 	.globl _FRCOSCREF0
                                    972 	.globl _FRCOSCPER
                                    973 	.globl _FRCOSCPER1
                                    974 	.globl _FRCOSCPER0
                                    975 	.globl _FRCOSCKFILT
                                    976 	.globl _FRCOSCKFILT1
                                    977 	.globl _FRCOSCKFILT0
                                    978 	.globl _FRCOSCFREQ
                                    979 	.globl _FRCOSCFREQ1
                                    980 	.globl _FRCOSCFREQ0
                                    981 	.globl _FRCOSCCTRL
                                    982 	.globl _FRCOSCCONFIG
                                    983 	.globl _DMA1CONFIG
                                    984 	.globl _DMA1ADDR
                                    985 	.globl _DMA1ADDR1
                                    986 	.globl _DMA1ADDR0
                                    987 	.globl _DMA0CONFIG
                                    988 	.globl _DMA0ADDR
                                    989 	.globl _DMA0ADDR1
                                    990 	.globl _DMA0ADDR0
                                    991 	.globl _ADCTUNE2
                                    992 	.globl _ADCTUNE1
                                    993 	.globl _ADCTUNE0
                                    994 	.globl _ADCCH3VAL
                                    995 	.globl _ADCCH3VAL1
                                    996 	.globl _ADCCH3VAL0
                                    997 	.globl _ADCCH2VAL
                                    998 	.globl _ADCCH2VAL1
                                    999 	.globl _ADCCH2VAL0
                                   1000 	.globl _ADCCH1VAL
                                   1001 	.globl _ADCCH1VAL1
                                   1002 	.globl _ADCCH1VAL0
                                   1003 	.globl _ADCCH0VAL
                                   1004 	.globl _ADCCH0VAL1
                                   1005 	.globl _ADCCH0VAL0
                                   1006 	.globl _coldstart
                                   1007 	.globl _axradio_statuschange
                                   1008 	.globl _enable_radio_interrupt_in_mcu_pin
                                   1009 	.globl _disable_radio_interrupt_in_mcu_pin
                                   1010 ;--------------------------------------------------------
                                   1011 ; special function registers
                                   1012 ;--------------------------------------------------------
                                   1013 	.area RSEG    (ABS,DATA)
      000000                       1014 	.org 0x0000
                           0000E0  1015 G$ACC$0$0 == 0x00e0
                           0000E0  1016 _ACC	=	0x00e0
                           0000F0  1017 G$B$0$0 == 0x00f0
                           0000F0  1018 _B	=	0x00f0
                           000083  1019 G$DPH$0$0 == 0x0083
                           000083  1020 _DPH	=	0x0083
                           000085  1021 G$DPH1$0$0 == 0x0085
                           000085  1022 _DPH1	=	0x0085
                           000082  1023 G$DPL$0$0 == 0x0082
                           000082  1024 _DPL	=	0x0082
                           000084  1025 G$DPL1$0$0 == 0x0084
                           000084  1026 _DPL1	=	0x0084
                           008382  1027 G$DPTR0$0$0 == 0x8382
                           008382  1028 _DPTR0	=	0x8382
                           008584  1029 G$DPTR1$0$0 == 0x8584
                           008584  1030 _DPTR1	=	0x8584
                           000086  1031 G$DPS$0$0 == 0x0086
                           000086  1032 _DPS	=	0x0086
                           0000A0  1033 G$E2IE$0$0 == 0x00a0
                           0000A0  1034 _E2IE	=	0x00a0
                           0000C0  1035 G$E2IP$0$0 == 0x00c0
                           0000C0  1036 _E2IP	=	0x00c0
                           000098  1037 G$EIE$0$0 == 0x0098
                           000098  1038 _EIE	=	0x0098
                           0000B0  1039 G$EIP$0$0 == 0x00b0
                           0000B0  1040 _EIP	=	0x00b0
                           0000A8  1041 G$IE$0$0 == 0x00a8
                           0000A8  1042 _IE	=	0x00a8
                           0000B8  1043 G$IP$0$0 == 0x00b8
                           0000B8  1044 _IP	=	0x00b8
                           000087  1045 G$PCON$0$0 == 0x0087
                           000087  1046 _PCON	=	0x0087
                           0000D0  1047 G$PSW$0$0 == 0x00d0
                           0000D0  1048 _PSW	=	0x00d0
                           000081  1049 G$SP$0$0 == 0x0081
                           000081  1050 _SP	=	0x0081
                           0000D9  1051 G$XPAGE$0$0 == 0x00d9
                           0000D9  1052 _XPAGE	=	0x00d9
                           0000D9  1053 G$_XPAGE$0$0 == 0x00d9
                           0000D9  1054 __XPAGE	=	0x00d9
                           0000CA  1055 G$ADCCH0CONFIG$0$0 == 0x00ca
                           0000CA  1056 _ADCCH0CONFIG	=	0x00ca
                           0000CB  1057 G$ADCCH1CONFIG$0$0 == 0x00cb
                           0000CB  1058 _ADCCH1CONFIG	=	0x00cb
                           0000D2  1059 G$ADCCH2CONFIG$0$0 == 0x00d2
                           0000D2  1060 _ADCCH2CONFIG	=	0x00d2
                           0000D3  1061 G$ADCCH3CONFIG$0$0 == 0x00d3
                           0000D3  1062 _ADCCH3CONFIG	=	0x00d3
                           0000D1  1063 G$ADCCLKSRC$0$0 == 0x00d1
                           0000D1  1064 _ADCCLKSRC	=	0x00d1
                           0000C9  1065 G$ADCCONV$0$0 == 0x00c9
                           0000C9  1066 _ADCCONV	=	0x00c9
                           0000E1  1067 G$ANALOGCOMP$0$0 == 0x00e1
                           0000E1  1068 _ANALOGCOMP	=	0x00e1
                           0000C6  1069 G$CLKCON$0$0 == 0x00c6
                           0000C6  1070 _CLKCON	=	0x00c6
                           0000C7  1071 G$CLKSTAT$0$0 == 0x00c7
                           0000C7  1072 _CLKSTAT	=	0x00c7
                           000097  1073 G$CODECONFIG$0$0 == 0x0097
                           000097  1074 _CODECONFIG	=	0x0097
                           0000E3  1075 G$DBGLNKBUF$0$0 == 0x00e3
                           0000E3  1076 _DBGLNKBUF	=	0x00e3
                           0000E2  1077 G$DBGLNKSTAT$0$0 == 0x00e2
                           0000E2  1078 _DBGLNKSTAT	=	0x00e2
                           000089  1079 G$DIRA$0$0 == 0x0089
                           000089  1080 _DIRA	=	0x0089
                           00008A  1081 G$DIRB$0$0 == 0x008a
                           00008A  1082 _DIRB	=	0x008a
                           00008B  1083 G$DIRC$0$0 == 0x008b
                           00008B  1084 _DIRC	=	0x008b
                           00008E  1085 G$DIRR$0$0 == 0x008e
                           00008E  1086 _DIRR	=	0x008e
                           0000C8  1087 G$PINA$0$0 == 0x00c8
                           0000C8  1088 _PINA	=	0x00c8
                           0000E8  1089 G$PINB$0$0 == 0x00e8
                           0000E8  1090 _PINB	=	0x00e8
                           0000F8  1091 G$PINC$0$0 == 0x00f8
                           0000F8  1092 _PINC	=	0x00f8
                           00008D  1093 G$PINR$0$0 == 0x008d
                           00008D  1094 _PINR	=	0x008d
                           000080  1095 G$PORTA$0$0 == 0x0080
                           000080  1096 _PORTA	=	0x0080
                           000088  1097 G$PORTB$0$0 == 0x0088
                           000088  1098 _PORTB	=	0x0088
                           000090  1099 G$PORTC$0$0 == 0x0090
                           000090  1100 _PORTC	=	0x0090
                           00008C  1101 G$PORTR$0$0 == 0x008c
                           00008C  1102 _PORTR	=	0x008c
                           0000CE  1103 G$IC0CAPT0$0$0 == 0x00ce
                           0000CE  1104 _IC0CAPT0	=	0x00ce
                           0000CF  1105 G$IC0CAPT1$0$0 == 0x00cf
                           0000CF  1106 _IC0CAPT1	=	0x00cf
                           00CFCE  1107 G$IC0CAPT$0$0 == 0xcfce
                           00CFCE  1108 _IC0CAPT	=	0xcfce
                           0000CC  1109 G$IC0MODE$0$0 == 0x00cc
                           0000CC  1110 _IC0MODE	=	0x00cc
                           0000CD  1111 G$IC0STATUS$0$0 == 0x00cd
                           0000CD  1112 _IC0STATUS	=	0x00cd
                           0000D6  1113 G$IC1CAPT0$0$0 == 0x00d6
                           0000D6  1114 _IC1CAPT0	=	0x00d6
                           0000D7  1115 G$IC1CAPT1$0$0 == 0x00d7
                           0000D7  1116 _IC1CAPT1	=	0x00d7
                           00D7D6  1117 G$IC1CAPT$0$0 == 0xd7d6
                           00D7D6  1118 _IC1CAPT	=	0xd7d6
                           0000D4  1119 G$IC1MODE$0$0 == 0x00d4
                           0000D4  1120 _IC1MODE	=	0x00d4
                           0000D5  1121 G$IC1STATUS$0$0 == 0x00d5
                           0000D5  1122 _IC1STATUS	=	0x00d5
                           000092  1123 G$NVADDR0$0$0 == 0x0092
                           000092  1124 _NVADDR0	=	0x0092
                           000093  1125 G$NVADDR1$0$0 == 0x0093
                           000093  1126 _NVADDR1	=	0x0093
                           009392  1127 G$NVADDR$0$0 == 0x9392
                           009392  1128 _NVADDR	=	0x9392
                           000094  1129 G$NVDATA0$0$0 == 0x0094
                           000094  1130 _NVDATA0	=	0x0094
                           000095  1131 G$NVDATA1$0$0 == 0x0095
                           000095  1132 _NVDATA1	=	0x0095
                           009594  1133 G$NVDATA$0$0 == 0x9594
                           009594  1134 _NVDATA	=	0x9594
                           000096  1135 G$NVKEY$0$0 == 0x0096
                           000096  1136 _NVKEY	=	0x0096
                           000091  1137 G$NVSTATUS$0$0 == 0x0091
                           000091  1138 _NVSTATUS	=	0x0091
                           0000BC  1139 G$OC0COMP0$0$0 == 0x00bc
                           0000BC  1140 _OC0COMP0	=	0x00bc
                           0000BD  1141 G$OC0COMP1$0$0 == 0x00bd
                           0000BD  1142 _OC0COMP1	=	0x00bd
                           00BDBC  1143 G$OC0COMP$0$0 == 0xbdbc
                           00BDBC  1144 _OC0COMP	=	0xbdbc
                           0000B9  1145 G$OC0MODE$0$0 == 0x00b9
                           0000B9  1146 _OC0MODE	=	0x00b9
                           0000BA  1147 G$OC0PIN$0$0 == 0x00ba
                           0000BA  1148 _OC0PIN	=	0x00ba
                           0000BB  1149 G$OC0STATUS$0$0 == 0x00bb
                           0000BB  1150 _OC0STATUS	=	0x00bb
                           0000C4  1151 G$OC1COMP0$0$0 == 0x00c4
                           0000C4  1152 _OC1COMP0	=	0x00c4
                           0000C5  1153 G$OC1COMP1$0$0 == 0x00c5
                           0000C5  1154 _OC1COMP1	=	0x00c5
                           00C5C4  1155 G$OC1COMP$0$0 == 0xc5c4
                           00C5C4  1156 _OC1COMP	=	0xc5c4
                           0000C1  1157 G$OC1MODE$0$0 == 0x00c1
                           0000C1  1158 _OC1MODE	=	0x00c1
                           0000C2  1159 G$OC1PIN$0$0 == 0x00c2
                           0000C2  1160 _OC1PIN	=	0x00c2
                           0000C3  1161 G$OC1STATUS$0$0 == 0x00c3
                           0000C3  1162 _OC1STATUS	=	0x00c3
                           0000B1  1163 G$RADIOACC$0$0 == 0x00b1
                           0000B1  1164 _RADIOACC	=	0x00b1
                           0000B3  1165 G$RADIOADDR0$0$0 == 0x00b3
                           0000B3  1166 _RADIOADDR0	=	0x00b3
                           0000B2  1167 G$RADIOADDR1$0$0 == 0x00b2
                           0000B2  1168 _RADIOADDR1	=	0x00b2
                           00B2B3  1169 G$RADIOADDR$0$0 == 0xb2b3
                           00B2B3  1170 _RADIOADDR	=	0xb2b3
                           0000B7  1171 G$RADIODATA0$0$0 == 0x00b7
                           0000B7  1172 _RADIODATA0	=	0x00b7
                           0000B6  1173 G$RADIODATA1$0$0 == 0x00b6
                           0000B6  1174 _RADIODATA1	=	0x00b6
                           0000B5  1175 G$RADIODATA2$0$0 == 0x00b5
                           0000B5  1176 _RADIODATA2	=	0x00b5
                           0000B4  1177 G$RADIODATA3$0$0 == 0x00b4
                           0000B4  1178 _RADIODATA3	=	0x00b4
                           B4B5B6B7  1179 G$RADIODATA$0$0 == 0xb4b5b6b7
                           B4B5B6B7  1180 _RADIODATA	=	0xb4b5b6b7
                           0000BE  1181 G$RADIOSTAT0$0$0 == 0x00be
                           0000BE  1182 _RADIOSTAT0	=	0x00be
                           0000BF  1183 G$RADIOSTAT1$0$0 == 0x00bf
                           0000BF  1184 _RADIOSTAT1	=	0x00bf
                           00BFBE  1185 G$RADIOSTAT$0$0 == 0xbfbe
                           00BFBE  1186 _RADIOSTAT	=	0xbfbe
                           0000DF  1187 G$SPCLKSRC$0$0 == 0x00df
                           0000DF  1188 _SPCLKSRC	=	0x00df
                           0000DC  1189 G$SPMODE$0$0 == 0x00dc
                           0000DC  1190 _SPMODE	=	0x00dc
                           0000DE  1191 G$SPSHREG$0$0 == 0x00de
                           0000DE  1192 _SPSHREG	=	0x00de
                           0000DD  1193 G$SPSTATUS$0$0 == 0x00dd
                           0000DD  1194 _SPSTATUS	=	0x00dd
                           00009A  1195 G$T0CLKSRC$0$0 == 0x009a
                           00009A  1196 _T0CLKSRC	=	0x009a
                           00009C  1197 G$T0CNT0$0$0 == 0x009c
                           00009C  1198 _T0CNT0	=	0x009c
                           00009D  1199 G$T0CNT1$0$0 == 0x009d
                           00009D  1200 _T0CNT1	=	0x009d
                           009D9C  1201 G$T0CNT$0$0 == 0x9d9c
                           009D9C  1202 _T0CNT	=	0x9d9c
                           000099  1203 G$T0MODE$0$0 == 0x0099
                           000099  1204 _T0MODE	=	0x0099
                           00009E  1205 G$T0PERIOD0$0$0 == 0x009e
                           00009E  1206 _T0PERIOD0	=	0x009e
                           00009F  1207 G$T0PERIOD1$0$0 == 0x009f
                           00009F  1208 _T0PERIOD1	=	0x009f
                           009F9E  1209 G$T0PERIOD$0$0 == 0x9f9e
                           009F9E  1210 _T0PERIOD	=	0x9f9e
                           00009B  1211 G$T0STATUS$0$0 == 0x009b
                           00009B  1212 _T0STATUS	=	0x009b
                           0000A2  1213 G$T1CLKSRC$0$0 == 0x00a2
                           0000A2  1214 _T1CLKSRC	=	0x00a2
                           0000A4  1215 G$T1CNT0$0$0 == 0x00a4
                           0000A4  1216 _T1CNT0	=	0x00a4
                           0000A5  1217 G$T1CNT1$0$0 == 0x00a5
                           0000A5  1218 _T1CNT1	=	0x00a5
                           00A5A4  1219 G$T1CNT$0$0 == 0xa5a4
                           00A5A4  1220 _T1CNT	=	0xa5a4
                           0000A1  1221 G$T1MODE$0$0 == 0x00a1
                           0000A1  1222 _T1MODE	=	0x00a1
                           0000A6  1223 G$T1PERIOD0$0$0 == 0x00a6
                           0000A6  1224 _T1PERIOD0	=	0x00a6
                           0000A7  1225 G$T1PERIOD1$0$0 == 0x00a7
                           0000A7  1226 _T1PERIOD1	=	0x00a7
                           00A7A6  1227 G$T1PERIOD$0$0 == 0xa7a6
                           00A7A6  1228 _T1PERIOD	=	0xa7a6
                           0000A3  1229 G$T1STATUS$0$0 == 0x00a3
                           0000A3  1230 _T1STATUS	=	0x00a3
                           0000AA  1231 G$T2CLKSRC$0$0 == 0x00aa
                           0000AA  1232 _T2CLKSRC	=	0x00aa
                           0000AC  1233 G$T2CNT0$0$0 == 0x00ac
                           0000AC  1234 _T2CNT0	=	0x00ac
                           0000AD  1235 G$T2CNT1$0$0 == 0x00ad
                           0000AD  1236 _T2CNT1	=	0x00ad
                           00ADAC  1237 G$T2CNT$0$0 == 0xadac
                           00ADAC  1238 _T2CNT	=	0xadac
                           0000A9  1239 G$T2MODE$0$0 == 0x00a9
                           0000A9  1240 _T2MODE	=	0x00a9
                           0000AE  1241 G$T2PERIOD0$0$0 == 0x00ae
                           0000AE  1242 _T2PERIOD0	=	0x00ae
                           0000AF  1243 G$T2PERIOD1$0$0 == 0x00af
                           0000AF  1244 _T2PERIOD1	=	0x00af
                           00AFAE  1245 G$T2PERIOD$0$0 == 0xafae
                           00AFAE  1246 _T2PERIOD	=	0xafae
                           0000AB  1247 G$T2STATUS$0$0 == 0x00ab
                           0000AB  1248 _T2STATUS	=	0x00ab
                           0000E4  1249 G$U0CTRL$0$0 == 0x00e4
                           0000E4  1250 _U0CTRL	=	0x00e4
                           0000E7  1251 G$U0MODE$0$0 == 0x00e7
                           0000E7  1252 _U0MODE	=	0x00e7
                           0000E6  1253 G$U0SHREG$0$0 == 0x00e6
                           0000E6  1254 _U0SHREG	=	0x00e6
                           0000E5  1255 G$U0STATUS$0$0 == 0x00e5
                           0000E5  1256 _U0STATUS	=	0x00e5
                           0000EC  1257 G$U1CTRL$0$0 == 0x00ec
                           0000EC  1258 _U1CTRL	=	0x00ec
                           0000EF  1259 G$U1MODE$0$0 == 0x00ef
                           0000EF  1260 _U1MODE	=	0x00ef
                           0000EE  1261 G$U1SHREG$0$0 == 0x00ee
                           0000EE  1262 _U1SHREG	=	0x00ee
                           0000ED  1263 G$U1STATUS$0$0 == 0x00ed
                           0000ED  1264 _U1STATUS	=	0x00ed
                           0000DA  1265 G$WDTCFG$0$0 == 0x00da
                           0000DA  1266 _WDTCFG	=	0x00da
                           0000DB  1267 G$WDTRESET$0$0 == 0x00db
                           0000DB  1268 _WDTRESET	=	0x00db
                           0000F1  1269 G$WTCFGA$0$0 == 0x00f1
                           0000F1  1270 _WTCFGA	=	0x00f1
                           0000F9  1271 G$WTCFGB$0$0 == 0x00f9
                           0000F9  1272 _WTCFGB	=	0x00f9
                           0000F2  1273 G$WTCNTA0$0$0 == 0x00f2
                           0000F2  1274 _WTCNTA0	=	0x00f2
                           0000F3  1275 G$WTCNTA1$0$0 == 0x00f3
                           0000F3  1276 _WTCNTA1	=	0x00f3
                           00F3F2  1277 G$WTCNTA$0$0 == 0xf3f2
                           00F3F2  1278 _WTCNTA	=	0xf3f2
                           0000FA  1279 G$WTCNTB0$0$0 == 0x00fa
                           0000FA  1280 _WTCNTB0	=	0x00fa
                           0000FB  1281 G$WTCNTB1$0$0 == 0x00fb
                           0000FB  1282 _WTCNTB1	=	0x00fb
                           00FBFA  1283 G$WTCNTB$0$0 == 0xfbfa
                           00FBFA  1284 _WTCNTB	=	0xfbfa
                           0000EB  1285 G$WTCNTR1$0$0 == 0x00eb
                           0000EB  1286 _WTCNTR1	=	0x00eb
                           0000F4  1287 G$WTEVTA0$0$0 == 0x00f4
                           0000F4  1288 _WTEVTA0	=	0x00f4
                           0000F5  1289 G$WTEVTA1$0$0 == 0x00f5
                           0000F5  1290 _WTEVTA1	=	0x00f5
                           00F5F4  1291 G$WTEVTA$0$0 == 0xf5f4
                           00F5F4  1292 _WTEVTA	=	0xf5f4
                           0000F6  1293 G$WTEVTB0$0$0 == 0x00f6
                           0000F6  1294 _WTEVTB0	=	0x00f6
                           0000F7  1295 G$WTEVTB1$0$0 == 0x00f7
                           0000F7  1296 _WTEVTB1	=	0x00f7
                           00F7F6  1297 G$WTEVTB$0$0 == 0xf7f6
                           00F7F6  1298 _WTEVTB	=	0xf7f6
                           0000FC  1299 G$WTEVTC0$0$0 == 0x00fc
                           0000FC  1300 _WTEVTC0	=	0x00fc
                           0000FD  1301 G$WTEVTC1$0$0 == 0x00fd
                           0000FD  1302 _WTEVTC1	=	0x00fd
                           00FDFC  1303 G$WTEVTC$0$0 == 0xfdfc
                           00FDFC  1304 _WTEVTC	=	0xfdfc
                           0000FE  1305 G$WTEVTD0$0$0 == 0x00fe
                           0000FE  1306 _WTEVTD0	=	0x00fe
                           0000FF  1307 G$WTEVTD1$0$0 == 0x00ff
                           0000FF  1308 _WTEVTD1	=	0x00ff
                           00FFFE  1309 G$WTEVTD$0$0 == 0xfffe
                           00FFFE  1310 _WTEVTD	=	0xfffe
                           0000E9  1311 G$WTIRQEN$0$0 == 0x00e9
                           0000E9  1312 _WTIRQEN	=	0x00e9
                           0000EA  1313 G$WTSTAT$0$0 == 0x00ea
                           0000EA  1314 _WTSTAT	=	0x00ea
                                   1315 ;--------------------------------------------------------
                                   1316 ; special function bits
                                   1317 ;--------------------------------------------------------
                                   1318 	.area RSEG    (ABS,DATA)
      000000                       1319 	.org 0x0000
                           0000E0  1320 G$ACC_0$0$0 == 0x00e0
                           0000E0  1321 _ACC_0	=	0x00e0
                           0000E1  1322 G$ACC_1$0$0 == 0x00e1
                           0000E1  1323 _ACC_1	=	0x00e1
                           0000E2  1324 G$ACC_2$0$0 == 0x00e2
                           0000E2  1325 _ACC_2	=	0x00e2
                           0000E3  1326 G$ACC_3$0$0 == 0x00e3
                           0000E3  1327 _ACC_3	=	0x00e3
                           0000E4  1328 G$ACC_4$0$0 == 0x00e4
                           0000E4  1329 _ACC_4	=	0x00e4
                           0000E5  1330 G$ACC_5$0$0 == 0x00e5
                           0000E5  1331 _ACC_5	=	0x00e5
                           0000E6  1332 G$ACC_6$0$0 == 0x00e6
                           0000E6  1333 _ACC_6	=	0x00e6
                           0000E7  1334 G$ACC_7$0$0 == 0x00e7
                           0000E7  1335 _ACC_7	=	0x00e7
                           0000F0  1336 G$B_0$0$0 == 0x00f0
                           0000F0  1337 _B_0	=	0x00f0
                           0000F1  1338 G$B_1$0$0 == 0x00f1
                           0000F1  1339 _B_1	=	0x00f1
                           0000F2  1340 G$B_2$0$0 == 0x00f2
                           0000F2  1341 _B_2	=	0x00f2
                           0000F3  1342 G$B_3$0$0 == 0x00f3
                           0000F3  1343 _B_3	=	0x00f3
                           0000F4  1344 G$B_4$0$0 == 0x00f4
                           0000F4  1345 _B_4	=	0x00f4
                           0000F5  1346 G$B_5$0$0 == 0x00f5
                           0000F5  1347 _B_5	=	0x00f5
                           0000F6  1348 G$B_6$0$0 == 0x00f6
                           0000F6  1349 _B_6	=	0x00f6
                           0000F7  1350 G$B_7$0$0 == 0x00f7
                           0000F7  1351 _B_7	=	0x00f7
                           0000A0  1352 G$E2IE_0$0$0 == 0x00a0
                           0000A0  1353 _E2IE_0	=	0x00a0
                           0000A1  1354 G$E2IE_1$0$0 == 0x00a1
                           0000A1  1355 _E2IE_1	=	0x00a1
                           0000A2  1356 G$E2IE_2$0$0 == 0x00a2
                           0000A2  1357 _E2IE_2	=	0x00a2
                           0000A3  1358 G$E2IE_3$0$0 == 0x00a3
                           0000A3  1359 _E2IE_3	=	0x00a3
                           0000A4  1360 G$E2IE_4$0$0 == 0x00a4
                           0000A4  1361 _E2IE_4	=	0x00a4
                           0000A5  1362 G$E2IE_5$0$0 == 0x00a5
                           0000A5  1363 _E2IE_5	=	0x00a5
                           0000A6  1364 G$E2IE_6$0$0 == 0x00a6
                           0000A6  1365 _E2IE_6	=	0x00a6
                           0000A7  1366 G$E2IE_7$0$0 == 0x00a7
                           0000A7  1367 _E2IE_7	=	0x00a7
                           0000C0  1368 G$E2IP_0$0$0 == 0x00c0
                           0000C0  1369 _E2IP_0	=	0x00c0
                           0000C1  1370 G$E2IP_1$0$0 == 0x00c1
                           0000C1  1371 _E2IP_1	=	0x00c1
                           0000C2  1372 G$E2IP_2$0$0 == 0x00c2
                           0000C2  1373 _E2IP_2	=	0x00c2
                           0000C3  1374 G$E2IP_3$0$0 == 0x00c3
                           0000C3  1375 _E2IP_3	=	0x00c3
                           0000C4  1376 G$E2IP_4$0$0 == 0x00c4
                           0000C4  1377 _E2IP_4	=	0x00c4
                           0000C5  1378 G$E2IP_5$0$0 == 0x00c5
                           0000C5  1379 _E2IP_5	=	0x00c5
                           0000C6  1380 G$E2IP_6$0$0 == 0x00c6
                           0000C6  1381 _E2IP_6	=	0x00c6
                           0000C7  1382 G$E2IP_7$0$0 == 0x00c7
                           0000C7  1383 _E2IP_7	=	0x00c7
                           000098  1384 G$EIE_0$0$0 == 0x0098
                           000098  1385 _EIE_0	=	0x0098
                           000099  1386 G$EIE_1$0$0 == 0x0099
                           000099  1387 _EIE_1	=	0x0099
                           00009A  1388 G$EIE_2$0$0 == 0x009a
                           00009A  1389 _EIE_2	=	0x009a
                           00009B  1390 G$EIE_3$0$0 == 0x009b
                           00009B  1391 _EIE_3	=	0x009b
                           00009C  1392 G$EIE_4$0$0 == 0x009c
                           00009C  1393 _EIE_4	=	0x009c
                           00009D  1394 G$EIE_5$0$0 == 0x009d
                           00009D  1395 _EIE_5	=	0x009d
                           00009E  1396 G$EIE_6$0$0 == 0x009e
                           00009E  1397 _EIE_6	=	0x009e
                           00009F  1398 G$EIE_7$0$0 == 0x009f
                           00009F  1399 _EIE_7	=	0x009f
                           0000B0  1400 G$EIP_0$0$0 == 0x00b0
                           0000B0  1401 _EIP_0	=	0x00b0
                           0000B1  1402 G$EIP_1$0$0 == 0x00b1
                           0000B1  1403 _EIP_1	=	0x00b1
                           0000B2  1404 G$EIP_2$0$0 == 0x00b2
                           0000B2  1405 _EIP_2	=	0x00b2
                           0000B3  1406 G$EIP_3$0$0 == 0x00b3
                           0000B3  1407 _EIP_3	=	0x00b3
                           0000B4  1408 G$EIP_4$0$0 == 0x00b4
                           0000B4  1409 _EIP_4	=	0x00b4
                           0000B5  1410 G$EIP_5$0$0 == 0x00b5
                           0000B5  1411 _EIP_5	=	0x00b5
                           0000B6  1412 G$EIP_6$0$0 == 0x00b6
                           0000B6  1413 _EIP_6	=	0x00b6
                           0000B7  1414 G$EIP_7$0$0 == 0x00b7
                           0000B7  1415 _EIP_7	=	0x00b7
                           0000A8  1416 G$IE_0$0$0 == 0x00a8
                           0000A8  1417 _IE_0	=	0x00a8
                           0000A9  1418 G$IE_1$0$0 == 0x00a9
                           0000A9  1419 _IE_1	=	0x00a9
                           0000AA  1420 G$IE_2$0$0 == 0x00aa
                           0000AA  1421 _IE_2	=	0x00aa
                           0000AB  1422 G$IE_3$0$0 == 0x00ab
                           0000AB  1423 _IE_3	=	0x00ab
                           0000AC  1424 G$IE_4$0$0 == 0x00ac
                           0000AC  1425 _IE_4	=	0x00ac
                           0000AD  1426 G$IE_5$0$0 == 0x00ad
                           0000AD  1427 _IE_5	=	0x00ad
                           0000AE  1428 G$IE_6$0$0 == 0x00ae
                           0000AE  1429 _IE_6	=	0x00ae
                           0000AF  1430 G$IE_7$0$0 == 0x00af
                           0000AF  1431 _IE_7	=	0x00af
                           0000AF  1432 G$EA$0$0 == 0x00af
                           0000AF  1433 _EA	=	0x00af
                           0000B8  1434 G$IP_0$0$0 == 0x00b8
                           0000B8  1435 _IP_0	=	0x00b8
                           0000B9  1436 G$IP_1$0$0 == 0x00b9
                           0000B9  1437 _IP_1	=	0x00b9
                           0000BA  1438 G$IP_2$0$0 == 0x00ba
                           0000BA  1439 _IP_2	=	0x00ba
                           0000BB  1440 G$IP_3$0$0 == 0x00bb
                           0000BB  1441 _IP_3	=	0x00bb
                           0000BC  1442 G$IP_4$0$0 == 0x00bc
                           0000BC  1443 _IP_4	=	0x00bc
                           0000BD  1444 G$IP_5$0$0 == 0x00bd
                           0000BD  1445 _IP_5	=	0x00bd
                           0000BE  1446 G$IP_6$0$0 == 0x00be
                           0000BE  1447 _IP_6	=	0x00be
                           0000BF  1448 G$IP_7$0$0 == 0x00bf
                           0000BF  1449 _IP_7	=	0x00bf
                           0000D0  1450 G$P$0$0 == 0x00d0
                           0000D0  1451 _P	=	0x00d0
                           0000D1  1452 G$F1$0$0 == 0x00d1
                           0000D1  1453 _F1	=	0x00d1
                           0000D2  1454 G$OV$0$0 == 0x00d2
                           0000D2  1455 _OV	=	0x00d2
                           0000D3  1456 G$RS0$0$0 == 0x00d3
                           0000D3  1457 _RS0	=	0x00d3
                           0000D4  1458 G$RS1$0$0 == 0x00d4
                           0000D4  1459 _RS1	=	0x00d4
                           0000D5  1460 G$F0$0$0 == 0x00d5
                           0000D5  1461 _F0	=	0x00d5
                           0000D6  1462 G$AC$0$0 == 0x00d6
                           0000D6  1463 _AC	=	0x00d6
                           0000D7  1464 G$CY$0$0 == 0x00d7
                           0000D7  1465 _CY	=	0x00d7
                           0000C8  1466 G$PINA_0$0$0 == 0x00c8
                           0000C8  1467 _PINA_0	=	0x00c8
                           0000C9  1468 G$PINA_1$0$0 == 0x00c9
                           0000C9  1469 _PINA_1	=	0x00c9
                           0000CA  1470 G$PINA_2$0$0 == 0x00ca
                           0000CA  1471 _PINA_2	=	0x00ca
                           0000CB  1472 G$PINA_3$0$0 == 0x00cb
                           0000CB  1473 _PINA_3	=	0x00cb
                           0000CC  1474 G$PINA_4$0$0 == 0x00cc
                           0000CC  1475 _PINA_4	=	0x00cc
                           0000CD  1476 G$PINA_5$0$0 == 0x00cd
                           0000CD  1477 _PINA_5	=	0x00cd
                           0000CE  1478 G$PINA_6$0$0 == 0x00ce
                           0000CE  1479 _PINA_6	=	0x00ce
                           0000CF  1480 G$PINA_7$0$0 == 0x00cf
                           0000CF  1481 _PINA_7	=	0x00cf
                           0000E8  1482 G$PINB_0$0$0 == 0x00e8
                           0000E8  1483 _PINB_0	=	0x00e8
                           0000E9  1484 G$PINB_1$0$0 == 0x00e9
                           0000E9  1485 _PINB_1	=	0x00e9
                           0000EA  1486 G$PINB_2$0$0 == 0x00ea
                           0000EA  1487 _PINB_2	=	0x00ea
                           0000EB  1488 G$PINB_3$0$0 == 0x00eb
                           0000EB  1489 _PINB_3	=	0x00eb
                           0000EC  1490 G$PINB_4$0$0 == 0x00ec
                           0000EC  1491 _PINB_4	=	0x00ec
                           0000ED  1492 G$PINB_5$0$0 == 0x00ed
                           0000ED  1493 _PINB_5	=	0x00ed
                           0000EE  1494 G$PINB_6$0$0 == 0x00ee
                           0000EE  1495 _PINB_6	=	0x00ee
                           0000EF  1496 G$PINB_7$0$0 == 0x00ef
                           0000EF  1497 _PINB_7	=	0x00ef
                           0000F8  1498 G$PINC_0$0$0 == 0x00f8
                           0000F8  1499 _PINC_0	=	0x00f8
                           0000F9  1500 G$PINC_1$0$0 == 0x00f9
                           0000F9  1501 _PINC_1	=	0x00f9
                           0000FA  1502 G$PINC_2$0$0 == 0x00fa
                           0000FA  1503 _PINC_2	=	0x00fa
                           0000FB  1504 G$PINC_3$0$0 == 0x00fb
                           0000FB  1505 _PINC_3	=	0x00fb
                           0000FC  1506 G$PINC_4$0$0 == 0x00fc
                           0000FC  1507 _PINC_4	=	0x00fc
                           0000FD  1508 G$PINC_5$0$0 == 0x00fd
                           0000FD  1509 _PINC_5	=	0x00fd
                           0000FE  1510 G$PINC_6$0$0 == 0x00fe
                           0000FE  1511 _PINC_6	=	0x00fe
                           0000FF  1512 G$PINC_7$0$0 == 0x00ff
                           0000FF  1513 _PINC_7	=	0x00ff
                           000080  1514 G$PORTA_0$0$0 == 0x0080
                           000080  1515 _PORTA_0	=	0x0080
                           000081  1516 G$PORTA_1$0$0 == 0x0081
                           000081  1517 _PORTA_1	=	0x0081
                           000082  1518 G$PORTA_2$0$0 == 0x0082
                           000082  1519 _PORTA_2	=	0x0082
                           000083  1520 G$PORTA_3$0$0 == 0x0083
                           000083  1521 _PORTA_3	=	0x0083
                           000084  1522 G$PORTA_4$0$0 == 0x0084
                           000084  1523 _PORTA_4	=	0x0084
                           000085  1524 G$PORTA_5$0$0 == 0x0085
                           000085  1525 _PORTA_5	=	0x0085
                           000086  1526 G$PORTA_6$0$0 == 0x0086
                           000086  1527 _PORTA_6	=	0x0086
                           000087  1528 G$PORTA_7$0$0 == 0x0087
                           000087  1529 _PORTA_7	=	0x0087
                           000088  1530 G$PORTB_0$0$0 == 0x0088
                           000088  1531 _PORTB_0	=	0x0088
                           000089  1532 G$PORTB_1$0$0 == 0x0089
                           000089  1533 _PORTB_1	=	0x0089
                           00008A  1534 G$PORTB_2$0$0 == 0x008a
                           00008A  1535 _PORTB_2	=	0x008a
                           00008B  1536 G$PORTB_3$0$0 == 0x008b
                           00008B  1537 _PORTB_3	=	0x008b
                           00008C  1538 G$PORTB_4$0$0 == 0x008c
                           00008C  1539 _PORTB_4	=	0x008c
                           00008D  1540 G$PORTB_5$0$0 == 0x008d
                           00008D  1541 _PORTB_5	=	0x008d
                           00008E  1542 G$PORTB_6$0$0 == 0x008e
                           00008E  1543 _PORTB_6	=	0x008e
                           00008F  1544 G$PORTB_7$0$0 == 0x008f
                           00008F  1545 _PORTB_7	=	0x008f
                           000090  1546 G$PORTC_0$0$0 == 0x0090
                           000090  1547 _PORTC_0	=	0x0090
                           000091  1548 G$PORTC_1$0$0 == 0x0091
                           000091  1549 _PORTC_1	=	0x0091
                           000092  1550 G$PORTC_2$0$0 == 0x0092
                           000092  1551 _PORTC_2	=	0x0092
                           000093  1552 G$PORTC_3$0$0 == 0x0093
                           000093  1553 _PORTC_3	=	0x0093
                           000094  1554 G$PORTC_4$0$0 == 0x0094
                           000094  1555 _PORTC_4	=	0x0094
                           000095  1556 G$PORTC_5$0$0 == 0x0095
                           000095  1557 _PORTC_5	=	0x0095
                           000096  1558 G$PORTC_6$0$0 == 0x0096
                           000096  1559 _PORTC_6	=	0x0096
                           000097  1560 G$PORTC_7$0$0 == 0x0097
                           000097  1561 _PORTC_7	=	0x0097
                                   1562 ;--------------------------------------------------------
                                   1563 ; overlayable register banks
                                   1564 ;--------------------------------------------------------
                                   1565 	.area REG_BANK_0	(REL,OVR,DATA)
      000000                       1566 	.ds 8
                                   1567 ;--------------------------------------------------------
                                   1568 ; internal ram data
                                   1569 ;--------------------------------------------------------
                                   1570 	.area DSEG    (DATA)
                           000000  1571 G$coldstart$0$0==.
      000050                       1572 _coldstart::
      000050                       1573 	.ds 1
                           000001  1574 Lmain.axradio_statuschange$st$1$370==.
      000051                       1575 _axradio_statuschange_st_1_370:
      000051                       1576 	.ds 2
                           000003  1577 Lmain.axradio_statuschange$sloc0$1$0==.
      000053                       1578 _axradio_statuschange_sloc0_1_0:
      000053                       1579 	.ds 4
                                   1580 ;--------------------------------------------------------
                                   1581 ; overlayable items in internal ram 
                                   1582 ;--------------------------------------------------------
                                   1583 ;--------------------------------------------------------
                                   1584 ; Stack segment in internal ram 
                                   1585 ;--------------------------------------------------------
                                   1586 	.area	SSEG
      00007E                       1587 __start__stack:
      00007E                       1588 	.ds	1
                                   1589 
                                   1590 ;--------------------------------------------------------
                                   1591 ; indirectly addressable internal ram data
                                   1592 ;--------------------------------------------------------
                                   1593 	.area ISEG    (DATA)
                                   1594 ;--------------------------------------------------------
                                   1595 ; absolute internal ram data
                                   1596 ;--------------------------------------------------------
                                   1597 	.area IABS    (ABS,DATA)
                                   1598 	.area IABS    (ABS,DATA)
                                   1599 ;--------------------------------------------------------
                                   1600 ; bit data
                                   1601 ;--------------------------------------------------------
                                   1602 	.area BSEG    (BIT)
                           000000  1603 Lmain._sdcc_external_startup$sloc0$1$0==.
      000001                       1604 __sdcc_external_startup_sloc0_1_0:
      000001                       1605 	.ds 1
                                   1606 ;--------------------------------------------------------
                                   1607 ; paged external ram data
                                   1608 ;--------------------------------------------------------
                                   1609 	.area PSEG    (PAG,XDATA)
                                   1610 ;--------------------------------------------------------
                                   1611 ; external ram data
                                   1612 ;--------------------------------------------------------
                                   1613 	.area XSEG    (XDATA)
                           007020  1614 G$ADCCH0VAL0$0$0 == 0x7020
                           007020  1615 _ADCCH0VAL0	=	0x7020
                           007021  1616 G$ADCCH0VAL1$0$0 == 0x7021
                           007021  1617 _ADCCH0VAL1	=	0x7021
                           007020  1618 G$ADCCH0VAL$0$0 == 0x7020
                           007020  1619 _ADCCH0VAL	=	0x7020
                           007022  1620 G$ADCCH1VAL0$0$0 == 0x7022
                           007022  1621 _ADCCH1VAL0	=	0x7022
                           007023  1622 G$ADCCH1VAL1$0$0 == 0x7023
                           007023  1623 _ADCCH1VAL1	=	0x7023
                           007022  1624 G$ADCCH1VAL$0$0 == 0x7022
                           007022  1625 _ADCCH1VAL	=	0x7022
                           007024  1626 G$ADCCH2VAL0$0$0 == 0x7024
                           007024  1627 _ADCCH2VAL0	=	0x7024
                           007025  1628 G$ADCCH2VAL1$0$0 == 0x7025
                           007025  1629 _ADCCH2VAL1	=	0x7025
                           007024  1630 G$ADCCH2VAL$0$0 == 0x7024
                           007024  1631 _ADCCH2VAL	=	0x7024
                           007026  1632 G$ADCCH3VAL0$0$0 == 0x7026
                           007026  1633 _ADCCH3VAL0	=	0x7026
                           007027  1634 G$ADCCH3VAL1$0$0 == 0x7027
                           007027  1635 _ADCCH3VAL1	=	0x7027
                           007026  1636 G$ADCCH3VAL$0$0 == 0x7026
                           007026  1637 _ADCCH3VAL	=	0x7026
                           007028  1638 G$ADCTUNE0$0$0 == 0x7028
                           007028  1639 _ADCTUNE0	=	0x7028
                           007029  1640 G$ADCTUNE1$0$0 == 0x7029
                           007029  1641 _ADCTUNE1	=	0x7029
                           00702A  1642 G$ADCTUNE2$0$0 == 0x702a
                           00702A  1643 _ADCTUNE2	=	0x702a
                           007010  1644 G$DMA0ADDR0$0$0 == 0x7010
                           007010  1645 _DMA0ADDR0	=	0x7010
                           007011  1646 G$DMA0ADDR1$0$0 == 0x7011
                           007011  1647 _DMA0ADDR1	=	0x7011
                           007010  1648 G$DMA0ADDR$0$0 == 0x7010
                           007010  1649 _DMA0ADDR	=	0x7010
                           007014  1650 G$DMA0CONFIG$0$0 == 0x7014
                           007014  1651 _DMA0CONFIG	=	0x7014
                           007012  1652 G$DMA1ADDR0$0$0 == 0x7012
                           007012  1653 _DMA1ADDR0	=	0x7012
                           007013  1654 G$DMA1ADDR1$0$0 == 0x7013
                           007013  1655 _DMA1ADDR1	=	0x7013
                           007012  1656 G$DMA1ADDR$0$0 == 0x7012
                           007012  1657 _DMA1ADDR	=	0x7012
                           007015  1658 G$DMA1CONFIG$0$0 == 0x7015
                           007015  1659 _DMA1CONFIG	=	0x7015
                           007070  1660 G$FRCOSCCONFIG$0$0 == 0x7070
                           007070  1661 _FRCOSCCONFIG	=	0x7070
                           007071  1662 G$FRCOSCCTRL$0$0 == 0x7071
                           007071  1663 _FRCOSCCTRL	=	0x7071
                           007076  1664 G$FRCOSCFREQ0$0$0 == 0x7076
                           007076  1665 _FRCOSCFREQ0	=	0x7076
                           007077  1666 G$FRCOSCFREQ1$0$0 == 0x7077
                           007077  1667 _FRCOSCFREQ1	=	0x7077
                           007076  1668 G$FRCOSCFREQ$0$0 == 0x7076
                           007076  1669 _FRCOSCFREQ	=	0x7076
                           007072  1670 G$FRCOSCKFILT0$0$0 == 0x7072
                           007072  1671 _FRCOSCKFILT0	=	0x7072
                           007073  1672 G$FRCOSCKFILT1$0$0 == 0x7073
                           007073  1673 _FRCOSCKFILT1	=	0x7073
                           007072  1674 G$FRCOSCKFILT$0$0 == 0x7072
                           007072  1675 _FRCOSCKFILT	=	0x7072
                           007078  1676 G$FRCOSCPER0$0$0 == 0x7078
                           007078  1677 _FRCOSCPER0	=	0x7078
                           007079  1678 G$FRCOSCPER1$0$0 == 0x7079
                           007079  1679 _FRCOSCPER1	=	0x7079
                           007078  1680 G$FRCOSCPER$0$0 == 0x7078
                           007078  1681 _FRCOSCPER	=	0x7078
                           007074  1682 G$FRCOSCREF0$0$0 == 0x7074
                           007074  1683 _FRCOSCREF0	=	0x7074
                           007075  1684 G$FRCOSCREF1$0$0 == 0x7075
                           007075  1685 _FRCOSCREF1	=	0x7075
                           007074  1686 G$FRCOSCREF$0$0 == 0x7074
                           007074  1687 _FRCOSCREF	=	0x7074
                           007007  1688 G$ANALOGA$0$0 == 0x7007
                           007007  1689 _ANALOGA	=	0x7007
                           00700C  1690 G$GPIOENABLE$0$0 == 0x700c
                           00700C  1691 _GPIOENABLE	=	0x700c
                           007003  1692 G$EXTIRQ$0$0 == 0x7003
                           007003  1693 _EXTIRQ	=	0x7003
                           007000  1694 G$INTCHGA$0$0 == 0x7000
                           007000  1695 _INTCHGA	=	0x7000
                           007001  1696 G$INTCHGB$0$0 == 0x7001
                           007001  1697 _INTCHGB	=	0x7001
                           007002  1698 G$INTCHGC$0$0 == 0x7002
                           007002  1699 _INTCHGC	=	0x7002
                           007008  1700 G$PALTA$0$0 == 0x7008
                           007008  1701 _PALTA	=	0x7008
                           007009  1702 G$PALTB$0$0 == 0x7009
                           007009  1703 _PALTB	=	0x7009
                           00700A  1704 G$PALTC$0$0 == 0x700a
                           00700A  1705 _PALTC	=	0x700a
                           007046  1706 G$PALTRADIO$0$0 == 0x7046
                           007046  1707 _PALTRADIO	=	0x7046
                           007004  1708 G$PINCHGA$0$0 == 0x7004
                           007004  1709 _PINCHGA	=	0x7004
                           007005  1710 G$PINCHGB$0$0 == 0x7005
                           007005  1711 _PINCHGB	=	0x7005
                           007006  1712 G$PINCHGC$0$0 == 0x7006
                           007006  1713 _PINCHGC	=	0x7006
                           00700B  1714 G$PINSEL$0$0 == 0x700b
                           00700B  1715 _PINSEL	=	0x700b
                           007060  1716 G$LPOSCCONFIG$0$0 == 0x7060
                           007060  1717 _LPOSCCONFIG	=	0x7060
                           007066  1718 G$LPOSCFREQ0$0$0 == 0x7066
                           007066  1719 _LPOSCFREQ0	=	0x7066
                           007067  1720 G$LPOSCFREQ1$0$0 == 0x7067
                           007067  1721 _LPOSCFREQ1	=	0x7067
                           007066  1722 G$LPOSCFREQ$0$0 == 0x7066
                           007066  1723 _LPOSCFREQ	=	0x7066
                           007062  1724 G$LPOSCKFILT0$0$0 == 0x7062
                           007062  1725 _LPOSCKFILT0	=	0x7062
                           007063  1726 G$LPOSCKFILT1$0$0 == 0x7063
                           007063  1727 _LPOSCKFILT1	=	0x7063
                           007062  1728 G$LPOSCKFILT$0$0 == 0x7062
                           007062  1729 _LPOSCKFILT	=	0x7062
                           007068  1730 G$LPOSCPER0$0$0 == 0x7068
                           007068  1731 _LPOSCPER0	=	0x7068
                           007069  1732 G$LPOSCPER1$0$0 == 0x7069
                           007069  1733 _LPOSCPER1	=	0x7069
                           007068  1734 G$LPOSCPER$0$0 == 0x7068
                           007068  1735 _LPOSCPER	=	0x7068
                           007064  1736 G$LPOSCREF0$0$0 == 0x7064
                           007064  1737 _LPOSCREF0	=	0x7064
                           007065  1738 G$LPOSCREF1$0$0 == 0x7065
                           007065  1739 _LPOSCREF1	=	0x7065
                           007064  1740 G$LPOSCREF$0$0 == 0x7064
                           007064  1741 _LPOSCREF	=	0x7064
                           007054  1742 G$LPXOSCGM$0$0 == 0x7054
                           007054  1743 _LPXOSCGM	=	0x7054
                           007F01  1744 G$MISCCTRL$0$0 == 0x7f01
                           007F01  1745 _MISCCTRL	=	0x7f01
                           007053  1746 G$OSCCALIB$0$0 == 0x7053
                           007053  1747 _OSCCALIB	=	0x7053
                           007050  1748 G$OSCFORCERUN$0$0 == 0x7050
                           007050  1749 _OSCFORCERUN	=	0x7050
                           007052  1750 G$OSCREADY$0$0 == 0x7052
                           007052  1751 _OSCREADY	=	0x7052
                           007051  1752 G$OSCRUN$0$0 == 0x7051
                           007051  1753 _OSCRUN	=	0x7051
                           007040  1754 G$RADIOFDATAADDR0$0$0 == 0x7040
                           007040  1755 _RADIOFDATAADDR0	=	0x7040
                           007041  1756 G$RADIOFDATAADDR1$0$0 == 0x7041
                           007041  1757 _RADIOFDATAADDR1	=	0x7041
                           007040  1758 G$RADIOFDATAADDR$0$0 == 0x7040
                           007040  1759 _RADIOFDATAADDR	=	0x7040
                           007042  1760 G$RADIOFSTATADDR0$0$0 == 0x7042
                           007042  1761 _RADIOFSTATADDR0	=	0x7042
                           007043  1762 G$RADIOFSTATADDR1$0$0 == 0x7043
                           007043  1763 _RADIOFSTATADDR1	=	0x7043
                           007042  1764 G$RADIOFSTATADDR$0$0 == 0x7042
                           007042  1765 _RADIOFSTATADDR	=	0x7042
                           007044  1766 G$RADIOMUX$0$0 == 0x7044
                           007044  1767 _RADIOMUX	=	0x7044
                           007084  1768 G$SCRATCH0$0$0 == 0x7084
                           007084  1769 _SCRATCH0	=	0x7084
                           007085  1770 G$SCRATCH1$0$0 == 0x7085
                           007085  1771 _SCRATCH1	=	0x7085
                           007086  1772 G$SCRATCH2$0$0 == 0x7086
                           007086  1773 _SCRATCH2	=	0x7086
                           007087  1774 G$SCRATCH3$0$0 == 0x7087
                           007087  1775 _SCRATCH3	=	0x7087
                           007F00  1776 G$SILICONREV$0$0 == 0x7f00
                           007F00  1777 _SILICONREV	=	0x7f00
                           007F19  1778 G$XTALAMPL$0$0 == 0x7f19
                           007F19  1779 _XTALAMPL	=	0x7f19
                           007F18  1780 G$XTALOSC$0$0 == 0x7f18
                           007F18  1781 _XTALOSC	=	0x7f18
                           007F1A  1782 G$XTALREADY$0$0 == 0x7f1a
                           007F1A  1783 _XTALREADY	=	0x7f1a
                           00FC06  1784 Fmain$flash_deviceid$0$0 == 0xfc06
                           00FC06  1785 _flash_deviceid	=	0xfc06
                           00FC00  1786 Fmain$flash_calsector$0$0 == 0xfc00
                           00FC00  1787 _flash_calsector	=	0xfc00
                           007091  1788 G$AESCONFIG$0$0 == 0x7091
                           007091  1789 _AESCONFIG	=	0x7091
                           007098  1790 G$AESCURBLOCK$0$0 == 0x7098
                           007098  1791 _AESCURBLOCK	=	0x7098
                           007094  1792 G$AESINADDR0$0$0 == 0x7094
                           007094  1793 _AESINADDR0	=	0x7094
                           007095  1794 G$AESINADDR1$0$0 == 0x7095
                           007095  1795 _AESINADDR1	=	0x7095
                           007094  1796 G$AESINADDR$0$0 == 0x7094
                           007094  1797 _AESINADDR	=	0x7094
                           007092  1798 G$AESKEYADDR0$0$0 == 0x7092
                           007092  1799 _AESKEYADDR0	=	0x7092
                           007093  1800 G$AESKEYADDR1$0$0 == 0x7093
                           007093  1801 _AESKEYADDR1	=	0x7093
                           007092  1802 G$AESKEYADDR$0$0 == 0x7092
                           007092  1803 _AESKEYADDR	=	0x7092
                           007090  1804 G$AESMODE$0$0 == 0x7090
                           007090  1805 _AESMODE	=	0x7090
                           007096  1806 G$AESOUTADDR0$0$0 == 0x7096
                           007096  1807 _AESOUTADDR0	=	0x7096
                           007097  1808 G$AESOUTADDR1$0$0 == 0x7097
                           007097  1809 _AESOUTADDR1	=	0x7097
                           007096  1810 G$AESOUTADDR$0$0 == 0x7096
                           007096  1811 _AESOUTADDR	=	0x7096
                           007081  1812 G$RNGBYTE$0$0 == 0x7081
                           007081  1813 _RNGBYTE	=	0x7081
                           007082  1814 G$RNGCLKSRC0$0$0 == 0x7082
                           007082  1815 _RNGCLKSRC0	=	0x7082
                           007083  1816 G$RNGCLKSRC1$0$0 == 0x7083
                           007083  1817 _RNGCLKSRC1	=	0x7083
                           007080  1818 G$RNGMODE$0$0 == 0x7080
                           007080  1819 _RNGMODE	=	0x7080
                           004114  1820 G$AX5043_AFSKCTRL$0$0 == 0x4114
                           004114  1821 _AX5043_AFSKCTRL	=	0x4114
                           004113  1822 G$AX5043_AFSKMARK0$0$0 == 0x4113
                           004113  1823 _AX5043_AFSKMARK0	=	0x4113
                           004112  1824 G$AX5043_AFSKMARK1$0$0 == 0x4112
                           004112  1825 _AX5043_AFSKMARK1	=	0x4112
                           004111  1826 G$AX5043_AFSKSPACE0$0$0 == 0x4111
                           004111  1827 _AX5043_AFSKSPACE0	=	0x4111
                           004110  1828 G$AX5043_AFSKSPACE1$0$0 == 0x4110
                           004110  1829 _AX5043_AFSKSPACE1	=	0x4110
                           004043  1830 G$AX5043_AGCCOUNTER$0$0 == 0x4043
                           004043  1831 _AX5043_AGCCOUNTER	=	0x4043
                           004115  1832 G$AX5043_AMPLFILTER$0$0 == 0x4115
                           004115  1833 _AX5043_AMPLFILTER	=	0x4115
                           004189  1834 G$AX5043_BBOFFSCAP$0$0 == 0x4189
                           004189  1835 _AX5043_BBOFFSCAP	=	0x4189
                           004188  1836 G$AX5043_BBTUNE$0$0 == 0x4188
                           004188  1837 _AX5043_BBTUNE	=	0x4188
                           004041  1838 G$AX5043_BGNDRSSI$0$0 == 0x4041
                           004041  1839 _AX5043_BGNDRSSI	=	0x4041
                           00422E  1840 G$AX5043_BGNDRSSIGAIN$0$0 == 0x422e
                           00422E  1841 _AX5043_BGNDRSSIGAIN	=	0x422e
                           00422F  1842 G$AX5043_BGNDRSSITHR$0$0 == 0x422f
                           00422F  1843 _AX5043_BGNDRSSITHR	=	0x422f
                           004017  1844 G$AX5043_CRCINIT0$0$0 == 0x4017
                           004017  1845 _AX5043_CRCINIT0	=	0x4017
                           004016  1846 G$AX5043_CRCINIT1$0$0 == 0x4016
                           004016  1847 _AX5043_CRCINIT1	=	0x4016
                           004015  1848 G$AX5043_CRCINIT2$0$0 == 0x4015
                           004015  1849 _AX5043_CRCINIT2	=	0x4015
                           004014  1850 G$AX5043_CRCINIT3$0$0 == 0x4014
                           004014  1851 _AX5043_CRCINIT3	=	0x4014
                           004332  1852 G$AX5043_DACCONFIG$0$0 == 0x4332
                           004332  1853 _AX5043_DACCONFIG	=	0x4332
                           004331  1854 G$AX5043_DACVALUE0$0$0 == 0x4331
                           004331  1855 _AX5043_DACVALUE0	=	0x4331
                           004330  1856 G$AX5043_DACVALUE1$0$0 == 0x4330
                           004330  1857 _AX5043_DACVALUE1	=	0x4330
                           004102  1858 G$AX5043_DECIMATION$0$0 == 0x4102
                           004102  1859 _AX5043_DECIMATION	=	0x4102
                           004042  1860 G$AX5043_DIVERSITY$0$0 == 0x4042
                           004042  1861 _AX5043_DIVERSITY	=	0x4042
                           004011  1862 G$AX5043_ENCODING$0$0 == 0x4011
                           004011  1863 _AX5043_ENCODING	=	0x4011
                           004018  1864 G$AX5043_FEC$0$0 == 0x4018
                           004018  1865 _AX5043_FEC	=	0x4018
                           00401A  1866 G$AX5043_FECSTATUS$0$0 == 0x401a
                           00401A  1867 _AX5043_FECSTATUS	=	0x401a
                           004019  1868 G$AX5043_FECSYNC$0$0 == 0x4019
                           004019  1869 _AX5043_FECSYNC	=	0x4019
                           00402B  1870 G$AX5043_FIFOCOUNT0$0$0 == 0x402b
                           00402B  1871 _AX5043_FIFOCOUNT0	=	0x402b
                           00402A  1872 G$AX5043_FIFOCOUNT1$0$0 == 0x402a
                           00402A  1873 _AX5043_FIFOCOUNT1	=	0x402a
                           004029  1874 G$AX5043_FIFODATA$0$0 == 0x4029
                           004029  1875 _AX5043_FIFODATA	=	0x4029
                           00402D  1876 G$AX5043_FIFOFREE0$0$0 == 0x402d
                           00402D  1877 _AX5043_FIFOFREE0	=	0x402d
                           00402C  1878 G$AX5043_FIFOFREE1$0$0 == 0x402c
                           00402C  1879 _AX5043_FIFOFREE1	=	0x402c
                           004028  1880 G$AX5043_FIFOSTAT$0$0 == 0x4028
                           004028  1881 _AX5043_FIFOSTAT	=	0x4028
                           00402F  1882 G$AX5043_FIFOTHRESH0$0$0 == 0x402f
                           00402F  1883 _AX5043_FIFOTHRESH0	=	0x402f
                           00402E  1884 G$AX5043_FIFOTHRESH1$0$0 == 0x402e
                           00402E  1885 _AX5043_FIFOTHRESH1	=	0x402e
                           004012  1886 G$AX5043_FRAMING$0$0 == 0x4012
                           004012  1887 _AX5043_FRAMING	=	0x4012
                           004037  1888 G$AX5043_FREQA0$0$0 == 0x4037
                           004037  1889 _AX5043_FREQA0	=	0x4037
                           004036  1890 G$AX5043_FREQA1$0$0 == 0x4036
                           004036  1891 _AX5043_FREQA1	=	0x4036
                           004035  1892 G$AX5043_FREQA2$0$0 == 0x4035
                           004035  1893 _AX5043_FREQA2	=	0x4035
                           004034  1894 G$AX5043_FREQA3$0$0 == 0x4034
                           004034  1895 _AX5043_FREQA3	=	0x4034
                           00403F  1896 G$AX5043_FREQB0$0$0 == 0x403f
                           00403F  1897 _AX5043_FREQB0	=	0x403f
                           00403E  1898 G$AX5043_FREQB1$0$0 == 0x403e
                           00403E  1899 _AX5043_FREQB1	=	0x403e
                           00403D  1900 G$AX5043_FREQB2$0$0 == 0x403d
                           00403D  1901 _AX5043_FREQB2	=	0x403d
                           00403C  1902 G$AX5043_FREQB3$0$0 == 0x403c
                           00403C  1903 _AX5043_FREQB3	=	0x403c
                           004163  1904 G$AX5043_FSKDEV0$0$0 == 0x4163
                           004163  1905 _AX5043_FSKDEV0	=	0x4163
                           004162  1906 G$AX5043_FSKDEV1$0$0 == 0x4162
                           004162  1907 _AX5043_FSKDEV1	=	0x4162
                           004161  1908 G$AX5043_FSKDEV2$0$0 == 0x4161
                           004161  1909 _AX5043_FSKDEV2	=	0x4161
                           00410D  1910 G$AX5043_FSKDMAX0$0$0 == 0x410d
                           00410D  1911 _AX5043_FSKDMAX0	=	0x410d
                           00410C  1912 G$AX5043_FSKDMAX1$0$0 == 0x410c
                           00410C  1913 _AX5043_FSKDMAX1	=	0x410c
                           00410F  1914 G$AX5043_FSKDMIN0$0$0 == 0x410f
                           00410F  1915 _AX5043_FSKDMIN0	=	0x410f
                           00410E  1916 G$AX5043_FSKDMIN1$0$0 == 0x410e
                           00410E  1917 _AX5043_FSKDMIN1	=	0x410e
                           004309  1918 G$AX5043_GPADC13VALUE0$0$0 == 0x4309
                           004309  1919 _AX5043_GPADC13VALUE0	=	0x4309
                           004308  1920 G$AX5043_GPADC13VALUE1$0$0 == 0x4308
                           004308  1921 _AX5043_GPADC13VALUE1	=	0x4308
                           004300  1922 G$AX5043_GPADCCTRL$0$0 == 0x4300
                           004300  1923 _AX5043_GPADCCTRL	=	0x4300
                           004301  1924 G$AX5043_GPADCPERIOD$0$0 == 0x4301
                           004301  1925 _AX5043_GPADCPERIOD	=	0x4301
                           004101  1926 G$AX5043_IFFREQ0$0$0 == 0x4101
                           004101  1927 _AX5043_IFFREQ0	=	0x4101
                           004100  1928 G$AX5043_IFFREQ1$0$0 == 0x4100
                           004100  1929 _AX5043_IFFREQ1	=	0x4100
                           00400B  1930 G$AX5043_IRQINVERSION0$0$0 == 0x400b
                           00400B  1931 _AX5043_IRQINVERSION0	=	0x400b
                           00400A  1932 G$AX5043_IRQINVERSION1$0$0 == 0x400a
                           00400A  1933 _AX5043_IRQINVERSION1	=	0x400a
                           004007  1934 G$AX5043_IRQMASK0$0$0 == 0x4007
                           004007  1935 _AX5043_IRQMASK0	=	0x4007
                           004006  1936 G$AX5043_IRQMASK1$0$0 == 0x4006
                           004006  1937 _AX5043_IRQMASK1	=	0x4006
                           00400D  1938 G$AX5043_IRQREQUEST0$0$0 == 0x400d
                           00400D  1939 _AX5043_IRQREQUEST0	=	0x400d
                           00400C  1940 G$AX5043_IRQREQUEST1$0$0 == 0x400c
                           00400C  1941 _AX5043_IRQREQUEST1	=	0x400c
                           004310  1942 G$AX5043_LPOSCCONFIG$0$0 == 0x4310
                           004310  1943 _AX5043_LPOSCCONFIG	=	0x4310
                           004317  1944 G$AX5043_LPOSCFREQ0$0$0 == 0x4317
                           004317  1945 _AX5043_LPOSCFREQ0	=	0x4317
                           004316  1946 G$AX5043_LPOSCFREQ1$0$0 == 0x4316
                           004316  1947 _AX5043_LPOSCFREQ1	=	0x4316
                           004313  1948 G$AX5043_LPOSCKFILT0$0$0 == 0x4313
                           004313  1949 _AX5043_LPOSCKFILT0	=	0x4313
                           004312  1950 G$AX5043_LPOSCKFILT1$0$0 == 0x4312
                           004312  1951 _AX5043_LPOSCKFILT1	=	0x4312
                           004319  1952 G$AX5043_LPOSCPER0$0$0 == 0x4319
                           004319  1953 _AX5043_LPOSCPER0	=	0x4319
                           004318  1954 G$AX5043_LPOSCPER1$0$0 == 0x4318
                           004318  1955 _AX5043_LPOSCPER1	=	0x4318
                           004315  1956 G$AX5043_LPOSCREF0$0$0 == 0x4315
                           004315  1957 _AX5043_LPOSCREF0	=	0x4315
                           004314  1958 G$AX5043_LPOSCREF1$0$0 == 0x4314
                           004314  1959 _AX5043_LPOSCREF1	=	0x4314
                           004311  1960 G$AX5043_LPOSCSTATUS$0$0 == 0x4311
                           004311  1961 _AX5043_LPOSCSTATUS	=	0x4311
                           004214  1962 G$AX5043_MATCH0LEN$0$0 == 0x4214
                           004214  1963 _AX5043_MATCH0LEN	=	0x4214
                           004216  1964 G$AX5043_MATCH0MAX$0$0 == 0x4216
                           004216  1965 _AX5043_MATCH0MAX	=	0x4216
                           004215  1966 G$AX5043_MATCH0MIN$0$0 == 0x4215
                           004215  1967 _AX5043_MATCH0MIN	=	0x4215
                           004213  1968 G$AX5043_MATCH0PAT0$0$0 == 0x4213
                           004213  1969 _AX5043_MATCH0PAT0	=	0x4213
                           004212  1970 G$AX5043_MATCH0PAT1$0$0 == 0x4212
                           004212  1971 _AX5043_MATCH0PAT1	=	0x4212
                           004211  1972 G$AX5043_MATCH0PAT2$0$0 == 0x4211
                           004211  1973 _AX5043_MATCH0PAT2	=	0x4211
                           004210  1974 G$AX5043_MATCH0PAT3$0$0 == 0x4210
                           004210  1975 _AX5043_MATCH0PAT3	=	0x4210
                           00421C  1976 G$AX5043_MATCH1LEN$0$0 == 0x421c
                           00421C  1977 _AX5043_MATCH1LEN	=	0x421c
                           00421E  1978 G$AX5043_MATCH1MAX$0$0 == 0x421e
                           00421E  1979 _AX5043_MATCH1MAX	=	0x421e
                           00421D  1980 G$AX5043_MATCH1MIN$0$0 == 0x421d
                           00421D  1981 _AX5043_MATCH1MIN	=	0x421d
                           004219  1982 G$AX5043_MATCH1PAT0$0$0 == 0x4219
                           004219  1983 _AX5043_MATCH1PAT0	=	0x4219
                           004218  1984 G$AX5043_MATCH1PAT1$0$0 == 0x4218
                           004218  1985 _AX5043_MATCH1PAT1	=	0x4218
                           004108  1986 G$AX5043_MAXDROFFSET0$0$0 == 0x4108
                           004108  1987 _AX5043_MAXDROFFSET0	=	0x4108
                           004107  1988 G$AX5043_MAXDROFFSET1$0$0 == 0x4107
                           004107  1989 _AX5043_MAXDROFFSET1	=	0x4107
                           004106  1990 G$AX5043_MAXDROFFSET2$0$0 == 0x4106
                           004106  1991 _AX5043_MAXDROFFSET2	=	0x4106
                           00410B  1992 G$AX5043_MAXRFOFFSET0$0$0 == 0x410b
                           00410B  1993 _AX5043_MAXRFOFFSET0	=	0x410b
                           00410A  1994 G$AX5043_MAXRFOFFSET1$0$0 == 0x410a
                           00410A  1995 _AX5043_MAXRFOFFSET1	=	0x410a
                           004109  1996 G$AX5043_MAXRFOFFSET2$0$0 == 0x4109
                           004109  1997 _AX5043_MAXRFOFFSET2	=	0x4109
                           004164  1998 G$AX5043_MODCFGA$0$0 == 0x4164
                           004164  1999 _AX5043_MODCFGA	=	0x4164
                           004160  2000 G$AX5043_MODCFGF$0$0 == 0x4160
                           004160  2001 _AX5043_MODCFGF	=	0x4160
                           004F5F  2002 G$AX5043_MODCFGP$0$0 == 0x4f5f
                           004F5F  2003 _AX5043_MODCFGP	=	0x4f5f
                           004010  2004 G$AX5043_MODULATION$0$0 == 0x4010
                           004010  2005 _AX5043_MODULATION	=	0x4010
                           004025  2006 G$AX5043_PINFUNCANTSEL$0$0 == 0x4025
                           004025  2007 _AX5043_PINFUNCANTSEL	=	0x4025
                           004023  2008 G$AX5043_PINFUNCDATA$0$0 == 0x4023
                           004023  2009 _AX5043_PINFUNCDATA	=	0x4023
                           004022  2010 G$AX5043_PINFUNCDCLK$0$0 == 0x4022
                           004022  2011 _AX5043_PINFUNCDCLK	=	0x4022
                           004024  2012 G$AX5043_PINFUNCIRQ$0$0 == 0x4024
                           004024  2013 _AX5043_PINFUNCIRQ	=	0x4024
                           004026  2014 G$AX5043_PINFUNCPWRAMP$0$0 == 0x4026
                           004026  2015 _AX5043_PINFUNCPWRAMP	=	0x4026
                           004021  2016 G$AX5043_PINFUNCSYSCLK$0$0 == 0x4021
                           004021  2017 _AX5043_PINFUNCSYSCLK	=	0x4021
                           004020  2018 G$AX5043_PINSTATE$0$0 == 0x4020
                           004020  2019 _AX5043_PINSTATE	=	0x4020
                           004233  2020 G$AX5043_PKTACCEPTFLAGS$0$0 == 0x4233
                           004233  2021 _AX5043_PKTACCEPTFLAGS	=	0x4233
                           004230  2022 G$AX5043_PKTCHUNKSIZE$0$0 == 0x4230
                           004230  2023 _AX5043_PKTCHUNKSIZE	=	0x4230
                           004231  2024 G$AX5043_PKTMISCFLAGS$0$0 == 0x4231
                           004231  2025 _AX5043_PKTMISCFLAGS	=	0x4231
                           004232  2026 G$AX5043_PKTSTOREFLAGS$0$0 == 0x4232
                           004232  2027 _AX5043_PKTSTOREFLAGS	=	0x4232
                           004031  2028 G$AX5043_PLLCPI$0$0 == 0x4031
                           004031  2029 _AX5043_PLLCPI	=	0x4031
                           004039  2030 G$AX5043_PLLCPIBOOST$0$0 == 0x4039
                           004039  2031 _AX5043_PLLCPIBOOST	=	0x4039
                           004182  2032 G$AX5043_PLLLOCKDET$0$0 == 0x4182
                           004182  2033 _AX5043_PLLLOCKDET	=	0x4182
                           004030  2034 G$AX5043_PLLLOOP$0$0 == 0x4030
                           004030  2035 _AX5043_PLLLOOP	=	0x4030
                           004038  2036 G$AX5043_PLLLOOPBOOST$0$0 == 0x4038
                           004038  2037 _AX5043_PLLLOOPBOOST	=	0x4038
                           004033  2038 G$AX5043_PLLRANGINGA$0$0 == 0x4033
                           004033  2039 _AX5043_PLLRANGINGA	=	0x4033
                           00403B  2040 G$AX5043_PLLRANGINGB$0$0 == 0x403b
                           00403B  2041 _AX5043_PLLRANGINGB	=	0x403b
                           004183  2042 G$AX5043_PLLRNGCLK$0$0 == 0x4183
                           004183  2043 _AX5043_PLLRNGCLK	=	0x4183
                           004032  2044 G$AX5043_PLLVCODIV$0$0 == 0x4032
                           004032  2045 _AX5043_PLLVCODIV	=	0x4032
                           004180  2046 G$AX5043_PLLVCOI$0$0 == 0x4180
                           004180  2047 _AX5043_PLLVCOI	=	0x4180
                           004181  2048 G$AX5043_PLLVCOIR$0$0 == 0x4181
                           004181  2049 _AX5043_PLLVCOIR	=	0x4181
                           004F08  2050 G$AX5043_POWCTRL1$0$0 == 0x4f08
                           004F08  2051 _AX5043_POWCTRL1	=	0x4f08
                           004005  2052 G$AX5043_POWIRQMASK$0$0 == 0x4005
                           004005  2053 _AX5043_POWIRQMASK	=	0x4005
                           004003  2054 G$AX5043_POWSTAT$0$0 == 0x4003
                           004003  2055 _AX5043_POWSTAT	=	0x4003
                           004004  2056 G$AX5043_POWSTICKYSTAT$0$0 == 0x4004
                           004004  2057 _AX5043_POWSTICKYSTAT	=	0x4004
                           004027  2058 G$AX5043_PWRAMP$0$0 == 0x4027
                           004027  2059 _AX5043_PWRAMP	=	0x4027
                           004002  2060 G$AX5043_PWRMODE$0$0 == 0x4002
                           004002  2061 _AX5043_PWRMODE	=	0x4002
                           004009  2062 G$AX5043_RADIOEVENTMASK0$0$0 == 0x4009
                           004009  2063 _AX5043_RADIOEVENTMASK0	=	0x4009
                           004008  2064 G$AX5043_RADIOEVENTMASK1$0$0 == 0x4008
                           004008  2065 _AX5043_RADIOEVENTMASK1	=	0x4008
                           00400F  2066 G$AX5043_RADIOEVENTREQ0$0$0 == 0x400f
                           00400F  2067 _AX5043_RADIOEVENTREQ0	=	0x400f
                           00400E  2068 G$AX5043_RADIOEVENTREQ1$0$0 == 0x400e
                           00400E  2069 _AX5043_RADIOEVENTREQ1	=	0x400e
                           00401C  2070 G$AX5043_RADIOSTATE$0$0 == 0x401c
                           00401C  2071 _AX5043_RADIOSTATE	=	0x401c
                           004F0D  2072 G$AX5043_REF$0$0 == 0x4f0d
                           004F0D  2073 _AX5043_REF	=	0x4f0d
                           004040  2074 G$AX5043_RSSI$0$0 == 0x4040
                           004040  2075 _AX5043_RSSI	=	0x4040
                           00422D  2076 G$AX5043_RSSIABSTHR$0$0 == 0x422d
                           00422D  2077 _AX5043_RSSIABSTHR	=	0x422d
                           00422C  2078 G$AX5043_RSSIREFERENCE$0$0 == 0x422c
                           00422C  2079 _AX5043_RSSIREFERENCE	=	0x422c
                           004105  2080 G$AX5043_RXDATARATE0$0$0 == 0x4105
                           004105  2081 _AX5043_RXDATARATE0	=	0x4105
                           004104  2082 G$AX5043_RXDATARATE1$0$0 == 0x4104
                           004104  2083 _AX5043_RXDATARATE1	=	0x4104
                           004103  2084 G$AX5043_RXDATARATE2$0$0 == 0x4103
                           004103  2085 _AX5043_RXDATARATE2	=	0x4103
                           004001  2086 G$AX5043_SCRATCH$0$0 == 0x4001
                           004001  2087 _AX5043_SCRATCH	=	0x4001
                           004000  2088 G$AX5043_SILICONREVISION$0$0 == 0x4000
                           004000  2089 _AX5043_SILICONREVISION	=	0x4000
                           00405B  2090 G$AX5043_TIMER0$0$0 == 0x405b
                           00405B  2091 _AX5043_TIMER0	=	0x405b
                           00405A  2092 G$AX5043_TIMER1$0$0 == 0x405a
                           00405A  2093 _AX5043_TIMER1	=	0x405a
                           004059  2094 G$AX5043_TIMER2$0$0 == 0x4059
                           004059  2095 _AX5043_TIMER2	=	0x4059
                           004227  2096 G$AX5043_TMGRXAGC$0$0 == 0x4227
                           004227  2097 _AX5043_TMGRXAGC	=	0x4227
                           004223  2098 G$AX5043_TMGRXBOOST$0$0 == 0x4223
                           004223  2099 _AX5043_TMGRXBOOST	=	0x4223
                           004226  2100 G$AX5043_TMGRXCOARSEAGC$0$0 == 0x4226
                           004226  2101 _AX5043_TMGRXCOARSEAGC	=	0x4226
                           004225  2102 G$AX5043_TMGRXOFFSACQ$0$0 == 0x4225
                           004225  2103 _AX5043_TMGRXOFFSACQ	=	0x4225
                           004229  2104 G$AX5043_TMGRXPREAMBLE1$0$0 == 0x4229
                           004229  2105 _AX5043_TMGRXPREAMBLE1	=	0x4229
                           00422A  2106 G$AX5043_TMGRXPREAMBLE2$0$0 == 0x422a
                           00422A  2107 _AX5043_TMGRXPREAMBLE2	=	0x422a
                           00422B  2108 G$AX5043_TMGRXPREAMBLE3$0$0 == 0x422b
                           00422B  2109 _AX5043_TMGRXPREAMBLE3	=	0x422b
                           004228  2110 G$AX5043_TMGRXRSSI$0$0 == 0x4228
                           004228  2111 _AX5043_TMGRXRSSI	=	0x4228
                           004224  2112 G$AX5043_TMGRXSETTLE$0$0 == 0x4224
                           004224  2113 _AX5043_TMGRXSETTLE	=	0x4224
                           004220  2114 G$AX5043_TMGTXBOOST$0$0 == 0x4220
                           004220  2115 _AX5043_TMGTXBOOST	=	0x4220
                           004221  2116 G$AX5043_TMGTXSETTLE$0$0 == 0x4221
                           004221  2117 _AX5043_TMGTXSETTLE	=	0x4221
                           004055  2118 G$AX5043_TRKAFSKDEMOD0$0$0 == 0x4055
                           004055  2119 _AX5043_TRKAFSKDEMOD0	=	0x4055
                           004054  2120 G$AX5043_TRKAFSKDEMOD1$0$0 == 0x4054
                           004054  2121 _AX5043_TRKAFSKDEMOD1	=	0x4054
                           004049  2122 G$AX5043_TRKAMPLITUDE0$0$0 == 0x4049
                           004049  2123 _AX5043_TRKAMPLITUDE0	=	0x4049
                           004048  2124 G$AX5043_TRKAMPLITUDE1$0$0 == 0x4048
                           004048  2125 _AX5043_TRKAMPLITUDE1	=	0x4048
                           004047  2126 G$AX5043_TRKDATARATE0$0$0 == 0x4047
                           004047  2127 _AX5043_TRKDATARATE0	=	0x4047
                           004046  2128 G$AX5043_TRKDATARATE1$0$0 == 0x4046
                           004046  2129 _AX5043_TRKDATARATE1	=	0x4046
                           004045  2130 G$AX5043_TRKDATARATE2$0$0 == 0x4045
                           004045  2131 _AX5043_TRKDATARATE2	=	0x4045
                           004051  2132 G$AX5043_TRKFREQ0$0$0 == 0x4051
                           004051  2133 _AX5043_TRKFREQ0	=	0x4051
                           004050  2134 G$AX5043_TRKFREQ1$0$0 == 0x4050
                           004050  2135 _AX5043_TRKFREQ1	=	0x4050
                           004053  2136 G$AX5043_TRKFSKDEMOD0$0$0 == 0x4053
                           004053  2137 _AX5043_TRKFSKDEMOD0	=	0x4053
                           004052  2138 G$AX5043_TRKFSKDEMOD1$0$0 == 0x4052
                           004052  2139 _AX5043_TRKFSKDEMOD1	=	0x4052
                           00404B  2140 G$AX5043_TRKPHASE0$0$0 == 0x404b
                           00404B  2141 _AX5043_TRKPHASE0	=	0x404b
                           00404A  2142 G$AX5043_TRKPHASE1$0$0 == 0x404a
                           00404A  2143 _AX5043_TRKPHASE1	=	0x404a
                           00404F  2144 G$AX5043_TRKRFFREQ0$0$0 == 0x404f
                           00404F  2145 _AX5043_TRKRFFREQ0	=	0x404f
                           00404E  2146 G$AX5043_TRKRFFREQ1$0$0 == 0x404e
                           00404E  2147 _AX5043_TRKRFFREQ1	=	0x404e
                           00404D  2148 G$AX5043_TRKRFFREQ2$0$0 == 0x404d
                           00404D  2149 _AX5043_TRKRFFREQ2	=	0x404d
                           004169  2150 G$AX5043_TXPWRCOEFFA0$0$0 == 0x4169
                           004169  2151 _AX5043_TXPWRCOEFFA0	=	0x4169
                           004168  2152 G$AX5043_TXPWRCOEFFA1$0$0 == 0x4168
                           004168  2153 _AX5043_TXPWRCOEFFA1	=	0x4168
                           00416B  2154 G$AX5043_TXPWRCOEFFB0$0$0 == 0x416b
                           00416B  2155 _AX5043_TXPWRCOEFFB0	=	0x416b
                           00416A  2156 G$AX5043_TXPWRCOEFFB1$0$0 == 0x416a
                           00416A  2157 _AX5043_TXPWRCOEFFB1	=	0x416a
                           00416D  2158 G$AX5043_TXPWRCOEFFC0$0$0 == 0x416d
                           00416D  2159 _AX5043_TXPWRCOEFFC0	=	0x416d
                           00416C  2160 G$AX5043_TXPWRCOEFFC1$0$0 == 0x416c
                           00416C  2161 _AX5043_TXPWRCOEFFC1	=	0x416c
                           00416F  2162 G$AX5043_TXPWRCOEFFD0$0$0 == 0x416f
                           00416F  2163 _AX5043_TXPWRCOEFFD0	=	0x416f
                           00416E  2164 G$AX5043_TXPWRCOEFFD1$0$0 == 0x416e
                           00416E  2165 _AX5043_TXPWRCOEFFD1	=	0x416e
                           004171  2166 G$AX5043_TXPWRCOEFFE0$0$0 == 0x4171
                           004171  2167 _AX5043_TXPWRCOEFFE0	=	0x4171
                           004170  2168 G$AX5043_TXPWRCOEFFE1$0$0 == 0x4170
                           004170  2169 _AX5043_TXPWRCOEFFE1	=	0x4170
                           004167  2170 G$AX5043_TXRATE0$0$0 == 0x4167
                           004167  2171 _AX5043_TXRATE0	=	0x4167
                           004166  2172 G$AX5043_TXRATE1$0$0 == 0x4166
                           004166  2173 _AX5043_TXRATE1	=	0x4166
                           004165  2174 G$AX5043_TXRATE2$0$0 == 0x4165
                           004165  2175 _AX5043_TXRATE2	=	0x4165
                           00406B  2176 G$AX5043_WAKEUP0$0$0 == 0x406b
                           00406B  2177 _AX5043_WAKEUP0	=	0x406b
                           00406A  2178 G$AX5043_WAKEUP1$0$0 == 0x406a
                           00406A  2179 _AX5043_WAKEUP1	=	0x406a
                           00406D  2180 G$AX5043_WAKEUPFREQ0$0$0 == 0x406d
                           00406D  2181 _AX5043_WAKEUPFREQ0	=	0x406d
                           00406C  2182 G$AX5043_WAKEUPFREQ1$0$0 == 0x406c
                           00406C  2183 _AX5043_WAKEUPFREQ1	=	0x406c
                           004069  2184 G$AX5043_WAKEUPTIMER0$0$0 == 0x4069
                           004069  2185 _AX5043_WAKEUPTIMER0	=	0x4069
                           004068  2186 G$AX5043_WAKEUPTIMER1$0$0 == 0x4068
                           004068  2187 _AX5043_WAKEUPTIMER1	=	0x4068
                           00406E  2188 G$AX5043_WAKEUPXOEARLY$0$0 == 0x406e
                           00406E  2189 _AX5043_WAKEUPXOEARLY	=	0x406e
                           004F11  2190 G$AX5043_XTALAMPL$0$0 == 0x4f11
                           004F11  2191 _AX5043_XTALAMPL	=	0x4f11
                           004184  2192 G$AX5043_XTALCAP$0$0 == 0x4184
                           004184  2193 _AX5043_XTALCAP	=	0x4184
                           004F10  2194 G$AX5043_XTALOSC$0$0 == 0x4f10
                           004F10  2195 _AX5043_XTALOSC	=	0x4f10
                           00401D  2196 G$AX5043_XTALSTATUS$0$0 == 0x401d
                           00401D  2197 _AX5043_XTALSTATUS	=	0x401d
                           004F00  2198 G$AX5043_0xF00$0$0 == 0x4f00
                           004F00  2199 _AX5043_0xF00	=	0x4f00
                           004F0C  2200 G$AX5043_0xF0C$0$0 == 0x4f0c
                           004F0C  2201 _AX5043_0xF0C	=	0x4f0c
                           004F18  2202 G$AX5043_0xF18$0$0 == 0x4f18
                           004F18  2203 _AX5043_0xF18	=	0x4f18
                           004F1C  2204 G$AX5043_0xF1C$0$0 == 0x4f1c
                           004F1C  2205 _AX5043_0xF1C	=	0x4f1c
                           004F21  2206 G$AX5043_0xF21$0$0 == 0x4f21
                           004F21  2207 _AX5043_0xF21	=	0x4f21
                           004F22  2208 G$AX5043_0xF22$0$0 == 0x4f22
                           004F22  2209 _AX5043_0xF22	=	0x4f22
                           004F23  2210 G$AX5043_0xF23$0$0 == 0x4f23
                           004F23  2211 _AX5043_0xF23	=	0x4f23
                           004F26  2212 G$AX5043_0xF26$0$0 == 0x4f26
                           004F26  2213 _AX5043_0xF26	=	0x4f26
                           004F30  2214 G$AX5043_0xF30$0$0 == 0x4f30
                           004F30  2215 _AX5043_0xF30	=	0x4f30
                           004F31  2216 G$AX5043_0xF31$0$0 == 0x4f31
                           004F31  2217 _AX5043_0xF31	=	0x4f31
                           004F32  2218 G$AX5043_0xF32$0$0 == 0x4f32
                           004F32  2219 _AX5043_0xF32	=	0x4f32
                           004F33  2220 G$AX5043_0xF33$0$0 == 0x4f33
                           004F33  2221 _AX5043_0xF33	=	0x4f33
                           004F34  2222 G$AX5043_0xF34$0$0 == 0x4f34
                           004F34  2223 _AX5043_0xF34	=	0x4f34
                           004F35  2224 G$AX5043_0xF35$0$0 == 0x4f35
                           004F35  2225 _AX5043_0xF35	=	0x4f35
                           004F44  2226 G$AX5043_0xF44$0$0 == 0x4f44
                           004F44  2227 _AX5043_0xF44	=	0x4f44
                           004122  2228 G$AX5043_AGCAHYST0$0$0 == 0x4122
                           004122  2229 _AX5043_AGCAHYST0	=	0x4122
                           004132  2230 G$AX5043_AGCAHYST1$0$0 == 0x4132
                           004132  2231 _AX5043_AGCAHYST1	=	0x4132
                           004142  2232 G$AX5043_AGCAHYST2$0$0 == 0x4142
                           004142  2233 _AX5043_AGCAHYST2	=	0x4142
                           004152  2234 G$AX5043_AGCAHYST3$0$0 == 0x4152
                           004152  2235 _AX5043_AGCAHYST3	=	0x4152
                           004120  2236 G$AX5043_AGCGAIN0$0$0 == 0x4120
                           004120  2237 _AX5043_AGCGAIN0	=	0x4120
                           004130  2238 G$AX5043_AGCGAIN1$0$0 == 0x4130
                           004130  2239 _AX5043_AGCGAIN1	=	0x4130
                           004140  2240 G$AX5043_AGCGAIN2$0$0 == 0x4140
                           004140  2241 _AX5043_AGCGAIN2	=	0x4140
                           004150  2242 G$AX5043_AGCGAIN3$0$0 == 0x4150
                           004150  2243 _AX5043_AGCGAIN3	=	0x4150
                           004123  2244 G$AX5043_AGCMINMAX0$0$0 == 0x4123
                           004123  2245 _AX5043_AGCMINMAX0	=	0x4123
                           004133  2246 G$AX5043_AGCMINMAX1$0$0 == 0x4133
                           004133  2247 _AX5043_AGCMINMAX1	=	0x4133
                           004143  2248 G$AX5043_AGCMINMAX2$0$0 == 0x4143
                           004143  2249 _AX5043_AGCMINMAX2	=	0x4143
                           004153  2250 G$AX5043_AGCMINMAX3$0$0 == 0x4153
                           004153  2251 _AX5043_AGCMINMAX3	=	0x4153
                           004121  2252 G$AX5043_AGCTARGET0$0$0 == 0x4121
                           004121  2253 _AX5043_AGCTARGET0	=	0x4121
                           004131  2254 G$AX5043_AGCTARGET1$0$0 == 0x4131
                           004131  2255 _AX5043_AGCTARGET1	=	0x4131
                           004141  2256 G$AX5043_AGCTARGET2$0$0 == 0x4141
                           004141  2257 _AX5043_AGCTARGET2	=	0x4141
                           004151  2258 G$AX5043_AGCTARGET3$0$0 == 0x4151
                           004151  2259 _AX5043_AGCTARGET3	=	0x4151
                           00412B  2260 G$AX5043_AMPLITUDEGAIN0$0$0 == 0x412b
                           00412B  2261 _AX5043_AMPLITUDEGAIN0	=	0x412b
                           00413B  2262 G$AX5043_AMPLITUDEGAIN1$0$0 == 0x413b
                           00413B  2263 _AX5043_AMPLITUDEGAIN1	=	0x413b
                           00414B  2264 G$AX5043_AMPLITUDEGAIN2$0$0 == 0x414b
                           00414B  2265 _AX5043_AMPLITUDEGAIN2	=	0x414b
                           00415B  2266 G$AX5043_AMPLITUDEGAIN3$0$0 == 0x415b
                           00415B  2267 _AX5043_AMPLITUDEGAIN3	=	0x415b
                           00412F  2268 G$AX5043_BBOFFSRES0$0$0 == 0x412f
                           00412F  2269 _AX5043_BBOFFSRES0	=	0x412f
                           00413F  2270 G$AX5043_BBOFFSRES1$0$0 == 0x413f
                           00413F  2271 _AX5043_BBOFFSRES1	=	0x413f
                           00414F  2272 G$AX5043_BBOFFSRES2$0$0 == 0x414f
                           00414F  2273 _AX5043_BBOFFSRES2	=	0x414f
                           00415F  2274 G$AX5043_BBOFFSRES3$0$0 == 0x415f
                           00415F  2275 _AX5043_BBOFFSRES3	=	0x415f
                           004125  2276 G$AX5043_DRGAIN0$0$0 == 0x4125
                           004125  2277 _AX5043_DRGAIN0	=	0x4125
                           004135  2278 G$AX5043_DRGAIN1$0$0 == 0x4135
                           004135  2279 _AX5043_DRGAIN1	=	0x4135
                           004145  2280 G$AX5043_DRGAIN2$0$0 == 0x4145
                           004145  2281 _AX5043_DRGAIN2	=	0x4145
                           004155  2282 G$AX5043_DRGAIN3$0$0 == 0x4155
                           004155  2283 _AX5043_DRGAIN3	=	0x4155
                           00412E  2284 G$AX5043_FOURFSK0$0$0 == 0x412e
                           00412E  2285 _AX5043_FOURFSK0	=	0x412e
                           00413E  2286 G$AX5043_FOURFSK1$0$0 == 0x413e
                           00413E  2287 _AX5043_FOURFSK1	=	0x413e
                           00414E  2288 G$AX5043_FOURFSK2$0$0 == 0x414e
                           00414E  2289 _AX5043_FOURFSK2	=	0x414e
                           00415E  2290 G$AX5043_FOURFSK3$0$0 == 0x415e
                           00415E  2291 _AX5043_FOURFSK3	=	0x415e
                           00412D  2292 G$AX5043_FREQDEV00$0$0 == 0x412d
                           00412D  2293 _AX5043_FREQDEV00	=	0x412d
                           00413D  2294 G$AX5043_FREQDEV01$0$0 == 0x413d
                           00413D  2295 _AX5043_FREQDEV01	=	0x413d
                           00414D  2296 G$AX5043_FREQDEV02$0$0 == 0x414d
                           00414D  2297 _AX5043_FREQDEV02	=	0x414d
                           00415D  2298 G$AX5043_FREQDEV03$0$0 == 0x415d
                           00415D  2299 _AX5043_FREQDEV03	=	0x415d
                           00412C  2300 G$AX5043_FREQDEV10$0$0 == 0x412c
                           00412C  2301 _AX5043_FREQDEV10	=	0x412c
                           00413C  2302 G$AX5043_FREQDEV11$0$0 == 0x413c
                           00413C  2303 _AX5043_FREQDEV11	=	0x413c
                           00414C  2304 G$AX5043_FREQDEV12$0$0 == 0x414c
                           00414C  2305 _AX5043_FREQDEV12	=	0x414c
                           00415C  2306 G$AX5043_FREQDEV13$0$0 == 0x415c
                           00415C  2307 _AX5043_FREQDEV13	=	0x415c
                           004127  2308 G$AX5043_FREQUENCYGAINA0$0$0 == 0x4127
                           004127  2309 _AX5043_FREQUENCYGAINA0	=	0x4127
                           004137  2310 G$AX5043_FREQUENCYGAINA1$0$0 == 0x4137
                           004137  2311 _AX5043_FREQUENCYGAINA1	=	0x4137
                           004147  2312 G$AX5043_FREQUENCYGAINA2$0$0 == 0x4147
                           004147  2313 _AX5043_FREQUENCYGAINA2	=	0x4147
                           004157  2314 G$AX5043_FREQUENCYGAINA3$0$0 == 0x4157
                           004157  2315 _AX5043_FREQUENCYGAINA3	=	0x4157
                           004128  2316 G$AX5043_FREQUENCYGAINB0$0$0 == 0x4128
                           004128  2317 _AX5043_FREQUENCYGAINB0	=	0x4128
                           004138  2318 G$AX5043_FREQUENCYGAINB1$0$0 == 0x4138
                           004138  2319 _AX5043_FREQUENCYGAINB1	=	0x4138
                           004148  2320 G$AX5043_FREQUENCYGAINB2$0$0 == 0x4148
                           004148  2321 _AX5043_FREQUENCYGAINB2	=	0x4148
                           004158  2322 G$AX5043_FREQUENCYGAINB3$0$0 == 0x4158
                           004158  2323 _AX5043_FREQUENCYGAINB3	=	0x4158
                           004129  2324 G$AX5043_FREQUENCYGAINC0$0$0 == 0x4129
                           004129  2325 _AX5043_FREQUENCYGAINC0	=	0x4129
                           004139  2326 G$AX5043_FREQUENCYGAINC1$0$0 == 0x4139
                           004139  2327 _AX5043_FREQUENCYGAINC1	=	0x4139
                           004149  2328 G$AX5043_FREQUENCYGAINC2$0$0 == 0x4149
                           004149  2329 _AX5043_FREQUENCYGAINC2	=	0x4149
                           004159  2330 G$AX5043_FREQUENCYGAINC3$0$0 == 0x4159
                           004159  2331 _AX5043_FREQUENCYGAINC3	=	0x4159
                           00412A  2332 G$AX5043_FREQUENCYGAIND0$0$0 == 0x412a
                           00412A  2333 _AX5043_FREQUENCYGAIND0	=	0x412a
                           00413A  2334 G$AX5043_FREQUENCYGAIND1$0$0 == 0x413a
                           00413A  2335 _AX5043_FREQUENCYGAIND1	=	0x413a
                           00414A  2336 G$AX5043_FREQUENCYGAIND2$0$0 == 0x414a
                           00414A  2337 _AX5043_FREQUENCYGAIND2	=	0x414a
                           00415A  2338 G$AX5043_FREQUENCYGAIND3$0$0 == 0x415a
                           00415A  2339 _AX5043_FREQUENCYGAIND3	=	0x415a
                           004116  2340 G$AX5043_FREQUENCYLEAK$0$0 == 0x4116
                           004116  2341 _AX5043_FREQUENCYLEAK	=	0x4116
                           004126  2342 G$AX5043_PHASEGAIN0$0$0 == 0x4126
                           004126  2343 _AX5043_PHASEGAIN0	=	0x4126
                           004136  2344 G$AX5043_PHASEGAIN1$0$0 == 0x4136
                           004136  2345 _AX5043_PHASEGAIN1	=	0x4136
                           004146  2346 G$AX5043_PHASEGAIN2$0$0 == 0x4146
                           004146  2347 _AX5043_PHASEGAIN2	=	0x4146
                           004156  2348 G$AX5043_PHASEGAIN3$0$0 == 0x4156
                           004156  2349 _AX5043_PHASEGAIN3	=	0x4156
                           004207  2350 G$AX5043_PKTADDR0$0$0 == 0x4207
                           004207  2351 _AX5043_PKTADDR0	=	0x4207
                           004206  2352 G$AX5043_PKTADDR1$0$0 == 0x4206
                           004206  2353 _AX5043_PKTADDR1	=	0x4206
                           004205  2354 G$AX5043_PKTADDR2$0$0 == 0x4205
                           004205  2355 _AX5043_PKTADDR2	=	0x4205
                           004204  2356 G$AX5043_PKTADDR3$0$0 == 0x4204
                           004204  2357 _AX5043_PKTADDR3	=	0x4204
                           004200  2358 G$AX5043_PKTADDRCFG$0$0 == 0x4200
                           004200  2359 _AX5043_PKTADDRCFG	=	0x4200
                           00420B  2360 G$AX5043_PKTADDRMASK0$0$0 == 0x420b
                           00420B  2361 _AX5043_PKTADDRMASK0	=	0x420b
                           00420A  2362 G$AX5043_PKTADDRMASK1$0$0 == 0x420a
                           00420A  2363 _AX5043_PKTADDRMASK1	=	0x420a
                           004209  2364 G$AX5043_PKTADDRMASK2$0$0 == 0x4209
                           004209  2365 _AX5043_PKTADDRMASK2	=	0x4209
                           004208  2366 G$AX5043_PKTADDRMASK3$0$0 == 0x4208
                           004208  2367 _AX5043_PKTADDRMASK3	=	0x4208
                           004201  2368 G$AX5043_PKTLENCFG$0$0 == 0x4201
                           004201  2369 _AX5043_PKTLENCFG	=	0x4201
                           004202  2370 G$AX5043_PKTLENOFFSET$0$0 == 0x4202
                           004202  2371 _AX5043_PKTLENOFFSET	=	0x4202
                           004203  2372 G$AX5043_PKTMAXLEN$0$0 == 0x4203
                           004203  2373 _AX5043_PKTMAXLEN	=	0x4203
                           004118  2374 G$AX5043_RXPARAMCURSET$0$0 == 0x4118
                           004118  2375 _AX5043_RXPARAMCURSET	=	0x4118
                           004117  2376 G$AX5043_RXPARAMSETS$0$0 == 0x4117
                           004117  2377 _AX5043_RXPARAMSETS	=	0x4117
                           004124  2378 G$AX5043_TIMEGAIN0$0$0 == 0x4124
                           004124  2379 _AX5043_TIMEGAIN0	=	0x4124
                           004134  2380 G$AX5043_TIMEGAIN1$0$0 == 0x4134
                           004134  2381 _AX5043_TIMEGAIN1	=	0x4134
                           004144  2382 G$AX5043_TIMEGAIN2$0$0 == 0x4144
                           004144  2383 _AX5043_TIMEGAIN2	=	0x4144
                           004154  2384 G$AX5043_TIMEGAIN3$0$0 == 0x4154
                           004154  2385 _AX5043_TIMEGAIN3	=	0x4154
                           005114  2386 G$AX5043_AFSKCTRLNB$0$0 == 0x5114
                           005114  2387 _AX5043_AFSKCTRLNB	=	0x5114
                           005113  2388 G$AX5043_AFSKMARK0NB$0$0 == 0x5113
                           005113  2389 _AX5043_AFSKMARK0NB	=	0x5113
                           005112  2390 G$AX5043_AFSKMARK1NB$0$0 == 0x5112
                           005112  2391 _AX5043_AFSKMARK1NB	=	0x5112
                           005111  2392 G$AX5043_AFSKSPACE0NB$0$0 == 0x5111
                           005111  2393 _AX5043_AFSKSPACE0NB	=	0x5111
                           005110  2394 G$AX5043_AFSKSPACE1NB$0$0 == 0x5110
                           005110  2395 _AX5043_AFSKSPACE1NB	=	0x5110
                           005043  2396 G$AX5043_AGCCOUNTERNB$0$0 == 0x5043
                           005043  2397 _AX5043_AGCCOUNTERNB	=	0x5043
                           005115  2398 G$AX5043_AMPLFILTERNB$0$0 == 0x5115
                           005115  2399 _AX5043_AMPLFILTERNB	=	0x5115
                           005189  2400 G$AX5043_BBOFFSCAPNB$0$0 == 0x5189
                           005189  2401 _AX5043_BBOFFSCAPNB	=	0x5189
                           005188  2402 G$AX5043_BBTUNENB$0$0 == 0x5188
                           005188  2403 _AX5043_BBTUNENB	=	0x5188
                           005041  2404 G$AX5043_BGNDRSSINB$0$0 == 0x5041
                           005041  2405 _AX5043_BGNDRSSINB	=	0x5041
                           00522E  2406 G$AX5043_BGNDRSSIGAINNB$0$0 == 0x522e
                           00522E  2407 _AX5043_BGNDRSSIGAINNB	=	0x522e
                           00522F  2408 G$AX5043_BGNDRSSITHRNB$0$0 == 0x522f
                           00522F  2409 _AX5043_BGNDRSSITHRNB	=	0x522f
                           005017  2410 G$AX5043_CRCINIT0NB$0$0 == 0x5017
                           005017  2411 _AX5043_CRCINIT0NB	=	0x5017
                           005016  2412 G$AX5043_CRCINIT1NB$0$0 == 0x5016
                           005016  2413 _AX5043_CRCINIT1NB	=	0x5016
                           005015  2414 G$AX5043_CRCINIT2NB$0$0 == 0x5015
                           005015  2415 _AX5043_CRCINIT2NB	=	0x5015
                           005014  2416 G$AX5043_CRCINIT3NB$0$0 == 0x5014
                           005014  2417 _AX5043_CRCINIT3NB	=	0x5014
                           005332  2418 G$AX5043_DACCONFIGNB$0$0 == 0x5332
                           005332  2419 _AX5043_DACCONFIGNB	=	0x5332
                           005331  2420 G$AX5043_DACVALUE0NB$0$0 == 0x5331
                           005331  2421 _AX5043_DACVALUE0NB	=	0x5331
                           005330  2422 G$AX5043_DACVALUE1NB$0$0 == 0x5330
                           005330  2423 _AX5043_DACVALUE1NB	=	0x5330
                           005102  2424 G$AX5043_DECIMATIONNB$0$0 == 0x5102
                           005102  2425 _AX5043_DECIMATIONNB	=	0x5102
                           005042  2426 G$AX5043_DIVERSITYNB$0$0 == 0x5042
                           005042  2427 _AX5043_DIVERSITYNB	=	0x5042
                           005011  2428 G$AX5043_ENCODINGNB$0$0 == 0x5011
                           005011  2429 _AX5043_ENCODINGNB	=	0x5011
                           005018  2430 G$AX5043_FECNB$0$0 == 0x5018
                           005018  2431 _AX5043_FECNB	=	0x5018
                           00501A  2432 G$AX5043_FECSTATUSNB$0$0 == 0x501a
                           00501A  2433 _AX5043_FECSTATUSNB	=	0x501a
                           005019  2434 G$AX5043_FECSYNCNB$0$0 == 0x5019
                           005019  2435 _AX5043_FECSYNCNB	=	0x5019
                           00502B  2436 G$AX5043_FIFOCOUNT0NB$0$0 == 0x502b
                           00502B  2437 _AX5043_FIFOCOUNT0NB	=	0x502b
                           00502A  2438 G$AX5043_FIFOCOUNT1NB$0$0 == 0x502a
                           00502A  2439 _AX5043_FIFOCOUNT1NB	=	0x502a
                           005029  2440 G$AX5043_FIFODATANB$0$0 == 0x5029
                           005029  2441 _AX5043_FIFODATANB	=	0x5029
                           00502D  2442 G$AX5043_FIFOFREE0NB$0$0 == 0x502d
                           00502D  2443 _AX5043_FIFOFREE0NB	=	0x502d
                           00502C  2444 G$AX5043_FIFOFREE1NB$0$0 == 0x502c
                           00502C  2445 _AX5043_FIFOFREE1NB	=	0x502c
                           005028  2446 G$AX5043_FIFOSTATNB$0$0 == 0x5028
                           005028  2447 _AX5043_FIFOSTATNB	=	0x5028
                           00502F  2448 G$AX5043_FIFOTHRESH0NB$0$0 == 0x502f
                           00502F  2449 _AX5043_FIFOTHRESH0NB	=	0x502f
                           00502E  2450 G$AX5043_FIFOTHRESH1NB$0$0 == 0x502e
                           00502E  2451 _AX5043_FIFOTHRESH1NB	=	0x502e
                           005012  2452 G$AX5043_FRAMINGNB$0$0 == 0x5012
                           005012  2453 _AX5043_FRAMINGNB	=	0x5012
                           005037  2454 G$AX5043_FREQA0NB$0$0 == 0x5037
                           005037  2455 _AX5043_FREQA0NB	=	0x5037
                           005036  2456 G$AX5043_FREQA1NB$0$0 == 0x5036
                           005036  2457 _AX5043_FREQA1NB	=	0x5036
                           005035  2458 G$AX5043_FREQA2NB$0$0 == 0x5035
                           005035  2459 _AX5043_FREQA2NB	=	0x5035
                           005034  2460 G$AX5043_FREQA3NB$0$0 == 0x5034
                           005034  2461 _AX5043_FREQA3NB	=	0x5034
                           00503F  2462 G$AX5043_FREQB0NB$0$0 == 0x503f
                           00503F  2463 _AX5043_FREQB0NB	=	0x503f
                           00503E  2464 G$AX5043_FREQB1NB$0$0 == 0x503e
                           00503E  2465 _AX5043_FREQB1NB	=	0x503e
                           00503D  2466 G$AX5043_FREQB2NB$0$0 == 0x503d
                           00503D  2467 _AX5043_FREQB2NB	=	0x503d
                           00503C  2468 G$AX5043_FREQB3NB$0$0 == 0x503c
                           00503C  2469 _AX5043_FREQB3NB	=	0x503c
                           005163  2470 G$AX5043_FSKDEV0NB$0$0 == 0x5163
                           005163  2471 _AX5043_FSKDEV0NB	=	0x5163
                           005162  2472 G$AX5043_FSKDEV1NB$0$0 == 0x5162
                           005162  2473 _AX5043_FSKDEV1NB	=	0x5162
                           005161  2474 G$AX5043_FSKDEV2NB$0$0 == 0x5161
                           005161  2475 _AX5043_FSKDEV2NB	=	0x5161
                           00510D  2476 G$AX5043_FSKDMAX0NB$0$0 == 0x510d
                           00510D  2477 _AX5043_FSKDMAX0NB	=	0x510d
                           00510C  2478 G$AX5043_FSKDMAX1NB$0$0 == 0x510c
                           00510C  2479 _AX5043_FSKDMAX1NB	=	0x510c
                           00510F  2480 G$AX5043_FSKDMIN0NB$0$0 == 0x510f
                           00510F  2481 _AX5043_FSKDMIN0NB	=	0x510f
                           00510E  2482 G$AX5043_FSKDMIN1NB$0$0 == 0x510e
                           00510E  2483 _AX5043_FSKDMIN1NB	=	0x510e
                           005309  2484 G$AX5043_GPADC13VALUE0NB$0$0 == 0x5309
                           005309  2485 _AX5043_GPADC13VALUE0NB	=	0x5309
                           005308  2486 G$AX5043_GPADC13VALUE1NB$0$0 == 0x5308
                           005308  2487 _AX5043_GPADC13VALUE1NB	=	0x5308
                           005300  2488 G$AX5043_GPADCCTRLNB$0$0 == 0x5300
                           005300  2489 _AX5043_GPADCCTRLNB	=	0x5300
                           005301  2490 G$AX5043_GPADCPERIODNB$0$0 == 0x5301
                           005301  2491 _AX5043_GPADCPERIODNB	=	0x5301
                           005101  2492 G$AX5043_IFFREQ0NB$0$0 == 0x5101
                           005101  2493 _AX5043_IFFREQ0NB	=	0x5101
                           005100  2494 G$AX5043_IFFREQ1NB$0$0 == 0x5100
                           005100  2495 _AX5043_IFFREQ1NB	=	0x5100
                           00500B  2496 G$AX5043_IRQINVERSION0NB$0$0 == 0x500b
                           00500B  2497 _AX5043_IRQINVERSION0NB	=	0x500b
                           00500A  2498 G$AX5043_IRQINVERSION1NB$0$0 == 0x500a
                           00500A  2499 _AX5043_IRQINVERSION1NB	=	0x500a
                           005007  2500 G$AX5043_IRQMASK0NB$0$0 == 0x5007
                           005007  2501 _AX5043_IRQMASK0NB	=	0x5007
                           005006  2502 G$AX5043_IRQMASK1NB$0$0 == 0x5006
                           005006  2503 _AX5043_IRQMASK1NB	=	0x5006
                           00500D  2504 G$AX5043_IRQREQUEST0NB$0$0 == 0x500d
                           00500D  2505 _AX5043_IRQREQUEST0NB	=	0x500d
                           00500C  2506 G$AX5043_IRQREQUEST1NB$0$0 == 0x500c
                           00500C  2507 _AX5043_IRQREQUEST1NB	=	0x500c
                           005310  2508 G$AX5043_LPOSCCONFIGNB$0$0 == 0x5310
                           005310  2509 _AX5043_LPOSCCONFIGNB	=	0x5310
                           005317  2510 G$AX5043_LPOSCFREQ0NB$0$0 == 0x5317
                           005317  2511 _AX5043_LPOSCFREQ0NB	=	0x5317
                           005316  2512 G$AX5043_LPOSCFREQ1NB$0$0 == 0x5316
                           005316  2513 _AX5043_LPOSCFREQ1NB	=	0x5316
                           005313  2514 G$AX5043_LPOSCKFILT0NB$0$0 == 0x5313
                           005313  2515 _AX5043_LPOSCKFILT0NB	=	0x5313
                           005312  2516 G$AX5043_LPOSCKFILT1NB$0$0 == 0x5312
                           005312  2517 _AX5043_LPOSCKFILT1NB	=	0x5312
                           005319  2518 G$AX5043_LPOSCPER0NB$0$0 == 0x5319
                           005319  2519 _AX5043_LPOSCPER0NB	=	0x5319
                           005318  2520 G$AX5043_LPOSCPER1NB$0$0 == 0x5318
                           005318  2521 _AX5043_LPOSCPER1NB	=	0x5318
                           005315  2522 G$AX5043_LPOSCREF0NB$0$0 == 0x5315
                           005315  2523 _AX5043_LPOSCREF0NB	=	0x5315
                           005314  2524 G$AX5043_LPOSCREF1NB$0$0 == 0x5314
                           005314  2525 _AX5043_LPOSCREF1NB	=	0x5314
                           005311  2526 G$AX5043_LPOSCSTATUSNB$0$0 == 0x5311
                           005311  2527 _AX5043_LPOSCSTATUSNB	=	0x5311
                           005214  2528 G$AX5043_MATCH0LENNB$0$0 == 0x5214
                           005214  2529 _AX5043_MATCH0LENNB	=	0x5214
                           005216  2530 G$AX5043_MATCH0MAXNB$0$0 == 0x5216
                           005216  2531 _AX5043_MATCH0MAXNB	=	0x5216
                           005215  2532 G$AX5043_MATCH0MINNB$0$0 == 0x5215
                           005215  2533 _AX5043_MATCH0MINNB	=	0x5215
                           005213  2534 G$AX5043_MATCH0PAT0NB$0$0 == 0x5213
                           005213  2535 _AX5043_MATCH0PAT0NB	=	0x5213
                           005212  2536 G$AX5043_MATCH0PAT1NB$0$0 == 0x5212
                           005212  2537 _AX5043_MATCH0PAT1NB	=	0x5212
                           005211  2538 G$AX5043_MATCH0PAT2NB$0$0 == 0x5211
                           005211  2539 _AX5043_MATCH0PAT2NB	=	0x5211
                           005210  2540 G$AX5043_MATCH0PAT3NB$0$0 == 0x5210
                           005210  2541 _AX5043_MATCH0PAT3NB	=	0x5210
                           00521C  2542 G$AX5043_MATCH1LENNB$0$0 == 0x521c
                           00521C  2543 _AX5043_MATCH1LENNB	=	0x521c
                           00521E  2544 G$AX5043_MATCH1MAXNB$0$0 == 0x521e
                           00521E  2545 _AX5043_MATCH1MAXNB	=	0x521e
                           00521D  2546 G$AX5043_MATCH1MINNB$0$0 == 0x521d
                           00521D  2547 _AX5043_MATCH1MINNB	=	0x521d
                           005219  2548 G$AX5043_MATCH1PAT0NB$0$0 == 0x5219
                           005219  2549 _AX5043_MATCH1PAT0NB	=	0x5219
                           005218  2550 G$AX5043_MATCH1PAT1NB$0$0 == 0x5218
                           005218  2551 _AX5043_MATCH1PAT1NB	=	0x5218
                           005108  2552 G$AX5043_MAXDROFFSET0NB$0$0 == 0x5108
                           005108  2553 _AX5043_MAXDROFFSET0NB	=	0x5108
                           005107  2554 G$AX5043_MAXDROFFSET1NB$0$0 == 0x5107
                           005107  2555 _AX5043_MAXDROFFSET1NB	=	0x5107
                           005106  2556 G$AX5043_MAXDROFFSET2NB$0$0 == 0x5106
                           005106  2557 _AX5043_MAXDROFFSET2NB	=	0x5106
                           00510B  2558 G$AX5043_MAXRFOFFSET0NB$0$0 == 0x510b
                           00510B  2559 _AX5043_MAXRFOFFSET0NB	=	0x510b
                           00510A  2560 G$AX5043_MAXRFOFFSET1NB$0$0 == 0x510a
                           00510A  2561 _AX5043_MAXRFOFFSET1NB	=	0x510a
                           005109  2562 G$AX5043_MAXRFOFFSET2NB$0$0 == 0x5109
                           005109  2563 _AX5043_MAXRFOFFSET2NB	=	0x5109
                           005164  2564 G$AX5043_MODCFGANB$0$0 == 0x5164
                           005164  2565 _AX5043_MODCFGANB	=	0x5164
                           005160  2566 G$AX5043_MODCFGFNB$0$0 == 0x5160
                           005160  2567 _AX5043_MODCFGFNB	=	0x5160
                           005F5F  2568 G$AX5043_MODCFGPNB$0$0 == 0x5f5f
                           005F5F  2569 _AX5043_MODCFGPNB	=	0x5f5f
                           005010  2570 G$AX5043_MODULATIONNB$0$0 == 0x5010
                           005010  2571 _AX5043_MODULATIONNB	=	0x5010
                           005025  2572 G$AX5043_PINFUNCANTSELNB$0$0 == 0x5025
                           005025  2573 _AX5043_PINFUNCANTSELNB	=	0x5025
                           005023  2574 G$AX5043_PINFUNCDATANB$0$0 == 0x5023
                           005023  2575 _AX5043_PINFUNCDATANB	=	0x5023
                           005022  2576 G$AX5043_PINFUNCDCLKNB$0$0 == 0x5022
                           005022  2577 _AX5043_PINFUNCDCLKNB	=	0x5022
                           005024  2578 G$AX5043_PINFUNCIRQNB$0$0 == 0x5024
                           005024  2579 _AX5043_PINFUNCIRQNB	=	0x5024
                           005026  2580 G$AX5043_PINFUNCPWRAMPNB$0$0 == 0x5026
                           005026  2581 _AX5043_PINFUNCPWRAMPNB	=	0x5026
                           005021  2582 G$AX5043_PINFUNCSYSCLKNB$0$0 == 0x5021
                           005021  2583 _AX5043_PINFUNCSYSCLKNB	=	0x5021
                           005020  2584 G$AX5043_PINSTATENB$0$0 == 0x5020
                           005020  2585 _AX5043_PINSTATENB	=	0x5020
                           005233  2586 G$AX5043_PKTACCEPTFLAGSNB$0$0 == 0x5233
                           005233  2587 _AX5043_PKTACCEPTFLAGSNB	=	0x5233
                           005230  2588 G$AX5043_PKTCHUNKSIZENB$0$0 == 0x5230
                           005230  2589 _AX5043_PKTCHUNKSIZENB	=	0x5230
                           005231  2590 G$AX5043_PKTMISCFLAGSNB$0$0 == 0x5231
                           005231  2591 _AX5043_PKTMISCFLAGSNB	=	0x5231
                           005232  2592 G$AX5043_PKTSTOREFLAGSNB$0$0 == 0x5232
                           005232  2593 _AX5043_PKTSTOREFLAGSNB	=	0x5232
                           005031  2594 G$AX5043_PLLCPINB$0$0 == 0x5031
                           005031  2595 _AX5043_PLLCPINB	=	0x5031
                           005039  2596 G$AX5043_PLLCPIBOOSTNB$0$0 == 0x5039
                           005039  2597 _AX5043_PLLCPIBOOSTNB	=	0x5039
                           005182  2598 G$AX5043_PLLLOCKDETNB$0$0 == 0x5182
                           005182  2599 _AX5043_PLLLOCKDETNB	=	0x5182
                           005030  2600 G$AX5043_PLLLOOPNB$0$0 == 0x5030
                           005030  2601 _AX5043_PLLLOOPNB	=	0x5030
                           005038  2602 G$AX5043_PLLLOOPBOOSTNB$0$0 == 0x5038
                           005038  2603 _AX5043_PLLLOOPBOOSTNB	=	0x5038
                           005033  2604 G$AX5043_PLLRANGINGANB$0$0 == 0x5033
                           005033  2605 _AX5043_PLLRANGINGANB	=	0x5033
                           00503B  2606 G$AX5043_PLLRANGINGBNB$0$0 == 0x503b
                           00503B  2607 _AX5043_PLLRANGINGBNB	=	0x503b
                           005183  2608 G$AX5043_PLLRNGCLKNB$0$0 == 0x5183
                           005183  2609 _AX5043_PLLRNGCLKNB	=	0x5183
                           005032  2610 G$AX5043_PLLVCODIVNB$0$0 == 0x5032
                           005032  2611 _AX5043_PLLVCODIVNB	=	0x5032
                           005180  2612 G$AX5043_PLLVCOINB$0$0 == 0x5180
                           005180  2613 _AX5043_PLLVCOINB	=	0x5180
                           005181  2614 G$AX5043_PLLVCOIRNB$0$0 == 0x5181
                           005181  2615 _AX5043_PLLVCOIRNB	=	0x5181
                           005F08  2616 G$AX5043_POWCTRL1NB$0$0 == 0x5f08
                           005F08  2617 _AX5043_POWCTRL1NB	=	0x5f08
                           005005  2618 G$AX5043_POWIRQMASKNB$0$0 == 0x5005
                           005005  2619 _AX5043_POWIRQMASKNB	=	0x5005
                           005003  2620 G$AX5043_POWSTATNB$0$0 == 0x5003
                           005003  2621 _AX5043_POWSTATNB	=	0x5003
                           005004  2622 G$AX5043_POWSTICKYSTATNB$0$0 == 0x5004
                           005004  2623 _AX5043_POWSTICKYSTATNB	=	0x5004
                           005027  2624 G$AX5043_PWRAMPNB$0$0 == 0x5027
                           005027  2625 _AX5043_PWRAMPNB	=	0x5027
                           005002  2626 G$AX5043_PWRMODENB$0$0 == 0x5002
                           005002  2627 _AX5043_PWRMODENB	=	0x5002
                           005009  2628 G$AX5043_RADIOEVENTMASK0NB$0$0 == 0x5009
                           005009  2629 _AX5043_RADIOEVENTMASK0NB	=	0x5009
                           005008  2630 G$AX5043_RADIOEVENTMASK1NB$0$0 == 0x5008
                           005008  2631 _AX5043_RADIOEVENTMASK1NB	=	0x5008
                           00500F  2632 G$AX5043_RADIOEVENTREQ0NB$0$0 == 0x500f
                           00500F  2633 _AX5043_RADIOEVENTREQ0NB	=	0x500f
                           00500E  2634 G$AX5043_RADIOEVENTREQ1NB$0$0 == 0x500e
                           00500E  2635 _AX5043_RADIOEVENTREQ1NB	=	0x500e
                           00501C  2636 G$AX5043_RADIOSTATENB$0$0 == 0x501c
                           00501C  2637 _AX5043_RADIOSTATENB	=	0x501c
                           005F0D  2638 G$AX5043_REFNB$0$0 == 0x5f0d
                           005F0D  2639 _AX5043_REFNB	=	0x5f0d
                           005040  2640 G$AX5043_RSSINB$0$0 == 0x5040
                           005040  2641 _AX5043_RSSINB	=	0x5040
                           00522D  2642 G$AX5043_RSSIABSTHRNB$0$0 == 0x522d
                           00522D  2643 _AX5043_RSSIABSTHRNB	=	0x522d
                           00522C  2644 G$AX5043_RSSIREFERENCENB$0$0 == 0x522c
                           00522C  2645 _AX5043_RSSIREFERENCENB	=	0x522c
                           005105  2646 G$AX5043_RXDATARATE0NB$0$0 == 0x5105
                           005105  2647 _AX5043_RXDATARATE0NB	=	0x5105
                           005104  2648 G$AX5043_RXDATARATE1NB$0$0 == 0x5104
                           005104  2649 _AX5043_RXDATARATE1NB	=	0x5104
                           005103  2650 G$AX5043_RXDATARATE2NB$0$0 == 0x5103
                           005103  2651 _AX5043_RXDATARATE2NB	=	0x5103
                           005001  2652 G$AX5043_SCRATCHNB$0$0 == 0x5001
                           005001  2653 _AX5043_SCRATCHNB	=	0x5001
                           005000  2654 G$AX5043_SILICONREVISIONNB$0$0 == 0x5000
                           005000  2655 _AX5043_SILICONREVISIONNB	=	0x5000
                           00505B  2656 G$AX5043_TIMER0NB$0$0 == 0x505b
                           00505B  2657 _AX5043_TIMER0NB	=	0x505b
                           00505A  2658 G$AX5043_TIMER1NB$0$0 == 0x505a
                           00505A  2659 _AX5043_TIMER1NB	=	0x505a
                           005059  2660 G$AX5043_TIMER2NB$0$0 == 0x5059
                           005059  2661 _AX5043_TIMER2NB	=	0x5059
                           005227  2662 G$AX5043_TMGRXAGCNB$0$0 == 0x5227
                           005227  2663 _AX5043_TMGRXAGCNB	=	0x5227
                           005223  2664 G$AX5043_TMGRXBOOSTNB$0$0 == 0x5223
                           005223  2665 _AX5043_TMGRXBOOSTNB	=	0x5223
                           005226  2666 G$AX5043_TMGRXCOARSEAGCNB$0$0 == 0x5226
                           005226  2667 _AX5043_TMGRXCOARSEAGCNB	=	0x5226
                           005225  2668 G$AX5043_TMGRXOFFSACQNB$0$0 == 0x5225
                           005225  2669 _AX5043_TMGRXOFFSACQNB	=	0x5225
                           005229  2670 G$AX5043_TMGRXPREAMBLE1NB$0$0 == 0x5229
                           005229  2671 _AX5043_TMGRXPREAMBLE1NB	=	0x5229
                           00522A  2672 G$AX5043_TMGRXPREAMBLE2NB$0$0 == 0x522a
                           00522A  2673 _AX5043_TMGRXPREAMBLE2NB	=	0x522a
                           00522B  2674 G$AX5043_TMGRXPREAMBLE3NB$0$0 == 0x522b
                           00522B  2675 _AX5043_TMGRXPREAMBLE3NB	=	0x522b
                           005228  2676 G$AX5043_TMGRXRSSINB$0$0 == 0x5228
                           005228  2677 _AX5043_TMGRXRSSINB	=	0x5228
                           005224  2678 G$AX5043_TMGRXSETTLENB$0$0 == 0x5224
                           005224  2679 _AX5043_TMGRXSETTLENB	=	0x5224
                           005220  2680 G$AX5043_TMGTXBOOSTNB$0$0 == 0x5220
                           005220  2681 _AX5043_TMGTXBOOSTNB	=	0x5220
                           005221  2682 G$AX5043_TMGTXSETTLENB$0$0 == 0x5221
                           005221  2683 _AX5043_TMGTXSETTLENB	=	0x5221
                           005055  2684 G$AX5043_TRKAFSKDEMOD0NB$0$0 == 0x5055
                           005055  2685 _AX5043_TRKAFSKDEMOD0NB	=	0x5055
                           005054  2686 G$AX5043_TRKAFSKDEMOD1NB$0$0 == 0x5054
                           005054  2687 _AX5043_TRKAFSKDEMOD1NB	=	0x5054
                           005049  2688 G$AX5043_TRKAMPLITUDE0NB$0$0 == 0x5049
                           005049  2689 _AX5043_TRKAMPLITUDE0NB	=	0x5049
                           005048  2690 G$AX5043_TRKAMPLITUDE1NB$0$0 == 0x5048
                           005048  2691 _AX5043_TRKAMPLITUDE1NB	=	0x5048
                           005047  2692 G$AX5043_TRKDATARATE0NB$0$0 == 0x5047
                           005047  2693 _AX5043_TRKDATARATE0NB	=	0x5047
                           005046  2694 G$AX5043_TRKDATARATE1NB$0$0 == 0x5046
                           005046  2695 _AX5043_TRKDATARATE1NB	=	0x5046
                           005045  2696 G$AX5043_TRKDATARATE2NB$0$0 == 0x5045
                           005045  2697 _AX5043_TRKDATARATE2NB	=	0x5045
                           005051  2698 G$AX5043_TRKFREQ0NB$0$0 == 0x5051
                           005051  2699 _AX5043_TRKFREQ0NB	=	0x5051
                           005050  2700 G$AX5043_TRKFREQ1NB$0$0 == 0x5050
                           005050  2701 _AX5043_TRKFREQ1NB	=	0x5050
                           005053  2702 G$AX5043_TRKFSKDEMOD0NB$0$0 == 0x5053
                           005053  2703 _AX5043_TRKFSKDEMOD0NB	=	0x5053
                           005052  2704 G$AX5043_TRKFSKDEMOD1NB$0$0 == 0x5052
                           005052  2705 _AX5043_TRKFSKDEMOD1NB	=	0x5052
                           00504B  2706 G$AX5043_TRKPHASE0NB$0$0 == 0x504b
                           00504B  2707 _AX5043_TRKPHASE0NB	=	0x504b
                           00504A  2708 G$AX5043_TRKPHASE1NB$0$0 == 0x504a
                           00504A  2709 _AX5043_TRKPHASE1NB	=	0x504a
                           00504F  2710 G$AX5043_TRKRFFREQ0NB$0$0 == 0x504f
                           00504F  2711 _AX5043_TRKRFFREQ0NB	=	0x504f
                           00504E  2712 G$AX5043_TRKRFFREQ1NB$0$0 == 0x504e
                           00504E  2713 _AX5043_TRKRFFREQ1NB	=	0x504e
                           00504D  2714 G$AX5043_TRKRFFREQ2NB$0$0 == 0x504d
                           00504D  2715 _AX5043_TRKRFFREQ2NB	=	0x504d
                           005169  2716 G$AX5043_TXPWRCOEFFA0NB$0$0 == 0x5169
                           005169  2717 _AX5043_TXPWRCOEFFA0NB	=	0x5169
                           005168  2718 G$AX5043_TXPWRCOEFFA1NB$0$0 == 0x5168
                           005168  2719 _AX5043_TXPWRCOEFFA1NB	=	0x5168
                           00516B  2720 G$AX5043_TXPWRCOEFFB0NB$0$0 == 0x516b
                           00516B  2721 _AX5043_TXPWRCOEFFB0NB	=	0x516b
                           00516A  2722 G$AX5043_TXPWRCOEFFB1NB$0$0 == 0x516a
                           00516A  2723 _AX5043_TXPWRCOEFFB1NB	=	0x516a
                           00516D  2724 G$AX5043_TXPWRCOEFFC0NB$0$0 == 0x516d
                           00516D  2725 _AX5043_TXPWRCOEFFC0NB	=	0x516d
                           00516C  2726 G$AX5043_TXPWRCOEFFC1NB$0$0 == 0x516c
                           00516C  2727 _AX5043_TXPWRCOEFFC1NB	=	0x516c
                           00516F  2728 G$AX5043_TXPWRCOEFFD0NB$0$0 == 0x516f
                           00516F  2729 _AX5043_TXPWRCOEFFD0NB	=	0x516f
                           00516E  2730 G$AX5043_TXPWRCOEFFD1NB$0$0 == 0x516e
                           00516E  2731 _AX5043_TXPWRCOEFFD1NB	=	0x516e
                           005171  2732 G$AX5043_TXPWRCOEFFE0NB$0$0 == 0x5171
                           005171  2733 _AX5043_TXPWRCOEFFE0NB	=	0x5171
                           005170  2734 G$AX5043_TXPWRCOEFFE1NB$0$0 == 0x5170
                           005170  2735 _AX5043_TXPWRCOEFFE1NB	=	0x5170
                           005167  2736 G$AX5043_TXRATE0NB$0$0 == 0x5167
                           005167  2737 _AX5043_TXRATE0NB	=	0x5167
                           005166  2738 G$AX5043_TXRATE1NB$0$0 == 0x5166
                           005166  2739 _AX5043_TXRATE1NB	=	0x5166
                           005165  2740 G$AX5043_TXRATE2NB$0$0 == 0x5165
                           005165  2741 _AX5043_TXRATE2NB	=	0x5165
                           00506B  2742 G$AX5043_WAKEUP0NB$0$0 == 0x506b
                           00506B  2743 _AX5043_WAKEUP0NB	=	0x506b
                           00506A  2744 G$AX5043_WAKEUP1NB$0$0 == 0x506a
                           00506A  2745 _AX5043_WAKEUP1NB	=	0x506a
                           00506D  2746 G$AX5043_WAKEUPFREQ0NB$0$0 == 0x506d
                           00506D  2747 _AX5043_WAKEUPFREQ0NB	=	0x506d
                           00506C  2748 G$AX5043_WAKEUPFREQ1NB$0$0 == 0x506c
                           00506C  2749 _AX5043_WAKEUPFREQ1NB	=	0x506c
                           005069  2750 G$AX5043_WAKEUPTIMER0NB$0$0 == 0x5069
                           005069  2751 _AX5043_WAKEUPTIMER0NB	=	0x5069
                           005068  2752 G$AX5043_WAKEUPTIMER1NB$0$0 == 0x5068
                           005068  2753 _AX5043_WAKEUPTIMER1NB	=	0x5068
                           00506E  2754 G$AX5043_WAKEUPXOEARLYNB$0$0 == 0x506e
                           00506E  2755 _AX5043_WAKEUPXOEARLYNB	=	0x506e
                           005F11  2756 G$AX5043_XTALAMPLNB$0$0 == 0x5f11
                           005F11  2757 _AX5043_XTALAMPLNB	=	0x5f11
                           005184  2758 G$AX5043_XTALCAPNB$0$0 == 0x5184
                           005184  2759 _AX5043_XTALCAPNB	=	0x5184
                           005F10  2760 G$AX5043_XTALOSCNB$0$0 == 0x5f10
                           005F10  2761 _AX5043_XTALOSCNB	=	0x5f10
                           00501D  2762 G$AX5043_XTALSTATUSNB$0$0 == 0x501d
                           00501D  2763 _AX5043_XTALSTATUSNB	=	0x501d
                           005F00  2764 G$AX5043_0xF00NB$0$0 == 0x5f00
                           005F00  2765 _AX5043_0xF00NB	=	0x5f00
                           005F0C  2766 G$AX5043_0xF0CNB$0$0 == 0x5f0c
                           005F0C  2767 _AX5043_0xF0CNB	=	0x5f0c
                           005F18  2768 G$AX5043_0xF18NB$0$0 == 0x5f18
                           005F18  2769 _AX5043_0xF18NB	=	0x5f18
                           005F1C  2770 G$AX5043_0xF1CNB$0$0 == 0x5f1c
                           005F1C  2771 _AX5043_0xF1CNB	=	0x5f1c
                           005F21  2772 G$AX5043_0xF21NB$0$0 == 0x5f21
                           005F21  2773 _AX5043_0xF21NB	=	0x5f21
                           005F22  2774 G$AX5043_0xF22NB$0$0 == 0x5f22
                           005F22  2775 _AX5043_0xF22NB	=	0x5f22
                           005F23  2776 G$AX5043_0xF23NB$0$0 == 0x5f23
                           005F23  2777 _AX5043_0xF23NB	=	0x5f23
                           005F26  2778 G$AX5043_0xF26NB$0$0 == 0x5f26
                           005F26  2779 _AX5043_0xF26NB	=	0x5f26
                           005F30  2780 G$AX5043_0xF30NB$0$0 == 0x5f30
                           005F30  2781 _AX5043_0xF30NB	=	0x5f30
                           005F31  2782 G$AX5043_0xF31NB$0$0 == 0x5f31
                           005F31  2783 _AX5043_0xF31NB	=	0x5f31
                           005F32  2784 G$AX5043_0xF32NB$0$0 == 0x5f32
                           005F32  2785 _AX5043_0xF32NB	=	0x5f32
                           005F33  2786 G$AX5043_0xF33NB$0$0 == 0x5f33
                           005F33  2787 _AX5043_0xF33NB	=	0x5f33
                           005F34  2788 G$AX5043_0xF34NB$0$0 == 0x5f34
                           005F34  2789 _AX5043_0xF34NB	=	0x5f34
                           005F35  2790 G$AX5043_0xF35NB$0$0 == 0x5f35
                           005F35  2791 _AX5043_0xF35NB	=	0x5f35
                           005F44  2792 G$AX5043_0xF44NB$0$0 == 0x5f44
                           005F44  2793 _AX5043_0xF44NB	=	0x5f44
                           005122  2794 G$AX5043_AGCAHYST0NB$0$0 == 0x5122
                           005122  2795 _AX5043_AGCAHYST0NB	=	0x5122
                           005132  2796 G$AX5043_AGCAHYST1NB$0$0 == 0x5132
                           005132  2797 _AX5043_AGCAHYST1NB	=	0x5132
                           005142  2798 G$AX5043_AGCAHYST2NB$0$0 == 0x5142
                           005142  2799 _AX5043_AGCAHYST2NB	=	0x5142
                           005152  2800 G$AX5043_AGCAHYST3NB$0$0 == 0x5152
                           005152  2801 _AX5043_AGCAHYST3NB	=	0x5152
                           005120  2802 G$AX5043_AGCGAIN0NB$0$0 == 0x5120
                           005120  2803 _AX5043_AGCGAIN0NB	=	0x5120
                           005130  2804 G$AX5043_AGCGAIN1NB$0$0 == 0x5130
                           005130  2805 _AX5043_AGCGAIN1NB	=	0x5130
                           005140  2806 G$AX5043_AGCGAIN2NB$0$0 == 0x5140
                           005140  2807 _AX5043_AGCGAIN2NB	=	0x5140
                           005150  2808 G$AX5043_AGCGAIN3NB$0$0 == 0x5150
                           005150  2809 _AX5043_AGCGAIN3NB	=	0x5150
                           005123  2810 G$AX5043_AGCMINMAX0NB$0$0 == 0x5123
                           005123  2811 _AX5043_AGCMINMAX0NB	=	0x5123
                           005133  2812 G$AX5043_AGCMINMAX1NB$0$0 == 0x5133
                           005133  2813 _AX5043_AGCMINMAX1NB	=	0x5133
                           005143  2814 G$AX5043_AGCMINMAX2NB$0$0 == 0x5143
                           005143  2815 _AX5043_AGCMINMAX2NB	=	0x5143
                           005153  2816 G$AX5043_AGCMINMAX3NB$0$0 == 0x5153
                           005153  2817 _AX5043_AGCMINMAX3NB	=	0x5153
                           005121  2818 G$AX5043_AGCTARGET0NB$0$0 == 0x5121
                           005121  2819 _AX5043_AGCTARGET0NB	=	0x5121
                           005131  2820 G$AX5043_AGCTARGET1NB$0$0 == 0x5131
                           005131  2821 _AX5043_AGCTARGET1NB	=	0x5131
                           005141  2822 G$AX5043_AGCTARGET2NB$0$0 == 0x5141
                           005141  2823 _AX5043_AGCTARGET2NB	=	0x5141
                           005151  2824 G$AX5043_AGCTARGET3NB$0$0 == 0x5151
                           005151  2825 _AX5043_AGCTARGET3NB	=	0x5151
                           00512B  2826 G$AX5043_AMPLITUDEGAIN0NB$0$0 == 0x512b
                           00512B  2827 _AX5043_AMPLITUDEGAIN0NB	=	0x512b
                           00513B  2828 G$AX5043_AMPLITUDEGAIN1NB$0$0 == 0x513b
                           00513B  2829 _AX5043_AMPLITUDEGAIN1NB	=	0x513b
                           00514B  2830 G$AX5043_AMPLITUDEGAIN2NB$0$0 == 0x514b
                           00514B  2831 _AX5043_AMPLITUDEGAIN2NB	=	0x514b
                           00515B  2832 G$AX5043_AMPLITUDEGAIN3NB$0$0 == 0x515b
                           00515B  2833 _AX5043_AMPLITUDEGAIN3NB	=	0x515b
                           00512F  2834 G$AX5043_BBOFFSRES0NB$0$0 == 0x512f
                           00512F  2835 _AX5043_BBOFFSRES0NB	=	0x512f
                           00513F  2836 G$AX5043_BBOFFSRES1NB$0$0 == 0x513f
                           00513F  2837 _AX5043_BBOFFSRES1NB	=	0x513f
                           00514F  2838 G$AX5043_BBOFFSRES2NB$0$0 == 0x514f
                           00514F  2839 _AX5043_BBOFFSRES2NB	=	0x514f
                           00515F  2840 G$AX5043_BBOFFSRES3NB$0$0 == 0x515f
                           00515F  2841 _AX5043_BBOFFSRES3NB	=	0x515f
                           005125  2842 G$AX5043_DRGAIN0NB$0$0 == 0x5125
                           005125  2843 _AX5043_DRGAIN0NB	=	0x5125
                           005135  2844 G$AX5043_DRGAIN1NB$0$0 == 0x5135
                           005135  2845 _AX5043_DRGAIN1NB	=	0x5135
                           005145  2846 G$AX5043_DRGAIN2NB$0$0 == 0x5145
                           005145  2847 _AX5043_DRGAIN2NB	=	0x5145
                           005155  2848 G$AX5043_DRGAIN3NB$0$0 == 0x5155
                           005155  2849 _AX5043_DRGAIN3NB	=	0x5155
                           00512E  2850 G$AX5043_FOURFSK0NB$0$0 == 0x512e
                           00512E  2851 _AX5043_FOURFSK0NB	=	0x512e
                           00513E  2852 G$AX5043_FOURFSK1NB$0$0 == 0x513e
                           00513E  2853 _AX5043_FOURFSK1NB	=	0x513e
                           00514E  2854 G$AX5043_FOURFSK2NB$0$0 == 0x514e
                           00514E  2855 _AX5043_FOURFSK2NB	=	0x514e
                           00515E  2856 G$AX5043_FOURFSK3NB$0$0 == 0x515e
                           00515E  2857 _AX5043_FOURFSK3NB	=	0x515e
                           00512D  2858 G$AX5043_FREQDEV00NB$0$0 == 0x512d
                           00512D  2859 _AX5043_FREQDEV00NB	=	0x512d
                           00513D  2860 G$AX5043_FREQDEV01NB$0$0 == 0x513d
                           00513D  2861 _AX5043_FREQDEV01NB	=	0x513d
                           00514D  2862 G$AX5043_FREQDEV02NB$0$0 == 0x514d
                           00514D  2863 _AX5043_FREQDEV02NB	=	0x514d
                           00515D  2864 G$AX5043_FREQDEV03NB$0$0 == 0x515d
                           00515D  2865 _AX5043_FREQDEV03NB	=	0x515d
                           00512C  2866 G$AX5043_FREQDEV10NB$0$0 == 0x512c
                           00512C  2867 _AX5043_FREQDEV10NB	=	0x512c
                           00513C  2868 G$AX5043_FREQDEV11NB$0$0 == 0x513c
                           00513C  2869 _AX5043_FREQDEV11NB	=	0x513c
                           00514C  2870 G$AX5043_FREQDEV12NB$0$0 == 0x514c
                           00514C  2871 _AX5043_FREQDEV12NB	=	0x514c
                           00515C  2872 G$AX5043_FREQDEV13NB$0$0 == 0x515c
                           00515C  2873 _AX5043_FREQDEV13NB	=	0x515c
                           005127  2874 G$AX5043_FREQUENCYGAINA0NB$0$0 == 0x5127
                           005127  2875 _AX5043_FREQUENCYGAINA0NB	=	0x5127
                           005137  2876 G$AX5043_FREQUENCYGAINA1NB$0$0 == 0x5137
                           005137  2877 _AX5043_FREQUENCYGAINA1NB	=	0x5137
                           005147  2878 G$AX5043_FREQUENCYGAINA2NB$0$0 == 0x5147
                           005147  2879 _AX5043_FREQUENCYGAINA2NB	=	0x5147
                           005157  2880 G$AX5043_FREQUENCYGAINA3NB$0$0 == 0x5157
                           005157  2881 _AX5043_FREQUENCYGAINA3NB	=	0x5157
                           005128  2882 G$AX5043_FREQUENCYGAINB0NB$0$0 == 0x5128
                           005128  2883 _AX5043_FREQUENCYGAINB0NB	=	0x5128
                           005138  2884 G$AX5043_FREQUENCYGAINB1NB$0$0 == 0x5138
                           005138  2885 _AX5043_FREQUENCYGAINB1NB	=	0x5138
                           005148  2886 G$AX5043_FREQUENCYGAINB2NB$0$0 == 0x5148
                           005148  2887 _AX5043_FREQUENCYGAINB2NB	=	0x5148
                           005158  2888 G$AX5043_FREQUENCYGAINB3NB$0$0 == 0x5158
                           005158  2889 _AX5043_FREQUENCYGAINB3NB	=	0x5158
                           005129  2890 G$AX5043_FREQUENCYGAINC0NB$0$0 == 0x5129
                           005129  2891 _AX5043_FREQUENCYGAINC0NB	=	0x5129
                           005139  2892 G$AX5043_FREQUENCYGAINC1NB$0$0 == 0x5139
                           005139  2893 _AX5043_FREQUENCYGAINC1NB	=	0x5139
                           005149  2894 G$AX5043_FREQUENCYGAINC2NB$0$0 == 0x5149
                           005149  2895 _AX5043_FREQUENCYGAINC2NB	=	0x5149
                           005159  2896 G$AX5043_FREQUENCYGAINC3NB$0$0 == 0x5159
                           005159  2897 _AX5043_FREQUENCYGAINC3NB	=	0x5159
                           00512A  2898 G$AX5043_FREQUENCYGAIND0NB$0$0 == 0x512a
                           00512A  2899 _AX5043_FREQUENCYGAIND0NB	=	0x512a
                           00513A  2900 G$AX5043_FREQUENCYGAIND1NB$0$0 == 0x513a
                           00513A  2901 _AX5043_FREQUENCYGAIND1NB	=	0x513a
                           00514A  2902 G$AX5043_FREQUENCYGAIND2NB$0$0 == 0x514a
                           00514A  2903 _AX5043_FREQUENCYGAIND2NB	=	0x514a
                           00515A  2904 G$AX5043_FREQUENCYGAIND3NB$0$0 == 0x515a
                           00515A  2905 _AX5043_FREQUENCYGAIND3NB	=	0x515a
                           005116  2906 G$AX5043_FREQUENCYLEAKNB$0$0 == 0x5116
                           005116  2907 _AX5043_FREQUENCYLEAKNB	=	0x5116
                           005126  2908 G$AX5043_PHASEGAIN0NB$0$0 == 0x5126
                           005126  2909 _AX5043_PHASEGAIN0NB	=	0x5126
                           005136  2910 G$AX5043_PHASEGAIN1NB$0$0 == 0x5136
                           005136  2911 _AX5043_PHASEGAIN1NB	=	0x5136
                           005146  2912 G$AX5043_PHASEGAIN2NB$0$0 == 0x5146
                           005146  2913 _AX5043_PHASEGAIN2NB	=	0x5146
                           005156  2914 G$AX5043_PHASEGAIN3NB$0$0 == 0x5156
                           005156  2915 _AX5043_PHASEGAIN3NB	=	0x5156
                           005207  2916 G$AX5043_PKTADDR0NB$0$0 == 0x5207
                           005207  2917 _AX5043_PKTADDR0NB	=	0x5207
                           005206  2918 G$AX5043_PKTADDR1NB$0$0 == 0x5206
                           005206  2919 _AX5043_PKTADDR1NB	=	0x5206
                           005205  2920 G$AX5043_PKTADDR2NB$0$0 == 0x5205
                           005205  2921 _AX5043_PKTADDR2NB	=	0x5205
                           005204  2922 G$AX5043_PKTADDR3NB$0$0 == 0x5204
                           005204  2923 _AX5043_PKTADDR3NB	=	0x5204
                           005200  2924 G$AX5043_PKTADDRCFGNB$0$0 == 0x5200
                           005200  2925 _AX5043_PKTADDRCFGNB	=	0x5200
                           00520B  2926 G$AX5043_PKTADDRMASK0NB$0$0 == 0x520b
                           00520B  2927 _AX5043_PKTADDRMASK0NB	=	0x520b
                           00520A  2928 G$AX5043_PKTADDRMASK1NB$0$0 == 0x520a
                           00520A  2929 _AX5043_PKTADDRMASK1NB	=	0x520a
                           005209  2930 G$AX5043_PKTADDRMASK2NB$0$0 == 0x5209
                           005209  2931 _AX5043_PKTADDRMASK2NB	=	0x5209
                           005208  2932 G$AX5043_PKTADDRMASK3NB$0$0 == 0x5208
                           005208  2933 _AX5043_PKTADDRMASK3NB	=	0x5208
                           005201  2934 G$AX5043_PKTLENCFGNB$0$0 == 0x5201
                           005201  2935 _AX5043_PKTLENCFGNB	=	0x5201
                           005202  2936 G$AX5043_PKTLENOFFSETNB$0$0 == 0x5202
                           005202  2937 _AX5043_PKTLENOFFSETNB	=	0x5202
                           005203  2938 G$AX5043_PKTMAXLENNB$0$0 == 0x5203
                           005203  2939 _AX5043_PKTMAXLENNB	=	0x5203
                           005118  2940 G$AX5043_RXPARAMCURSETNB$0$0 == 0x5118
                           005118  2941 _AX5043_RXPARAMCURSETNB	=	0x5118
                           005117  2942 G$AX5043_RXPARAMSETSNB$0$0 == 0x5117
                           005117  2943 _AX5043_RXPARAMSETSNB	=	0x5117
                           005124  2944 G$AX5043_TIMEGAIN0NB$0$0 == 0x5124
                           005124  2945 _AX5043_TIMEGAIN0NB	=	0x5124
                           005134  2946 G$AX5043_TIMEGAIN1NB$0$0 == 0x5134
                           005134  2947 _AX5043_TIMEGAIN1NB	=	0x5134
                           005144  2948 G$AX5043_TIMEGAIN2NB$0$0 == 0x5144
                           005144  2949 _AX5043_TIMEGAIN2NB	=	0x5144
                           005154  2950 G$AX5043_TIMEGAIN3NB$0$0 == 0x5154
                           005154  2951 _AX5043_TIMEGAIN3NB	=	0x5154
                           000000  2952 G$payload$0$0==.
      0003D6                       2953 _payload::
      0003D6                       2954 	.ds 28
                           00001C  2955 G$payload_len$0$0==.
      0003F2                       2956 _payload_len::
      0003F2                       2957 	.ds 2
                                   2958 ;--------------------------------------------------------
                                   2959 ; absolute external ram data
                                   2960 ;--------------------------------------------------------
                                   2961 	.area XABS    (ABS,XDATA)
                                   2962 ;--------------------------------------------------------
                                   2963 ; external initialized ram data
                                   2964 ;--------------------------------------------------------
                                   2965 	.area XISEG   (XDATA)
                           000000  2966 G$trmID$0$0==.
      0009C1                       2967 _trmID::
      0009C1                       2968 	.ds 4
                           000004  2969 G$StdPrem$0$0==.
      0009C5                       2970 _StdPrem::
      0009C5                       2971 	.ds 1
                           000005  2972 G$pkts_received$0$0==.
      0009C6                       2973 _pkts_received::
      0009C6                       2974 	.ds 2
                           000007  2975 G$pkts_missing$0$0==.
      0009C8                       2976 _pkts_missing::
      0009C8                       2977 	.ds 2
                           000009  2978 G$pkt_counter$0$0==.
      0009CA                       2979 _pkt_counter::
      0009CA                       2980 	.ds 2
                           00000B  2981 G$ack_flg$0$0==.
      0009CC                       2982 _ack_flg::
      0009CC                       2983 	.ds 1
                           00000C  2984 G$txdone$0$0==.
      0009CD                       2985 _txdone::
      0009CD                       2986 	.ds 1
                           00000D  2987 G$premSlot_counter$0$0==.
      0009CE                       2988 _premSlot_counter::
      0009CE                       2989 	.ds 1
                           00000E  2990 G$wt0_beacon$0$0==.
      0009CF                       2991 _wt0_beacon::
      0009CF                       2992 	.ds 4
                           000012  2993 G$wt0_tx3$0$0==.
      0009D3                       2994 _wt0_tx3::
      0009D3                       2995 	.ds 4
                                   2996 	.area HOME    (CODE)
                                   2997 	.area GSINIT0 (CODE)
                                   2998 	.area GSINIT1 (CODE)
                                   2999 	.area GSINIT2 (CODE)
                                   3000 	.area GSINIT3 (CODE)
                                   3001 	.area GSINIT4 (CODE)
                                   3002 	.area GSINIT5 (CODE)
                                   3003 	.area GSINIT  (CODE)
                                   3004 	.area GSFINAL (CODE)
                                   3005 	.area CSEG    (CODE)
                                   3006 ;--------------------------------------------------------
                                   3007 ; interrupt vector 
                                   3008 ;--------------------------------------------------------
                                   3009 	.area HOME    (CODE)
      000000                       3010 __interrupt_vect:
      000000 02 03 11         [24] 3011 	ljmp	__sdcc_gsinit_startup
      000003 32               [24] 3012 	reti
      000004                       3013 	.ds	7
      00000B 02 00 E8         [24] 3014 	ljmp	_wtimer_irq
      00000E                       3015 	.ds	5
      000013 32               [24] 3016 	reti
      000014                       3017 	.ds	7
      00001B 32               [24] 3018 	reti
