                                      1 ;--------------------------------------------------------
                                      2 ; File Created by SDCC : free open source ANSI-C Compiler
                                      3 ; Version 3.6.0 #9615 (MINGW64)
                                      4 ;--------------------------------------------------------
                                      5 	.module pktframing
                                      6 	.optsdcc -mmcs51 --model-small
                                      7 	
                                      8 ;--------------------------------------------------------
                                      9 ; Public variables in this module
                                     10 ;--------------------------------------------------------
                                     11 	.globl _swap_variables_PARM_2
                                     12 	.globl _packetPremFraming
                                     13 	.globl _GOLDSEQUENCE_Obtain
                                     14 	.globl _memcpy
                                     15 	.globl _delay_ms
                                     16 	.globl _crc_crc32_msb
                                     17 	.globl _dbglink_writehex32
                                     18 	.globl _dbglink_writestr
                                     19 	.globl _dbglink_tx
                                     20 	.globl _wtimer0_curtime
                                     21 	.globl _PORTC_7
                                     22 	.globl _PORTC_6
                                     23 	.globl _PORTC_5
                                     24 	.globl _PORTC_4
                                     25 	.globl _PORTC_3
                                     26 	.globl _PORTC_2
                                     27 	.globl _PORTC_1
                                     28 	.globl _PORTC_0
                                     29 	.globl _PORTB_7
                                     30 	.globl _PORTB_6
                                     31 	.globl _PORTB_5
                                     32 	.globl _PORTB_4
                                     33 	.globl _PORTB_3
                                     34 	.globl _PORTB_2
                                     35 	.globl _PORTB_1
                                     36 	.globl _PORTB_0
                                     37 	.globl _PORTA_7
                                     38 	.globl _PORTA_6
                                     39 	.globl _PORTA_5
                                     40 	.globl _PORTA_4
                                     41 	.globl _PORTA_3
                                     42 	.globl _PORTA_2
                                     43 	.globl _PORTA_1
                                     44 	.globl _PORTA_0
                                     45 	.globl _PINC_7
                                     46 	.globl _PINC_6
                                     47 	.globl _PINC_5
                                     48 	.globl _PINC_4
                                     49 	.globl _PINC_3
                                     50 	.globl _PINC_2
                                     51 	.globl _PINC_1
                                     52 	.globl _PINC_0
                                     53 	.globl _PINB_7
                                     54 	.globl _PINB_6
                                     55 	.globl _PINB_5
                                     56 	.globl _PINB_4
                                     57 	.globl _PINB_3
                                     58 	.globl _PINB_2
                                     59 	.globl _PINB_1
                                     60 	.globl _PINB_0
                                     61 	.globl _PINA_7
                                     62 	.globl _PINA_6
                                     63 	.globl _PINA_5
                                     64 	.globl _PINA_4
                                     65 	.globl _PINA_3
                                     66 	.globl _PINA_2
                                     67 	.globl _PINA_1
                                     68 	.globl _PINA_0
                                     69 	.globl _CY
                                     70 	.globl _AC
                                     71 	.globl _F0
                                     72 	.globl _RS1
                                     73 	.globl _RS0
                                     74 	.globl _OV
                                     75 	.globl _F1
                                     76 	.globl _P
                                     77 	.globl _IP_7
                                     78 	.globl _IP_6
                                     79 	.globl _IP_5
                                     80 	.globl _IP_4
                                     81 	.globl _IP_3
                                     82 	.globl _IP_2
                                     83 	.globl _IP_1
                                     84 	.globl _IP_0
                                     85 	.globl _EA
                                     86 	.globl _IE_7
                                     87 	.globl _IE_6
                                     88 	.globl _IE_5
                                     89 	.globl _IE_4
                                     90 	.globl _IE_3
                                     91 	.globl _IE_2
                                     92 	.globl _IE_1
                                     93 	.globl _IE_0
                                     94 	.globl _EIP_7
                                     95 	.globl _EIP_6
                                     96 	.globl _EIP_5
                                     97 	.globl _EIP_4
                                     98 	.globl _EIP_3
                                     99 	.globl _EIP_2
                                    100 	.globl _EIP_1
                                    101 	.globl _EIP_0
                                    102 	.globl _EIE_7
                                    103 	.globl _EIE_6
                                    104 	.globl _EIE_5
                                    105 	.globl _EIE_4
                                    106 	.globl _EIE_3
                                    107 	.globl _EIE_2
                                    108 	.globl _EIE_1
                                    109 	.globl _EIE_0
                                    110 	.globl _E2IP_7
                                    111 	.globl _E2IP_6
                                    112 	.globl _E2IP_5
                                    113 	.globl _E2IP_4
                                    114 	.globl _E2IP_3
                                    115 	.globl _E2IP_2
                                    116 	.globl _E2IP_1
                                    117 	.globl _E2IP_0
                                    118 	.globl _E2IE_7
                                    119 	.globl _E2IE_6
                                    120 	.globl _E2IE_5
                                    121 	.globl _E2IE_4
                                    122 	.globl _E2IE_3
                                    123 	.globl _E2IE_2
                                    124 	.globl _E2IE_1
                                    125 	.globl _E2IE_0
                                    126 	.globl _B_7
                                    127 	.globl _B_6
                                    128 	.globl _B_5
                                    129 	.globl _B_4
                                    130 	.globl _B_3
                                    131 	.globl _B_2
                                    132 	.globl _B_1
                                    133 	.globl _B_0
                                    134 	.globl _ACC_7
                                    135 	.globl _ACC_6
                                    136 	.globl _ACC_5
                                    137 	.globl _ACC_4
                                    138 	.globl _ACC_3
                                    139 	.globl _ACC_2
                                    140 	.globl _ACC_1
                                    141 	.globl _ACC_0
                                    142 	.globl _WTSTAT
                                    143 	.globl _WTIRQEN
                                    144 	.globl _WTEVTD
                                    145 	.globl _WTEVTD1
                                    146 	.globl _WTEVTD0
                                    147 	.globl _WTEVTC
                                    148 	.globl _WTEVTC1
                                    149 	.globl _WTEVTC0
                                    150 	.globl _WTEVTB
                                    151 	.globl _WTEVTB1
                                    152 	.globl _WTEVTB0
                                    153 	.globl _WTEVTA
                                    154 	.globl _WTEVTA1
                                    155 	.globl _WTEVTA0
                                    156 	.globl _WTCNTR1
                                    157 	.globl _WTCNTB
                                    158 	.globl _WTCNTB1
                                    159 	.globl _WTCNTB0
                                    160 	.globl _WTCNTA
                                    161 	.globl _WTCNTA1
                                    162 	.globl _WTCNTA0
                                    163 	.globl _WTCFGB
                                    164 	.globl _WTCFGA
                                    165 	.globl _WDTRESET
                                    166 	.globl _WDTCFG
                                    167 	.globl _U1STATUS
                                    168 	.globl _U1SHREG
                                    169 	.globl _U1MODE
                                    170 	.globl _U1CTRL
                                    171 	.globl _U0STATUS
                                    172 	.globl _U0SHREG
                                    173 	.globl _U0MODE
                                    174 	.globl _U0CTRL
                                    175 	.globl _T2STATUS
                                    176 	.globl _T2PERIOD
                                    177 	.globl _T2PERIOD1
                                    178 	.globl _T2PERIOD0
                                    179 	.globl _T2MODE
                                    180 	.globl _T2CNT
                                    181 	.globl _T2CNT1
                                    182 	.globl _T2CNT0
                                    183 	.globl _T2CLKSRC
                                    184 	.globl _T1STATUS
                                    185 	.globl _T1PERIOD
                                    186 	.globl _T1PERIOD1
                                    187 	.globl _T1PERIOD0
                                    188 	.globl _T1MODE
                                    189 	.globl _T1CNT
                                    190 	.globl _T1CNT1
                                    191 	.globl _T1CNT0
                                    192 	.globl _T1CLKSRC
                                    193 	.globl _T0STATUS
                                    194 	.globl _T0PERIOD
                                    195 	.globl _T0PERIOD1
                                    196 	.globl _T0PERIOD0
                                    197 	.globl _T0MODE
                                    198 	.globl _T0CNT
                                    199 	.globl _T0CNT1
                                    200 	.globl _T0CNT0
                                    201 	.globl _T0CLKSRC
                                    202 	.globl _SPSTATUS
                                    203 	.globl _SPSHREG
                                    204 	.globl _SPMODE
                                    205 	.globl _SPCLKSRC
                                    206 	.globl _RADIOSTAT
                                    207 	.globl _RADIOSTAT1
                                    208 	.globl _RADIOSTAT0
                                    209 	.globl _RADIODATA
                                    210 	.globl _RADIODATA3
                                    211 	.globl _RADIODATA2
                                    212 	.globl _RADIODATA1
                                    213 	.globl _RADIODATA0
                                    214 	.globl _RADIOADDR
                                    215 	.globl _RADIOADDR1
                                    216 	.globl _RADIOADDR0
                                    217 	.globl _RADIOACC
                                    218 	.globl _OC1STATUS
                                    219 	.globl _OC1PIN
                                    220 	.globl _OC1MODE
                                    221 	.globl _OC1COMP
                                    222 	.globl _OC1COMP1
                                    223 	.globl _OC1COMP0
                                    224 	.globl _OC0STATUS
                                    225 	.globl _OC0PIN
                                    226 	.globl _OC0MODE
                                    227 	.globl _OC0COMP
                                    228 	.globl _OC0COMP1
                                    229 	.globl _OC0COMP0
                                    230 	.globl _NVSTATUS
                                    231 	.globl _NVKEY
                                    232 	.globl _NVDATA
                                    233 	.globl _NVDATA1
                                    234 	.globl _NVDATA0
                                    235 	.globl _NVADDR
                                    236 	.globl _NVADDR1
                                    237 	.globl _NVADDR0
                                    238 	.globl _IC1STATUS
                                    239 	.globl _IC1MODE
                                    240 	.globl _IC1CAPT
                                    241 	.globl _IC1CAPT1
                                    242 	.globl _IC1CAPT0
                                    243 	.globl _IC0STATUS
                                    244 	.globl _IC0MODE
                                    245 	.globl _IC0CAPT
                                    246 	.globl _IC0CAPT1
                                    247 	.globl _IC0CAPT0
                                    248 	.globl _PORTR
                                    249 	.globl _PORTC
                                    250 	.globl _PORTB
                                    251 	.globl _PORTA
                                    252 	.globl _PINR
                                    253 	.globl _PINC
                                    254 	.globl _PINB
                                    255 	.globl _PINA
                                    256 	.globl _DIRR
                                    257 	.globl _DIRC
                                    258 	.globl _DIRB
                                    259 	.globl _DIRA
                                    260 	.globl _DBGLNKSTAT
                                    261 	.globl _DBGLNKBUF
                                    262 	.globl _CODECONFIG
                                    263 	.globl _CLKSTAT
                                    264 	.globl _CLKCON
                                    265 	.globl _ANALOGCOMP
                                    266 	.globl _ADCCONV
                                    267 	.globl _ADCCLKSRC
                                    268 	.globl _ADCCH3CONFIG
                                    269 	.globl _ADCCH2CONFIG
                                    270 	.globl _ADCCH1CONFIG
                                    271 	.globl _ADCCH0CONFIG
                                    272 	.globl __XPAGE
                                    273 	.globl _XPAGE
                                    274 	.globl _SP
                                    275 	.globl _PSW
                                    276 	.globl _PCON
                                    277 	.globl _IP
                                    278 	.globl _IE
                                    279 	.globl _EIP
                                    280 	.globl _EIE
                                    281 	.globl _E2IP
                                    282 	.globl _E2IE
                                    283 	.globl _DPS
                                    284 	.globl _DPTR1
                                    285 	.globl _DPTR0
                                    286 	.globl _DPL1
                                    287 	.globl _DPL
                                    288 	.globl _DPH1
                                    289 	.globl _DPH
                                    290 	.globl _B
                                    291 	.globl _ACC
                                    292 	.globl _StdPrem
                                    293 	.globl _trmID
                                    294 	.globl _dummyHMAC
                                    295 	.globl _msg3_tmr
                                    296 	.globl _msg2_tmr
                                    297 	.globl _msg1_tmr
                                    298 	.globl _premPacketBuffer
                                    299 	.globl _demoPacketBuffer
                                    300 	.globl _siblingSlots
                                    301 	.globl _randomSet
                                    302 	.globl _RNGMODE
                                    303 	.globl _RNGCLKSRC1
                                    304 	.globl _RNGCLKSRC0
                                    305 	.globl _RNGBYTE
                                    306 	.globl _AESOUTADDR
                                    307 	.globl _AESOUTADDR1
                                    308 	.globl _AESOUTADDR0
                                    309 	.globl _AESMODE
                                    310 	.globl _AESKEYADDR
                                    311 	.globl _AESKEYADDR1
                                    312 	.globl _AESKEYADDR0
                                    313 	.globl _AESINADDR
                                    314 	.globl _AESINADDR1
                                    315 	.globl _AESINADDR0
                                    316 	.globl _AESCURBLOCK
                                    317 	.globl _AESCONFIG
                                    318 	.globl _AX5043_TIMEGAIN3NB
                                    319 	.globl _AX5043_TIMEGAIN2NB
                                    320 	.globl _AX5043_TIMEGAIN1NB
                                    321 	.globl _AX5043_TIMEGAIN0NB
                                    322 	.globl _AX5043_RXPARAMSETSNB
                                    323 	.globl _AX5043_RXPARAMCURSETNB
                                    324 	.globl _AX5043_PKTMAXLENNB
                                    325 	.globl _AX5043_PKTLENOFFSETNB
                                    326 	.globl _AX5043_PKTLENCFGNB
                                    327 	.globl _AX5043_PKTADDRMASK3NB
                                    328 	.globl _AX5043_PKTADDRMASK2NB
                                    329 	.globl _AX5043_PKTADDRMASK1NB
                                    330 	.globl _AX5043_PKTADDRMASK0NB
                                    331 	.globl _AX5043_PKTADDRCFGNB
                                    332 	.globl _AX5043_PKTADDR3NB
                                    333 	.globl _AX5043_PKTADDR2NB
                                    334 	.globl _AX5043_PKTADDR1NB
                                    335 	.globl _AX5043_PKTADDR0NB
                                    336 	.globl _AX5043_PHASEGAIN3NB
                                    337 	.globl _AX5043_PHASEGAIN2NB
                                    338 	.globl _AX5043_PHASEGAIN1NB
                                    339 	.globl _AX5043_PHASEGAIN0NB
                                    340 	.globl _AX5043_FREQUENCYLEAKNB
                                    341 	.globl _AX5043_FREQUENCYGAIND3NB
                                    342 	.globl _AX5043_FREQUENCYGAIND2NB
                                    343 	.globl _AX5043_FREQUENCYGAIND1NB
                                    344 	.globl _AX5043_FREQUENCYGAIND0NB
                                    345 	.globl _AX5043_FREQUENCYGAINC3NB
                                    346 	.globl _AX5043_FREQUENCYGAINC2NB
                                    347 	.globl _AX5043_FREQUENCYGAINC1NB
                                    348 	.globl _AX5043_FREQUENCYGAINC0NB
                                    349 	.globl _AX5043_FREQUENCYGAINB3NB
                                    350 	.globl _AX5043_FREQUENCYGAINB2NB
                                    351 	.globl _AX5043_FREQUENCYGAINB1NB
                                    352 	.globl _AX5043_FREQUENCYGAINB0NB
                                    353 	.globl _AX5043_FREQUENCYGAINA3NB
                                    354 	.globl _AX5043_FREQUENCYGAINA2NB
                                    355 	.globl _AX5043_FREQUENCYGAINA1NB
                                    356 	.globl _AX5043_FREQUENCYGAINA0NB
                                    357 	.globl _AX5043_FREQDEV13NB
                                    358 	.globl _AX5043_FREQDEV12NB
                                    359 	.globl _AX5043_FREQDEV11NB
                                    360 	.globl _AX5043_FREQDEV10NB
                                    361 	.globl _AX5043_FREQDEV03NB
                                    362 	.globl _AX5043_FREQDEV02NB
                                    363 	.globl _AX5043_FREQDEV01NB
                                    364 	.globl _AX5043_FREQDEV00NB
                                    365 	.globl _AX5043_FOURFSK3NB
                                    366 	.globl _AX5043_FOURFSK2NB
                                    367 	.globl _AX5043_FOURFSK1NB
                                    368 	.globl _AX5043_FOURFSK0NB
                                    369 	.globl _AX5043_DRGAIN3NB
                                    370 	.globl _AX5043_DRGAIN2NB
                                    371 	.globl _AX5043_DRGAIN1NB
                                    372 	.globl _AX5043_DRGAIN0NB
                                    373 	.globl _AX5043_BBOFFSRES3NB
                                    374 	.globl _AX5043_BBOFFSRES2NB
                                    375 	.globl _AX5043_BBOFFSRES1NB
                                    376 	.globl _AX5043_BBOFFSRES0NB
                                    377 	.globl _AX5043_AMPLITUDEGAIN3NB
                                    378 	.globl _AX5043_AMPLITUDEGAIN2NB
                                    379 	.globl _AX5043_AMPLITUDEGAIN1NB
                                    380 	.globl _AX5043_AMPLITUDEGAIN0NB
                                    381 	.globl _AX5043_AGCTARGET3NB
                                    382 	.globl _AX5043_AGCTARGET2NB
                                    383 	.globl _AX5043_AGCTARGET1NB
                                    384 	.globl _AX5043_AGCTARGET0NB
                                    385 	.globl _AX5043_AGCMINMAX3NB
                                    386 	.globl _AX5043_AGCMINMAX2NB
                                    387 	.globl _AX5043_AGCMINMAX1NB
                                    388 	.globl _AX5043_AGCMINMAX0NB
                                    389 	.globl _AX5043_AGCGAIN3NB
                                    390 	.globl _AX5043_AGCGAIN2NB
                                    391 	.globl _AX5043_AGCGAIN1NB
                                    392 	.globl _AX5043_AGCGAIN0NB
                                    393 	.globl _AX5043_AGCAHYST3NB
                                    394 	.globl _AX5043_AGCAHYST2NB
                                    395 	.globl _AX5043_AGCAHYST1NB
                                    396 	.globl _AX5043_AGCAHYST0NB
                                    397 	.globl _AX5043_0xF44NB
                                    398 	.globl _AX5043_0xF35NB
                                    399 	.globl _AX5043_0xF34NB
                                    400 	.globl _AX5043_0xF33NB
                                    401 	.globl _AX5043_0xF32NB
                                    402 	.globl _AX5043_0xF31NB
                                    403 	.globl _AX5043_0xF30NB
                                    404 	.globl _AX5043_0xF26NB
                                    405 	.globl _AX5043_0xF23NB
                                    406 	.globl _AX5043_0xF22NB
                                    407 	.globl _AX5043_0xF21NB
                                    408 	.globl _AX5043_0xF1CNB
                                    409 	.globl _AX5043_0xF18NB
                                    410 	.globl _AX5043_0xF0CNB
                                    411 	.globl _AX5043_0xF00NB
                                    412 	.globl _AX5043_XTALSTATUSNB
                                    413 	.globl _AX5043_XTALOSCNB
                                    414 	.globl _AX5043_XTALCAPNB
                                    415 	.globl _AX5043_XTALAMPLNB
                                    416 	.globl _AX5043_WAKEUPXOEARLYNB
                                    417 	.globl _AX5043_WAKEUPTIMER1NB
                                    418 	.globl _AX5043_WAKEUPTIMER0NB
                                    419 	.globl _AX5043_WAKEUPFREQ1NB
                                    420 	.globl _AX5043_WAKEUPFREQ0NB
                                    421 	.globl _AX5043_WAKEUP1NB
                                    422 	.globl _AX5043_WAKEUP0NB
                                    423 	.globl _AX5043_TXRATE2NB
                                    424 	.globl _AX5043_TXRATE1NB
                                    425 	.globl _AX5043_TXRATE0NB
                                    426 	.globl _AX5043_TXPWRCOEFFE1NB
                                    427 	.globl _AX5043_TXPWRCOEFFE0NB
                                    428 	.globl _AX5043_TXPWRCOEFFD1NB
                                    429 	.globl _AX5043_TXPWRCOEFFD0NB
                                    430 	.globl _AX5043_TXPWRCOEFFC1NB
                                    431 	.globl _AX5043_TXPWRCOEFFC0NB
                                    432 	.globl _AX5043_TXPWRCOEFFB1NB
                                    433 	.globl _AX5043_TXPWRCOEFFB0NB
                                    434 	.globl _AX5043_TXPWRCOEFFA1NB
                                    435 	.globl _AX5043_TXPWRCOEFFA0NB
                                    436 	.globl _AX5043_TRKRFFREQ2NB
                                    437 	.globl _AX5043_TRKRFFREQ1NB
                                    438 	.globl _AX5043_TRKRFFREQ0NB
                                    439 	.globl _AX5043_TRKPHASE1NB
                                    440 	.globl _AX5043_TRKPHASE0NB
                                    441 	.globl _AX5043_TRKFSKDEMOD1NB
                                    442 	.globl _AX5043_TRKFSKDEMOD0NB
                                    443 	.globl _AX5043_TRKFREQ1NB
                                    444 	.globl _AX5043_TRKFREQ0NB
                                    445 	.globl _AX5043_TRKDATARATE2NB
                                    446 	.globl _AX5043_TRKDATARATE1NB
                                    447 	.globl _AX5043_TRKDATARATE0NB
                                    448 	.globl _AX5043_TRKAMPLITUDE1NB
                                    449 	.globl _AX5043_TRKAMPLITUDE0NB
                                    450 	.globl _AX5043_TRKAFSKDEMOD1NB
                                    451 	.globl _AX5043_TRKAFSKDEMOD0NB
                                    452 	.globl _AX5043_TMGTXSETTLENB
                                    453 	.globl _AX5043_TMGTXBOOSTNB
                                    454 	.globl _AX5043_TMGRXSETTLENB
                                    455 	.globl _AX5043_TMGRXRSSINB
                                    456 	.globl _AX5043_TMGRXPREAMBLE3NB
                                    457 	.globl _AX5043_TMGRXPREAMBLE2NB
                                    458 	.globl _AX5043_TMGRXPREAMBLE1NB
                                    459 	.globl _AX5043_TMGRXOFFSACQNB
                                    460 	.globl _AX5043_TMGRXCOARSEAGCNB
                                    461 	.globl _AX5043_TMGRXBOOSTNB
                                    462 	.globl _AX5043_TMGRXAGCNB
                                    463 	.globl _AX5043_TIMER2NB
                                    464 	.globl _AX5043_TIMER1NB
                                    465 	.globl _AX5043_TIMER0NB
                                    466 	.globl _AX5043_SILICONREVISIONNB
                                    467 	.globl _AX5043_SCRATCHNB
                                    468 	.globl _AX5043_RXDATARATE2NB
                                    469 	.globl _AX5043_RXDATARATE1NB
                                    470 	.globl _AX5043_RXDATARATE0NB
                                    471 	.globl _AX5043_RSSIREFERENCENB
                                    472 	.globl _AX5043_RSSIABSTHRNB
                                    473 	.globl _AX5043_RSSINB
                                    474 	.globl _AX5043_REFNB
                                    475 	.globl _AX5043_RADIOSTATENB
                                    476 	.globl _AX5043_RADIOEVENTREQ1NB
                                    477 	.globl _AX5043_RADIOEVENTREQ0NB
                                    478 	.globl _AX5043_RADIOEVENTMASK1NB
                                    479 	.globl _AX5043_RADIOEVENTMASK0NB
                                    480 	.globl _AX5043_PWRMODENB
                                    481 	.globl _AX5043_PWRAMPNB
                                    482 	.globl _AX5043_POWSTICKYSTATNB
                                    483 	.globl _AX5043_POWSTATNB
                                    484 	.globl _AX5043_POWIRQMASKNB
                                    485 	.globl _AX5043_POWCTRL1NB
                                    486 	.globl _AX5043_PLLVCOIRNB
                                    487 	.globl _AX5043_PLLVCOINB
                                    488 	.globl _AX5043_PLLVCODIVNB
                                    489 	.globl _AX5043_PLLRNGCLKNB
                                    490 	.globl _AX5043_PLLRANGINGBNB
                                    491 	.globl _AX5043_PLLRANGINGANB
                                    492 	.globl _AX5043_PLLLOOPBOOSTNB
                                    493 	.globl _AX5043_PLLLOOPNB
                                    494 	.globl _AX5043_PLLLOCKDETNB
                                    495 	.globl _AX5043_PLLCPIBOOSTNB
                                    496 	.globl _AX5043_PLLCPINB
                                    497 	.globl _AX5043_PKTSTOREFLAGSNB
                                    498 	.globl _AX5043_PKTMISCFLAGSNB
                                    499 	.globl _AX5043_PKTCHUNKSIZENB
                                    500 	.globl _AX5043_PKTACCEPTFLAGSNB
                                    501 	.globl _AX5043_PINSTATENB
                                    502 	.globl _AX5043_PINFUNCSYSCLKNB
                                    503 	.globl _AX5043_PINFUNCPWRAMPNB
                                    504 	.globl _AX5043_PINFUNCIRQNB
                                    505 	.globl _AX5043_PINFUNCDCLKNB
                                    506 	.globl _AX5043_PINFUNCDATANB
                                    507 	.globl _AX5043_PINFUNCANTSELNB
                                    508 	.globl _AX5043_MODULATIONNB
                                    509 	.globl _AX5043_MODCFGPNB
                                    510 	.globl _AX5043_MODCFGFNB
                                    511 	.globl _AX5043_MODCFGANB
                                    512 	.globl _AX5043_MAXRFOFFSET2NB
                                    513 	.globl _AX5043_MAXRFOFFSET1NB
                                    514 	.globl _AX5043_MAXRFOFFSET0NB
                                    515 	.globl _AX5043_MAXDROFFSET2NB
                                    516 	.globl _AX5043_MAXDROFFSET1NB
                                    517 	.globl _AX5043_MAXDROFFSET0NB
                                    518 	.globl _AX5043_MATCH1PAT1NB
                                    519 	.globl _AX5043_MATCH1PAT0NB
                                    520 	.globl _AX5043_MATCH1MINNB
                                    521 	.globl _AX5043_MATCH1MAXNB
                                    522 	.globl _AX5043_MATCH1LENNB
                                    523 	.globl _AX5043_MATCH0PAT3NB
                                    524 	.globl _AX5043_MATCH0PAT2NB
                                    525 	.globl _AX5043_MATCH0PAT1NB
                                    526 	.globl _AX5043_MATCH0PAT0NB
                                    527 	.globl _AX5043_MATCH0MINNB
                                    528 	.globl _AX5043_MATCH0MAXNB
                                    529 	.globl _AX5043_MATCH0LENNB
                                    530 	.globl _AX5043_LPOSCSTATUSNB
                                    531 	.globl _AX5043_LPOSCREF1NB
                                    532 	.globl _AX5043_LPOSCREF0NB
                                    533 	.globl _AX5043_LPOSCPER1NB
                                    534 	.globl _AX5043_LPOSCPER0NB
                                    535 	.globl _AX5043_LPOSCKFILT1NB
                                    536 	.globl _AX5043_LPOSCKFILT0NB
                                    537 	.globl _AX5043_LPOSCFREQ1NB
                                    538 	.globl _AX5043_LPOSCFREQ0NB
                                    539 	.globl _AX5043_LPOSCCONFIGNB
                                    540 	.globl _AX5043_IRQREQUEST1NB
                                    541 	.globl _AX5043_IRQREQUEST0NB
                                    542 	.globl _AX5043_IRQMASK1NB
                                    543 	.globl _AX5043_IRQMASK0NB
                                    544 	.globl _AX5043_IRQINVERSION1NB
                                    545 	.globl _AX5043_IRQINVERSION0NB
                                    546 	.globl _AX5043_IFFREQ1NB
                                    547 	.globl _AX5043_IFFREQ0NB
                                    548 	.globl _AX5043_GPADCPERIODNB
                                    549 	.globl _AX5043_GPADCCTRLNB
                                    550 	.globl _AX5043_GPADC13VALUE1NB
                                    551 	.globl _AX5043_GPADC13VALUE0NB
                                    552 	.globl _AX5043_FSKDMIN1NB
                                    553 	.globl _AX5043_FSKDMIN0NB
                                    554 	.globl _AX5043_FSKDMAX1NB
                                    555 	.globl _AX5043_FSKDMAX0NB
                                    556 	.globl _AX5043_FSKDEV2NB
                                    557 	.globl _AX5043_FSKDEV1NB
                                    558 	.globl _AX5043_FSKDEV0NB
                                    559 	.globl _AX5043_FREQB3NB
                                    560 	.globl _AX5043_FREQB2NB
                                    561 	.globl _AX5043_FREQB1NB
                                    562 	.globl _AX5043_FREQB0NB
                                    563 	.globl _AX5043_FREQA3NB
                                    564 	.globl _AX5043_FREQA2NB
                                    565 	.globl _AX5043_FREQA1NB
                                    566 	.globl _AX5043_FREQA0NB
                                    567 	.globl _AX5043_FRAMINGNB
                                    568 	.globl _AX5043_FIFOTHRESH1NB
                                    569 	.globl _AX5043_FIFOTHRESH0NB
                                    570 	.globl _AX5043_FIFOSTATNB
                                    571 	.globl _AX5043_FIFOFREE1NB
                                    572 	.globl _AX5043_FIFOFREE0NB
                                    573 	.globl _AX5043_FIFODATANB
                                    574 	.globl _AX5043_FIFOCOUNT1NB
                                    575 	.globl _AX5043_FIFOCOUNT0NB
                                    576 	.globl _AX5043_FECSYNCNB
                                    577 	.globl _AX5043_FECSTATUSNB
                                    578 	.globl _AX5043_FECNB
                                    579 	.globl _AX5043_ENCODINGNB
                                    580 	.globl _AX5043_DIVERSITYNB
                                    581 	.globl _AX5043_DECIMATIONNB
                                    582 	.globl _AX5043_DACVALUE1NB
                                    583 	.globl _AX5043_DACVALUE0NB
                                    584 	.globl _AX5043_DACCONFIGNB
                                    585 	.globl _AX5043_CRCINIT3NB
                                    586 	.globl _AX5043_CRCINIT2NB
                                    587 	.globl _AX5043_CRCINIT1NB
                                    588 	.globl _AX5043_CRCINIT0NB
                                    589 	.globl _AX5043_BGNDRSSITHRNB
                                    590 	.globl _AX5043_BGNDRSSIGAINNB
                                    591 	.globl _AX5043_BGNDRSSINB
                                    592 	.globl _AX5043_BBTUNENB
                                    593 	.globl _AX5043_BBOFFSCAPNB
                                    594 	.globl _AX5043_AMPLFILTERNB
                                    595 	.globl _AX5043_AGCCOUNTERNB
                                    596 	.globl _AX5043_AFSKSPACE1NB
                                    597 	.globl _AX5043_AFSKSPACE0NB
                                    598 	.globl _AX5043_AFSKMARK1NB
                                    599 	.globl _AX5043_AFSKMARK0NB
                                    600 	.globl _AX5043_AFSKCTRLNB
                                    601 	.globl _AX5043_TIMEGAIN3
                                    602 	.globl _AX5043_TIMEGAIN2
                                    603 	.globl _AX5043_TIMEGAIN1
                                    604 	.globl _AX5043_TIMEGAIN0
                                    605 	.globl _AX5043_RXPARAMSETS
                                    606 	.globl _AX5043_RXPARAMCURSET
                                    607 	.globl _AX5043_PKTMAXLEN
                                    608 	.globl _AX5043_PKTLENOFFSET
                                    609 	.globl _AX5043_PKTLENCFG
                                    610 	.globl _AX5043_PKTADDRMASK3
                                    611 	.globl _AX5043_PKTADDRMASK2
                                    612 	.globl _AX5043_PKTADDRMASK1
                                    613 	.globl _AX5043_PKTADDRMASK0
                                    614 	.globl _AX5043_PKTADDRCFG
                                    615 	.globl _AX5043_PKTADDR3
                                    616 	.globl _AX5043_PKTADDR2
                                    617 	.globl _AX5043_PKTADDR1
                                    618 	.globl _AX5043_PKTADDR0
                                    619 	.globl _AX5043_PHASEGAIN3
                                    620 	.globl _AX5043_PHASEGAIN2
                                    621 	.globl _AX5043_PHASEGAIN1
                                    622 	.globl _AX5043_PHASEGAIN0
                                    623 	.globl _AX5043_FREQUENCYLEAK
                                    624 	.globl _AX5043_FREQUENCYGAIND3
                                    625 	.globl _AX5043_FREQUENCYGAIND2
                                    626 	.globl _AX5043_FREQUENCYGAIND1
                                    627 	.globl _AX5043_FREQUENCYGAIND0
                                    628 	.globl _AX5043_FREQUENCYGAINC3
                                    629 	.globl _AX5043_FREQUENCYGAINC2
                                    630 	.globl _AX5043_FREQUENCYGAINC1
                                    631 	.globl _AX5043_FREQUENCYGAINC0
                                    632 	.globl _AX5043_FREQUENCYGAINB3
                                    633 	.globl _AX5043_FREQUENCYGAINB2
                                    634 	.globl _AX5043_FREQUENCYGAINB1
                                    635 	.globl _AX5043_FREQUENCYGAINB0
                                    636 	.globl _AX5043_FREQUENCYGAINA3
                                    637 	.globl _AX5043_FREQUENCYGAINA2
                                    638 	.globl _AX5043_FREQUENCYGAINA1
                                    639 	.globl _AX5043_FREQUENCYGAINA0
                                    640 	.globl _AX5043_FREQDEV13
                                    641 	.globl _AX5043_FREQDEV12
                                    642 	.globl _AX5043_FREQDEV11
                                    643 	.globl _AX5043_FREQDEV10
                                    644 	.globl _AX5043_FREQDEV03
                                    645 	.globl _AX5043_FREQDEV02
                                    646 	.globl _AX5043_FREQDEV01
                                    647 	.globl _AX5043_FREQDEV00
                                    648 	.globl _AX5043_FOURFSK3
                                    649 	.globl _AX5043_FOURFSK2
                                    650 	.globl _AX5043_FOURFSK1
                                    651 	.globl _AX5043_FOURFSK0
                                    652 	.globl _AX5043_DRGAIN3
                                    653 	.globl _AX5043_DRGAIN2
                                    654 	.globl _AX5043_DRGAIN1
                                    655 	.globl _AX5043_DRGAIN0
                                    656 	.globl _AX5043_BBOFFSRES3
                                    657 	.globl _AX5043_BBOFFSRES2
                                    658 	.globl _AX5043_BBOFFSRES1
                                    659 	.globl _AX5043_BBOFFSRES0
                                    660 	.globl _AX5043_AMPLITUDEGAIN3
                                    661 	.globl _AX5043_AMPLITUDEGAIN2
                                    662 	.globl _AX5043_AMPLITUDEGAIN1
                                    663 	.globl _AX5043_AMPLITUDEGAIN0
                                    664 	.globl _AX5043_AGCTARGET3
                                    665 	.globl _AX5043_AGCTARGET2
                                    666 	.globl _AX5043_AGCTARGET1
                                    667 	.globl _AX5043_AGCTARGET0
                                    668 	.globl _AX5043_AGCMINMAX3
                                    669 	.globl _AX5043_AGCMINMAX2
                                    670 	.globl _AX5043_AGCMINMAX1
                                    671 	.globl _AX5043_AGCMINMAX0
                                    672 	.globl _AX5043_AGCGAIN3
                                    673 	.globl _AX5043_AGCGAIN2
                                    674 	.globl _AX5043_AGCGAIN1
                                    675 	.globl _AX5043_AGCGAIN0
                                    676 	.globl _AX5043_AGCAHYST3
                                    677 	.globl _AX5043_AGCAHYST2
                                    678 	.globl _AX5043_AGCAHYST1
                                    679 	.globl _AX5043_AGCAHYST0
                                    680 	.globl _AX5043_0xF44
                                    681 	.globl _AX5043_0xF35
                                    682 	.globl _AX5043_0xF34
                                    683 	.globl _AX5043_0xF33
                                    684 	.globl _AX5043_0xF32
                                    685 	.globl _AX5043_0xF31
                                    686 	.globl _AX5043_0xF30
                                    687 	.globl _AX5043_0xF26
                                    688 	.globl _AX5043_0xF23
                                    689 	.globl _AX5043_0xF22
                                    690 	.globl _AX5043_0xF21
                                    691 	.globl _AX5043_0xF1C
                                    692 	.globl _AX5043_0xF18
                                    693 	.globl _AX5043_0xF0C
                                    694 	.globl _AX5043_0xF00
                                    695 	.globl _AX5043_XTALSTATUS
                                    696 	.globl _AX5043_XTALOSC
                                    697 	.globl _AX5043_XTALCAP
                                    698 	.globl _AX5043_XTALAMPL
                                    699 	.globl _AX5043_WAKEUPXOEARLY
                                    700 	.globl _AX5043_WAKEUPTIMER1
                                    701 	.globl _AX5043_WAKEUPTIMER0
                                    702 	.globl _AX5043_WAKEUPFREQ1
                                    703 	.globl _AX5043_WAKEUPFREQ0
                                    704 	.globl _AX5043_WAKEUP1
                                    705 	.globl _AX5043_WAKEUP0
                                    706 	.globl _AX5043_TXRATE2
                                    707 	.globl _AX5043_TXRATE1
                                    708 	.globl _AX5043_TXRATE0
                                    709 	.globl _AX5043_TXPWRCOEFFE1
                                    710 	.globl _AX5043_TXPWRCOEFFE0
                                    711 	.globl _AX5043_TXPWRCOEFFD1
                                    712 	.globl _AX5043_TXPWRCOEFFD0
                                    713 	.globl _AX5043_TXPWRCOEFFC1
                                    714 	.globl _AX5043_TXPWRCOEFFC0
                                    715 	.globl _AX5043_TXPWRCOEFFB1
                                    716 	.globl _AX5043_TXPWRCOEFFB0
                                    717 	.globl _AX5043_TXPWRCOEFFA1
                                    718 	.globl _AX5043_TXPWRCOEFFA0
                                    719 	.globl _AX5043_TRKRFFREQ2
                                    720 	.globl _AX5043_TRKRFFREQ1
                                    721 	.globl _AX5043_TRKRFFREQ0
                                    722 	.globl _AX5043_TRKPHASE1
                                    723 	.globl _AX5043_TRKPHASE0
                                    724 	.globl _AX5043_TRKFSKDEMOD1
                                    725 	.globl _AX5043_TRKFSKDEMOD0
                                    726 	.globl _AX5043_TRKFREQ1
                                    727 	.globl _AX5043_TRKFREQ0
                                    728 	.globl _AX5043_TRKDATARATE2
                                    729 	.globl _AX5043_TRKDATARATE1
                                    730 	.globl _AX5043_TRKDATARATE0
                                    731 	.globl _AX5043_TRKAMPLITUDE1
                                    732 	.globl _AX5043_TRKAMPLITUDE0
                                    733 	.globl _AX5043_TRKAFSKDEMOD1
                                    734 	.globl _AX5043_TRKAFSKDEMOD0
                                    735 	.globl _AX5043_TMGTXSETTLE
                                    736 	.globl _AX5043_TMGTXBOOST
                                    737 	.globl _AX5043_TMGRXSETTLE
                                    738 	.globl _AX5043_TMGRXRSSI
                                    739 	.globl _AX5043_TMGRXPREAMBLE3
                                    740 	.globl _AX5043_TMGRXPREAMBLE2
                                    741 	.globl _AX5043_TMGRXPREAMBLE1
                                    742 	.globl _AX5043_TMGRXOFFSACQ
                                    743 	.globl _AX5043_TMGRXCOARSEAGC
                                    744 	.globl _AX5043_TMGRXBOOST
                                    745 	.globl _AX5043_TMGRXAGC
                                    746 	.globl _AX5043_TIMER2
                                    747 	.globl _AX5043_TIMER1
                                    748 	.globl _AX5043_TIMER0
                                    749 	.globl _AX5043_SILICONREVISION
                                    750 	.globl _AX5043_SCRATCH
                                    751 	.globl _AX5043_RXDATARATE2
                                    752 	.globl _AX5043_RXDATARATE1
                                    753 	.globl _AX5043_RXDATARATE0
                                    754 	.globl _AX5043_RSSIREFERENCE
                                    755 	.globl _AX5043_RSSIABSTHR
                                    756 	.globl _AX5043_RSSI
                                    757 	.globl _AX5043_REF
                                    758 	.globl _AX5043_RADIOSTATE
                                    759 	.globl _AX5043_RADIOEVENTREQ1
                                    760 	.globl _AX5043_RADIOEVENTREQ0
                                    761 	.globl _AX5043_RADIOEVENTMASK1
                                    762 	.globl _AX5043_RADIOEVENTMASK0
                                    763 	.globl _AX5043_PWRMODE
                                    764 	.globl _AX5043_PWRAMP
                                    765 	.globl _AX5043_POWSTICKYSTAT
                                    766 	.globl _AX5043_POWSTAT
                                    767 	.globl _AX5043_POWIRQMASK
                                    768 	.globl _AX5043_POWCTRL1
                                    769 	.globl _AX5043_PLLVCOIR
                                    770 	.globl _AX5043_PLLVCOI
                                    771 	.globl _AX5043_PLLVCODIV
                                    772 	.globl _AX5043_PLLRNGCLK
                                    773 	.globl _AX5043_PLLRANGINGB
                                    774 	.globl _AX5043_PLLRANGINGA
                                    775 	.globl _AX5043_PLLLOOPBOOST
                                    776 	.globl _AX5043_PLLLOOP
                                    777 	.globl _AX5043_PLLLOCKDET
                                    778 	.globl _AX5043_PLLCPIBOOST
                                    779 	.globl _AX5043_PLLCPI
                                    780 	.globl _AX5043_PKTSTOREFLAGS
                                    781 	.globl _AX5043_PKTMISCFLAGS
                                    782 	.globl _AX5043_PKTCHUNKSIZE
                                    783 	.globl _AX5043_PKTACCEPTFLAGS
                                    784 	.globl _AX5043_PINSTATE
                                    785 	.globl _AX5043_PINFUNCSYSCLK
                                    786 	.globl _AX5043_PINFUNCPWRAMP
                                    787 	.globl _AX5043_PINFUNCIRQ
                                    788 	.globl _AX5043_PINFUNCDCLK
                                    789 	.globl _AX5043_PINFUNCDATA
                                    790 	.globl _AX5043_PINFUNCANTSEL
                                    791 	.globl _AX5043_MODULATION
                                    792 	.globl _AX5043_MODCFGP
                                    793 	.globl _AX5043_MODCFGF
                                    794 	.globl _AX5043_MODCFGA
                                    795 	.globl _AX5043_MAXRFOFFSET2
                                    796 	.globl _AX5043_MAXRFOFFSET1
                                    797 	.globl _AX5043_MAXRFOFFSET0
                                    798 	.globl _AX5043_MAXDROFFSET2
                                    799 	.globl _AX5043_MAXDROFFSET1
                                    800 	.globl _AX5043_MAXDROFFSET0
                                    801 	.globl _AX5043_MATCH1PAT1
                                    802 	.globl _AX5043_MATCH1PAT0
                                    803 	.globl _AX5043_MATCH1MIN
                                    804 	.globl _AX5043_MATCH1MAX
                                    805 	.globl _AX5043_MATCH1LEN
                                    806 	.globl _AX5043_MATCH0PAT3
                                    807 	.globl _AX5043_MATCH0PAT2
                                    808 	.globl _AX5043_MATCH0PAT1
                                    809 	.globl _AX5043_MATCH0PAT0
                                    810 	.globl _AX5043_MATCH0MIN
                                    811 	.globl _AX5043_MATCH0MAX
                                    812 	.globl _AX5043_MATCH0LEN
                                    813 	.globl _AX5043_LPOSCSTATUS
                                    814 	.globl _AX5043_LPOSCREF1
                                    815 	.globl _AX5043_LPOSCREF0
                                    816 	.globl _AX5043_LPOSCPER1
                                    817 	.globl _AX5043_LPOSCPER0
                                    818 	.globl _AX5043_LPOSCKFILT1
                                    819 	.globl _AX5043_LPOSCKFILT0
                                    820 	.globl _AX5043_LPOSCFREQ1
                                    821 	.globl _AX5043_LPOSCFREQ0
                                    822 	.globl _AX5043_LPOSCCONFIG
                                    823 	.globl _AX5043_IRQREQUEST1
                                    824 	.globl _AX5043_IRQREQUEST0
                                    825 	.globl _AX5043_IRQMASK1
                                    826 	.globl _AX5043_IRQMASK0
                                    827 	.globl _AX5043_IRQINVERSION1
                                    828 	.globl _AX5043_IRQINVERSION0
                                    829 	.globl _AX5043_IFFREQ1
                                    830 	.globl _AX5043_IFFREQ0
                                    831 	.globl _AX5043_GPADCPERIOD
                                    832 	.globl _AX5043_GPADCCTRL
                                    833 	.globl _AX5043_GPADC13VALUE1
                                    834 	.globl _AX5043_GPADC13VALUE0
                                    835 	.globl _AX5043_FSKDMIN1
                                    836 	.globl _AX5043_FSKDMIN0
                                    837 	.globl _AX5043_FSKDMAX1
                                    838 	.globl _AX5043_FSKDMAX0
                                    839 	.globl _AX5043_FSKDEV2
                                    840 	.globl _AX5043_FSKDEV1
                                    841 	.globl _AX5043_FSKDEV0
                                    842 	.globl _AX5043_FREQB3
                                    843 	.globl _AX5043_FREQB2
                                    844 	.globl _AX5043_FREQB1
                                    845 	.globl _AX5043_FREQB0
                                    846 	.globl _AX5043_FREQA3
                                    847 	.globl _AX5043_FREQA2
                                    848 	.globl _AX5043_FREQA1
                                    849 	.globl _AX5043_FREQA0
                                    850 	.globl _AX5043_FRAMING
                                    851 	.globl _AX5043_FIFOTHRESH1
                                    852 	.globl _AX5043_FIFOTHRESH0
                                    853 	.globl _AX5043_FIFOSTAT
                                    854 	.globl _AX5043_FIFOFREE1
                                    855 	.globl _AX5043_FIFOFREE0
                                    856 	.globl _AX5043_FIFODATA
                                    857 	.globl _AX5043_FIFOCOUNT1
                                    858 	.globl _AX5043_FIFOCOUNT0
                                    859 	.globl _AX5043_FECSYNC
                                    860 	.globl _AX5043_FECSTATUS
                                    861 	.globl _AX5043_FEC
                                    862 	.globl _AX5043_ENCODING
                                    863 	.globl _AX5043_DIVERSITY
                                    864 	.globl _AX5043_DECIMATION
                                    865 	.globl _AX5043_DACVALUE1
                                    866 	.globl _AX5043_DACVALUE0
                                    867 	.globl _AX5043_DACCONFIG
                                    868 	.globl _AX5043_CRCINIT3
                                    869 	.globl _AX5043_CRCINIT2
                                    870 	.globl _AX5043_CRCINIT1
                                    871 	.globl _AX5043_CRCINIT0
                                    872 	.globl _AX5043_BGNDRSSITHR
                                    873 	.globl _AX5043_BGNDRSSIGAIN
                                    874 	.globl _AX5043_BGNDRSSI
                                    875 	.globl _AX5043_BBTUNE
                                    876 	.globl _AX5043_BBOFFSCAP
                                    877 	.globl _AX5043_AMPLFILTER
                                    878 	.globl _AX5043_AGCCOUNTER
                                    879 	.globl _AX5043_AFSKSPACE1
                                    880 	.globl _AX5043_AFSKSPACE0
                                    881 	.globl _AX5043_AFSKMARK1
                                    882 	.globl _AX5043_AFSKMARK0
                                    883 	.globl _AX5043_AFSKCTRL
                                    884 	.globl _XTALREADY
                                    885 	.globl _XTALOSC
                                    886 	.globl _XTALAMPL
                                    887 	.globl _SILICONREV
                                    888 	.globl _SCRATCH3
                                    889 	.globl _SCRATCH2
                                    890 	.globl _SCRATCH1
                                    891 	.globl _SCRATCH0
                                    892 	.globl _RADIOMUX
                                    893 	.globl _RADIOFSTATADDR
                                    894 	.globl _RADIOFSTATADDR1
                                    895 	.globl _RADIOFSTATADDR0
                                    896 	.globl _RADIOFDATAADDR
                                    897 	.globl _RADIOFDATAADDR1
                                    898 	.globl _RADIOFDATAADDR0
                                    899 	.globl _OSCRUN
                                    900 	.globl _OSCREADY
                                    901 	.globl _OSCFORCERUN
                                    902 	.globl _OSCCALIB
                                    903 	.globl _MISCCTRL
                                    904 	.globl _LPXOSCGM
                                    905 	.globl _LPOSCREF
                                    906 	.globl _LPOSCREF1
                                    907 	.globl _LPOSCREF0
                                    908 	.globl _LPOSCPER
                                    909 	.globl _LPOSCPER1
                                    910 	.globl _LPOSCPER0
                                    911 	.globl _LPOSCKFILT
                                    912 	.globl _LPOSCKFILT1
                                    913 	.globl _LPOSCKFILT0
                                    914 	.globl _LPOSCFREQ
                                    915 	.globl _LPOSCFREQ1
                                    916 	.globl _LPOSCFREQ0
                                    917 	.globl _LPOSCCONFIG
                                    918 	.globl _PINSEL
                                    919 	.globl _PINCHGC
                                    920 	.globl _PINCHGB
                                    921 	.globl _PINCHGA
                                    922 	.globl _PALTRADIO
                                    923 	.globl _PALTC
                                    924 	.globl _PALTB
                                    925 	.globl _PALTA
                                    926 	.globl _INTCHGC
                                    927 	.globl _INTCHGB
                                    928 	.globl _INTCHGA
                                    929 	.globl _EXTIRQ
                                    930 	.globl _GPIOENABLE
                                    931 	.globl _ANALOGA
                                    932 	.globl _FRCOSCREF
                                    933 	.globl _FRCOSCREF1
                                    934 	.globl _FRCOSCREF0
                                    935 	.globl _FRCOSCPER
                                    936 	.globl _FRCOSCPER1
                                    937 	.globl _FRCOSCPER0
                                    938 	.globl _FRCOSCKFILT
                                    939 	.globl _FRCOSCKFILT1
                                    940 	.globl _FRCOSCKFILT0
                                    941 	.globl _FRCOSCFREQ
                                    942 	.globl _FRCOSCFREQ1
                                    943 	.globl _FRCOSCFREQ0
                                    944 	.globl _FRCOSCCTRL
                                    945 	.globl _FRCOSCCONFIG
                                    946 	.globl _DMA1CONFIG
                                    947 	.globl _DMA1ADDR
                                    948 	.globl _DMA1ADDR1
                                    949 	.globl _DMA1ADDR0
                                    950 	.globl _DMA0CONFIG
                                    951 	.globl _DMA0ADDR
                                    952 	.globl _DMA0ADDR1
                                    953 	.globl _DMA0ADDR0
                                    954 	.globl _ADCTUNE2
                                    955 	.globl _ADCTUNE1
                                    956 	.globl _ADCTUNE0
                                    957 	.globl _ADCCH3VAL
                                    958 	.globl _ADCCH3VAL1
                                    959 	.globl _ADCCH3VAL0
                                    960 	.globl _ADCCH2VAL
                                    961 	.globl _ADCCH2VAL1
                                    962 	.globl _ADCCH2VAL0
                                    963 	.globl _ADCCH1VAL
                                    964 	.globl _ADCCH1VAL1
                                    965 	.globl _ADCCH1VAL0
                                    966 	.globl _ADCCH0VAL
                                    967 	.globl _ADCCH0VAL1
                                    968 	.globl _ADCCH0VAL0
                                    969 	.globl _swap_variables
                                    970 	.globl _randomset_generate
                                    971 	.globl _packetStdFraming
                                    972 ;--------------------------------------------------------
                                    973 ; special function registers
                                    974 ;--------------------------------------------------------
                                    975 	.area RSEG    (ABS,DATA)
      000000                        976 	.org 0x0000
                           0000E0   977 G$ACC$0$0 == 0x00e0
                           0000E0   978 _ACC	=	0x00e0
                           0000F0   979 G$B$0$0 == 0x00f0
                           0000F0   980 _B	=	0x00f0
                           000083   981 G$DPH$0$0 == 0x0083
                           000083   982 _DPH	=	0x0083
                           000085   983 G$DPH1$0$0 == 0x0085
                           000085   984 _DPH1	=	0x0085
                           000082   985 G$DPL$0$0 == 0x0082
                           000082   986 _DPL	=	0x0082
                           000084   987 G$DPL1$0$0 == 0x0084
                           000084   988 _DPL1	=	0x0084
                           008382   989 G$DPTR0$0$0 == 0x8382
                           008382   990 _DPTR0	=	0x8382
                           008584   991 G$DPTR1$0$0 == 0x8584
                           008584   992 _DPTR1	=	0x8584
                           000086   993 G$DPS$0$0 == 0x0086
                           000086   994 _DPS	=	0x0086
                           0000A0   995 G$E2IE$0$0 == 0x00a0
                           0000A0   996 _E2IE	=	0x00a0
                           0000C0   997 G$E2IP$0$0 == 0x00c0
                           0000C0   998 _E2IP	=	0x00c0
                           000098   999 G$EIE$0$0 == 0x0098
                           000098  1000 _EIE	=	0x0098
                           0000B0  1001 G$EIP$0$0 == 0x00b0
                           0000B0  1002 _EIP	=	0x00b0
                           0000A8  1003 G$IE$0$0 == 0x00a8
                           0000A8  1004 _IE	=	0x00a8
                           0000B8  1005 G$IP$0$0 == 0x00b8
                           0000B8  1006 _IP	=	0x00b8
                           000087  1007 G$PCON$0$0 == 0x0087
                           000087  1008 _PCON	=	0x0087
                           0000D0  1009 G$PSW$0$0 == 0x00d0
                           0000D0  1010 _PSW	=	0x00d0
                           000081  1011 G$SP$0$0 == 0x0081
                           000081  1012 _SP	=	0x0081
                           0000D9  1013 G$XPAGE$0$0 == 0x00d9
                           0000D9  1014 _XPAGE	=	0x00d9
                           0000D9  1015 G$_XPAGE$0$0 == 0x00d9
                           0000D9  1016 __XPAGE	=	0x00d9
                           0000CA  1017 G$ADCCH0CONFIG$0$0 == 0x00ca
                           0000CA  1018 _ADCCH0CONFIG	=	0x00ca
                           0000CB  1019 G$ADCCH1CONFIG$0$0 == 0x00cb
                           0000CB  1020 _ADCCH1CONFIG	=	0x00cb
                           0000D2  1021 G$ADCCH2CONFIG$0$0 == 0x00d2
                           0000D2  1022 _ADCCH2CONFIG	=	0x00d2
                           0000D3  1023 G$ADCCH3CONFIG$0$0 == 0x00d3
                           0000D3  1024 _ADCCH3CONFIG	=	0x00d3
                           0000D1  1025 G$ADCCLKSRC$0$0 == 0x00d1
                           0000D1  1026 _ADCCLKSRC	=	0x00d1
                           0000C9  1027 G$ADCCONV$0$0 == 0x00c9
                           0000C9  1028 _ADCCONV	=	0x00c9
                           0000E1  1029 G$ANALOGCOMP$0$0 == 0x00e1
                           0000E1  1030 _ANALOGCOMP	=	0x00e1
                           0000C6  1031 G$CLKCON$0$0 == 0x00c6
                           0000C6  1032 _CLKCON	=	0x00c6
                           0000C7  1033 G$CLKSTAT$0$0 == 0x00c7
                           0000C7  1034 _CLKSTAT	=	0x00c7
                           000097  1035 G$CODECONFIG$0$0 == 0x0097
                           000097  1036 _CODECONFIG	=	0x0097
                           0000E3  1037 G$DBGLNKBUF$0$0 == 0x00e3
                           0000E3  1038 _DBGLNKBUF	=	0x00e3
                           0000E2  1039 G$DBGLNKSTAT$0$0 == 0x00e2
                           0000E2  1040 _DBGLNKSTAT	=	0x00e2
                           000089  1041 G$DIRA$0$0 == 0x0089
                           000089  1042 _DIRA	=	0x0089
                           00008A  1043 G$DIRB$0$0 == 0x008a
                           00008A  1044 _DIRB	=	0x008a
                           00008B  1045 G$DIRC$0$0 == 0x008b
                           00008B  1046 _DIRC	=	0x008b
                           00008E  1047 G$DIRR$0$0 == 0x008e
                           00008E  1048 _DIRR	=	0x008e
                           0000C8  1049 G$PINA$0$0 == 0x00c8
                           0000C8  1050 _PINA	=	0x00c8
                           0000E8  1051 G$PINB$0$0 == 0x00e8
                           0000E8  1052 _PINB	=	0x00e8
                           0000F8  1053 G$PINC$0$0 == 0x00f8
                           0000F8  1054 _PINC	=	0x00f8
                           00008D  1055 G$PINR$0$0 == 0x008d
                           00008D  1056 _PINR	=	0x008d
                           000080  1057 G$PORTA$0$0 == 0x0080
                           000080  1058 _PORTA	=	0x0080
                           000088  1059 G$PORTB$0$0 == 0x0088
                           000088  1060 _PORTB	=	0x0088
                           000090  1061 G$PORTC$0$0 == 0x0090
                           000090  1062 _PORTC	=	0x0090
                           00008C  1063 G$PORTR$0$0 == 0x008c
                           00008C  1064 _PORTR	=	0x008c
                           0000CE  1065 G$IC0CAPT0$0$0 == 0x00ce
                           0000CE  1066 _IC0CAPT0	=	0x00ce
                           0000CF  1067 G$IC0CAPT1$0$0 == 0x00cf
                           0000CF  1068 _IC0CAPT1	=	0x00cf
                           00CFCE  1069 G$IC0CAPT$0$0 == 0xcfce
                           00CFCE  1070 _IC0CAPT	=	0xcfce
                           0000CC  1071 G$IC0MODE$0$0 == 0x00cc
                           0000CC  1072 _IC0MODE	=	0x00cc
                           0000CD  1073 G$IC0STATUS$0$0 == 0x00cd
                           0000CD  1074 _IC0STATUS	=	0x00cd
                           0000D6  1075 G$IC1CAPT0$0$0 == 0x00d6
                           0000D6  1076 _IC1CAPT0	=	0x00d6
                           0000D7  1077 G$IC1CAPT1$0$0 == 0x00d7
                           0000D7  1078 _IC1CAPT1	=	0x00d7
                           00D7D6  1079 G$IC1CAPT$0$0 == 0xd7d6
                           00D7D6  1080 _IC1CAPT	=	0xd7d6
                           0000D4  1081 G$IC1MODE$0$0 == 0x00d4
                           0000D4  1082 _IC1MODE	=	0x00d4
                           0000D5  1083 G$IC1STATUS$0$0 == 0x00d5
                           0000D5  1084 _IC1STATUS	=	0x00d5
                           000092  1085 G$NVADDR0$0$0 == 0x0092
                           000092  1086 _NVADDR0	=	0x0092
                           000093  1087 G$NVADDR1$0$0 == 0x0093
                           000093  1088 _NVADDR1	=	0x0093
                           009392  1089 G$NVADDR$0$0 == 0x9392
                           009392  1090 _NVADDR	=	0x9392
                           000094  1091 G$NVDATA0$0$0 == 0x0094
                           000094  1092 _NVDATA0	=	0x0094
                           000095  1093 G$NVDATA1$0$0 == 0x0095
                           000095  1094 _NVDATA1	=	0x0095
                           009594  1095 G$NVDATA$0$0 == 0x9594
                           009594  1096 _NVDATA	=	0x9594
                           000096  1097 G$NVKEY$0$0 == 0x0096
                           000096  1098 _NVKEY	=	0x0096
                           000091  1099 G$NVSTATUS$0$0 == 0x0091
                           000091  1100 _NVSTATUS	=	0x0091
                           0000BC  1101 G$OC0COMP0$0$0 == 0x00bc
                           0000BC  1102 _OC0COMP0	=	0x00bc
                           0000BD  1103 G$OC0COMP1$0$0 == 0x00bd
                           0000BD  1104 _OC0COMP1	=	0x00bd
                           00BDBC  1105 G$OC0COMP$0$0 == 0xbdbc
                           00BDBC  1106 _OC0COMP	=	0xbdbc
                           0000B9  1107 G$OC0MODE$0$0 == 0x00b9
                           0000B9  1108 _OC0MODE	=	0x00b9
                           0000BA  1109 G$OC0PIN$0$0 == 0x00ba
                           0000BA  1110 _OC0PIN	=	0x00ba
                           0000BB  1111 G$OC0STATUS$0$0 == 0x00bb
                           0000BB  1112 _OC0STATUS	=	0x00bb
                           0000C4  1113 G$OC1COMP0$0$0 == 0x00c4
                           0000C4  1114 _OC1COMP0	=	0x00c4
                           0000C5  1115 G$OC1COMP1$0$0 == 0x00c5
                           0000C5  1116 _OC1COMP1	=	0x00c5
                           00C5C4  1117 G$OC1COMP$0$0 == 0xc5c4
                           00C5C4  1118 _OC1COMP	=	0xc5c4
                           0000C1  1119 G$OC1MODE$0$0 == 0x00c1
                           0000C1  1120 _OC1MODE	=	0x00c1
                           0000C2  1121 G$OC1PIN$0$0 == 0x00c2
                           0000C2  1122 _OC1PIN	=	0x00c2
                           0000C3  1123 G$OC1STATUS$0$0 == 0x00c3
                           0000C3  1124 _OC1STATUS	=	0x00c3
                           0000B1  1125 G$RADIOACC$0$0 == 0x00b1
                           0000B1  1126 _RADIOACC	=	0x00b1
                           0000B3  1127 G$RADIOADDR0$0$0 == 0x00b3
                           0000B3  1128 _RADIOADDR0	=	0x00b3
                           0000B2  1129 G$RADIOADDR1$0$0 == 0x00b2
                           0000B2  1130 _RADIOADDR1	=	0x00b2
                           00B2B3  1131 G$RADIOADDR$0$0 == 0xb2b3
                           00B2B3  1132 _RADIOADDR	=	0xb2b3
                           0000B7  1133 G$RADIODATA0$0$0 == 0x00b7
                           0000B7  1134 _RADIODATA0	=	0x00b7
                           0000B6  1135 G$RADIODATA1$0$0 == 0x00b6
                           0000B6  1136 _RADIODATA1	=	0x00b6
                           0000B5  1137 G$RADIODATA2$0$0 == 0x00b5
                           0000B5  1138 _RADIODATA2	=	0x00b5
                           0000B4  1139 G$RADIODATA3$0$0 == 0x00b4
                           0000B4  1140 _RADIODATA3	=	0x00b4
                           B4B5B6B7  1141 G$RADIODATA$0$0 == 0xb4b5b6b7
                           B4B5B6B7  1142 _RADIODATA	=	0xb4b5b6b7
                           0000BE  1143 G$RADIOSTAT0$0$0 == 0x00be
                           0000BE  1144 _RADIOSTAT0	=	0x00be
                           0000BF  1145 G$RADIOSTAT1$0$0 == 0x00bf
                           0000BF  1146 _RADIOSTAT1	=	0x00bf
                           00BFBE  1147 G$RADIOSTAT$0$0 == 0xbfbe
                           00BFBE  1148 _RADIOSTAT	=	0xbfbe
                           0000DF  1149 G$SPCLKSRC$0$0 == 0x00df
                           0000DF  1150 _SPCLKSRC	=	0x00df
                           0000DC  1151 G$SPMODE$0$0 == 0x00dc
                           0000DC  1152 _SPMODE	=	0x00dc
                           0000DE  1153 G$SPSHREG$0$0 == 0x00de
                           0000DE  1154 _SPSHREG	=	0x00de
                           0000DD  1155 G$SPSTATUS$0$0 == 0x00dd
                           0000DD  1156 _SPSTATUS	=	0x00dd
                           00009A  1157 G$T0CLKSRC$0$0 == 0x009a
                           00009A  1158 _T0CLKSRC	=	0x009a
                           00009C  1159 G$T0CNT0$0$0 == 0x009c
                           00009C  1160 _T0CNT0	=	0x009c
                           00009D  1161 G$T0CNT1$0$0 == 0x009d
                           00009D  1162 _T0CNT1	=	0x009d
                           009D9C  1163 G$T0CNT$0$0 == 0x9d9c
                           009D9C  1164 _T0CNT	=	0x9d9c
                           000099  1165 G$T0MODE$0$0 == 0x0099
                           000099  1166 _T0MODE	=	0x0099
                           00009E  1167 G$T0PERIOD0$0$0 == 0x009e
                           00009E  1168 _T0PERIOD0	=	0x009e
                           00009F  1169 G$T0PERIOD1$0$0 == 0x009f
                           00009F  1170 _T0PERIOD1	=	0x009f
                           009F9E  1171 G$T0PERIOD$0$0 == 0x9f9e
                           009F9E  1172 _T0PERIOD	=	0x9f9e
                           00009B  1173 G$T0STATUS$0$0 == 0x009b
                           00009B  1174 _T0STATUS	=	0x009b
                           0000A2  1175 G$T1CLKSRC$0$0 == 0x00a2
                           0000A2  1176 _T1CLKSRC	=	0x00a2
                           0000A4  1177 G$T1CNT0$0$0 == 0x00a4
                           0000A4  1178 _T1CNT0	=	0x00a4
                           0000A5  1179 G$T1CNT1$0$0 == 0x00a5
                           0000A5  1180 _T1CNT1	=	0x00a5
                           00A5A4  1181 G$T1CNT$0$0 == 0xa5a4
                           00A5A4  1182 _T1CNT	=	0xa5a4
                           0000A1  1183 G$T1MODE$0$0 == 0x00a1
                           0000A1  1184 _T1MODE	=	0x00a1
                           0000A6  1185 G$T1PERIOD0$0$0 == 0x00a6
                           0000A6  1186 _T1PERIOD0	=	0x00a6
                           0000A7  1187 G$T1PERIOD1$0$0 == 0x00a7
                           0000A7  1188 _T1PERIOD1	=	0x00a7
                           00A7A6  1189 G$T1PERIOD$0$0 == 0xa7a6
                           00A7A6  1190 _T1PERIOD	=	0xa7a6
                           0000A3  1191 G$T1STATUS$0$0 == 0x00a3
                           0000A3  1192 _T1STATUS	=	0x00a3
                           0000AA  1193 G$T2CLKSRC$0$0 == 0x00aa
                           0000AA  1194 _T2CLKSRC	=	0x00aa
                           0000AC  1195 G$T2CNT0$0$0 == 0x00ac
                           0000AC  1196 _T2CNT0	=	0x00ac
                           0000AD  1197 G$T2CNT1$0$0 == 0x00ad
                           0000AD  1198 _T2CNT1	=	0x00ad
                           00ADAC  1199 G$T2CNT$0$0 == 0xadac
                           00ADAC  1200 _T2CNT	=	0xadac
                           0000A9  1201 G$T2MODE$0$0 == 0x00a9
                           0000A9  1202 _T2MODE	=	0x00a9
                           0000AE  1203 G$T2PERIOD0$0$0 == 0x00ae
                           0000AE  1204 _T2PERIOD0	=	0x00ae
                           0000AF  1205 G$T2PERIOD1$0$0 == 0x00af
                           0000AF  1206 _T2PERIOD1	=	0x00af
                           00AFAE  1207 G$T2PERIOD$0$0 == 0xafae
                           00AFAE  1208 _T2PERIOD	=	0xafae
                           0000AB  1209 G$T2STATUS$0$0 == 0x00ab
                           0000AB  1210 _T2STATUS	=	0x00ab
                           0000E4  1211 G$U0CTRL$0$0 == 0x00e4
                           0000E4  1212 _U0CTRL	=	0x00e4
                           0000E7  1213 G$U0MODE$0$0 == 0x00e7
                           0000E7  1214 _U0MODE	=	0x00e7
                           0000E6  1215 G$U0SHREG$0$0 == 0x00e6
                           0000E6  1216 _U0SHREG	=	0x00e6
                           0000E5  1217 G$U0STATUS$0$0 == 0x00e5
                           0000E5  1218 _U0STATUS	=	0x00e5
                           0000EC  1219 G$U1CTRL$0$0 == 0x00ec
                           0000EC  1220 _U1CTRL	=	0x00ec
                           0000EF  1221 G$U1MODE$0$0 == 0x00ef
                           0000EF  1222 _U1MODE	=	0x00ef
                           0000EE  1223 G$U1SHREG$0$0 == 0x00ee
                           0000EE  1224 _U1SHREG	=	0x00ee
                           0000ED  1225 G$U1STATUS$0$0 == 0x00ed
                           0000ED  1226 _U1STATUS	=	0x00ed
                           0000DA  1227 G$WDTCFG$0$0 == 0x00da
                           0000DA  1228 _WDTCFG	=	0x00da
                           0000DB  1229 G$WDTRESET$0$0 == 0x00db
                           0000DB  1230 _WDTRESET	=	0x00db
                           0000F1  1231 G$WTCFGA$0$0 == 0x00f1
                           0000F1  1232 _WTCFGA	=	0x00f1
                           0000F9  1233 G$WTCFGB$0$0 == 0x00f9
                           0000F9  1234 _WTCFGB	=	0x00f9
                           0000F2  1235 G$WTCNTA0$0$0 == 0x00f2
                           0000F2  1236 _WTCNTA0	=	0x00f2
                           0000F3  1237 G$WTCNTA1$0$0 == 0x00f3
                           0000F3  1238 _WTCNTA1	=	0x00f3
                           00F3F2  1239 G$WTCNTA$0$0 == 0xf3f2
                           00F3F2  1240 _WTCNTA	=	0xf3f2
                           0000FA  1241 G$WTCNTB0$0$0 == 0x00fa
                           0000FA  1242 _WTCNTB0	=	0x00fa
                           0000FB  1243 G$WTCNTB1$0$0 == 0x00fb
                           0000FB  1244 _WTCNTB1	=	0x00fb
                           00FBFA  1245 G$WTCNTB$0$0 == 0xfbfa
                           00FBFA  1246 _WTCNTB	=	0xfbfa
                           0000EB  1247 G$WTCNTR1$0$0 == 0x00eb
                           0000EB  1248 _WTCNTR1	=	0x00eb
                           0000F4  1249 G$WTEVTA0$0$0 == 0x00f4
                           0000F4  1250 _WTEVTA0	=	0x00f4
                           0000F5  1251 G$WTEVTA1$0$0 == 0x00f5
                           0000F5  1252 _WTEVTA1	=	0x00f5
                           00F5F4  1253 G$WTEVTA$0$0 == 0xf5f4
                           00F5F4  1254 _WTEVTA	=	0xf5f4
                           0000F6  1255 G$WTEVTB0$0$0 == 0x00f6
                           0000F6  1256 _WTEVTB0	=	0x00f6
                           0000F7  1257 G$WTEVTB1$0$0 == 0x00f7
                           0000F7  1258 _WTEVTB1	=	0x00f7
                           00F7F6  1259 G$WTEVTB$0$0 == 0xf7f6
                           00F7F6  1260 _WTEVTB	=	0xf7f6
                           0000FC  1261 G$WTEVTC0$0$0 == 0x00fc
                           0000FC  1262 _WTEVTC0	=	0x00fc
                           0000FD  1263 G$WTEVTC1$0$0 == 0x00fd
                           0000FD  1264 _WTEVTC1	=	0x00fd
                           00FDFC  1265 G$WTEVTC$0$0 == 0xfdfc
                           00FDFC  1266 _WTEVTC	=	0xfdfc
                           0000FE  1267 G$WTEVTD0$0$0 == 0x00fe
                           0000FE  1268 _WTEVTD0	=	0x00fe
                           0000FF  1269 G$WTEVTD1$0$0 == 0x00ff
                           0000FF  1270 _WTEVTD1	=	0x00ff
                           00FFFE  1271 G$WTEVTD$0$0 == 0xfffe
                           00FFFE  1272 _WTEVTD	=	0xfffe
                           0000E9  1273 G$WTIRQEN$0$0 == 0x00e9
                           0000E9  1274 _WTIRQEN	=	0x00e9
                           0000EA  1275 G$WTSTAT$0$0 == 0x00ea
                           0000EA  1276 _WTSTAT	=	0x00ea
                                   1277 ;--------------------------------------------------------
                                   1278 ; special function bits
                                   1279 ;--------------------------------------------------------
                                   1280 	.area RSEG    (ABS,DATA)
      000000                       1281 	.org 0x0000
                           0000E0  1282 G$ACC_0$0$0 == 0x00e0
                           0000E0  1283 _ACC_0	=	0x00e0
                           0000E1  1284 G$ACC_1$0$0 == 0x00e1
                           0000E1  1285 _ACC_1	=	0x00e1
                           0000E2  1286 G$ACC_2$0$0 == 0x00e2
                           0000E2  1287 _ACC_2	=	0x00e2
                           0000E3  1288 G$ACC_3$0$0 == 0x00e3
                           0000E3  1289 _ACC_3	=	0x00e3
                           0000E4  1290 G$ACC_4$0$0 == 0x00e4
                           0000E4  1291 _ACC_4	=	0x00e4
                           0000E5  1292 G$ACC_5$0$0 == 0x00e5
                           0000E5  1293 _ACC_5	=	0x00e5
                           0000E6  1294 G$ACC_6$0$0 == 0x00e6
                           0000E6  1295 _ACC_6	=	0x00e6
                           0000E7  1296 G$ACC_7$0$0 == 0x00e7
                           0000E7  1297 _ACC_7	=	0x00e7
                           0000F0  1298 G$B_0$0$0 == 0x00f0
                           0000F0  1299 _B_0	=	0x00f0
                           0000F1  1300 G$B_1$0$0 == 0x00f1
                           0000F1  1301 _B_1	=	0x00f1
                           0000F2  1302 G$B_2$0$0 == 0x00f2
                           0000F2  1303 _B_2	=	0x00f2
                           0000F3  1304 G$B_3$0$0 == 0x00f3
                           0000F3  1305 _B_3	=	0x00f3
                           0000F4  1306 G$B_4$0$0 == 0x00f4
                           0000F4  1307 _B_4	=	0x00f4
                           0000F5  1308 G$B_5$0$0 == 0x00f5
                           0000F5  1309 _B_5	=	0x00f5
                           0000F6  1310 G$B_6$0$0 == 0x00f6
                           0000F6  1311 _B_6	=	0x00f6
                           0000F7  1312 G$B_7$0$0 == 0x00f7
                           0000F7  1313 _B_7	=	0x00f7
                           0000A0  1314 G$E2IE_0$0$0 == 0x00a0
                           0000A0  1315 _E2IE_0	=	0x00a0
                           0000A1  1316 G$E2IE_1$0$0 == 0x00a1
                           0000A1  1317 _E2IE_1	=	0x00a1
                           0000A2  1318 G$E2IE_2$0$0 == 0x00a2
                           0000A2  1319 _E2IE_2	=	0x00a2
                           0000A3  1320 G$E2IE_3$0$0 == 0x00a3
                           0000A3  1321 _E2IE_3	=	0x00a3
                           0000A4  1322 G$E2IE_4$0$0 == 0x00a4
                           0000A4  1323 _E2IE_4	=	0x00a4
                           0000A5  1324 G$E2IE_5$0$0 == 0x00a5
                           0000A5  1325 _E2IE_5	=	0x00a5
                           0000A6  1326 G$E2IE_6$0$0 == 0x00a6
                           0000A6  1327 _E2IE_6	=	0x00a6
                           0000A7  1328 G$E2IE_7$0$0 == 0x00a7
                           0000A7  1329 _E2IE_7	=	0x00a7
                           0000C0  1330 G$E2IP_0$0$0 == 0x00c0
                           0000C0  1331 _E2IP_0	=	0x00c0
                           0000C1  1332 G$E2IP_1$0$0 == 0x00c1
                           0000C1  1333 _E2IP_1	=	0x00c1
                           0000C2  1334 G$E2IP_2$0$0 == 0x00c2
                           0000C2  1335 _E2IP_2	=	0x00c2
                           0000C3  1336 G$E2IP_3$0$0 == 0x00c3
                           0000C3  1337 _E2IP_3	=	0x00c3
                           0000C4  1338 G$E2IP_4$0$0 == 0x00c4
                           0000C4  1339 _E2IP_4	=	0x00c4
                           0000C5  1340 G$E2IP_5$0$0 == 0x00c5
                           0000C5  1341 _E2IP_5	=	0x00c5
                           0000C6  1342 G$E2IP_6$0$0 == 0x00c6
                           0000C6  1343 _E2IP_6	=	0x00c6
                           0000C7  1344 G$E2IP_7$0$0 == 0x00c7
                           0000C7  1345 _E2IP_7	=	0x00c7
                           000098  1346 G$EIE_0$0$0 == 0x0098
                           000098  1347 _EIE_0	=	0x0098
                           000099  1348 G$EIE_1$0$0 == 0x0099
                           000099  1349 _EIE_1	=	0x0099
                           00009A  1350 G$EIE_2$0$0 == 0x009a
                           00009A  1351 _EIE_2	=	0x009a
                           00009B  1352 G$EIE_3$0$0 == 0x009b
                           00009B  1353 _EIE_3	=	0x009b
                           00009C  1354 G$EIE_4$0$0 == 0x009c
                           00009C  1355 _EIE_4	=	0x009c
                           00009D  1356 G$EIE_5$0$0 == 0x009d
                           00009D  1357 _EIE_5	=	0x009d
                           00009E  1358 G$EIE_6$0$0 == 0x009e
                           00009E  1359 _EIE_6	=	0x009e
                           00009F  1360 G$EIE_7$0$0 == 0x009f
                           00009F  1361 _EIE_7	=	0x009f
                           0000B0  1362 G$EIP_0$0$0 == 0x00b0
                           0000B0  1363 _EIP_0	=	0x00b0
                           0000B1  1364 G$EIP_1$0$0 == 0x00b1
                           0000B1  1365 _EIP_1	=	0x00b1
                           0000B2  1366 G$EIP_2$0$0 == 0x00b2
                           0000B2  1367 _EIP_2	=	0x00b2
                           0000B3  1368 G$EIP_3$0$0 == 0x00b3
                           0000B3  1369 _EIP_3	=	0x00b3
                           0000B4  1370 G$EIP_4$0$0 == 0x00b4
                           0000B4  1371 _EIP_4	=	0x00b4
                           0000B5  1372 G$EIP_5$0$0 == 0x00b5
                           0000B5  1373 _EIP_5	=	0x00b5
                           0000B6  1374 G$EIP_6$0$0 == 0x00b6
                           0000B6  1375 _EIP_6	=	0x00b6
                           0000B7  1376 G$EIP_7$0$0 == 0x00b7
                           0000B7  1377 _EIP_7	=	0x00b7
                           0000A8  1378 G$IE_0$0$0 == 0x00a8
                           0000A8  1379 _IE_0	=	0x00a8
                           0000A9  1380 G$IE_1$0$0 == 0x00a9
                           0000A9  1381 _IE_1	=	0x00a9
                           0000AA  1382 G$IE_2$0$0 == 0x00aa
                           0000AA  1383 _IE_2	=	0x00aa
                           0000AB  1384 G$IE_3$0$0 == 0x00ab
                           0000AB  1385 _IE_3	=	0x00ab
                           0000AC  1386 G$IE_4$0$0 == 0x00ac
                           0000AC  1387 _IE_4	=	0x00ac
                           0000AD  1388 G$IE_5$0$0 == 0x00ad
                           0000AD  1389 _IE_5	=	0x00ad
                           0000AE  1390 G$IE_6$0$0 == 0x00ae
                           0000AE  1391 _IE_6	=	0x00ae
                           0000AF  1392 G$IE_7$0$0 == 0x00af
                           0000AF  1393 _IE_7	=	0x00af
                           0000AF  1394 G$EA$0$0 == 0x00af
                           0000AF  1395 _EA	=	0x00af
                           0000B8  1396 G$IP_0$0$0 == 0x00b8
                           0000B8  1397 _IP_0	=	0x00b8
                           0000B9  1398 G$IP_1$0$0 == 0x00b9
                           0000B9  1399 _IP_1	=	0x00b9
                           0000BA  1400 G$IP_2$0$0 == 0x00ba
                           0000BA  1401 _IP_2	=	0x00ba
                           0000BB  1402 G$IP_3$0$0 == 0x00bb
                           0000BB  1403 _IP_3	=	0x00bb
                           0000BC  1404 G$IP_4$0$0 == 0x00bc
                           0000BC  1405 _IP_4	=	0x00bc
                           0000BD  1406 G$IP_5$0$0 == 0x00bd
                           0000BD  1407 _IP_5	=	0x00bd
                           0000BE  1408 G$IP_6$0$0 == 0x00be
                           0000BE  1409 _IP_6	=	0x00be
                           0000BF  1410 G$IP_7$0$0 == 0x00bf
                           0000BF  1411 _IP_7	=	0x00bf
                           0000D0  1412 G$P$0$0 == 0x00d0
                           0000D0  1413 _P	=	0x00d0
                           0000D1  1414 G$F1$0$0 == 0x00d1
                           0000D1  1415 _F1	=	0x00d1
                           0000D2  1416 G$OV$0$0 == 0x00d2
                           0000D2  1417 _OV	=	0x00d2
                           0000D3  1418 G$RS0$0$0 == 0x00d3
                           0000D3  1419 _RS0	=	0x00d3
                           0000D4  1420 G$RS1$0$0 == 0x00d4
                           0000D4  1421 _RS1	=	0x00d4
                           0000D5  1422 G$F0$0$0 == 0x00d5
                           0000D5  1423 _F0	=	0x00d5
                           0000D6  1424 G$AC$0$0 == 0x00d6
                           0000D6  1425 _AC	=	0x00d6
                           0000D7  1426 G$CY$0$0 == 0x00d7
                           0000D7  1427 _CY	=	0x00d7
                           0000C8  1428 G$PINA_0$0$0 == 0x00c8
                           0000C8  1429 _PINA_0	=	0x00c8
                           0000C9  1430 G$PINA_1$0$0 == 0x00c9
                           0000C9  1431 _PINA_1	=	0x00c9
                           0000CA  1432 G$PINA_2$0$0 == 0x00ca
                           0000CA  1433 _PINA_2	=	0x00ca
                           0000CB  1434 G$PINA_3$0$0 == 0x00cb
                           0000CB  1435 _PINA_3	=	0x00cb
                           0000CC  1436 G$PINA_4$0$0 == 0x00cc
                           0000CC  1437 _PINA_4	=	0x00cc
                           0000CD  1438 G$PINA_5$0$0 == 0x00cd
                           0000CD  1439 _PINA_5	=	0x00cd
                           0000CE  1440 G$PINA_6$0$0 == 0x00ce
                           0000CE  1441 _PINA_6	=	0x00ce
                           0000CF  1442 G$PINA_7$0$0 == 0x00cf
                           0000CF  1443 _PINA_7	=	0x00cf
                           0000E8  1444 G$PINB_0$0$0 == 0x00e8
                           0000E8  1445 _PINB_0	=	0x00e8
                           0000E9  1446 G$PINB_1$0$0 == 0x00e9
                           0000E9  1447 _PINB_1	=	0x00e9
                           0000EA  1448 G$PINB_2$0$0 == 0x00ea
                           0000EA  1449 _PINB_2	=	0x00ea
                           0000EB  1450 G$PINB_3$0$0 == 0x00eb
                           0000EB  1451 _PINB_3	=	0x00eb
                           0000EC  1452 G$PINB_4$0$0 == 0x00ec
                           0000EC  1453 _PINB_4	=	0x00ec
                           0000ED  1454 G$PINB_5$0$0 == 0x00ed
                           0000ED  1455 _PINB_5	=	0x00ed
                           0000EE  1456 G$PINB_6$0$0 == 0x00ee
                           0000EE  1457 _PINB_6	=	0x00ee
                           0000EF  1458 G$PINB_7$0$0 == 0x00ef
                           0000EF  1459 _PINB_7	=	0x00ef
                           0000F8  1460 G$PINC_0$0$0 == 0x00f8
                           0000F8  1461 _PINC_0	=	0x00f8
                           0000F9  1462 G$PINC_1$0$0 == 0x00f9
                           0000F9  1463 _PINC_1	=	0x00f9
                           0000FA  1464 G$PINC_2$0$0 == 0x00fa
                           0000FA  1465 _PINC_2	=	0x00fa
                           0000FB  1466 G$PINC_3$0$0 == 0x00fb
                           0000FB  1467 _PINC_3	=	0x00fb
                           0000FC  1468 G$PINC_4$0$0 == 0x00fc
                           0000FC  1469 _PINC_4	=	0x00fc
                           0000FD  1470 G$PINC_5$0$0 == 0x00fd
                           0000FD  1471 _PINC_5	=	0x00fd
                           0000FE  1472 G$PINC_6$0$0 == 0x00fe
                           0000FE  1473 _PINC_6	=	0x00fe
                           0000FF  1474 G$PINC_7$0$0 == 0x00ff
                           0000FF  1475 _PINC_7	=	0x00ff
                           000080  1476 G$PORTA_0$0$0 == 0x0080
                           000080  1477 _PORTA_0	=	0x0080
                           000081  1478 G$PORTA_1$0$0 == 0x0081
                           000081  1479 _PORTA_1	=	0x0081
                           000082  1480 G$PORTA_2$0$0 == 0x0082
                           000082  1481 _PORTA_2	=	0x0082
                           000083  1482 G$PORTA_3$0$0 == 0x0083
                           000083  1483 _PORTA_3	=	0x0083
                           000084  1484 G$PORTA_4$0$0 == 0x0084
                           000084  1485 _PORTA_4	=	0x0084
                           000085  1486 G$PORTA_5$0$0 == 0x0085
                           000085  1487 _PORTA_5	=	0x0085
                           000086  1488 G$PORTA_6$0$0 == 0x0086
                           000086  1489 _PORTA_6	=	0x0086
                           000087  1490 G$PORTA_7$0$0 == 0x0087
                           000087  1491 _PORTA_7	=	0x0087
                           000088  1492 G$PORTB_0$0$0 == 0x0088
                           000088  1493 _PORTB_0	=	0x0088
                           000089  1494 G$PORTB_1$0$0 == 0x0089
                           000089  1495 _PORTB_1	=	0x0089
                           00008A  1496 G$PORTB_2$0$0 == 0x008a
                           00008A  1497 _PORTB_2	=	0x008a
                           00008B  1498 G$PORTB_3$0$0 == 0x008b
                           00008B  1499 _PORTB_3	=	0x008b
                           00008C  1500 G$PORTB_4$0$0 == 0x008c
                           00008C  1501 _PORTB_4	=	0x008c
                           00008D  1502 G$PORTB_5$0$0 == 0x008d
                           00008D  1503 _PORTB_5	=	0x008d
                           00008E  1504 G$PORTB_6$0$0 == 0x008e
                           00008E  1505 _PORTB_6	=	0x008e
                           00008F  1506 G$PORTB_7$0$0 == 0x008f
                           00008F  1507 _PORTB_7	=	0x008f
                           000090  1508 G$PORTC_0$0$0 == 0x0090
                           000090  1509 _PORTC_0	=	0x0090
                           000091  1510 G$PORTC_1$0$0 == 0x0091
                           000091  1511 _PORTC_1	=	0x0091
                           000092  1512 G$PORTC_2$0$0 == 0x0092
                           000092  1513 _PORTC_2	=	0x0092
                           000093  1514 G$PORTC_3$0$0 == 0x0093
                           000093  1515 _PORTC_3	=	0x0093
                           000094  1516 G$PORTC_4$0$0 == 0x0094
                           000094  1517 _PORTC_4	=	0x0094
                           000095  1518 G$PORTC_5$0$0 == 0x0095
                           000095  1519 _PORTC_5	=	0x0095
                           000096  1520 G$PORTC_6$0$0 == 0x0096
                           000096  1521 _PORTC_6	=	0x0096
                           000097  1522 G$PORTC_7$0$0 == 0x0097
                           000097  1523 _PORTC_7	=	0x0097
                                   1524 ;--------------------------------------------------------
                                   1525 ; overlayable register banks
                                   1526 ;--------------------------------------------------------
                                   1527 	.area REG_BANK_0	(REL,OVR,DATA)
      000000                       1528 	.ds 8
                                   1529 ;--------------------------------------------------------
                                   1530 ; internal ram data
                                   1531 ;--------------------------------------------------------
                                   1532 	.area DSEG    (DATA)
                           000000  1533 Lpktframing.packetStdFraming$sloc0$1$0==.
      000000                       1534 _packetStdFraming_sloc0_1_0:
      000000                       1535 	.ds 4
                           000004  1536 Lpktframing.packetStdFraming$sloc1$1$0==.
      000004                       1537 _packetStdFraming_sloc1_1_0:
      000004                       1538 	.ds 1
                           000005  1539 Lpktframing.packetStdFraming$sloc2$1$0==.
      000005                       1540 _packetStdFraming_sloc2_1_0:
      000005                       1541 	.ds 1
                           000006  1542 Lpktframing.packetStdFraming$sloc3$1$0==.
      000006                       1543 _packetStdFraming_sloc3_1_0:
      000006                       1544 	.ds 1
                           000007  1545 Lpktframing.packetStdFraming$sloc4$1$0==.
      000007                       1546 _packetStdFraming_sloc4_1_0:
      000007                       1547 	.ds 1
                           000008  1548 Lpktframing.packetStdFraming$sloc5$1$0==.
      000008                       1549 _packetStdFraming_sloc5_1_0:
      000008                       1550 	.ds 2
                           00000A  1551 Lpktframing.packetStdFraming$sloc6$1$0==.
      00000A                       1552 _packetStdFraming_sloc6_1_0:
      00000A                       1553 	.ds 2
                           00000C  1554 Lpktframing.packetStdFraming$sloc7$1$0==.
      00000C                       1555 _packetStdFraming_sloc7_1_0:
      00000C                       1556 	.ds 2
                           00000E  1557 Lpktframing.packetStdFraming$sloc8$1$0==.
      00000E                       1558 _packetStdFraming_sloc8_1_0:
      00000E                       1559 	.ds 4
                                   1560 ;--------------------------------------------------------
                                   1561 ; overlayable items in internal ram 
                                   1562 ;--------------------------------------------------------
                                   1563 	.area	OSEG    (OVR,DATA)
                           000000  1564 Lpktframing.swap_variables$b$1$370==.
      000000                       1565 _swap_variables_PARM_2:
      000000                       1566 	.ds 3
                                   1567 ;--------------------------------------------------------
                                   1568 ; indirectly addressable internal ram data
                                   1569 ;--------------------------------------------------------
                                   1570 	.area ISEG    (DATA)
                                   1571 ;--------------------------------------------------------
                                   1572 ; absolute internal ram data
                                   1573 ;--------------------------------------------------------
                                   1574 	.area IABS    (ABS,DATA)
                                   1575 	.area IABS    (ABS,DATA)
                                   1576 ;--------------------------------------------------------
                                   1577 ; bit data
                                   1578 ;--------------------------------------------------------
                                   1579 	.area BSEG    (BIT)
                                   1580 ;--------------------------------------------------------
                                   1581 ; paged external ram data
                                   1582 ;--------------------------------------------------------
                                   1583 	.area PSEG    (PAG,XDATA)
                                   1584 ;--------------------------------------------------------
                                   1585 ; external ram data
                                   1586 ;--------------------------------------------------------
                                   1587 	.area XSEG    (XDATA)
                           007020  1588 G$ADCCH0VAL0$0$0 == 0x7020
                           007020  1589 _ADCCH0VAL0	=	0x7020
                           007021  1590 G$ADCCH0VAL1$0$0 == 0x7021
                           007021  1591 _ADCCH0VAL1	=	0x7021
                           007020  1592 G$ADCCH0VAL$0$0 == 0x7020
                           007020  1593 _ADCCH0VAL	=	0x7020
                           007022  1594 G$ADCCH1VAL0$0$0 == 0x7022
                           007022  1595 _ADCCH1VAL0	=	0x7022
                           007023  1596 G$ADCCH1VAL1$0$0 == 0x7023
                           007023  1597 _ADCCH1VAL1	=	0x7023
                           007022  1598 G$ADCCH1VAL$0$0 == 0x7022
                           007022  1599 _ADCCH1VAL	=	0x7022
                           007024  1600 G$ADCCH2VAL0$0$0 == 0x7024
                           007024  1601 _ADCCH2VAL0	=	0x7024
                           007025  1602 G$ADCCH2VAL1$0$0 == 0x7025
                           007025  1603 _ADCCH2VAL1	=	0x7025
                           007024  1604 G$ADCCH2VAL$0$0 == 0x7024
                           007024  1605 _ADCCH2VAL	=	0x7024
                           007026  1606 G$ADCCH3VAL0$0$0 == 0x7026
                           007026  1607 _ADCCH3VAL0	=	0x7026
                           007027  1608 G$ADCCH3VAL1$0$0 == 0x7027
                           007027  1609 _ADCCH3VAL1	=	0x7027
                           007026  1610 G$ADCCH3VAL$0$0 == 0x7026
                           007026  1611 _ADCCH3VAL	=	0x7026
                           007028  1612 G$ADCTUNE0$0$0 == 0x7028
                           007028  1613 _ADCTUNE0	=	0x7028
                           007029  1614 G$ADCTUNE1$0$0 == 0x7029
                           007029  1615 _ADCTUNE1	=	0x7029
                           00702A  1616 G$ADCTUNE2$0$0 == 0x702a
                           00702A  1617 _ADCTUNE2	=	0x702a
                           007010  1618 G$DMA0ADDR0$0$0 == 0x7010
                           007010  1619 _DMA0ADDR0	=	0x7010
                           007011  1620 G$DMA0ADDR1$0$0 == 0x7011
                           007011  1621 _DMA0ADDR1	=	0x7011
                           007010  1622 G$DMA0ADDR$0$0 == 0x7010
                           007010  1623 _DMA0ADDR	=	0x7010
                           007014  1624 G$DMA0CONFIG$0$0 == 0x7014
                           007014  1625 _DMA0CONFIG	=	0x7014
                           007012  1626 G$DMA1ADDR0$0$0 == 0x7012
                           007012  1627 _DMA1ADDR0	=	0x7012
                           007013  1628 G$DMA1ADDR1$0$0 == 0x7013
                           007013  1629 _DMA1ADDR1	=	0x7013
                           007012  1630 G$DMA1ADDR$0$0 == 0x7012
                           007012  1631 _DMA1ADDR	=	0x7012
                           007015  1632 G$DMA1CONFIG$0$0 == 0x7015
                           007015  1633 _DMA1CONFIG	=	0x7015
                           007070  1634 G$FRCOSCCONFIG$0$0 == 0x7070
                           007070  1635 _FRCOSCCONFIG	=	0x7070
                           007071  1636 G$FRCOSCCTRL$0$0 == 0x7071
                           007071  1637 _FRCOSCCTRL	=	0x7071
                           007076  1638 G$FRCOSCFREQ0$0$0 == 0x7076
                           007076  1639 _FRCOSCFREQ0	=	0x7076
                           007077  1640 G$FRCOSCFREQ1$0$0 == 0x7077
                           007077  1641 _FRCOSCFREQ1	=	0x7077
                           007076  1642 G$FRCOSCFREQ$0$0 == 0x7076
                           007076  1643 _FRCOSCFREQ	=	0x7076
                           007072  1644 G$FRCOSCKFILT0$0$0 == 0x7072
                           007072  1645 _FRCOSCKFILT0	=	0x7072
                           007073  1646 G$FRCOSCKFILT1$0$0 == 0x7073
                           007073  1647 _FRCOSCKFILT1	=	0x7073
                           007072  1648 G$FRCOSCKFILT$0$0 == 0x7072
                           007072  1649 _FRCOSCKFILT	=	0x7072
                           007078  1650 G$FRCOSCPER0$0$0 == 0x7078
                           007078  1651 _FRCOSCPER0	=	0x7078
                           007079  1652 G$FRCOSCPER1$0$0 == 0x7079
                           007079  1653 _FRCOSCPER1	=	0x7079
                           007078  1654 G$FRCOSCPER$0$0 == 0x7078
                           007078  1655 _FRCOSCPER	=	0x7078
                           007074  1656 G$FRCOSCREF0$0$0 == 0x7074
                           007074  1657 _FRCOSCREF0	=	0x7074
                           007075  1658 G$FRCOSCREF1$0$0 == 0x7075
                           007075  1659 _FRCOSCREF1	=	0x7075
                           007074  1660 G$FRCOSCREF$0$0 == 0x7074
                           007074  1661 _FRCOSCREF	=	0x7074
                           007007  1662 G$ANALOGA$0$0 == 0x7007
                           007007  1663 _ANALOGA	=	0x7007
                           00700C  1664 G$GPIOENABLE$0$0 == 0x700c
                           00700C  1665 _GPIOENABLE	=	0x700c
                           007003  1666 G$EXTIRQ$0$0 == 0x7003
                           007003  1667 _EXTIRQ	=	0x7003
                           007000  1668 G$INTCHGA$0$0 == 0x7000
                           007000  1669 _INTCHGA	=	0x7000
                           007001  1670 G$INTCHGB$0$0 == 0x7001
                           007001  1671 _INTCHGB	=	0x7001
                           007002  1672 G$INTCHGC$0$0 == 0x7002
                           007002  1673 _INTCHGC	=	0x7002
                           007008  1674 G$PALTA$0$0 == 0x7008
                           007008  1675 _PALTA	=	0x7008
                           007009  1676 G$PALTB$0$0 == 0x7009
                           007009  1677 _PALTB	=	0x7009
                           00700A  1678 G$PALTC$0$0 == 0x700a
                           00700A  1679 _PALTC	=	0x700a
                           007046  1680 G$PALTRADIO$0$0 == 0x7046
                           007046  1681 _PALTRADIO	=	0x7046
                           007004  1682 G$PINCHGA$0$0 == 0x7004
                           007004  1683 _PINCHGA	=	0x7004
                           007005  1684 G$PINCHGB$0$0 == 0x7005
                           007005  1685 _PINCHGB	=	0x7005
                           007006  1686 G$PINCHGC$0$0 == 0x7006
                           007006  1687 _PINCHGC	=	0x7006
                           00700B  1688 G$PINSEL$0$0 == 0x700b
                           00700B  1689 _PINSEL	=	0x700b
                           007060  1690 G$LPOSCCONFIG$0$0 == 0x7060
                           007060  1691 _LPOSCCONFIG	=	0x7060
                           007066  1692 G$LPOSCFREQ0$0$0 == 0x7066
                           007066  1693 _LPOSCFREQ0	=	0x7066
                           007067  1694 G$LPOSCFREQ1$0$0 == 0x7067
                           007067  1695 _LPOSCFREQ1	=	0x7067
                           007066  1696 G$LPOSCFREQ$0$0 == 0x7066
                           007066  1697 _LPOSCFREQ	=	0x7066
                           007062  1698 G$LPOSCKFILT0$0$0 == 0x7062
                           007062  1699 _LPOSCKFILT0	=	0x7062
                           007063  1700 G$LPOSCKFILT1$0$0 == 0x7063
                           007063  1701 _LPOSCKFILT1	=	0x7063
                           007062  1702 G$LPOSCKFILT$0$0 == 0x7062
                           007062  1703 _LPOSCKFILT	=	0x7062
                           007068  1704 G$LPOSCPER0$0$0 == 0x7068
                           007068  1705 _LPOSCPER0	=	0x7068
                           007069  1706 G$LPOSCPER1$0$0 == 0x7069
                           007069  1707 _LPOSCPER1	=	0x7069
                           007068  1708 G$LPOSCPER$0$0 == 0x7068
                           007068  1709 _LPOSCPER	=	0x7068
                           007064  1710 G$LPOSCREF0$0$0 == 0x7064
                           007064  1711 _LPOSCREF0	=	0x7064
                           007065  1712 G$LPOSCREF1$0$0 == 0x7065
                           007065  1713 _LPOSCREF1	=	0x7065
                           007064  1714 G$LPOSCREF$0$0 == 0x7064
                           007064  1715 _LPOSCREF	=	0x7064
                           007054  1716 G$LPXOSCGM$0$0 == 0x7054
                           007054  1717 _LPXOSCGM	=	0x7054
                           007F01  1718 G$MISCCTRL$0$0 == 0x7f01
                           007F01  1719 _MISCCTRL	=	0x7f01
                           007053  1720 G$OSCCALIB$0$0 == 0x7053
                           007053  1721 _OSCCALIB	=	0x7053
                           007050  1722 G$OSCFORCERUN$0$0 == 0x7050
                           007050  1723 _OSCFORCERUN	=	0x7050
                           007052  1724 G$OSCREADY$0$0 == 0x7052
                           007052  1725 _OSCREADY	=	0x7052
                           007051  1726 G$OSCRUN$0$0 == 0x7051
                           007051  1727 _OSCRUN	=	0x7051
                           007040  1728 G$RADIOFDATAADDR0$0$0 == 0x7040
                           007040  1729 _RADIOFDATAADDR0	=	0x7040
                           007041  1730 G$RADIOFDATAADDR1$0$0 == 0x7041
                           007041  1731 _RADIOFDATAADDR1	=	0x7041
                           007040  1732 G$RADIOFDATAADDR$0$0 == 0x7040
                           007040  1733 _RADIOFDATAADDR	=	0x7040
                           007042  1734 G$RADIOFSTATADDR0$0$0 == 0x7042
                           007042  1735 _RADIOFSTATADDR0	=	0x7042
                           007043  1736 G$RADIOFSTATADDR1$0$0 == 0x7043
                           007043  1737 _RADIOFSTATADDR1	=	0x7043
                           007042  1738 G$RADIOFSTATADDR$0$0 == 0x7042
                           007042  1739 _RADIOFSTATADDR	=	0x7042
                           007044  1740 G$RADIOMUX$0$0 == 0x7044
                           007044  1741 _RADIOMUX	=	0x7044
                           007084  1742 G$SCRATCH0$0$0 == 0x7084
                           007084  1743 _SCRATCH0	=	0x7084
                           007085  1744 G$SCRATCH1$0$0 == 0x7085
                           007085  1745 _SCRATCH1	=	0x7085
                           007086  1746 G$SCRATCH2$0$0 == 0x7086
                           007086  1747 _SCRATCH2	=	0x7086
                           007087  1748 G$SCRATCH3$0$0 == 0x7087
                           007087  1749 _SCRATCH3	=	0x7087
                           007F00  1750 G$SILICONREV$0$0 == 0x7f00
                           007F00  1751 _SILICONREV	=	0x7f00
                           007F19  1752 G$XTALAMPL$0$0 == 0x7f19
                           007F19  1753 _XTALAMPL	=	0x7f19
                           007F18  1754 G$XTALOSC$0$0 == 0x7f18
                           007F18  1755 _XTALOSC	=	0x7f18
                           007F1A  1756 G$XTALREADY$0$0 == 0x7f1a
                           007F1A  1757 _XTALREADY	=	0x7f1a
                           00FC06  1758 Fpktframing$flash_deviceid$0$0 == 0xfc06
                           00FC06  1759 _flash_deviceid	=	0xfc06
                           00FC00  1760 Fpktframing$flash_calsector$0$0 == 0xfc00
                           00FC00  1761 _flash_calsector	=	0xfc00
                           004114  1762 G$AX5043_AFSKCTRL$0$0 == 0x4114
                           004114  1763 _AX5043_AFSKCTRL	=	0x4114
                           004113  1764 G$AX5043_AFSKMARK0$0$0 == 0x4113
                           004113  1765 _AX5043_AFSKMARK0	=	0x4113
                           004112  1766 G$AX5043_AFSKMARK1$0$0 == 0x4112
                           004112  1767 _AX5043_AFSKMARK1	=	0x4112
                           004111  1768 G$AX5043_AFSKSPACE0$0$0 == 0x4111
                           004111  1769 _AX5043_AFSKSPACE0	=	0x4111
                           004110  1770 G$AX5043_AFSKSPACE1$0$0 == 0x4110
                           004110  1771 _AX5043_AFSKSPACE1	=	0x4110
                           004043  1772 G$AX5043_AGCCOUNTER$0$0 == 0x4043
                           004043  1773 _AX5043_AGCCOUNTER	=	0x4043
                           004115  1774 G$AX5043_AMPLFILTER$0$0 == 0x4115
                           004115  1775 _AX5043_AMPLFILTER	=	0x4115
                           004189  1776 G$AX5043_BBOFFSCAP$0$0 == 0x4189
                           004189  1777 _AX5043_BBOFFSCAP	=	0x4189
                           004188  1778 G$AX5043_BBTUNE$0$0 == 0x4188
                           004188  1779 _AX5043_BBTUNE	=	0x4188
                           004041  1780 G$AX5043_BGNDRSSI$0$0 == 0x4041
                           004041  1781 _AX5043_BGNDRSSI	=	0x4041
                           00422E  1782 G$AX5043_BGNDRSSIGAIN$0$0 == 0x422e
                           00422E  1783 _AX5043_BGNDRSSIGAIN	=	0x422e
                           00422F  1784 G$AX5043_BGNDRSSITHR$0$0 == 0x422f
                           00422F  1785 _AX5043_BGNDRSSITHR	=	0x422f
                           004017  1786 G$AX5043_CRCINIT0$0$0 == 0x4017
                           004017  1787 _AX5043_CRCINIT0	=	0x4017
                           004016  1788 G$AX5043_CRCINIT1$0$0 == 0x4016
                           004016  1789 _AX5043_CRCINIT1	=	0x4016
                           004015  1790 G$AX5043_CRCINIT2$0$0 == 0x4015
                           004015  1791 _AX5043_CRCINIT2	=	0x4015
                           004014  1792 G$AX5043_CRCINIT3$0$0 == 0x4014
                           004014  1793 _AX5043_CRCINIT3	=	0x4014
                           004332  1794 G$AX5043_DACCONFIG$0$0 == 0x4332
                           004332  1795 _AX5043_DACCONFIG	=	0x4332
                           004331  1796 G$AX5043_DACVALUE0$0$0 == 0x4331
                           004331  1797 _AX5043_DACVALUE0	=	0x4331
                           004330  1798 G$AX5043_DACVALUE1$0$0 == 0x4330
                           004330  1799 _AX5043_DACVALUE1	=	0x4330
                           004102  1800 G$AX5043_DECIMATION$0$0 == 0x4102
                           004102  1801 _AX5043_DECIMATION	=	0x4102
                           004042  1802 G$AX5043_DIVERSITY$0$0 == 0x4042
                           004042  1803 _AX5043_DIVERSITY	=	0x4042
                           004011  1804 G$AX5043_ENCODING$0$0 == 0x4011
                           004011  1805 _AX5043_ENCODING	=	0x4011
                           004018  1806 G$AX5043_FEC$0$0 == 0x4018
                           004018  1807 _AX5043_FEC	=	0x4018
                           00401A  1808 G$AX5043_FECSTATUS$0$0 == 0x401a
                           00401A  1809 _AX5043_FECSTATUS	=	0x401a
                           004019  1810 G$AX5043_FECSYNC$0$0 == 0x4019
                           004019  1811 _AX5043_FECSYNC	=	0x4019
                           00402B  1812 G$AX5043_FIFOCOUNT0$0$0 == 0x402b
                           00402B  1813 _AX5043_FIFOCOUNT0	=	0x402b
                           00402A  1814 G$AX5043_FIFOCOUNT1$0$0 == 0x402a
                           00402A  1815 _AX5043_FIFOCOUNT1	=	0x402a
                           004029  1816 G$AX5043_FIFODATA$0$0 == 0x4029
                           004029  1817 _AX5043_FIFODATA	=	0x4029
                           00402D  1818 G$AX5043_FIFOFREE0$0$0 == 0x402d
                           00402D  1819 _AX5043_FIFOFREE0	=	0x402d
                           00402C  1820 G$AX5043_FIFOFREE1$0$0 == 0x402c
                           00402C  1821 _AX5043_FIFOFREE1	=	0x402c
                           004028  1822 G$AX5043_FIFOSTAT$0$0 == 0x4028
                           004028  1823 _AX5043_FIFOSTAT	=	0x4028
                           00402F  1824 G$AX5043_FIFOTHRESH0$0$0 == 0x402f
                           00402F  1825 _AX5043_FIFOTHRESH0	=	0x402f
                           00402E  1826 G$AX5043_FIFOTHRESH1$0$0 == 0x402e
                           00402E  1827 _AX5043_FIFOTHRESH1	=	0x402e
                           004012  1828 G$AX5043_FRAMING$0$0 == 0x4012
                           004012  1829 _AX5043_FRAMING	=	0x4012
                           004037  1830 G$AX5043_FREQA0$0$0 == 0x4037
                           004037  1831 _AX5043_FREQA0	=	0x4037
                           004036  1832 G$AX5043_FREQA1$0$0 == 0x4036
                           004036  1833 _AX5043_FREQA1	=	0x4036
                           004035  1834 G$AX5043_FREQA2$0$0 == 0x4035
                           004035  1835 _AX5043_FREQA2	=	0x4035
                           004034  1836 G$AX5043_FREQA3$0$0 == 0x4034
                           004034  1837 _AX5043_FREQA3	=	0x4034
                           00403F  1838 G$AX5043_FREQB0$0$0 == 0x403f
                           00403F  1839 _AX5043_FREQB0	=	0x403f
                           00403E  1840 G$AX5043_FREQB1$0$0 == 0x403e
                           00403E  1841 _AX5043_FREQB1	=	0x403e
                           00403D  1842 G$AX5043_FREQB2$0$0 == 0x403d
                           00403D  1843 _AX5043_FREQB2	=	0x403d
                           00403C  1844 G$AX5043_FREQB3$0$0 == 0x403c
                           00403C  1845 _AX5043_FREQB3	=	0x403c
                           004163  1846 G$AX5043_FSKDEV0$0$0 == 0x4163
                           004163  1847 _AX5043_FSKDEV0	=	0x4163
                           004162  1848 G$AX5043_FSKDEV1$0$0 == 0x4162
                           004162  1849 _AX5043_FSKDEV1	=	0x4162
                           004161  1850 G$AX5043_FSKDEV2$0$0 == 0x4161
                           004161  1851 _AX5043_FSKDEV2	=	0x4161
                           00410D  1852 G$AX5043_FSKDMAX0$0$0 == 0x410d
                           00410D  1853 _AX5043_FSKDMAX0	=	0x410d
                           00410C  1854 G$AX5043_FSKDMAX1$0$0 == 0x410c
                           00410C  1855 _AX5043_FSKDMAX1	=	0x410c
                           00410F  1856 G$AX5043_FSKDMIN0$0$0 == 0x410f
                           00410F  1857 _AX5043_FSKDMIN0	=	0x410f
                           00410E  1858 G$AX5043_FSKDMIN1$0$0 == 0x410e
                           00410E  1859 _AX5043_FSKDMIN1	=	0x410e
                           004309  1860 G$AX5043_GPADC13VALUE0$0$0 == 0x4309
                           004309  1861 _AX5043_GPADC13VALUE0	=	0x4309
                           004308  1862 G$AX5043_GPADC13VALUE1$0$0 == 0x4308
                           004308  1863 _AX5043_GPADC13VALUE1	=	0x4308
                           004300  1864 G$AX5043_GPADCCTRL$0$0 == 0x4300
                           004300  1865 _AX5043_GPADCCTRL	=	0x4300
                           004301  1866 G$AX5043_GPADCPERIOD$0$0 == 0x4301
                           004301  1867 _AX5043_GPADCPERIOD	=	0x4301
                           004101  1868 G$AX5043_IFFREQ0$0$0 == 0x4101
                           004101  1869 _AX5043_IFFREQ0	=	0x4101
                           004100  1870 G$AX5043_IFFREQ1$0$0 == 0x4100
                           004100  1871 _AX5043_IFFREQ1	=	0x4100
                           00400B  1872 G$AX5043_IRQINVERSION0$0$0 == 0x400b
                           00400B  1873 _AX5043_IRQINVERSION0	=	0x400b
                           00400A  1874 G$AX5043_IRQINVERSION1$0$0 == 0x400a
                           00400A  1875 _AX5043_IRQINVERSION1	=	0x400a
                           004007  1876 G$AX5043_IRQMASK0$0$0 == 0x4007
                           004007  1877 _AX5043_IRQMASK0	=	0x4007
                           004006  1878 G$AX5043_IRQMASK1$0$0 == 0x4006
                           004006  1879 _AX5043_IRQMASK1	=	0x4006
                           00400D  1880 G$AX5043_IRQREQUEST0$0$0 == 0x400d
                           00400D  1881 _AX5043_IRQREQUEST0	=	0x400d
                           00400C  1882 G$AX5043_IRQREQUEST1$0$0 == 0x400c
                           00400C  1883 _AX5043_IRQREQUEST1	=	0x400c
                           004310  1884 G$AX5043_LPOSCCONFIG$0$0 == 0x4310
                           004310  1885 _AX5043_LPOSCCONFIG	=	0x4310
                           004317  1886 G$AX5043_LPOSCFREQ0$0$0 == 0x4317
                           004317  1887 _AX5043_LPOSCFREQ0	=	0x4317
                           004316  1888 G$AX5043_LPOSCFREQ1$0$0 == 0x4316
                           004316  1889 _AX5043_LPOSCFREQ1	=	0x4316
                           004313  1890 G$AX5043_LPOSCKFILT0$0$0 == 0x4313
                           004313  1891 _AX5043_LPOSCKFILT0	=	0x4313
                           004312  1892 G$AX5043_LPOSCKFILT1$0$0 == 0x4312
                           004312  1893 _AX5043_LPOSCKFILT1	=	0x4312
                           004319  1894 G$AX5043_LPOSCPER0$0$0 == 0x4319
                           004319  1895 _AX5043_LPOSCPER0	=	0x4319
                           004318  1896 G$AX5043_LPOSCPER1$0$0 == 0x4318
                           004318  1897 _AX5043_LPOSCPER1	=	0x4318
                           004315  1898 G$AX5043_LPOSCREF0$0$0 == 0x4315
                           004315  1899 _AX5043_LPOSCREF0	=	0x4315
                           004314  1900 G$AX5043_LPOSCREF1$0$0 == 0x4314
                           004314  1901 _AX5043_LPOSCREF1	=	0x4314
                           004311  1902 G$AX5043_LPOSCSTATUS$0$0 == 0x4311
                           004311  1903 _AX5043_LPOSCSTATUS	=	0x4311
                           004214  1904 G$AX5043_MATCH0LEN$0$0 == 0x4214
                           004214  1905 _AX5043_MATCH0LEN	=	0x4214
                           004216  1906 G$AX5043_MATCH0MAX$0$0 == 0x4216
                           004216  1907 _AX5043_MATCH0MAX	=	0x4216
                           004215  1908 G$AX5043_MATCH0MIN$0$0 == 0x4215
                           004215  1909 _AX5043_MATCH0MIN	=	0x4215
                           004213  1910 G$AX5043_MATCH0PAT0$0$0 == 0x4213
                           004213  1911 _AX5043_MATCH0PAT0	=	0x4213
                           004212  1912 G$AX5043_MATCH0PAT1$0$0 == 0x4212
                           004212  1913 _AX5043_MATCH0PAT1	=	0x4212
                           004211  1914 G$AX5043_MATCH0PAT2$0$0 == 0x4211
                           004211  1915 _AX5043_MATCH0PAT2	=	0x4211
                           004210  1916 G$AX5043_MATCH0PAT3$0$0 == 0x4210
                           004210  1917 _AX5043_MATCH0PAT3	=	0x4210
                           00421C  1918 G$AX5043_MATCH1LEN$0$0 == 0x421c
                           00421C  1919 _AX5043_MATCH1LEN	=	0x421c
                           00421E  1920 G$AX5043_MATCH1MAX$0$0 == 0x421e
                           00421E  1921 _AX5043_MATCH1MAX	=	0x421e
                           00421D  1922 G$AX5043_MATCH1MIN$0$0 == 0x421d
                           00421D  1923 _AX5043_MATCH1MIN	=	0x421d
                           004219  1924 G$AX5043_MATCH1PAT0$0$0 == 0x4219
                           004219  1925 _AX5043_MATCH1PAT0	=	0x4219
                           004218  1926 G$AX5043_MATCH1PAT1$0$0 == 0x4218
                           004218  1927 _AX5043_MATCH1PAT1	=	0x4218
                           004108  1928 G$AX5043_MAXDROFFSET0$0$0 == 0x4108
                           004108  1929 _AX5043_MAXDROFFSET0	=	0x4108
                           004107  1930 G$AX5043_MAXDROFFSET1$0$0 == 0x4107
                           004107  1931 _AX5043_MAXDROFFSET1	=	0x4107
                           004106  1932 G$AX5043_MAXDROFFSET2$0$0 == 0x4106
                           004106  1933 _AX5043_MAXDROFFSET2	=	0x4106
                           00410B  1934 G$AX5043_MAXRFOFFSET0$0$0 == 0x410b
                           00410B  1935 _AX5043_MAXRFOFFSET0	=	0x410b
                           00410A  1936 G$AX5043_MAXRFOFFSET1$0$0 == 0x410a
                           00410A  1937 _AX5043_MAXRFOFFSET1	=	0x410a
                           004109  1938 G$AX5043_MAXRFOFFSET2$0$0 == 0x4109
                           004109  1939 _AX5043_MAXRFOFFSET2	=	0x4109
                           004164  1940 G$AX5043_MODCFGA$0$0 == 0x4164
                           004164  1941 _AX5043_MODCFGA	=	0x4164
                           004160  1942 G$AX5043_MODCFGF$0$0 == 0x4160
                           004160  1943 _AX5043_MODCFGF	=	0x4160
                           004F5F  1944 G$AX5043_MODCFGP$0$0 == 0x4f5f
                           004F5F  1945 _AX5043_MODCFGP	=	0x4f5f
                           004010  1946 G$AX5043_MODULATION$0$0 == 0x4010
                           004010  1947 _AX5043_MODULATION	=	0x4010
                           004025  1948 G$AX5043_PINFUNCANTSEL$0$0 == 0x4025
                           004025  1949 _AX5043_PINFUNCANTSEL	=	0x4025
                           004023  1950 G$AX5043_PINFUNCDATA$0$0 == 0x4023
                           004023  1951 _AX5043_PINFUNCDATA	=	0x4023
                           004022  1952 G$AX5043_PINFUNCDCLK$0$0 == 0x4022
                           004022  1953 _AX5043_PINFUNCDCLK	=	0x4022
                           004024  1954 G$AX5043_PINFUNCIRQ$0$0 == 0x4024
                           004024  1955 _AX5043_PINFUNCIRQ	=	0x4024
                           004026  1956 G$AX5043_PINFUNCPWRAMP$0$0 == 0x4026
                           004026  1957 _AX5043_PINFUNCPWRAMP	=	0x4026
                           004021  1958 G$AX5043_PINFUNCSYSCLK$0$0 == 0x4021
                           004021  1959 _AX5043_PINFUNCSYSCLK	=	0x4021
                           004020  1960 G$AX5043_PINSTATE$0$0 == 0x4020
                           004020  1961 _AX5043_PINSTATE	=	0x4020
                           004233  1962 G$AX5043_PKTACCEPTFLAGS$0$0 == 0x4233
                           004233  1963 _AX5043_PKTACCEPTFLAGS	=	0x4233
                           004230  1964 G$AX5043_PKTCHUNKSIZE$0$0 == 0x4230
                           004230  1965 _AX5043_PKTCHUNKSIZE	=	0x4230
                           004231  1966 G$AX5043_PKTMISCFLAGS$0$0 == 0x4231
                           004231  1967 _AX5043_PKTMISCFLAGS	=	0x4231
                           004232  1968 G$AX5043_PKTSTOREFLAGS$0$0 == 0x4232
                           004232  1969 _AX5043_PKTSTOREFLAGS	=	0x4232
                           004031  1970 G$AX5043_PLLCPI$0$0 == 0x4031
                           004031  1971 _AX5043_PLLCPI	=	0x4031
                           004039  1972 G$AX5043_PLLCPIBOOST$0$0 == 0x4039
                           004039  1973 _AX5043_PLLCPIBOOST	=	0x4039
                           004182  1974 G$AX5043_PLLLOCKDET$0$0 == 0x4182
                           004182  1975 _AX5043_PLLLOCKDET	=	0x4182
                           004030  1976 G$AX5043_PLLLOOP$0$0 == 0x4030
                           004030  1977 _AX5043_PLLLOOP	=	0x4030
                           004038  1978 G$AX5043_PLLLOOPBOOST$0$0 == 0x4038
                           004038  1979 _AX5043_PLLLOOPBOOST	=	0x4038
                           004033  1980 G$AX5043_PLLRANGINGA$0$0 == 0x4033
                           004033  1981 _AX5043_PLLRANGINGA	=	0x4033
                           00403B  1982 G$AX5043_PLLRANGINGB$0$0 == 0x403b
                           00403B  1983 _AX5043_PLLRANGINGB	=	0x403b
                           004183  1984 G$AX5043_PLLRNGCLK$0$0 == 0x4183
                           004183  1985 _AX5043_PLLRNGCLK	=	0x4183
                           004032  1986 G$AX5043_PLLVCODIV$0$0 == 0x4032
                           004032  1987 _AX5043_PLLVCODIV	=	0x4032
                           004180  1988 G$AX5043_PLLVCOI$0$0 == 0x4180
                           004180  1989 _AX5043_PLLVCOI	=	0x4180
                           004181  1990 G$AX5043_PLLVCOIR$0$0 == 0x4181
                           004181  1991 _AX5043_PLLVCOIR	=	0x4181
                           004F08  1992 G$AX5043_POWCTRL1$0$0 == 0x4f08
                           004F08  1993 _AX5043_POWCTRL1	=	0x4f08
                           004005  1994 G$AX5043_POWIRQMASK$0$0 == 0x4005
                           004005  1995 _AX5043_POWIRQMASK	=	0x4005
                           004003  1996 G$AX5043_POWSTAT$0$0 == 0x4003
                           004003  1997 _AX5043_POWSTAT	=	0x4003
                           004004  1998 G$AX5043_POWSTICKYSTAT$0$0 == 0x4004
                           004004  1999 _AX5043_POWSTICKYSTAT	=	0x4004
                           004027  2000 G$AX5043_PWRAMP$0$0 == 0x4027
                           004027  2001 _AX5043_PWRAMP	=	0x4027
                           004002  2002 G$AX5043_PWRMODE$0$0 == 0x4002
                           004002  2003 _AX5043_PWRMODE	=	0x4002
                           004009  2004 G$AX5043_RADIOEVENTMASK0$0$0 == 0x4009
                           004009  2005 _AX5043_RADIOEVENTMASK0	=	0x4009
                           004008  2006 G$AX5043_RADIOEVENTMASK1$0$0 == 0x4008
                           004008  2007 _AX5043_RADIOEVENTMASK1	=	0x4008
                           00400F  2008 G$AX5043_RADIOEVENTREQ0$0$0 == 0x400f
                           00400F  2009 _AX5043_RADIOEVENTREQ0	=	0x400f
                           00400E  2010 G$AX5043_RADIOEVENTREQ1$0$0 == 0x400e
                           00400E  2011 _AX5043_RADIOEVENTREQ1	=	0x400e
                           00401C  2012 G$AX5043_RADIOSTATE$0$0 == 0x401c
                           00401C  2013 _AX5043_RADIOSTATE	=	0x401c
                           004F0D  2014 G$AX5043_REF$0$0 == 0x4f0d
                           004F0D  2015 _AX5043_REF	=	0x4f0d
                           004040  2016 G$AX5043_RSSI$0$0 == 0x4040
                           004040  2017 _AX5043_RSSI	=	0x4040
                           00422D  2018 G$AX5043_RSSIABSTHR$0$0 == 0x422d
                           00422D  2019 _AX5043_RSSIABSTHR	=	0x422d
                           00422C  2020 G$AX5043_RSSIREFERENCE$0$0 == 0x422c
                           00422C  2021 _AX5043_RSSIREFERENCE	=	0x422c
                           004105  2022 G$AX5043_RXDATARATE0$0$0 == 0x4105
                           004105  2023 _AX5043_RXDATARATE0	=	0x4105
                           004104  2024 G$AX5043_RXDATARATE1$0$0 == 0x4104
                           004104  2025 _AX5043_RXDATARATE1	=	0x4104
                           004103  2026 G$AX5043_RXDATARATE2$0$0 == 0x4103
                           004103  2027 _AX5043_RXDATARATE2	=	0x4103
                           004001  2028 G$AX5043_SCRATCH$0$0 == 0x4001
                           004001  2029 _AX5043_SCRATCH	=	0x4001
                           004000  2030 G$AX5043_SILICONREVISION$0$0 == 0x4000
                           004000  2031 _AX5043_SILICONREVISION	=	0x4000
                           00405B  2032 G$AX5043_TIMER0$0$0 == 0x405b
                           00405B  2033 _AX5043_TIMER0	=	0x405b
                           00405A  2034 G$AX5043_TIMER1$0$0 == 0x405a
                           00405A  2035 _AX5043_TIMER1	=	0x405a
                           004059  2036 G$AX5043_TIMER2$0$0 == 0x4059
                           004059  2037 _AX5043_TIMER2	=	0x4059
                           004227  2038 G$AX5043_TMGRXAGC$0$0 == 0x4227
                           004227  2039 _AX5043_TMGRXAGC	=	0x4227
                           004223  2040 G$AX5043_TMGRXBOOST$0$0 == 0x4223
                           004223  2041 _AX5043_TMGRXBOOST	=	0x4223
                           004226  2042 G$AX5043_TMGRXCOARSEAGC$0$0 == 0x4226
                           004226  2043 _AX5043_TMGRXCOARSEAGC	=	0x4226
                           004225  2044 G$AX5043_TMGRXOFFSACQ$0$0 == 0x4225
                           004225  2045 _AX5043_TMGRXOFFSACQ	=	0x4225
                           004229  2046 G$AX5043_TMGRXPREAMBLE1$0$0 == 0x4229
                           004229  2047 _AX5043_TMGRXPREAMBLE1	=	0x4229
                           00422A  2048 G$AX5043_TMGRXPREAMBLE2$0$0 == 0x422a
                           00422A  2049 _AX5043_TMGRXPREAMBLE2	=	0x422a
                           00422B  2050 G$AX5043_TMGRXPREAMBLE3$0$0 == 0x422b
                           00422B  2051 _AX5043_TMGRXPREAMBLE3	=	0x422b
                           004228  2052 G$AX5043_TMGRXRSSI$0$0 == 0x4228
                           004228  2053 _AX5043_TMGRXRSSI	=	0x4228
                           004224  2054 G$AX5043_TMGRXSETTLE$0$0 == 0x4224
                           004224  2055 _AX5043_TMGRXSETTLE	=	0x4224
                           004220  2056 G$AX5043_TMGTXBOOST$0$0 == 0x4220
                           004220  2057 _AX5043_TMGTXBOOST	=	0x4220
                           004221  2058 G$AX5043_TMGTXSETTLE$0$0 == 0x4221
                           004221  2059 _AX5043_TMGTXSETTLE	=	0x4221
                           004055  2060 G$AX5043_TRKAFSKDEMOD0$0$0 == 0x4055
                           004055  2061 _AX5043_TRKAFSKDEMOD0	=	0x4055
                           004054  2062 G$AX5043_TRKAFSKDEMOD1$0$0 == 0x4054
                           004054  2063 _AX5043_TRKAFSKDEMOD1	=	0x4054
                           004049  2064 G$AX5043_TRKAMPLITUDE0$0$0 == 0x4049
                           004049  2065 _AX5043_TRKAMPLITUDE0	=	0x4049
                           004048  2066 G$AX5043_TRKAMPLITUDE1$0$0 == 0x4048
                           004048  2067 _AX5043_TRKAMPLITUDE1	=	0x4048
                           004047  2068 G$AX5043_TRKDATARATE0$0$0 == 0x4047
                           004047  2069 _AX5043_TRKDATARATE0	=	0x4047
                           004046  2070 G$AX5043_TRKDATARATE1$0$0 == 0x4046
                           004046  2071 _AX5043_TRKDATARATE1	=	0x4046
                           004045  2072 G$AX5043_TRKDATARATE2$0$0 == 0x4045
                           004045  2073 _AX5043_TRKDATARATE2	=	0x4045
                           004051  2074 G$AX5043_TRKFREQ0$0$0 == 0x4051
                           004051  2075 _AX5043_TRKFREQ0	=	0x4051
                           004050  2076 G$AX5043_TRKFREQ1$0$0 == 0x4050
                           004050  2077 _AX5043_TRKFREQ1	=	0x4050
                           004053  2078 G$AX5043_TRKFSKDEMOD0$0$0 == 0x4053
                           004053  2079 _AX5043_TRKFSKDEMOD0	=	0x4053
                           004052  2080 G$AX5043_TRKFSKDEMOD1$0$0 == 0x4052
                           004052  2081 _AX5043_TRKFSKDEMOD1	=	0x4052
                           00404B  2082 G$AX5043_TRKPHASE0$0$0 == 0x404b
                           00404B  2083 _AX5043_TRKPHASE0	=	0x404b
                           00404A  2084 G$AX5043_TRKPHASE1$0$0 == 0x404a
                           00404A  2085 _AX5043_TRKPHASE1	=	0x404a
                           00404F  2086 G$AX5043_TRKRFFREQ0$0$0 == 0x404f
                           00404F  2087 _AX5043_TRKRFFREQ0	=	0x404f
                           00404E  2088 G$AX5043_TRKRFFREQ1$0$0 == 0x404e
                           00404E  2089 _AX5043_TRKRFFREQ1	=	0x404e
                           00404D  2090 G$AX5043_TRKRFFREQ2$0$0 == 0x404d
                           00404D  2091 _AX5043_TRKRFFREQ2	=	0x404d
                           004169  2092 G$AX5043_TXPWRCOEFFA0$0$0 == 0x4169
                           004169  2093 _AX5043_TXPWRCOEFFA0	=	0x4169
                           004168  2094 G$AX5043_TXPWRCOEFFA1$0$0 == 0x4168
                           004168  2095 _AX5043_TXPWRCOEFFA1	=	0x4168
                           00416B  2096 G$AX5043_TXPWRCOEFFB0$0$0 == 0x416b
                           00416B  2097 _AX5043_TXPWRCOEFFB0	=	0x416b
                           00416A  2098 G$AX5043_TXPWRCOEFFB1$0$0 == 0x416a
                           00416A  2099 _AX5043_TXPWRCOEFFB1	=	0x416a
                           00416D  2100 G$AX5043_TXPWRCOEFFC0$0$0 == 0x416d
                           00416D  2101 _AX5043_TXPWRCOEFFC0	=	0x416d
                           00416C  2102 G$AX5043_TXPWRCOEFFC1$0$0 == 0x416c
                           00416C  2103 _AX5043_TXPWRCOEFFC1	=	0x416c
                           00416F  2104 G$AX5043_TXPWRCOEFFD0$0$0 == 0x416f
                           00416F  2105 _AX5043_TXPWRCOEFFD0	=	0x416f
                           00416E  2106 G$AX5043_TXPWRCOEFFD1$0$0 == 0x416e
                           00416E  2107 _AX5043_TXPWRCOEFFD1	=	0x416e
                           004171  2108 G$AX5043_TXPWRCOEFFE0$0$0 == 0x4171
                           004171  2109 _AX5043_TXPWRCOEFFE0	=	0x4171
                           004170  2110 G$AX5043_TXPWRCOEFFE1$0$0 == 0x4170
                           004170  2111 _AX5043_TXPWRCOEFFE1	=	0x4170
                           004167  2112 G$AX5043_TXRATE0$0$0 == 0x4167
                           004167  2113 _AX5043_TXRATE0	=	0x4167
                           004166  2114 G$AX5043_TXRATE1$0$0 == 0x4166
                           004166  2115 _AX5043_TXRATE1	=	0x4166
                           004165  2116 G$AX5043_TXRATE2$0$0 == 0x4165
                           004165  2117 _AX5043_TXRATE2	=	0x4165
                           00406B  2118 G$AX5043_WAKEUP0$0$0 == 0x406b
                           00406B  2119 _AX5043_WAKEUP0	=	0x406b
                           00406A  2120 G$AX5043_WAKEUP1$0$0 == 0x406a
                           00406A  2121 _AX5043_WAKEUP1	=	0x406a
                           00406D  2122 G$AX5043_WAKEUPFREQ0$0$0 == 0x406d
                           00406D  2123 _AX5043_WAKEUPFREQ0	=	0x406d
                           00406C  2124 G$AX5043_WAKEUPFREQ1$0$0 == 0x406c
                           00406C  2125 _AX5043_WAKEUPFREQ1	=	0x406c
                           004069  2126 G$AX5043_WAKEUPTIMER0$0$0 == 0x4069
                           004069  2127 _AX5043_WAKEUPTIMER0	=	0x4069
                           004068  2128 G$AX5043_WAKEUPTIMER1$0$0 == 0x4068
                           004068  2129 _AX5043_WAKEUPTIMER1	=	0x4068
                           00406E  2130 G$AX5043_WAKEUPXOEARLY$0$0 == 0x406e
                           00406E  2131 _AX5043_WAKEUPXOEARLY	=	0x406e
                           004F11  2132 G$AX5043_XTALAMPL$0$0 == 0x4f11
                           004F11  2133 _AX5043_XTALAMPL	=	0x4f11
                           004184  2134 G$AX5043_XTALCAP$0$0 == 0x4184
                           004184  2135 _AX5043_XTALCAP	=	0x4184
                           004F10  2136 G$AX5043_XTALOSC$0$0 == 0x4f10
                           004F10  2137 _AX5043_XTALOSC	=	0x4f10
                           00401D  2138 G$AX5043_XTALSTATUS$0$0 == 0x401d
                           00401D  2139 _AX5043_XTALSTATUS	=	0x401d
                           004F00  2140 G$AX5043_0xF00$0$0 == 0x4f00
                           004F00  2141 _AX5043_0xF00	=	0x4f00
                           004F0C  2142 G$AX5043_0xF0C$0$0 == 0x4f0c
                           004F0C  2143 _AX5043_0xF0C	=	0x4f0c
                           004F18  2144 G$AX5043_0xF18$0$0 == 0x4f18
                           004F18  2145 _AX5043_0xF18	=	0x4f18
                           004F1C  2146 G$AX5043_0xF1C$0$0 == 0x4f1c
                           004F1C  2147 _AX5043_0xF1C	=	0x4f1c
                           004F21  2148 G$AX5043_0xF21$0$0 == 0x4f21
                           004F21  2149 _AX5043_0xF21	=	0x4f21
                           004F22  2150 G$AX5043_0xF22$0$0 == 0x4f22
                           004F22  2151 _AX5043_0xF22	=	0x4f22
                           004F23  2152 G$AX5043_0xF23$0$0 == 0x4f23
                           004F23  2153 _AX5043_0xF23	=	0x4f23
                           004F26  2154 G$AX5043_0xF26$0$0 == 0x4f26
                           004F26  2155 _AX5043_0xF26	=	0x4f26
                           004F30  2156 G$AX5043_0xF30$0$0 == 0x4f30
                           004F30  2157 _AX5043_0xF30	=	0x4f30
                           004F31  2158 G$AX5043_0xF31$0$0 == 0x4f31
                           004F31  2159 _AX5043_0xF31	=	0x4f31
                           004F32  2160 G$AX5043_0xF32$0$0 == 0x4f32
                           004F32  2161 _AX5043_0xF32	=	0x4f32
                           004F33  2162 G$AX5043_0xF33$0$0 == 0x4f33
                           004F33  2163 _AX5043_0xF33	=	0x4f33
                           004F34  2164 G$AX5043_0xF34$0$0 == 0x4f34
                           004F34  2165 _AX5043_0xF34	=	0x4f34
                           004F35  2166 G$AX5043_0xF35$0$0 == 0x4f35
                           004F35  2167 _AX5043_0xF35	=	0x4f35
                           004F44  2168 G$AX5043_0xF44$0$0 == 0x4f44
                           004F44  2169 _AX5043_0xF44	=	0x4f44
                           004122  2170 G$AX5043_AGCAHYST0$0$0 == 0x4122
                           004122  2171 _AX5043_AGCAHYST0	=	0x4122
                           004132  2172 G$AX5043_AGCAHYST1$0$0 == 0x4132
                           004132  2173 _AX5043_AGCAHYST1	=	0x4132
                           004142  2174 G$AX5043_AGCAHYST2$0$0 == 0x4142
                           004142  2175 _AX5043_AGCAHYST2	=	0x4142
                           004152  2176 G$AX5043_AGCAHYST3$0$0 == 0x4152
                           004152  2177 _AX5043_AGCAHYST3	=	0x4152
                           004120  2178 G$AX5043_AGCGAIN0$0$0 == 0x4120
                           004120  2179 _AX5043_AGCGAIN0	=	0x4120
                           004130  2180 G$AX5043_AGCGAIN1$0$0 == 0x4130
                           004130  2181 _AX5043_AGCGAIN1	=	0x4130
                           004140  2182 G$AX5043_AGCGAIN2$0$0 == 0x4140
                           004140  2183 _AX5043_AGCGAIN2	=	0x4140
                           004150  2184 G$AX5043_AGCGAIN3$0$0 == 0x4150
                           004150  2185 _AX5043_AGCGAIN3	=	0x4150
                           004123  2186 G$AX5043_AGCMINMAX0$0$0 == 0x4123
                           004123  2187 _AX5043_AGCMINMAX0	=	0x4123
                           004133  2188 G$AX5043_AGCMINMAX1$0$0 == 0x4133
                           004133  2189 _AX5043_AGCMINMAX1	=	0x4133
                           004143  2190 G$AX5043_AGCMINMAX2$0$0 == 0x4143
                           004143  2191 _AX5043_AGCMINMAX2	=	0x4143
                           004153  2192 G$AX5043_AGCMINMAX3$0$0 == 0x4153
                           004153  2193 _AX5043_AGCMINMAX3	=	0x4153
                           004121  2194 G$AX5043_AGCTARGET0$0$0 == 0x4121
                           004121  2195 _AX5043_AGCTARGET0	=	0x4121
                           004131  2196 G$AX5043_AGCTARGET1$0$0 == 0x4131
                           004131  2197 _AX5043_AGCTARGET1	=	0x4131
                           004141  2198 G$AX5043_AGCTARGET2$0$0 == 0x4141
                           004141  2199 _AX5043_AGCTARGET2	=	0x4141
                           004151  2200 G$AX5043_AGCTARGET3$0$0 == 0x4151
                           004151  2201 _AX5043_AGCTARGET3	=	0x4151
                           00412B  2202 G$AX5043_AMPLITUDEGAIN0$0$0 == 0x412b
                           00412B  2203 _AX5043_AMPLITUDEGAIN0	=	0x412b
                           00413B  2204 G$AX5043_AMPLITUDEGAIN1$0$0 == 0x413b
                           00413B  2205 _AX5043_AMPLITUDEGAIN1	=	0x413b
                           00414B  2206 G$AX5043_AMPLITUDEGAIN2$0$0 == 0x414b
                           00414B  2207 _AX5043_AMPLITUDEGAIN2	=	0x414b
                           00415B  2208 G$AX5043_AMPLITUDEGAIN3$0$0 == 0x415b
                           00415B  2209 _AX5043_AMPLITUDEGAIN3	=	0x415b
                           00412F  2210 G$AX5043_BBOFFSRES0$0$0 == 0x412f
                           00412F  2211 _AX5043_BBOFFSRES0	=	0x412f
                           00413F  2212 G$AX5043_BBOFFSRES1$0$0 == 0x413f
                           00413F  2213 _AX5043_BBOFFSRES1	=	0x413f
                           00414F  2214 G$AX5043_BBOFFSRES2$0$0 == 0x414f
                           00414F  2215 _AX5043_BBOFFSRES2	=	0x414f
                           00415F  2216 G$AX5043_BBOFFSRES3$0$0 == 0x415f
                           00415F  2217 _AX5043_BBOFFSRES3	=	0x415f
                           004125  2218 G$AX5043_DRGAIN0$0$0 == 0x4125
                           004125  2219 _AX5043_DRGAIN0	=	0x4125
                           004135  2220 G$AX5043_DRGAIN1$0$0 == 0x4135
                           004135  2221 _AX5043_DRGAIN1	=	0x4135
                           004145  2222 G$AX5043_DRGAIN2$0$0 == 0x4145
                           004145  2223 _AX5043_DRGAIN2	=	0x4145
                           004155  2224 G$AX5043_DRGAIN3$0$0 == 0x4155
                           004155  2225 _AX5043_DRGAIN3	=	0x4155
                           00412E  2226 G$AX5043_FOURFSK0$0$0 == 0x412e
                           00412E  2227 _AX5043_FOURFSK0	=	0x412e
                           00413E  2228 G$AX5043_FOURFSK1$0$0 == 0x413e
                           00413E  2229 _AX5043_FOURFSK1	=	0x413e
                           00414E  2230 G$AX5043_FOURFSK2$0$0 == 0x414e
                           00414E  2231 _AX5043_FOURFSK2	=	0x414e
                           00415E  2232 G$AX5043_FOURFSK3$0$0 == 0x415e
                           00415E  2233 _AX5043_FOURFSK3	=	0x415e
                           00412D  2234 G$AX5043_FREQDEV00$0$0 == 0x412d
                           00412D  2235 _AX5043_FREQDEV00	=	0x412d
                           00413D  2236 G$AX5043_FREQDEV01$0$0 == 0x413d
                           00413D  2237 _AX5043_FREQDEV01	=	0x413d
                           00414D  2238 G$AX5043_FREQDEV02$0$0 == 0x414d
                           00414D  2239 _AX5043_FREQDEV02	=	0x414d
                           00415D  2240 G$AX5043_FREQDEV03$0$0 == 0x415d
                           00415D  2241 _AX5043_FREQDEV03	=	0x415d
                           00412C  2242 G$AX5043_FREQDEV10$0$0 == 0x412c
                           00412C  2243 _AX5043_FREQDEV10	=	0x412c
                           00413C  2244 G$AX5043_FREQDEV11$0$0 == 0x413c
                           00413C  2245 _AX5043_FREQDEV11	=	0x413c
                           00414C  2246 G$AX5043_FREQDEV12$0$0 == 0x414c
                           00414C  2247 _AX5043_FREQDEV12	=	0x414c
                           00415C  2248 G$AX5043_FREQDEV13$0$0 == 0x415c
                           00415C  2249 _AX5043_FREQDEV13	=	0x415c
                           004127  2250 G$AX5043_FREQUENCYGAINA0$0$0 == 0x4127
                           004127  2251 _AX5043_FREQUENCYGAINA0	=	0x4127
                           004137  2252 G$AX5043_FREQUENCYGAINA1$0$0 == 0x4137
                           004137  2253 _AX5043_FREQUENCYGAINA1	=	0x4137
                           004147  2254 G$AX5043_FREQUENCYGAINA2$0$0 == 0x4147
                           004147  2255 _AX5043_FREQUENCYGAINA2	=	0x4147
                           004157  2256 G$AX5043_FREQUENCYGAINA3$0$0 == 0x4157
                           004157  2257 _AX5043_FREQUENCYGAINA3	=	0x4157
                           004128  2258 G$AX5043_FREQUENCYGAINB0$0$0 == 0x4128
                           004128  2259 _AX5043_FREQUENCYGAINB0	=	0x4128
                           004138  2260 G$AX5043_FREQUENCYGAINB1$0$0 == 0x4138
                           004138  2261 _AX5043_FREQUENCYGAINB1	=	0x4138
                           004148  2262 G$AX5043_FREQUENCYGAINB2$0$0 == 0x4148
                           004148  2263 _AX5043_FREQUENCYGAINB2	=	0x4148
                           004158  2264 G$AX5043_FREQUENCYGAINB3$0$0 == 0x4158
                           004158  2265 _AX5043_FREQUENCYGAINB3	=	0x4158
                           004129  2266 G$AX5043_FREQUENCYGAINC0$0$0 == 0x4129
                           004129  2267 _AX5043_FREQUENCYGAINC0	=	0x4129
                           004139  2268 G$AX5043_FREQUENCYGAINC1$0$0 == 0x4139
                           004139  2269 _AX5043_FREQUENCYGAINC1	=	0x4139
                           004149  2270 G$AX5043_FREQUENCYGAINC2$0$0 == 0x4149
                           004149  2271 _AX5043_FREQUENCYGAINC2	=	0x4149
                           004159  2272 G$AX5043_FREQUENCYGAINC3$0$0 == 0x4159
                           004159  2273 _AX5043_FREQUENCYGAINC3	=	0x4159
                           00412A  2274 G$AX5043_FREQUENCYGAIND0$0$0 == 0x412a
                           00412A  2275 _AX5043_FREQUENCYGAIND0	=	0x412a
                           00413A  2276 G$AX5043_FREQUENCYGAIND1$0$0 == 0x413a
                           00413A  2277 _AX5043_FREQUENCYGAIND1	=	0x413a
                           00414A  2278 G$AX5043_FREQUENCYGAIND2$0$0 == 0x414a
                           00414A  2279 _AX5043_FREQUENCYGAIND2	=	0x414a
                           00415A  2280 G$AX5043_FREQUENCYGAIND3$0$0 == 0x415a
                           00415A  2281 _AX5043_FREQUENCYGAIND3	=	0x415a
                           004116  2282 G$AX5043_FREQUENCYLEAK$0$0 == 0x4116
                           004116  2283 _AX5043_FREQUENCYLEAK	=	0x4116
                           004126  2284 G$AX5043_PHASEGAIN0$0$0 == 0x4126
                           004126  2285 _AX5043_PHASEGAIN0	=	0x4126
                           004136  2286 G$AX5043_PHASEGAIN1$0$0 == 0x4136
                           004136  2287 _AX5043_PHASEGAIN1	=	0x4136
                           004146  2288 G$AX5043_PHASEGAIN2$0$0 == 0x4146
                           004146  2289 _AX5043_PHASEGAIN2	=	0x4146
                           004156  2290 G$AX5043_PHASEGAIN3$0$0 == 0x4156
                           004156  2291 _AX5043_PHASEGAIN3	=	0x4156
                           004207  2292 G$AX5043_PKTADDR0$0$0 == 0x4207
                           004207  2293 _AX5043_PKTADDR0	=	0x4207
                           004206  2294 G$AX5043_PKTADDR1$0$0 == 0x4206
                           004206  2295 _AX5043_PKTADDR1	=	0x4206
                           004205  2296 G$AX5043_PKTADDR2$0$0 == 0x4205
                           004205  2297 _AX5043_PKTADDR2	=	0x4205
                           004204  2298 G$AX5043_PKTADDR3$0$0 == 0x4204
                           004204  2299 _AX5043_PKTADDR3	=	0x4204
                           004200  2300 G$AX5043_PKTADDRCFG$0$0 == 0x4200
                           004200  2301 _AX5043_PKTADDRCFG	=	0x4200
                           00420B  2302 G$AX5043_PKTADDRMASK0$0$0 == 0x420b
                           00420B  2303 _AX5043_PKTADDRMASK0	=	0x420b
                           00420A  2304 G$AX5043_PKTADDRMASK1$0$0 == 0x420a
                           00420A  2305 _AX5043_PKTADDRMASK1	=	0x420a
                           004209  2306 G$AX5043_PKTADDRMASK2$0$0 == 0x4209
                           004209  2307 _AX5043_PKTADDRMASK2	=	0x4209
                           004208  2308 G$AX5043_PKTADDRMASK3$0$0 == 0x4208
                           004208  2309 _AX5043_PKTADDRMASK3	=	0x4208
                           004201  2310 G$AX5043_PKTLENCFG$0$0 == 0x4201
                           004201  2311 _AX5043_PKTLENCFG	=	0x4201
                           004202  2312 G$AX5043_PKTLENOFFSET$0$0 == 0x4202
                           004202  2313 _AX5043_PKTLENOFFSET	=	0x4202
                           004203  2314 G$AX5043_PKTMAXLEN$0$0 == 0x4203
                           004203  2315 _AX5043_PKTMAXLEN	=	0x4203
                           004118  2316 G$AX5043_RXPARAMCURSET$0$0 == 0x4118
                           004118  2317 _AX5043_RXPARAMCURSET	=	0x4118
                           004117  2318 G$AX5043_RXPARAMSETS$0$0 == 0x4117
                           004117  2319 _AX5043_RXPARAMSETS	=	0x4117
                           004124  2320 G$AX5043_TIMEGAIN0$0$0 == 0x4124
                           004124  2321 _AX5043_TIMEGAIN0	=	0x4124
                           004134  2322 G$AX5043_TIMEGAIN1$0$0 == 0x4134
                           004134  2323 _AX5043_TIMEGAIN1	=	0x4134
                           004144  2324 G$AX5043_TIMEGAIN2$0$0 == 0x4144
                           004144  2325 _AX5043_TIMEGAIN2	=	0x4144
                           004154  2326 G$AX5043_TIMEGAIN3$0$0 == 0x4154
                           004154  2327 _AX5043_TIMEGAIN3	=	0x4154
                           005114  2328 G$AX5043_AFSKCTRLNB$0$0 == 0x5114
                           005114  2329 _AX5043_AFSKCTRLNB	=	0x5114
                           005113  2330 G$AX5043_AFSKMARK0NB$0$0 == 0x5113
                           005113  2331 _AX5043_AFSKMARK0NB	=	0x5113
                           005112  2332 G$AX5043_AFSKMARK1NB$0$0 == 0x5112
                           005112  2333 _AX5043_AFSKMARK1NB	=	0x5112
                           005111  2334 G$AX5043_AFSKSPACE0NB$0$0 == 0x5111
                           005111  2335 _AX5043_AFSKSPACE0NB	=	0x5111
                           005110  2336 G$AX5043_AFSKSPACE1NB$0$0 == 0x5110
                           005110  2337 _AX5043_AFSKSPACE1NB	=	0x5110
                           005043  2338 G$AX5043_AGCCOUNTERNB$0$0 == 0x5043
                           005043  2339 _AX5043_AGCCOUNTERNB	=	0x5043
                           005115  2340 G$AX5043_AMPLFILTERNB$0$0 == 0x5115
                           005115  2341 _AX5043_AMPLFILTERNB	=	0x5115
                           005189  2342 G$AX5043_BBOFFSCAPNB$0$0 == 0x5189
                           005189  2343 _AX5043_BBOFFSCAPNB	=	0x5189
                           005188  2344 G$AX5043_BBTUNENB$0$0 == 0x5188
                           005188  2345 _AX5043_BBTUNENB	=	0x5188
                           005041  2346 G$AX5043_BGNDRSSINB$0$0 == 0x5041
                           005041  2347 _AX5043_BGNDRSSINB	=	0x5041
                           00522E  2348 G$AX5043_BGNDRSSIGAINNB$0$0 == 0x522e
                           00522E  2349 _AX5043_BGNDRSSIGAINNB	=	0x522e
                           00522F  2350 G$AX5043_BGNDRSSITHRNB$0$0 == 0x522f
                           00522F  2351 _AX5043_BGNDRSSITHRNB	=	0x522f
                           005017  2352 G$AX5043_CRCINIT0NB$0$0 == 0x5017
                           005017  2353 _AX5043_CRCINIT0NB	=	0x5017
                           005016  2354 G$AX5043_CRCINIT1NB$0$0 == 0x5016
                           005016  2355 _AX5043_CRCINIT1NB	=	0x5016
                           005015  2356 G$AX5043_CRCINIT2NB$0$0 == 0x5015
                           005015  2357 _AX5043_CRCINIT2NB	=	0x5015
                           005014  2358 G$AX5043_CRCINIT3NB$0$0 == 0x5014
                           005014  2359 _AX5043_CRCINIT3NB	=	0x5014
                           005332  2360 G$AX5043_DACCONFIGNB$0$0 == 0x5332
                           005332  2361 _AX5043_DACCONFIGNB	=	0x5332
                           005331  2362 G$AX5043_DACVALUE0NB$0$0 == 0x5331
                           005331  2363 _AX5043_DACVALUE0NB	=	0x5331
                           005330  2364 G$AX5043_DACVALUE1NB$0$0 == 0x5330
                           005330  2365 _AX5043_DACVALUE1NB	=	0x5330
                           005102  2366 G$AX5043_DECIMATIONNB$0$0 == 0x5102
                           005102  2367 _AX5043_DECIMATIONNB	=	0x5102
                           005042  2368 G$AX5043_DIVERSITYNB$0$0 == 0x5042
                           005042  2369 _AX5043_DIVERSITYNB	=	0x5042
                           005011  2370 G$AX5043_ENCODINGNB$0$0 == 0x5011
                           005011  2371 _AX5043_ENCODINGNB	=	0x5011
                           005018  2372 G$AX5043_FECNB$0$0 == 0x5018
                           005018  2373 _AX5043_FECNB	=	0x5018
                           00501A  2374 G$AX5043_FECSTATUSNB$0$0 == 0x501a
                           00501A  2375 _AX5043_FECSTATUSNB	=	0x501a
                           005019  2376 G$AX5043_FECSYNCNB$0$0 == 0x5019
                           005019  2377 _AX5043_FECSYNCNB	=	0x5019
                           00502B  2378 G$AX5043_FIFOCOUNT0NB$0$0 == 0x502b
                           00502B  2379 _AX5043_FIFOCOUNT0NB	=	0x502b
                           00502A  2380 G$AX5043_FIFOCOUNT1NB$0$0 == 0x502a
                           00502A  2381 _AX5043_FIFOCOUNT1NB	=	0x502a
                           005029  2382 G$AX5043_FIFODATANB$0$0 == 0x5029
                           005029  2383 _AX5043_FIFODATANB	=	0x5029
                           00502D  2384 G$AX5043_FIFOFREE0NB$0$0 == 0x502d
                           00502D  2385 _AX5043_FIFOFREE0NB	=	0x502d
                           00502C  2386 G$AX5043_FIFOFREE1NB$0$0 == 0x502c
                           00502C  2387 _AX5043_FIFOFREE1NB	=	0x502c
                           005028  2388 G$AX5043_FIFOSTATNB$0$0 == 0x5028
                           005028  2389 _AX5043_FIFOSTATNB	=	0x5028
                           00502F  2390 G$AX5043_FIFOTHRESH0NB$0$0 == 0x502f
                           00502F  2391 _AX5043_FIFOTHRESH0NB	=	0x502f
                           00502E  2392 G$AX5043_FIFOTHRESH1NB$0$0 == 0x502e
                           00502E  2393 _AX5043_FIFOTHRESH1NB	=	0x502e
                           005012  2394 G$AX5043_FRAMINGNB$0$0 == 0x5012
                           005012  2395 _AX5043_FRAMINGNB	=	0x5012
                           005037  2396 G$AX5043_FREQA0NB$0$0 == 0x5037
                           005037  2397 _AX5043_FREQA0NB	=	0x5037
                           005036  2398 G$AX5043_FREQA1NB$0$0 == 0x5036
                           005036  2399 _AX5043_FREQA1NB	=	0x5036
                           005035  2400 G$AX5043_FREQA2NB$0$0 == 0x5035
                           005035  2401 _AX5043_FREQA2NB	=	0x5035
                           005034  2402 G$AX5043_FREQA3NB$0$0 == 0x5034
                           005034  2403 _AX5043_FREQA3NB	=	0x5034
                           00503F  2404 G$AX5043_FREQB0NB$0$0 == 0x503f
                           00503F  2405 _AX5043_FREQB0NB	=	0x503f
                           00503E  2406 G$AX5043_FREQB1NB$0$0 == 0x503e
                           00503E  2407 _AX5043_FREQB1NB	=	0x503e
                           00503D  2408 G$AX5043_FREQB2NB$0$0 == 0x503d
                           00503D  2409 _AX5043_FREQB2NB	=	0x503d
                           00503C  2410 G$AX5043_FREQB3NB$0$0 == 0x503c
                           00503C  2411 _AX5043_FREQB3NB	=	0x503c
                           005163  2412 G$AX5043_FSKDEV0NB$0$0 == 0x5163
                           005163  2413 _AX5043_FSKDEV0NB	=	0x5163
                           005162  2414 G$AX5043_FSKDEV1NB$0$0 == 0x5162
                           005162  2415 _AX5043_FSKDEV1NB	=	0x5162
                           005161  2416 G$AX5043_FSKDEV2NB$0$0 == 0x5161
                           005161  2417 _AX5043_FSKDEV2NB	=	0x5161
                           00510D  2418 G$AX5043_FSKDMAX0NB$0$0 == 0x510d
                           00510D  2419 _AX5043_FSKDMAX0NB	=	0x510d
                           00510C  2420 G$AX5043_FSKDMAX1NB$0$0 == 0x510c
                           00510C  2421 _AX5043_FSKDMAX1NB	=	0x510c
                           00510F  2422 G$AX5043_FSKDMIN0NB$0$0 == 0x510f
                           00510F  2423 _AX5043_FSKDMIN0NB	=	0x510f
                           00510E  2424 G$AX5043_FSKDMIN1NB$0$0 == 0x510e
                           00510E  2425 _AX5043_FSKDMIN1NB	=	0x510e
                           005309  2426 G$AX5043_GPADC13VALUE0NB$0$0 == 0x5309
                           005309  2427 _AX5043_GPADC13VALUE0NB	=	0x5309
                           005308  2428 G$AX5043_GPADC13VALUE1NB$0$0 == 0x5308
                           005308  2429 _AX5043_GPADC13VALUE1NB	=	0x5308
                           005300  2430 G$AX5043_GPADCCTRLNB$0$0 == 0x5300
                           005300  2431 _AX5043_GPADCCTRLNB	=	0x5300
                           005301  2432 G$AX5043_GPADCPERIODNB$0$0 == 0x5301
                           005301  2433 _AX5043_GPADCPERIODNB	=	0x5301
                           005101  2434 G$AX5043_IFFREQ0NB$0$0 == 0x5101
                           005101  2435 _AX5043_IFFREQ0NB	=	0x5101
                           005100  2436 G$AX5043_IFFREQ1NB$0$0 == 0x5100
                           005100  2437 _AX5043_IFFREQ1NB	=	0x5100
                           00500B  2438 G$AX5043_IRQINVERSION0NB$0$0 == 0x500b
                           00500B  2439 _AX5043_IRQINVERSION0NB	=	0x500b
                           00500A  2440 G$AX5043_IRQINVERSION1NB$0$0 == 0x500a
                           00500A  2441 _AX5043_IRQINVERSION1NB	=	0x500a
                           005007  2442 G$AX5043_IRQMASK0NB$0$0 == 0x5007
                           005007  2443 _AX5043_IRQMASK0NB	=	0x5007
                           005006  2444 G$AX5043_IRQMASK1NB$0$0 == 0x5006
                           005006  2445 _AX5043_IRQMASK1NB	=	0x5006
                           00500D  2446 G$AX5043_IRQREQUEST0NB$0$0 == 0x500d
                           00500D  2447 _AX5043_IRQREQUEST0NB	=	0x500d
                           00500C  2448 G$AX5043_IRQREQUEST1NB$0$0 == 0x500c
                           00500C  2449 _AX5043_IRQREQUEST1NB	=	0x500c
                           005310  2450 G$AX5043_LPOSCCONFIGNB$0$0 == 0x5310
                           005310  2451 _AX5043_LPOSCCONFIGNB	=	0x5310
                           005317  2452 G$AX5043_LPOSCFREQ0NB$0$0 == 0x5317
                           005317  2453 _AX5043_LPOSCFREQ0NB	=	0x5317
                           005316  2454 G$AX5043_LPOSCFREQ1NB$0$0 == 0x5316
                           005316  2455 _AX5043_LPOSCFREQ1NB	=	0x5316
                           005313  2456 G$AX5043_LPOSCKFILT0NB$0$0 == 0x5313
                           005313  2457 _AX5043_LPOSCKFILT0NB	=	0x5313
                           005312  2458 G$AX5043_LPOSCKFILT1NB$0$0 == 0x5312
                           005312  2459 _AX5043_LPOSCKFILT1NB	=	0x5312
                           005319  2460 G$AX5043_LPOSCPER0NB$0$0 == 0x5319
                           005319  2461 _AX5043_LPOSCPER0NB	=	0x5319
                           005318  2462 G$AX5043_LPOSCPER1NB$0$0 == 0x5318
                           005318  2463 _AX5043_LPOSCPER1NB	=	0x5318
                           005315  2464 G$AX5043_LPOSCREF0NB$0$0 == 0x5315
                           005315  2465 _AX5043_LPOSCREF0NB	=	0x5315
                           005314  2466 G$AX5043_LPOSCREF1NB$0$0 == 0x5314
                           005314  2467 _AX5043_LPOSCREF1NB	=	0x5314
                           005311  2468 G$AX5043_LPOSCSTATUSNB$0$0 == 0x5311
                           005311  2469 _AX5043_LPOSCSTATUSNB	=	0x5311
                           005214  2470 G$AX5043_MATCH0LENNB$0$0 == 0x5214
                           005214  2471 _AX5043_MATCH0LENNB	=	0x5214
                           005216  2472 G$AX5043_MATCH0MAXNB$0$0 == 0x5216
                           005216  2473 _AX5043_MATCH0MAXNB	=	0x5216
                           005215  2474 G$AX5043_MATCH0MINNB$0$0 == 0x5215
                           005215  2475 _AX5043_MATCH0MINNB	=	0x5215
                           005213  2476 G$AX5043_MATCH0PAT0NB$0$0 == 0x5213
                           005213  2477 _AX5043_MATCH0PAT0NB	=	0x5213
                           005212  2478 G$AX5043_MATCH0PAT1NB$0$0 == 0x5212
                           005212  2479 _AX5043_MATCH0PAT1NB	=	0x5212
                           005211  2480 G$AX5043_MATCH0PAT2NB$0$0 == 0x5211
                           005211  2481 _AX5043_MATCH0PAT2NB	=	0x5211
                           005210  2482 G$AX5043_MATCH0PAT3NB$0$0 == 0x5210
                           005210  2483 _AX5043_MATCH0PAT3NB	=	0x5210
                           00521C  2484 G$AX5043_MATCH1LENNB$0$0 == 0x521c
                           00521C  2485 _AX5043_MATCH1LENNB	=	0x521c
                           00521E  2486 G$AX5043_MATCH1MAXNB$0$0 == 0x521e
                           00521E  2487 _AX5043_MATCH1MAXNB	=	0x521e
                           00521D  2488 G$AX5043_MATCH1MINNB$0$0 == 0x521d
                           00521D  2489 _AX5043_MATCH1MINNB	=	0x521d
                           005219  2490 G$AX5043_MATCH1PAT0NB$0$0 == 0x5219
                           005219  2491 _AX5043_MATCH1PAT0NB	=	0x5219
                           005218  2492 G$AX5043_MATCH1PAT1NB$0$0 == 0x5218
                           005218  2493 _AX5043_MATCH1PAT1NB	=	0x5218
                           005108  2494 G$AX5043_MAXDROFFSET0NB$0$0 == 0x5108
                           005108  2495 _AX5043_MAXDROFFSET0NB	=	0x5108
                           005107  2496 G$AX5043_MAXDROFFSET1NB$0$0 == 0x5107
                           005107  2497 _AX5043_MAXDROFFSET1NB	=	0x5107
                           005106  2498 G$AX5043_MAXDROFFSET2NB$0$0 == 0x5106
                           005106  2499 _AX5043_MAXDROFFSET2NB	=	0x5106
                           00510B  2500 G$AX5043_MAXRFOFFSET0NB$0$0 == 0x510b
                           00510B  2501 _AX5043_MAXRFOFFSET0NB	=	0x510b
                           00510A  2502 G$AX5043_MAXRFOFFSET1NB$0$0 == 0x510a
                           00510A  2503 _AX5043_MAXRFOFFSET1NB	=	0x510a
                           005109  2504 G$AX5043_MAXRFOFFSET2NB$0$0 == 0x5109
                           005109  2505 _AX5043_MAXRFOFFSET2NB	=	0x5109
                           005164  2506 G$AX5043_MODCFGANB$0$0 == 0x5164
                           005164  2507 _AX5043_MODCFGANB	=	0x5164
                           005160  2508 G$AX5043_MODCFGFNB$0$0 == 0x5160
                           005160  2509 _AX5043_MODCFGFNB	=	0x5160
                           005F5F  2510 G$AX5043_MODCFGPNB$0$0 == 0x5f5f
                           005F5F  2511 _AX5043_MODCFGPNB	=	0x5f5f
                           005010  2512 G$AX5043_MODULATIONNB$0$0 == 0x5010
                           005010  2513 _AX5043_MODULATIONNB	=	0x5010
                           005025  2514 G$AX5043_PINFUNCANTSELNB$0$0 == 0x5025
                           005025  2515 _AX5043_PINFUNCANTSELNB	=	0x5025
                           005023  2516 G$AX5043_PINFUNCDATANB$0$0 == 0x5023
                           005023  2517 _AX5043_PINFUNCDATANB	=	0x5023
                           005022  2518 G$AX5043_PINFUNCDCLKNB$0$0 == 0x5022
                           005022  2519 _AX5043_PINFUNCDCLKNB	=	0x5022
                           005024  2520 G$AX5043_PINFUNCIRQNB$0$0 == 0x5024
                           005024  2521 _AX5043_PINFUNCIRQNB	=	0x5024
                           005026  2522 G$AX5043_PINFUNCPWRAMPNB$0$0 == 0x5026
                           005026  2523 _AX5043_PINFUNCPWRAMPNB	=	0x5026
                           005021  2524 G$AX5043_PINFUNCSYSCLKNB$0$0 == 0x5021
                           005021  2525 _AX5043_PINFUNCSYSCLKNB	=	0x5021
                           005020  2526 G$AX5043_PINSTATENB$0$0 == 0x5020
                           005020  2527 _AX5043_PINSTATENB	=	0x5020
                           005233  2528 G$AX5043_PKTACCEPTFLAGSNB$0$0 == 0x5233
                           005233  2529 _AX5043_PKTACCEPTFLAGSNB	=	0x5233
                           005230  2530 G$AX5043_PKTCHUNKSIZENB$0$0 == 0x5230
                           005230  2531 _AX5043_PKTCHUNKSIZENB	=	0x5230
                           005231  2532 G$AX5043_PKTMISCFLAGSNB$0$0 == 0x5231
                           005231  2533 _AX5043_PKTMISCFLAGSNB	=	0x5231
                           005232  2534 G$AX5043_PKTSTOREFLAGSNB$0$0 == 0x5232
                           005232  2535 _AX5043_PKTSTOREFLAGSNB	=	0x5232
                           005031  2536 G$AX5043_PLLCPINB$0$0 == 0x5031
                           005031  2537 _AX5043_PLLCPINB	=	0x5031
                           005039  2538 G$AX5043_PLLCPIBOOSTNB$0$0 == 0x5039
                           005039  2539 _AX5043_PLLCPIBOOSTNB	=	0x5039
                           005182  2540 G$AX5043_PLLLOCKDETNB$0$0 == 0x5182
                           005182  2541 _AX5043_PLLLOCKDETNB	=	0x5182
                           005030  2542 G$AX5043_PLLLOOPNB$0$0 == 0x5030
                           005030  2543 _AX5043_PLLLOOPNB	=	0x5030
                           005038  2544 G$AX5043_PLLLOOPBOOSTNB$0$0 == 0x5038
                           005038  2545 _AX5043_PLLLOOPBOOSTNB	=	0x5038
                           005033  2546 G$AX5043_PLLRANGINGANB$0$0 == 0x5033
                           005033  2547 _AX5043_PLLRANGINGANB	=	0x5033
                           00503B  2548 G$AX5043_PLLRANGINGBNB$0$0 == 0x503b
                           00503B  2549 _AX5043_PLLRANGINGBNB	=	0x503b
                           005183  2550 G$AX5043_PLLRNGCLKNB$0$0 == 0x5183
                           005183  2551 _AX5043_PLLRNGCLKNB	=	0x5183
                           005032  2552 G$AX5043_PLLVCODIVNB$0$0 == 0x5032
                           005032  2553 _AX5043_PLLVCODIVNB	=	0x5032
                           005180  2554 G$AX5043_PLLVCOINB$0$0 == 0x5180
                           005180  2555 _AX5043_PLLVCOINB	=	0x5180
                           005181  2556 G$AX5043_PLLVCOIRNB$0$0 == 0x5181
                           005181  2557 _AX5043_PLLVCOIRNB	=	0x5181
                           005F08  2558 G$AX5043_POWCTRL1NB$0$0 == 0x5f08
                           005F08  2559 _AX5043_POWCTRL1NB	=	0x5f08
                           005005  2560 G$AX5043_POWIRQMASKNB$0$0 == 0x5005
                           005005  2561 _AX5043_POWIRQMASKNB	=	0x5005
                           005003  2562 G$AX5043_POWSTATNB$0$0 == 0x5003
                           005003  2563 _AX5043_POWSTATNB	=	0x5003
                           005004  2564 G$AX5043_POWSTICKYSTATNB$0$0 == 0x5004
                           005004  2565 _AX5043_POWSTICKYSTATNB	=	0x5004
                           005027  2566 G$AX5043_PWRAMPNB$0$0 == 0x5027
                           005027  2567 _AX5043_PWRAMPNB	=	0x5027
                           005002  2568 G$AX5043_PWRMODENB$0$0 == 0x5002
                           005002  2569 _AX5043_PWRMODENB	=	0x5002
                           005009  2570 G$AX5043_RADIOEVENTMASK0NB$0$0 == 0x5009
                           005009  2571 _AX5043_RADIOEVENTMASK0NB	=	0x5009
                           005008  2572 G$AX5043_RADIOEVENTMASK1NB$0$0 == 0x5008
                           005008  2573 _AX5043_RADIOEVENTMASK1NB	=	0x5008
                           00500F  2574 G$AX5043_RADIOEVENTREQ0NB$0$0 == 0x500f
                           00500F  2575 _AX5043_RADIOEVENTREQ0NB	=	0x500f
                           00500E  2576 G$AX5043_RADIOEVENTREQ1NB$0$0 == 0x500e
                           00500E  2577 _AX5043_RADIOEVENTREQ1NB	=	0x500e
                           00501C  2578 G$AX5043_RADIOSTATENB$0$0 == 0x501c
                           00501C  2579 _AX5043_RADIOSTATENB	=	0x501c
                           005F0D  2580 G$AX5043_REFNB$0$0 == 0x5f0d
                           005F0D  2581 _AX5043_REFNB	=	0x5f0d
                           005040  2582 G$AX5043_RSSINB$0$0 == 0x5040
                           005040  2583 _AX5043_RSSINB	=	0x5040
                           00522D  2584 G$AX5043_RSSIABSTHRNB$0$0 == 0x522d
                           00522D  2585 _AX5043_RSSIABSTHRNB	=	0x522d
                           00522C  2586 G$AX5043_RSSIREFERENCENB$0$0 == 0x522c
                           00522C  2587 _AX5043_RSSIREFERENCENB	=	0x522c
                           005105  2588 G$AX5043_RXDATARATE0NB$0$0 == 0x5105
                           005105  2589 _AX5043_RXDATARATE0NB	=	0x5105
                           005104  2590 G$AX5043_RXDATARATE1NB$0$0 == 0x5104
                           005104  2591 _AX5043_RXDATARATE1NB	=	0x5104
                           005103  2592 G$AX5043_RXDATARATE2NB$0$0 == 0x5103
                           005103  2593 _AX5043_RXDATARATE2NB	=	0x5103
                           005001  2594 G$AX5043_SCRATCHNB$0$0 == 0x5001
                           005001  2595 _AX5043_SCRATCHNB	=	0x5001
                           005000  2596 G$AX5043_SILICONREVISIONNB$0$0 == 0x5000
                           005000  2597 _AX5043_SILICONREVISIONNB	=	0x5000
                           00505B  2598 G$AX5043_TIMER0NB$0$0 == 0x505b
                           00505B  2599 _AX5043_TIMER0NB	=	0x505b
                           00505A  2600 G$AX5043_TIMER1NB$0$0 == 0x505a
                           00505A  2601 _AX5043_TIMER1NB	=	0x505a
                           005059  2602 G$AX5043_TIMER2NB$0$0 == 0x5059
                           005059  2603 _AX5043_TIMER2NB	=	0x5059
                           005227  2604 G$AX5043_TMGRXAGCNB$0$0 == 0x5227
                           005227  2605 _AX5043_TMGRXAGCNB	=	0x5227
                           005223  2606 G$AX5043_TMGRXBOOSTNB$0$0 == 0x5223
                           005223  2607 _AX5043_TMGRXBOOSTNB	=	0x5223
                           005226  2608 G$AX5043_TMGRXCOARSEAGCNB$0$0 == 0x5226
                           005226  2609 _AX5043_TMGRXCOARSEAGCNB	=	0x5226
                           005225  2610 G$AX5043_TMGRXOFFSACQNB$0$0 == 0x5225
                           005225  2611 _AX5043_TMGRXOFFSACQNB	=	0x5225
                           005229  2612 G$AX5043_TMGRXPREAMBLE1NB$0$0 == 0x5229
                           005229  2613 _AX5043_TMGRXPREAMBLE1NB	=	0x5229
                           00522A  2614 G$AX5043_TMGRXPREAMBLE2NB$0$0 == 0x522a
                           00522A  2615 _AX5043_TMGRXPREAMBLE2NB	=	0x522a
                           00522B  2616 G$AX5043_TMGRXPREAMBLE3NB$0$0 == 0x522b
                           00522B  2617 _AX5043_TMGRXPREAMBLE3NB	=	0x522b
                           005228  2618 G$AX5043_TMGRXRSSINB$0$0 == 0x5228
                           005228  2619 _AX5043_TMGRXRSSINB	=	0x5228
                           005224  2620 G$AX5043_TMGRXSETTLENB$0$0 == 0x5224
                           005224  2621 _AX5043_TMGRXSETTLENB	=	0x5224
                           005220  2622 G$AX5043_TMGTXBOOSTNB$0$0 == 0x5220
                           005220  2623 _AX5043_TMGTXBOOSTNB	=	0x5220
                           005221  2624 G$AX5043_TMGTXSETTLENB$0$0 == 0x5221
                           005221  2625 _AX5043_TMGTXSETTLENB	=	0x5221
                           005055  2626 G$AX5043_TRKAFSKDEMOD0NB$0$0 == 0x5055
                           005055  2627 _AX5043_TRKAFSKDEMOD0NB	=	0x5055
                           005054  2628 G$AX5043_TRKAFSKDEMOD1NB$0$0 == 0x5054
                           005054  2629 _AX5043_TRKAFSKDEMOD1NB	=	0x5054
                           005049  2630 G$AX5043_TRKAMPLITUDE0NB$0$0 == 0x5049
                           005049  2631 _AX5043_TRKAMPLITUDE0NB	=	0x5049
                           005048  2632 G$AX5043_TRKAMPLITUDE1NB$0$0 == 0x5048
                           005048  2633 _AX5043_TRKAMPLITUDE1NB	=	0x5048
                           005047  2634 G$AX5043_TRKDATARATE0NB$0$0 == 0x5047
                           005047  2635 _AX5043_TRKDATARATE0NB	=	0x5047
                           005046  2636 G$AX5043_TRKDATARATE1NB$0$0 == 0x5046
                           005046  2637 _AX5043_TRKDATARATE1NB	=	0x5046
                           005045  2638 G$AX5043_TRKDATARATE2NB$0$0 == 0x5045
                           005045  2639 _AX5043_TRKDATARATE2NB	=	0x5045
                           005051  2640 G$AX5043_TRKFREQ0NB$0$0 == 0x5051
                           005051  2641 _AX5043_TRKFREQ0NB	=	0x5051
                           005050  2642 G$AX5043_TRKFREQ1NB$0$0 == 0x5050
                           005050  2643 _AX5043_TRKFREQ1NB	=	0x5050
                           005053  2644 G$AX5043_TRKFSKDEMOD0NB$0$0 == 0x5053
                           005053  2645 _AX5043_TRKFSKDEMOD0NB	=	0x5053
                           005052  2646 G$AX5043_TRKFSKDEMOD1NB$0$0 == 0x5052
                           005052  2647 _AX5043_TRKFSKDEMOD1NB	=	0x5052
                           00504B  2648 G$AX5043_TRKPHASE0NB$0$0 == 0x504b
                           00504B  2649 _AX5043_TRKPHASE0NB	=	0x504b
                           00504A  2650 G$AX5043_TRKPHASE1NB$0$0 == 0x504a
                           00504A  2651 _AX5043_TRKPHASE1NB	=	0x504a
                           00504F  2652 G$AX5043_TRKRFFREQ0NB$0$0 == 0x504f
                           00504F  2653 _AX5043_TRKRFFREQ0NB	=	0x504f
                           00504E  2654 G$AX5043_TRKRFFREQ1NB$0$0 == 0x504e
                           00504E  2655 _AX5043_TRKRFFREQ1NB	=	0x504e
                           00504D  2656 G$AX5043_TRKRFFREQ2NB$0$0 == 0x504d
                           00504D  2657 _AX5043_TRKRFFREQ2NB	=	0x504d
                           005169  2658 G$AX5043_TXPWRCOEFFA0NB$0$0 == 0x5169
                           005169  2659 _AX5043_TXPWRCOEFFA0NB	=	0x5169
                           005168  2660 G$AX5043_TXPWRCOEFFA1NB$0$0 == 0x5168
                           005168  2661 _AX5043_TXPWRCOEFFA1NB	=	0x5168
                           00516B  2662 G$AX5043_TXPWRCOEFFB0NB$0$0 == 0x516b
                           00516B  2663 _AX5043_TXPWRCOEFFB0NB	=	0x516b
                           00516A  2664 G$AX5043_TXPWRCOEFFB1NB$0$0 == 0x516a
                           00516A  2665 _AX5043_TXPWRCOEFFB1NB	=	0x516a
                           00516D  2666 G$AX5043_TXPWRCOEFFC0NB$0$0 == 0x516d
                           00516D  2667 _AX5043_TXPWRCOEFFC0NB	=	0x516d
                           00516C  2668 G$AX5043_TXPWRCOEFFC1NB$0$0 == 0x516c
                           00516C  2669 _AX5043_TXPWRCOEFFC1NB	=	0x516c
                           00516F  2670 G$AX5043_TXPWRCOEFFD0NB$0$0 == 0x516f
                           00516F  2671 _AX5043_TXPWRCOEFFD0NB	=	0x516f
                           00516E  2672 G$AX5043_TXPWRCOEFFD1NB$0$0 == 0x516e
                           00516E  2673 _AX5043_TXPWRCOEFFD1NB	=	0x516e
                           005171  2674 G$AX5043_TXPWRCOEFFE0NB$0$0 == 0x5171
                           005171  2675 _AX5043_TXPWRCOEFFE0NB	=	0x5171
                           005170  2676 G$AX5043_TXPWRCOEFFE1NB$0$0 == 0x5170
                           005170  2677 _AX5043_TXPWRCOEFFE1NB	=	0x5170
                           005167  2678 G$AX5043_TXRATE0NB$0$0 == 0x5167
                           005167  2679 _AX5043_TXRATE0NB	=	0x5167
                           005166  2680 G$AX5043_TXRATE1NB$0$0 == 0x5166
                           005166  2681 _AX5043_TXRATE1NB	=	0x5166
                           005165  2682 G$AX5043_TXRATE2NB$0$0 == 0x5165
                           005165  2683 _AX5043_TXRATE2NB	=	0x5165
                           00506B  2684 G$AX5043_WAKEUP0NB$0$0 == 0x506b
                           00506B  2685 _AX5043_WAKEUP0NB	=	0x506b
                           00506A  2686 G$AX5043_WAKEUP1NB$0$0 == 0x506a
                           00506A  2687 _AX5043_WAKEUP1NB	=	0x506a
                           00506D  2688 G$AX5043_WAKEUPFREQ0NB$0$0 == 0x506d
                           00506D  2689 _AX5043_WAKEUPFREQ0NB	=	0x506d
                           00506C  2690 G$AX5043_WAKEUPFREQ1NB$0$0 == 0x506c
                           00506C  2691 _AX5043_WAKEUPFREQ1NB	=	0x506c
                           005069  2692 G$AX5043_WAKEUPTIMER0NB$0$0 == 0x5069
                           005069  2693 _AX5043_WAKEUPTIMER0NB	=	0x5069
                           005068  2694 G$AX5043_WAKEUPTIMER1NB$0$0 == 0x5068
                           005068  2695 _AX5043_WAKEUPTIMER1NB	=	0x5068
                           00506E  2696 G$AX5043_WAKEUPXOEARLYNB$0$0 == 0x506e
                           00506E  2697 _AX5043_WAKEUPXOEARLYNB	=	0x506e
                           005F11  2698 G$AX5043_XTALAMPLNB$0$0 == 0x5f11
                           005F11  2699 _AX5043_XTALAMPLNB	=	0x5f11
                           005184  2700 G$AX5043_XTALCAPNB$0$0 == 0x5184
                           005184  2701 _AX5043_XTALCAPNB	=	0x5184
                           005F10  2702 G$AX5043_XTALOSCNB$0$0 == 0x5f10
                           005F10  2703 _AX5043_XTALOSCNB	=	0x5f10
                           00501D  2704 G$AX5043_XTALSTATUSNB$0$0 == 0x501d
                           00501D  2705 _AX5043_XTALSTATUSNB	=	0x501d
                           005F00  2706 G$AX5043_0xF00NB$0$0 == 0x5f00
                           005F00  2707 _AX5043_0xF00NB	=	0x5f00
                           005F0C  2708 G$AX5043_0xF0CNB$0$0 == 0x5f0c
                           005F0C  2709 _AX5043_0xF0CNB	=	0x5f0c
                           005F18  2710 G$AX5043_0xF18NB$0$0 == 0x5f18
                           005F18  2711 _AX5043_0xF18NB	=	0x5f18
                           005F1C  2712 G$AX5043_0xF1CNB$0$0 == 0x5f1c
                           005F1C  2713 _AX5043_0xF1CNB	=	0x5f1c
                           005F21  2714 G$AX5043_0xF21NB$0$0 == 0x5f21
                           005F21  2715 _AX5043_0xF21NB	=	0x5f21
                           005F22  2716 G$AX5043_0xF22NB$0$0 == 0x5f22
                           005F22  2717 _AX5043_0xF22NB	=	0x5f22
                           005F23  2718 G$AX5043_0xF23NB$0$0 == 0x5f23
                           005F23  2719 _AX5043_0xF23NB	=	0x5f23
                           005F26  2720 G$AX5043_0xF26NB$0$0 == 0x5f26
                           005F26  2721 _AX5043_0xF26NB	=	0x5f26
                           005F30  2722 G$AX5043_0xF30NB$0$0 == 0x5f30
                           005F30  2723 _AX5043_0xF30NB	=	0x5f30
                           005F31  2724 G$AX5043_0xF31NB$0$0 == 0x5f31
                           005F31  2725 _AX5043_0xF31NB	=	0x5f31
                           005F32  2726 G$AX5043_0xF32NB$0$0 == 0x5f32
                           005F32  2727 _AX5043_0xF32NB	=	0x5f32
                           005F33  2728 G$AX5043_0xF33NB$0$0 == 0x5f33
                           005F33  2729 _AX5043_0xF33NB	=	0x5f33
                           005F34  2730 G$AX5043_0xF34NB$0$0 == 0x5f34
                           005F34  2731 _AX5043_0xF34NB	=	0x5f34
                           005F35  2732 G$AX5043_0xF35NB$0$0 == 0x5f35
                           005F35  2733 _AX5043_0xF35NB	=	0x5f35
                           005F44  2734 G$AX5043_0xF44NB$0$0 == 0x5f44
                           005F44  2735 _AX5043_0xF44NB	=	0x5f44
                           005122  2736 G$AX5043_AGCAHYST0NB$0$0 == 0x5122
                           005122  2737 _AX5043_AGCAHYST0NB	=	0x5122
                           005132  2738 G$AX5043_AGCAHYST1NB$0$0 == 0x5132
                           005132  2739 _AX5043_AGCAHYST1NB	=	0x5132
                           005142  2740 G$AX5043_AGCAHYST2NB$0$0 == 0x5142
                           005142  2741 _AX5043_AGCAHYST2NB	=	0x5142
                           005152  2742 G$AX5043_AGCAHYST3NB$0$0 == 0x5152
                           005152  2743 _AX5043_AGCAHYST3NB	=	0x5152
                           005120  2744 G$AX5043_AGCGAIN0NB$0$0 == 0x5120
                           005120  2745 _AX5043_AGCGAIN0NB	=	0x5120
                           005130  2746 G$AX5043_AGCGAIN1NB$0$0 == 0x5130
                           005130  2747 _AX5043_AGCGAIN1NB	=	0x5130
                           005140  2748 G$AX5043_AGCGAIN2NB$0$0 == 0x5140
                           005140  2749 _AX5043_AGCGAIN2NB	=	0x5140
                           005150  2750 G$AX5043_AGCGAIN3NB$0$0 == 0x5150
                           005150  2751 _AX5043_AGCGAIN3NB	=	0x5150
                           005123  2752 G$AX5043_AGCMINMAX0NB$0$0 == 0x5123
                           005123  2753 _AX5043_AGCMINMAX0NB	=	0x5123
                           005133  2754 G$AX5043_AGCMINMAX1NB$0$0 == 0x5133
                           005133  2755 _AX5043_AGCMINMAX1NB	=	0x5133
                           005143  2756 G$AX5043_AGCMINMAX2NB$0$0 == 0x5143
                           005143  2757 _AX5043_AGCMINMAX2NB	=	0x5143
                           005153  2758 G$AX5043_AGCMINMAX3NB$0$0 == 0x5153
                           005153  2759 _AX5043_AGCMINMAX3NB	=	0x5153
                           005121  2760 G$AX5043_AGCTARGET0NB$0$0 == 0x5121
                           005121  2761 _AX5043_AGCTARGET0NB	=	0x5121
                           005131  2762 G$AX5043_AGCTARGET1NB$0$0 == 0x5131
                           005131  2763 _AX5043_AGCTARGET1NB	=	0x5131
                           005141  2764 G$AX5043_AGCTARGET2NB$0$0 == 0x5141
                           005141  2765 _AX5043_AGCTARGET2NB	=	0x5141
                           005151  2766 G$AX5043_AGCTARGET3NB$0$0 == 0x5151
                           005151  2767 _AX5043_AGCTARGET3NB	=	0x5151
                           00512B  2768 G$AX5043_AMPLITUDEGAIN0NB$0$0 == 0x512b
                           00512B  2769 _AX5043_AMPLITUDEGAIN0NB	=	0x512b
                           00513B  2770 G$AX5043_AMPLITUDEGAIN1NB$0$0 == 0x513b
                           00513B  2771 _AX5043_AMPLITUDEGAIN1NB	=	0x513b
                           00514B  2772 G$AX5043_AMPLITUDEGAIN2NB$0$0 == 0x514b
                           00514B  2773 _AX5043_AMPLITUDEGAIN2NB	=	0x514b
                           00515B  2774 G$AX5043_AMPLITUDEGAIN3NB$0$0 == 0x515b
                           00515B  2775 _AX5043_AMPLITUDEGAIN3NB	=	0x515b
                           00512F  2776 G$AX5043_BBOFFSRES0NB$0$0 == 0x512f
                           00512F  2777 _AX5043_BBOFFSRES0NB	=	0x512f
                           00513F  2778 G$AX5043_BBOFFSRES1NB$0$0 == 0x513f
                           00513F  2779 _AX5043_BBOFFSRES1NB	=	0x513f
                           00514F  2780 G$AX5043_BBOFFSRES2NB$0$0 == 0x514f
                           00514F  2781 _AX5043_BBOFFSRES2NB	=	0x514f
                           00515F  2782 G$AX5043_BBOFFSRES3NB$0$0 == 0x515f
                           00515F  2783 _AX5043_BBOFFSRES3NB	=	0x515f
                           005125  2784 G$AX5043_DRGAIN0NB$0$0 == 0x5125
                           005125  2785 _AX5043_DRGAIN0NB	=	0x5125
                           005135  2786 G$AX5043_DRGAIN1NB$0$0 == 0x5135
                           005135  2787 _AX5043_DRGAIN1NB	=	0x5135
                           005145  2788 G$AX5043_DRGAIN2NB$0$0 == 0x5145
                           005145  2789 _AX5043_DRGAIN2NB	=	0x5145
                           005155  2790 G$AX5043_DRGAIN3NB$0$0 == 0x5155
                           005155  2791 _AX5043_DRGAIN3NB	=	0x5155
                           00512E  2792 G$AX5043_FOURFSK0NB$0$0 == 0x512e
                           00512E  2793 _AX5043_FOURFSK0NB	=	0x512e
                           00513E  2794 G$AX5043_FOURFSK1NB$0$0 == 0x513e
                           00513E  2795 _AX5043_FOURFSK1NB	=	0x513e
                           00514E  2796 G$AX5043_FOURFSK2NB$0$0 == 0x514e
                           00514E  2797 _AX5043_FOURFSK2NB	=	0x514e
                           00515E  2798 G$AX5043_FOURFSK3NB$0$0 == 0x515e
                           00515E  2799 _AX5043_FOURFSK3NB	=	0x515e
                           00512D  2800 G$AX5043_FREQDEV00NB$0$0 == 0x512d
                           00512D  2801 _AX5043_FREQDEV00NB	=	0x512d
                           00513D  2802 G$AX5043_FREQDEV01NB$0$0 == 0x513d
                           00513D  2803 _AX5043_FREQDEV01NB	=	0x513d
                           00514D  2804 G$AX5043_FREQDEV02NB$0$0 == 0x514d
                           00514D  2805 _AX5043_FREQDEV02NB	=	0x514d
                           00515D  2806 G$AX5043_FREQDEV03NB$0$0 == 0x515d
                           00515D  2807 _AX5043_FREQDEV03NB	=	0x515d
                           00512C  2808 G$AX5043_FREQDEV10NB$0$0 == 0x512c
                           00512C  2809 _AX5043_FREQDEV10NB	=	0x512c
                           00513C  2810 G$AX5043_FREQDEV11NB$0$0 == 0x513c
                           00513C  2811 _AX5043_FREQDEV11NB	=	0x513c
                           00514C  2812 G$AX5043_FREQDEV12NB$0$0 == 0x514c
                           00514C  2813 _AX5043_FREQDEV12NB	=	0x514c
                           00515C  2814 G$AX5043_FREQDEV13NB$0$0 == 0x515c
                           00515C  2815 _AX5043_FREQDEV13NB	=	0x515c
                           005127  2816 G$AX5043_FREQUENCYGAINA0NB$0$0 == 0x5127
                           005127  2817 _AX5043_FREQUENCYGAINA0NB	=	0x5127
                           005137  2818 G$AX5043_FREQUENCYGAINA1NB$0$0 == 0x5137
                           005137  2819 _AX5043_FREQUENCYGAINA1NB	=	0x5137
                           005147  2820 G$AX5043_FREQUENCYGAINA2NB$0$0 == 0x5147
                           005147  2821 _AX5043_FREQUENCYGAINA2NB	=	0x5147
                           005157  2822 G$AX5043_FREQUENCYGAINA3NB$0$0 == 0x5157
                           005157  2823 _AX5043_FREQUENCYGAINA3NB	=	0x5157
                           005128  2824 G$AX5043_FREQUENCYGAINB0NB$0$0 == 0x5128
                           005128  2825 _AX5043_FREQUENCYGAINB0NB	=	0x5128
                           005138  2826 G$AX5043_FREQUENCYGAINB1NB$0$0 == 0x5138
                           005138  2827 _AX5043_FREQUENCYGAINB1NB	=	0x5138
                           005148  2828 G$AX5043_FREQUENCYGAINB2NB$0$0 == 0x5148
                           005148  2829 _AX5043_FREQUENCYGAINB2NB	=	0x5148
                           005158  2830 G$AX5043_FREQUENCYGAINB3NB$0$0 == 0x5158
                           005158  2831 _AX5043_FREQUENCYGAINB3NB	=	0x5158
                           005129  2832 G$AX5043_FREQUENCYGAINC0NB$0$0 == 0x5129
                           005129  2833 _AX5043_FREQUENCYGAINC0NB	=	0x5129
                           005139  2834 G$AX5043_FREQUENCYGAINC1NB$0$0 == 0x5139
                           005139  2835 _AX5043_FREQUENCYGAINC1NB	=	0x5139
                           005149  2836 G$AX5043_FREQUENCYGAINC2NB$0$0 == 0x5149
                           005149  2837 _AX5043_FREQUENCYGAINC2NB	=	0x5149
                           005159  2838 G$AX5043_FREQUENCYGAINC3NB$0$0 == 0x5159
                           005159  2839 _AX5043_FREQUENCYGAINC3NB	=	0x5159
                           00512A  2840 G$AX5043_FREQUENCYGAIND0NB$0$0 == 0x512a
                           00512A  2841 _AX5043_FREQUENCYGAIND0NB	=	0x512a
                           00513A  2842 G$AX5043_FREQUENCYGAIND1NB$0$0 == 0x513a
                           00513A  2843 _AX5043_FREQUENCYGAIND1NB	=	0x513a
                           00514A  2844 G$AX5043_FREQUENCYGAIND2NB$0$0 == 0x514a
                           00514A  2845 _AX5043_FREQUENCYGAIND2NB	=	0x514a
                           00515A  2846 G$AX5043_FREQUENCYGAIND3NB$0$0 == 0x515a
                           00515A  2847 _AX5043_FREQUENCYGAIND3NB	=	0x515a
                           005116  2848 G$AX5043_FREQUENCYLEAKNB$0$0 == 0x5116
                           005116  2849 _AX5043_FREQUENCYLEAKNB	=	0x5116
                           005126  2850 G$AX5043_PHASEGAIN0NB$0$0 == 0x5126
                           005126  2851 _AX5043_PHASEGAIN0NB	=	0x5126
                           005136  2852 G$AX5043_PHASEGAIN1NB$0$0 == 0x5136
                           005136  2853 _AX5043_PHASEGAIN1NB	=	0x5136
                           005146  2854 G$AX5043_PHASEGAIN2NB$0$0 == 0x5146
                           005146  2855 _AX5043_PHASEGAIN2NB	=	0x5146
                           005156  2856 G$AX5043_PHASEGAIN3NB$0$0 == 0x5156
                           005156  2857 _AX5043_PHASEGAIN3NB	=	0x5156
                           005207  2858 G$AX5043_PKTADDR0NB$0$0 == 0x5207
                           005207  2859 _AX5043_PKTADDR0NB	=	0x5207
                           005206  2860 G$AX5043_PKTADDR1NB$0$0 == 0x5206
                           005206  2861 _AX5043_PKTADDR1NB	=	0x5206
                           005205  2862 G$AX5043_PKTADDR2NB$0$0 == 0x5205
                           005205  2863 _AX5043_PKTADDR2NB	=	0x5205
                           005204  2864 G$AX5043_PKTADDR3NB$0$0 == 0x5204
                           005204  2865 _AX5043_PKTADDR3NB	=	0x5204
                           005200  2866 G$AX5043_PKTADDRCFGNB$0$0 == 0x5200
                           005200  2867 _AX5043_PKTADDRCFGNB	=	0x5200
                           00520B  2868 G$AX5043_PKTADDRMASK0NB$0$0 == 0x520b
                           00520B  2869 _AX5043_PKTADDRMASK0NB	=	0x520b
                           00520A  2870 G$AX5043_PKTADDRMASK1NB$0$0 == 0x520a
                           00520A  2871 _AX5043_PKTADDRMASK1NB	=	0x520a
                           005209  2872 G$AX5043_PKTADDRMASK2NB$0$0 == 0x5209
                           005209  2873 _AX5043_PKTADDRMASK2NB	=	0x5209
                           005208  2874 G$AX5043_PKTADDRMASK3NB$0$0 == 0x5208
                           005208  2875 _AX5043_PKTADDRMASK3NB	=	0x5208
                           005201  2876 G$AX5043_PKTLENCFGNB$0$0 == 0x5201
                           005201  2877 _AX5043_PKTLENCFGNB	=	0x5201
                           005202  2878 G$AX5043_PKTLENOFFSETNB$0$0 == 0x5202
                           005202  2879 _AX5043_PKTLENOFFSETNB	=	0x5202
                           005203  2880 G$AX5043_PKTMAXLENNB$0$0 == 0x5203
                           005203  2881 _AX5043_PKTMAXLENNB	=	0x5203
                           005118  2882 G$AX5043_RXPARAMCURSETNB$0$0 == 0x5118
                           005118  2883 _AX5043_RXPARAMCURSETNB	=	0x5118
                           005117  2884 G$AX5043_RXPARAMSETSNB$0$0 == 0x5117
                           005117  2885 _AX5043_RXPARAMSETSNB	=	0x5117
                           005124  2886 G$AX5043_TIMEGAIN0NB$0$0 == 0x5124
                           005124  2887 _AX5043_TIMEGAIN0NB	=	0x5124
                           005134  2888 G$AX5043_TIMEGAIN1NB$0$0 == 0x5134
                           005134  2889 _AX5043_TIMEGAIN1NB	=	0x5134
                           005144  2890 G$AX5043_TIMEGAIN2NB$0$0 == 0x5144
                           005144  2891 _AX5043_TIMEGAIN2NB	=	0x5144
                           005154  2892 G$AX5043_TIMEGAIN3NB$0$0 == 0x5154
                           005154  2893 _AX5043_TIMEGAIN3NB	=	0x5154
                           007091  2894 G$AESCONFIG$0$0 == 0x7091
                           007091  2895 _AESCONFIG	=	0x7091
                           007098  2896 G$AESCURBLOCK$0$0 == 0x7098
                           007098  2897 _AESCURBLOCK	=	0x7098
                           007094  2898 G$AESINADDR0$0$0 == 0x7094
                           007094  2899 _AESINADDR0	=	0x7094
                           007095  2900 G$AESINADDR1$0$0 == 0x7095
                           007095  2901 _AESINADDR1	=	0x7095
                           007094  2902 G$AESINADDR$0$0 == 0x7094
                           007094  2903 _AESINADDR	=	0x7094
                           007092  2904 G$AESKEYADDR0$0$0 == 0x7092
                           007092  2905 _AESKEYADDR0	=	0x7092
                           007093  2906 G$AESKEYADDR1$0$0 == 0x7093
                           007093  2907 _AESKEYADDR1	=	0x7093
                           007092  2908 G$AESKEYADDR$0$0 == 0x7092
                           007092  2909 _AESKEYADDR	=	0x7092
                           007090  2910 G$AESMODE$0$0 == 0x7090
                           007090  2911 _AESMODE	=	0x7090
                           007096  2912 G$AESOUTADDR0$0$0 == 0x7096
                           007096  2913 _AESOUTADDR0	=	0x7096
                           007097  2914 G$AESOUTADDR1$0$0 == 0x7097
                           007097  2915 _AESOUTADDR1	=	0x7097
                           007096  2916 G$AESOUTADDR$0$0 == 0x7096
                           007096  2917 _AESOUTADDR	=	0x7096
                           007081  2918 G$RNGBYTE$0$0 == 0x7081
                           007081  2919 _RNGBYTE	=	0x7081
                           007082  2920 G$RNGCLKSRC0$0$0 == 0x7082
                           007082  2921 _RNGCLKSRC0	=	0x7082
                           007083  2922 G$RNGCLKSRC1$0$0 == 0x7083
                           007083  2923 _RNGCLKSRC1	=	0x7083
                           007080  2924 G$RNGMODE$0$0 == 0x7080
                           007080  2925 _RNGMODE	=	0x7080
                           000000  2926 G$randomSet$0$0==.
      000000                       2927 _randomSet::
      000000                       2928 	.ds 3
                           000003  2929 G$siblingSlots$0$0==.
      000003                       2930 _siblingSlots::
      000003                       2931 	.ds 2
                           000005  2932 G$demoPacketBuffer$0$0==.
      000005                       2933 _demoPacketBuffer::
      000005                       2934 	.ds 135
                           00008C  2935 G$premPacketBuffer$0$0==.
      00008C                       2936 _premPacketBuffer::
      00008C                       2937 	.ds 45
                           0000B9  2938 G$msg1_tmr$0$0==.
      0000B9                       2939 _msg1_tmr::
      0000B9                       2940 	.ds 8
                           0000C1  2941 G$msg2_tmr$0$0==.
      0000C1                       2942 _msg2_tmr::
      0000C1                       2943 	.ds 8
                           0000C9  2944 G$msg3_tmr$0$0==.
      0000C9                       2945 _msg3_tmr::
      0000C9                       2946 	.ds 8
                           0000D1  2947 Lpktframing.packetPremFraming$CRC32$1$377==.
      0000D1                       2948 _packetPremFraming_CRC32_1_377:
      0000D1                       2949 	.ds 4
                           0000D5  2950 Lpktframing.packetStdFraming$sib0$1$379==.
      0000D5                       2951 _packetStdFraming_sib0_1_379:
      0000D5                       2952 	.ds 1
                           0000D6  2953 Lpktframing.packetStdFraming$sib1$1$379==.
      0000D6                       2954 _packetStdFraming_sib1_1_379:
      0000D6                       2955 	.ds 1
                           0000D7  2956 Lpktframing.packetStdFraming$CRC32$1$379==.
      0000D7                       2957 _packetStdFraming_CRC32_1_379:
      0000D7                       2958 	.ds 4
                                   2959 ;--------------------------------------------------------
                                   2960 ; absolute external ram data
                                   2961 ;--------------------------------------------------------
                                   2962 	.area XABS    (ABS,XDATA)
                                   2963 ;--------------------------------------------------------
                                   2964 ; external initialized ram data
                                   2965 ;--------------------------------------------------------
                                   2966 	.area XISEG   (XDATA)
                           000000  2967 G$dummyHMAC$0$0==.
      000000                       2968 _dummyHMAC::
      000000                       2969 	.ds 4
                           000004  2970 G$trmID$0$0==.
      000004                       2971 _trmID::
      000004                       2972 	.ds 4
                           000008  2973 G$StdPrem$0$0==.
      000008                       2974 _StdPrem::
      000008                       2975 	.ds 1
                                   2976 	.area HOME    (CODE)
                                   2977 	.area GSINIT0 (CODE)
                                   2978 	.area GSINIT1 (CODE)
                                   2979 	.area GSINIT2 (CODE)
                                   2980 	.area GSINIT3 (CODE)
                                   2981 	.area GSINIT4 (CODE)
                                   2982 	.area GSINIT5 (CODE)
                                   2983 	.area GSINIT  (CODE)
                                   2984 	.area GSFINAL (CODE)
                                   2985 	.area CSEG    (CODE)
                                   2986 ;--------------------------------------------------------
                                   2987 ; global & static initialisations
                                   2988 ;--------------------------------------------------------
                                   2989 	.area HOME    (CODE)
                                   2990 	.area GSINIT  (CODE)
                                   2991 	.area GSFINAL (CODE)
                                   2992 	.area GSINIT  (CODE)
                                   2993 ;--------------------------------------------------------
                                   2994 ; Home
                                   2995 ;--------------------------------------------------------
                                   2996 	.area HOME    (CODE)
                                   2997 	.area HOME    (CODE)
                                   2998 ;--------------------------------------------------------
                                   2999 ; code
                                   3000 ;--------------------------------------------------------
                                   3001 	.area CSEG    (CODE)
                                   3002 ;------------------------------------------------------------
                                   3003 ;Allocation info for local variables in function 'swap_variables'
                                   3004 ;------------------------------------------------------------
                                   3005 ;b                         Allocated with name '_swap_variables_PARM_2'
                                   3006 ;a                         Allocated to registers r5 r6 r7 
                                   3007 ;------------------------------------------------------------
                           000000  3008 	G$swap_variables$0$0 ==.
                           000000  3009 	C$pktframing.c$72$0$0 ==.
                                   3010 ;	pktframing.c:72: void swap_variables(uint8_t *a, uint8_t *b)
